{
    "_format": "hh-sol-artifact-1",
    "contractName": "NewsForumContract",
    "sourceName": "contracts/NewsForum.sol",
    "abi": [
        {
            "inputs": [],
            "stateMutability": "nonpayable",
            "type": "constructor"
        },
        {
            "anonymous": false,
            "inputs": [
                {
                    "indexed": false,
                    "internalType": "uint256",
                    "name": "articleId",
                    "type": "uint256"
                }
            ],
            "name": "ArticleValidated",
            "type": "event"
        },
        {
            "anonymous": false,
            "inputs": [
                {
                    "indexed": false,
                    "internalType": "address",
                    "name": "fromUser",
                    "type": "address"
                },
                {
                    "indexed": false,
                    "internalType": "address",
                    "name": "toUser",
                    "type": "address"
                }
            ],
            "name": "ValidationPowerTransferred",
            "type": "event"
        },
        {
            "anonymous": false,
            "inputs": [
                {
                    "indexed": false,
                    "internalType": "address",
                    "name": "User",
                    "type": "address"
                }
            ],
            "name": "eligibleValidator",
            "type": "event"
        },
        {
            "inputs": [],
            "name": "NUMBER_OF_VALIDATORS",
            "outputs": [
                {
                    "internalType": "uint256",
                    "name": "",
                    "type": "uint256"
                }
            ],
            "stateMutability": "view",
            "type": "function"
        },
        {
            "inputs": [],
            "name": "VALIDATIONS_REQUIRED",
            "outputs": [
                {
                    "internalType": "uint256",
                    "name": "",
                    "type": "uint256"
                }
            ],
            "stateMutability": "view",
            "type": "function"
        },
        {
            "inputs": [
                {
                    "internalType": "string",
                    "name": "_title",
                    "type": "string"
                },
                {
                    "internalType": "string",
                    "name": "_content",
                    "type": "string"
                }
            ],
            "name": "addArticle",
            "outputs": [],
            "stateMutability": "nonpayable",
            "type": "function"
        },
        {
            "inputs": [
                {
                    "internalType": "string",
                    "name": "_name",
                    "type": "string"
                },
                {
                    "internalType": "string",
                    "name": "_email",
                    "type": "string"
                },
                {
                    "internalType": "address",
                    "name": "_wallet",
                    "type": "address"
                }
            ],
            "name": "addNewUser",
            "outputs": [],
            "stateMutability": "nonpayable",
            "type": "function"
        },
        {
            "inputs": [
                {
                    "internalType": "uint256",
                    "name": "",
                    "type": "uint256"
                }
            ],
            "name": "articles",
            "outputs": [
                {
                    "internalType": "uint256",
                    "name": "id",
                    "type": "uint256"
                },
                {
                    "internalType": "string",
                    "name": "title",
                    "type": "string"
                },
                {
                    "internalType": "string",
                    "name": "content",
                    "type": "string"
                },
                {
                    "internalType": "address",
                    "name": "author",
                    "type": "address"
                },
                {
                    "internalType": "bool",
                    "name": "isValidated",
                    "type": "bool"
                },
                {
                    "internalType": "bool",
                    "name": "valid",
                    "type": "bool"
                },
                {
                    "internalType": "uint256",
                    "name": "timestamp",
                    "type": "uint256"
                },
                {
                    "internalType": "bool",
                    "name": "validatorsRewardedUponUpvotes",
                    "type": "bool"
                }
            ],
            "stateMutability": "view",
            "type": "function"
        },
        {
            "inputs": [],
            "name": "displyaAllActiveValidators",
            "outputs": [],
            "stateMutability": "nonpayable",
            "type": "function"
        },
        {
            "inputs": [],
            "name": "displyaAllUsers",
            "outputs": [],
            "stateMutability": "nonpayable",
            "type": "function"
        },
        {
            "inputs": [
                {
                    "internalType": "uint256",
                    "name": "articleId",
                    "type": "uint256"
                }
            ],
            "name": "downvoteArticle",
            "outputs": [],
            "stateMutability": "nonpayable",
            "type": "function"
        },
        {
            "inputs": [],
            "name": "getAllArticles",
            "outputs": [
                {
                    "components": [
                        {
                            "internalType": "uint256",
                            "name": "id",
                            "type": "uint256"
                        },
                        {
                            "internalType": "string",
                            "name": "title",
                            "type": "string"
                        },
                        {
                            "internalType": "string",
                            "name": "content",
                            "type": "string"
                        },
                        {
                            "internalType": "address",
                            "name": "author",
                            "type": "address"
                        },
                        {
                            "internalType": "address[]",
                            "name": "upvotes",
                            "type": "address[]"
                        },
                        {
                            "internalType": "address[]",
                            "name": "downvotes",
                            "type": "address[]"
                        },
                        {
                            "internalType": "address[]",
                            "name": "validators",
                            "type": "address[]"
                        },
                        {
                            "internalType": "bool",
                            "name": "isValidated",
                            "type": "bool"
                        },
                        {
                            "internalType": "bool",
                            "name": "valid",
                            "type": "bool"
                        },
                        {
                            "internalType": "uint256",
                            "name": "timestamp",
                            "type": "uint256"
                        },
                        {
                            "internalType": "bool",
                            "name": "validatorsRewardedUponUpvotes",
                            "type": "bool"
                        }
                    ],
                    "internalType": "struct NewsForumContract.Article[]",
                    "name": "",
                    "type": "tuple[]"
                }
            ],
            "stateMutability": "view",
            "type": "function"
        },
        {
            "inputs": [],
            "name": "getAllArticlesForValidation",
            "outputs": [
                {
                    "components": [
                        {
                            "internalType": "uint256",
                            "name": "id",
                            "type": "uint256"
                        },
                        {
                            "internalType": "string",
                            "name": "title",
                            "type": "string"
                        },
                        {
                            "internalType": "string",
                            "name": "content",
                            "type": "string"
                        },
                        {
                            "internalType": "address",
                            "name": "author",
                            "type": "address"
                        },
                        {
                            "internalType": "address[]",
                            "name": "upvotes",
                            "type": "address[]"
                        },
                        {
                            "internalType": "address[]",
                            "name": "downvotes",
                            "type": "address[]"
                        },
                        {
                            "internalType": "address[]",
                            "name": "validators",
                            "type": "address[]"
                        },
                        {
                            "internalType": "bool",
                            "name": "isValidated",
                            "type": "bool"
                        },
                        {
                            "internalType": "bool",
                            "name": "valid",
                            "type": "bool"
                        },
                        {
                            "internalType": "uint256",
                            "name": "timestamp",
                            "type": "uint256"
                        },
                        {
                            "internalType": "bool",
                            "name": "validatorsRewardedUponUpvotes",
                            "type": "bool"
                        }
                    ],
                    "internalType": "struct NewsForumContract.Article[]",
                    "name": "",
                    "type": "tuple[]"
                }
            ],
            "stateMutability": "view",
            "type": "function"
        },
        {
            "inputs": [],
            "name": "getAllValidatedArticles",
            "outputs": [
                {
                    "components": [
                        {
                            "internalType": "uint256",
                            "name": "id",
                            "type": "uint256"
                        },
                        {
                            "internalType": "string",
                            "name": "title",
                            "type": "string"
                        },
                        {
                            "internalType": "string",
                            "name": "content",
                            "type": "string"
                        },
                        {
                            "internalType": "address",
                            "name": "author",
                            "type": "address"
                        },
                        {
                            "internalType": "address[]",
                            "name": "upvotes",
                            "type": "address[]"
                        },
                        {
                            "internalType": "address[]",
                            "name": "downvotes",
                            "type": "address[]"
                        },
                        {
                            "internalType": "address[]",
                            "name": "validators",
                            "type": "address[]"
                        },
                        {
                            "internalType": "bool",
                            "name": "isValidated",
                            "type": "bool"
                        },
                        {
                            "internalType": "bool",
                            "name": "valid",
                            "type": "bool"
                        },
                        {
                            "internalType": "uint256",
                            "name": "timestamp",
                            "type": "uint256"
                        },
                        {
                            "internalType": "bool",
                            "name": "validatorsRewardedUponUpvotes",
                            "type": "bool"
                        }
                    ],
                    "internalType": "struct NewsForumContract.Article[]",
                    "name": "",
                    "type": "tuple[]"
                }
            ],
            "stateMutability": "view",
            "type": "function"
        },
        {
            "inputs": [
                {
                    "internalType": "uint256",
                    "name": "articleId",
                    "type": "uint256"
                }
            ],
            "name": "getArticleById",
            "outputs": [
                {
                    "components": [
                        {
                            "internalType": "uint256",
                            "name": "id",
                            "type": "uint256"
                        },
                        {
                            "internalType": "string",
                            "name": "title",
                            "type": "string"
                        },
                        {
                            "internalType": "string",
                            "name": "content",
                            "type": "string"
                        },
                        {
                            "internalType": "address",
                            "name": "author",
                            "type": "address"
                        },
                        {
                            "internalType": "address[]",
                            "name": "upvotes",
                            "type": "address[]"
                        },
                        {
                            "internalType": "address[]",
                            "name": "downvotes",
                            "type": "address[]"
                        },
                        {
                            "internalType": "address[]",
                            "name": "validators",
                            "type": "address[]"
                        },
                        {
                            "internalType": "bool",
                            "name": "isValidated",
                            "type": "bool"
                        },
                        {
                            "internalType": "bool",
                            "name": "valid",
                            "type": "bool"
                        },
                        {
                            "internalType": "uint256",
                            "name": "timestamp",
                            "type": "uint256"
                        },
                        {
                            "internalType": "bool",
                            "name": "validatorsRewardedUponUpvotes",
                            "type": "bool"
                        }
                    ],
                    "internalType": "struct NewsForumContract.Article",
                    "name": "",
                    "type": "tuple"
                }
            ],
            "stateMutability": "view",
            "type": "function"
        },
        {
            "inputs": [],
            "name": "getArticleCount",
            "outputs": [
                {
                    "internalType": "uint256",
                    "name": "",
                    "type": "uint256"
                }
            ],
            "stateMutability": "view",
            "type": "function"
        },
        {
            "inputs": [],
            "name": "getMyArticles",
            "outputs": [
                {
                    "components": [
                        {
                            "internalType": "uint256",
                            "name": "id",
                            "type": "uint256"
                        },
                        {
                            "internalType": "string",
                            "name": "title",
                            "type": "string"
                        },
                        {
                            "internalType": "string",
                            "name": "content",
                            "type": "string"
                        },
                        {
                            "internalType": "address",
                            "name": "author",
                            "type": "address"
                        },
                        {
                            "internalType": "address[]",
                            "name": "upvotes",
                            "type": "address[]"
                        },
                        {
                            "internalType": "address[]",
                            "name": "downvotes",
                            "type": "address[]"
                        },
                        {
                            "internalType": "address[]",
                            "name": "validators",
                            "type": "address[]"
                        },
                        {
                            "internalType": "bool",
                            "name": "isValidated",
                            "type": "bool"
                        },
                        {
                            "internalType": "bool",
                            "name": "valid",
                            "type": "bool"
                        },
                        {
                            "internalType": "uint256",
                            "name": "timestamp",
                            "type": "uint256"
                        },
                        {
                            "internalType": "bool",
                            "name": "validatorsRewardedUponUpvotes",
                            "type": "bool"
                        }
                    ],
                    "internalType": "struct NewsForumContract.Article[]",
                    "name": "",
                    "type": "tuple[]"
                }
            ],
            "stateMutability": "view",
            "type": "function"
        },
        {
            "inputs": [
                {
                    "internalType": "uint256",
                    "name": "articleId",
                    "type": "uint256"
                }
            ],
            "name": "getNumberOfDownvotes",
            "outputs": [
                {
                    "internalType": "uint256",
                    "name": "",
                    "type": "uint256"
                }
            ],
            "stateMutability": "view",
            "type": "function"
        },
        {
            "inputs": [
                {
                    "internalType": "uint256",
                    "name": "articleId",
                    "type": "uint256"
                }
            ],
            "name": "getNumberOfUpvotes",
            "outputs": [
                {
                    "internalType": "uint256",
                    "name": "",
                    "type": "uint256"
                }
            ],
            "stateMutability": "view",
            "type": "function"
        },
        {
            "inputs": [
                {
                    "internalType": "uint256",
                    "name": "userId",
                    "type": "uint256"
                }
            ],
            "name": "getUser",
            "outputs": [
                {
                    "components": [
                        {
                            "internalType": "string",
                            "name": "name",
                            "type": "string"
                        },
                        {
                            "internalType": "string",
                            "name": "email",
                            "type": "string"
                        },
                        {
                            "internalType": "address",
                            "name": "userAddress",
                            "type": "address"
                        },
                        {
                            "internalType": "bool",
                            "name": "valid",
                            "type": "bool"
                        },
                        {
                            "internalType": "uint256",
                            "name": "timestamp",
                            "type": "uint256"
                        },
                        {
                            "internalType": "bool",
                            "name": "canBeValidator",
                            "type": "bool"
                        },
                        {
                            "internalType": "uint256",
                            "name": "articlesValidatedSinceLastAppoint",
                            "type": "uint256"
                        },
                        {
                            "internalType": "uint256",
                            "name": "rewardCount",
                            "type": "uint256"
                        },
                        {
                            "internalType": "uint256",
                            "name": "articleValidatedCount",
                            "type": "uint256"
                        }
                    ],
                    "internalType": "struct NewsForumContract.User",
                    "name": "",
                    "type": "tuple"
                }
            ],
            "stateMutability": "view",
            "type": "function"
        },
        {
            "inputs": [],
            "name": "getUserCount",
            "outputs": [
                {
                    "internalType": "uint256",
                    "name": "",
                    "type": "uint256"
                }
            ],
            "stateMutability": "view",
            "type": "function"
        },
        {
            "inputs": [],
            "name": "maxNumberOfActiveValidators",
            "outputs": [
                {
                    "internalType": "uint256",
                    "name": "",
                    "type": "uint256"
                }
            ],
            "stateMutability": "view",
            "type": "function"
        },
        {
            "inputs": [],
            "name": "minArticleValidationsToGetValidatorPower",
            "outputs": [
                {
                    "internalType": "uint256",
                    "name": "",
                    "type": "uint256"
                }
            ],
            "stateMutability": "view",
            "type": "function"
        },
        {
            "inputs": [],
            "name": "rewardToEditorUponArticleValidation",
            "outputs": [
                {
                    "internalType": "uint256",
                    "name": "",
                    "type": "uint256"
                }
            ],
            "stateMutability": "view",
            "type": "function"
        },
        {
            "inputs": [],
            "name": "rewardToValidatorsUponReachingUpvotes",
            "outputs": [
                {
                    "internalType": "uint256",
                    "name": "",
                    "type": "uint256"
                }
            ],
            "stateMutability": "view",
            "type": "function"
        },
        {
            "inputs": [],
            "name": "totalRewardCount",
            "outputs": [
                {
                    "internalType": "uint256",
                    "name": "",
                    "type": "uint256"
                }
            ],
            "stateMutability": "view",
            "type": "function"
        },
        {
            "inputs": [
                {
                    "internalType": "uint256",
                    "name": "articleId",
                    "type": "uint256"
                },
                {
                    "internalType": "string",
                    "name": "_title",
                    "type": "string"
                },
                {
                    "internalType": "string",
                    "name": "_content",
                    "type": "string"
                }
            ],
            "name": "updateArticle",
            "outputs": [],
            "stateMutability": "nonpayable",
            "type": "function"
        },
        {
            "inputs": [
                {
                    "internalType": "string",
                    "name": "_name",
                    "type": "string"
                },
                {
                    "internalType": "string",
                    "name": "_email",
                    "type": "string"
                }
            ],
            "name": "updateUser",
            "outputs": [],
            "stateMutability": "nonpayable",
            "type": "function"
        },
        {
            "inputs": [],
            "name": "updateValidators",
            "outputs": [],
            "stateMutability": "nonpayable",
            "type": "function"
        },
        {
            "inputs": [
                {
                    "internalType": "uint256",
                    "name": "articleId",
                    "type": "uint256"
                }
            ],
            "name": "upvoteArticle",
            "outputs": [],
            "stateMutability": "nonpayable",
            "type": "function"
        },
        {
            "inputs": [],
            "name": "upvotesCountForAwardToValidator",
            "outputs": [
                {
                    "internalType": "uint256",
                    "name": "",
                    "type": "uint256"
                }
            ],
            "stateMutability": "view",
            "type": "function"
        },
        {
            "inputs": [
                {
                    "internalType": "uint256",
                    "name": "",
                    "type": "uint256"
                }
            ],
            "name": "users",
            "outputs": [
                {
                    "internalType": "string",
                    "name": "name",
                    "type": "string"
                },
                {
                    "internalType": "string",
                    "name": "email",
                    "type": "string"
                },
                {
                    "internalType": "address",
                    "name": "userAddress",
                    "type": "address"
                },
                {
                    "internalType": "bool",
                    "name": "valid",
                    "type": "bool"
                },
                {
                    "internalType": "uint256",
                    "name": "timestamp",
                    "type": "uint256"
                },
                {
                    "internalType": "bool",
                    "name": "canBeValidator",
                    "type": "bool"
                },
                {
                    "internalType": "uint256",
                    "name": "articlesValidatedSinceLastAppoint",
                    "type": "uint256"
                },
                {
                    "internalType": "uint256",
                    "name": "rewardCount",
                    "type": "uint256"
                },
                {
                    "internalType": "uint256",
                    "name": "articleValidatedCount",
                    "type": "uint256"
                }
            ],
            "stateMutability": "view",
            "type": "function"
        },
        {
            "inputs": [
                {
                    "internalType": "uint256",
                    "name": "articleId",
                    "type": "uint256"
                }
            ],
            "name": "validateArticle",
            "outputs": [],
            "stateMutability": "nonpayable",
            "type": "function"
        }
    ],
    "bytecode": "0x608060405260008055600a6001553480156200001a57600080fd5b5033600260006101000a81548173ffffffffffffffffffffffffffffffffffffffff021916908373ffffffffffffffffffffffffffffffffffffffff16021790555060036040518061012001604052806040518060400160405280600581526020017f4f776e657200000000000000000000000000000000000000000000000000000081525081526020016040518060400160405280600f81526020017f6f776e657240676d61696c2e636f6d000000000000000000000000000000000081525081526020013373ffffffffffffffffffffffffffffffffffffffff1681526020016001151581526020014281526020016001151581526020016000815260200160008152602001600081525090806001815401808255809150506001900390600052602060002090600802016000909190919091506000820151816000019081620001679190620008c9565b5060208201518160010190816200017f9190620008c9565b5060408201518160020160006101000a81548173ffffffffffffffffffffffffffffffffffffffff021916908373ffffffffffffffffffffffffffffffffffffffff16021790555060608201518160020160146101000a81548160ff0219169083151502179055506080820151816003015560a08201518160040160006101000a81548160ff02191690831515021790555060c0820151816005015560e08201518160060155610100820151816007015550506001600860003373ffffffffffffffffffffffffffffffffffffffff1673ffffffffffffffffffffffffffffffffffffffff16815260200190815260200160002060006101000a81548160ff0219169083151502179055506006604051806101600160405280600081526020016040518060400160405280600f81526020017f496e76616c69642041727469636c6500000000000000000000000000000000008152508152602001604051806020016040528060008152508152602001600073ffffffffffffffffffffffffffffffffffffffff168152602001600067ffffffffffffffff8111156200032a57620003296200065a565b5b604051908082528060200260200182016040528015620003595781602001602082028036833780820191505090505b508152602001600067ffffffffffffffff8111156200037d576200037c6200065a565b5b604051908082528060200260200182016040528015620003ac5781602001602082028036833780820191505090505b508152602001600067ffffffffffffffff811115620003d057620003cf6200065a565b5b604051908082528060200260200182016040528015620003ff5781602001602082028036833780820191505090505b508152602001600015158152602001600015158152602001600081526020016000151581525090806001815401808255809150506001900390600052602060002090600a02016000909190919091506000820151816000015560208201518160010190816200046f9190620008c9565b506040820151816002019081620004879190620008c9565b5060608201518160030160006101000a81548173ffffffffffffffffffffffffffffffffffffffff021916908373ffffffffffffffffffffffffffffffffffffffff1602179055506080820151816004019080519060200190620004ed929190620005a1565b5060a08201518160050190805190602001906200050c929190620005a1565b5060c08201518160060190805190602001906200052b929190620005a1565b5060e08201518160070160006101000a81548160ff0219169083151502179055506101008201518160070160016101000a81548160ff02191690831515021790555061012082015181600801556101408201518160090160006101000a81548160ff0219169083151502179055505050620009b0565b8280548282559060005260206000209081019282156200061d579160200282015b828111156200061c5782518260006101000a81548173ffffffffffffffffffffffffffffffffffffffff021916908373ffffffffffffffffffffffffffffffffffffffff16021790555091602001919060010190620005c2565b5b5090506200062c919062000630565b5090565b5b808211156200064b57600081600090555060010162000631565b5090565b600081519050919050565b7f4e487b7100000000000000000000000000000000000000000000000000000000600052604160045260246000fd5b7f4e487b7100000000000000000000000000000000000000000000000000000000600052602260045260246000fd5b60006002820490506001821680620006d157607f821691505b602082108103620006e757620006e662000689565b5b50919050565b60008190508160005260206000209050919050565b60006020601f8301049050919050565b600082821b905092915050565b600060088302620007517fffffffffffffffffffffffffffffffffffffffffffffffffffffffffffffffff8262000712565b6200075d868362000712565b95508019841693508086168417925050509392505050565b6000819050919050565b6000819050919050565b6000620007aa620007a46200079e8462000775565b6200077f565b62000775565b9050919050565b6000819050919050565b620007c68362000789565b620007de620007d582620007b1565b8484546200071f565b825550505050565b600090565b620007f5620007e6565b62000802818484620007bb565b505050565b5b818110156200082a576200081e600082620007eb565b60018101905062000808565b5050565b601f82111562000879576200084381620006ed565b6200084e8462000702565b810160208510156200085e578190505b620008766200086d8562000702565b83018262000807565b50505b505050565b600082821c905092915050565b60006200089e600019846008026200087e565b1980831691505092915050565b6000620008b983836200088b565b9150826002028217905092915050565b620008d4826200064f565b67ffffffffffffffff811115620008f057620008ef6200065a565b5b620008fc8254620006b8565b620009098282856200082e565b600060209050601f8311600181146200094157600084156200092c578287015190505b620009388582620008ab565b865550620009a8565b601f1984166200095186620006ed565b60005b828110156200097b5784890151825560018201915060208501945060208101905062000954565b868310156200099b578489015162000997601f8916826200088b565b8355505b6001600288020188555050505b505050505050565b615f6880620009c06000396000f3fe608060405234801561001057600080fd5b50600436106101da5760003560e01c8063b44d310b11610104578063db731777116100a2578063eb9f825a11610071578063eb9f825a146104f1578063ec09e6ad1461050f578063edcfafe61461053f578063fc8b510814610576576101da565b8063db7317771461047d578063dc19628e1461049b578063dd4a2425146104b7578063e899d5ff146104d3576101da565b8063bdae5af7116100de578063bdae5af71461041b578063c8cb48de14610425578063cdbdb31a14610443578063ce45032e14610461576101da565b8063b44d310b146103c1578063b5cb15f7146103df578063b5df05fc146103fd576101da565b80636e3461131161017c578063892cd3991161014b578063892cd3991461032757806395de673614610345578063a217de6014610375578063b0467deb14610391576101da565b80636e346113146102b35780636ec67ec9146102d15780638342fb43146102ed578063886704121461030b576101da565b80632ecb8cb4116101b85780632ecb8cb414610223578063365b98b214610241578063390f1eef14610279578063641cabec14610295576101da565b806305e095b6146101df5780632d169b79146101e95780632d497ba214610219575b600080fd5b6101e7610594565b005b61020360048036038101906101fe9190614a1f565b610596565b6040516102109190614a5b565b60405180910390f35b6102216105c8565b005b61022b61065a565b6040516102389190614a5b565b60405180910390f35b61025b60048036038101906102569190614a1f565b61065f565b60405161027099989796959493929190614b62565b60405180910390f35b610293600480360381019061028e9190614d5e565b610807565b005b61029d610b14565b6040516102aa91906150dc565b60405180910390f35b6102bb611059565b6040516102c89190614a5b565b60405180910390f35b6102eb60048036038101906102e691906150fe565b61105e565b005b6102f561142b565b6040516103029190614a5b565b60405180910390f35b61032560048036038101906103209190615176565b611430565b005b61032f611697565b60405161033c9190614a5b565b60405180910390f35b61035f600480360381019061035a9190614a1f565b61169c565b60405161036c919061530c565b60405180910390f35b61038f600480360381019061038a9190614a1f565b611adb565b005b6103ab60048036038101906103a69190614a1f565b611fac565b6040516103b891906153fa565b60405180910390f35b6103c961223a565b6040516103d691906150dc565b60405180910390f35b6103e7612623565b6040516103f49190614a5b565b60405180910390f35b610405612630565b60405161041291906150dc565b60405180910390f35b610423612bd4565b005b61042d612bd6565b60405161043a91906150dc565b60405180910390f35b61044b613088565b6040516104589190614a5b565b60405180910390f35b61047b60048036038101906104769190614a1f565b61308e565b005b6104856134a4565b6040516104929190614a5b565b60405180910390f35b6104b560048036038101906104b09190614a1f565b6134a9565b005b6104d160048036038101906104cc91906150fe565b613cb7565b005b6104db613ec0565b6040516104e89190614a5b565b60405180910390f35b6104f9613ecd565b6040516105069190614a5b565b60405180910390f35b61052960048036038101906105249190614a1f565b613ed3565b6040516105369190614a5b565b60405180910390f35b61055960048036038101906105549190614a1f565b613f05565b60405161056d98979695949392919061541c565b60405180910390f35b61057e6140b4565b60405161058b9190614a5b565b60405180910390f35b565b6000600682815481106105ac576105ab6154a8565b5b90600052602060002090600a0201600401805490509050919050565b600260009054906101000a900473ffffffffffffffffffffffffffffffffffffffff1673ffffffffffffffffffffffffffffffffffffffff163373ffffffffffffffffffffffffffffffffffffffff1614610658576040517f08c379a000000000000000000000000000000000000000000000000000000000815260040161064f90615549565b60405180910390fd5b565b600181565b6003818154811061066f57600080fd5b906000526020600020906008020160009150905080600001805461069290615598565b80601f01602080910402602001604051908101604052809291908181526020018280546106be90615598565b801561070b5780601f106106e05761010080835404028352916020019161070b565b820191906000526020600020905b8154815290600101906020018083116106ee57829003601f168201915b50505050509080600101805461072090615598565b80601f016020809104026020016040519081016040528092919081815260200182805461074c90615598565b80156107995780601f1061076e57610100808354040283529160200191610799565b820191906000526020600020905b81548152906001019060200180831161077c57829003601f168201915b5050505050908060020160009054906101000a900473ffffffffffffffffffffffffffffffffffffffff16908060020160149054906101000a900460ff16908060030154908060040160009054906101000a900460ff16908060050154908060060154908060070154905089565b600260009054906101000a900473ffffffffffffffffffffffffffffffffffffffff1673ffffffffffffffffffffffffffffffffffffffff163373ffffffffffffffffffffffffffffffffffffffff1614610897576040517f08c379a000000000000000000000000000000000000000000000000000000000815260040161088e90615549565b60405180910390fd5b60036040518061012001604052808581526020018481526020018373ffffffffffffffffffffffffffffffffffffffff16815260200160011515815260200142815260200160001515815260200160008152602001600081526020016000815250908060018154018082558091505060019003906000526020600020906008020160009091909190915060008201518160000190816109369190615775565b50602082015181600101908161094c9190615775565b5060408201518160020160006101000a81548173ffffffffffffffffffffffffffffffffffffffff021916908373ffffffffffffffffffffffffffffffffffffffff16021790555060608201518160020160146101000a81548160ff0219169083151502179055506080820151816003015560a08201518160040160006101000a81548160ff02191690831515021790555060c0820151816005015560e08201518160060155610100820151816007015550506000600860003373ffffffffffffffffffffffffffffffffffffffff1673ffffffffffffffffffffffffffffffffffffffff16815260200190815260200160002060006101000a81548160ff0219169083151502179055506001600380549050610a699190615876565b600460008373ffffffffffffffffffffffffffffffffffffffff1673ffffffffffffffffffffffffffffffffffffffff1681526020019081526020016000208190555080600560006001600380549050610ac39190615876565b815260200190815260200160002060006101000a81548173ffffffffffffffffffffffffffffffffffffffff021916908373ffffffffffffffffffffffffffffffffffffffff160217905550505050565b606060011515600860003373ffffffffffffffffffffffffffffffffffffffff1673ffffffffffffffffffffffffffffffffffffffff16815260200190815260200160002060009054906101000a900460ff16151514610ba9576040517f08c379a0000000000000000000000000000000000000000000000000000000008152600401610ba09061591c565b60405180910390fd5b600060068054905067ffffffffffffffff811115610bca57610bc9614c07565b5b604051908082528060200260200182016040528015610c0357816020015b610bf0614852565b815260200190600190039081610be85790505b509050600080600190505b600680549050811015611050576000151560068281548110610c3357610c326154a8565b5b90600052602060002090600a020160070160009054906101000a900460ff1615150361103d5760068181548110610c6d57610c6c6154a8565b5b90600052602060002090600a02016040518061016001604052908160008201548152602001600182018054610ca190615598565b80601f0160208091040260200160405190810160405280929190818152602001828054610ccd90615598565b8015610d1a5780601f10610cef57610100808354040283529160200191610d1a565b820191906000526020600020905b815481529060010190602001808311610cfd57829003601f168201915b50505050508152602001600282018054610d3390615598565b80601f0160208091040260200160405190810160405280929190818152602001828054610d5f90615598565b8015610dac5780601f10610d8157610100808354040283529160200191610dac565b820191906000526020600020905b815481529060010190602001808311610d8f57829003601f168201915b505050505081526020016003820160009054906101000a900473ffffffffffffffffffffffffffffffffffffffff1673ffffffffffffffffffffffffffffffffffffffff1673ffffffffffffffffffffffffffffffffffffffff16815260200160048201805480602002602001604051908101604052809291908181526020018280548015610e9057602002820191906000526020600020905b8160009054906101000a900473ffffffffffffffffffffffffffffffffffffffff1673ffffffffffffffffffffffffffffffffffffffff1681526020019060010190808311610e46575b5050505050815260200160058201805480602002602001604051908101604052809291908181526020018280548015610f1e57602002820191906000526020600020905b8160009054906101000a900473ffffffffffffffffffffffffffffffffffffffff1673ffffffffffffffffffffffffffffffffffffffff1681526020019060010190808311610ed4575b5050505050815260200160068201805480602002602001604051908101604052809291908181526020018280548015610fac57602002820191906000526020600020905b8160009054906101000a900473ffffffffffffffffffffffffffffffffffffffff1673ffffffffffffffffffffffffffffffffffffffff1681526020019060010190808311610f62575b505050505081526020016007820160009054906101000a900460ff161515151581526020016007820160019054906101000a900460ff16151515158152602001600882015481526020016009820160009054906101000a900460ff161515151581525050838381518110611023576110226154a8565b5b602002602001018190525081806110399061593c565b9250505b80806110489061593c565b915050610c0e565b50819250505090565b600a81565b600115156003600460003373ffffffffffffffffffffffffffffffffffffffff1673ffffffffffffffffffffffffffffffffffffffff16815260200190815260200160002054815481106110b5576110b46154a8565b5b906000526020600020906008020160020160149054906101000a900460ff16151514611116576040517f08c379a000000000000000000000000000000000000000000000000000000000815260040161110d906159f6565b60405180910390fd5b6000600680549050905060066040518061016001604052808381526020018581526020018481526020013373ffffffffffffffffffffffffffffffffffffffff168152602001600067ffffffffffffffff81111561117757611176614c07565b5b6040519080825280602002602001820160405280156111a55781602001602082028036833780820191505090505b508152602001600067ffffffffffffffff8111156111c6576111c5614c07565b5b6040519080825280602002602001820160405280156111f45781602001602082028036833780820191505090505b508152602001600067ffffffffffffffff81111561121557611214614c07565b5b6040519080825280602002602001820160405280156112435781602001602082028036833780820191505090505b5081526020016000151581526020016001151581526020014281526020016000151581525090806001815401808255809150506001900390600052602060002090600a02016000909190919091506000820151816000015560208201518160010190816112b09190615775565b5060408201518160020190816112c69190615775565b5060608201518160030160006101000a81548173ffffffffffffffffffffffffffffffffffffffff021916908373ffffffffffffffffffffffffffffffffffffffff160217905550608082015181600401908051906020019061132a9291906148c8565b5060a08201518160050190805190602001906113479291906148c8565b5060c08201518160060190805190602001906113649291906148c8565b5060e08201518160070160006101000a81548160ff0219169083151502179055506101008201518160070160016101000a81548160ff02191690831515021790555061012082015181600801556101408201518160090160006101000a81548160ff0219169083151502179055505050336007600083815260200190815260200160002060006101000a81548173ffffffffffffffffffffffffffffffffffffffff021916908373ffffffffffffffffffffffffffffffffffffffff160217905550505050565b600481565b600115156003600460003373ffffffffffffffffffffffffffffffffffffffff1673ffffffffffffffffffffffffffffffffffffffff1681526020019081526020016000205481548110611487576114866154a8565b5b906000526020600020906008020160020160149054906101000a900460ff161515146114e8576040517f08c379a00000000000000000000000000000000000000000000000000000000081526004016114df906159f6565b60405180910390fd5b3373ffffffffffffffffffffffffffffffffffffffff166007600085815260200190815260200160002060009054906101000a900473ffffffffffffffffffffffffffffffffffffffff1673ffffffffffffffffffffffffffffffffffffffff1614611589576040517f08c379a000000000000000000000000000000000000000000000000000000000815260040161158090615a88565b60405180910390fd5b60011515600684815481106115a1576115a06154a8565b5b90600052602060002090600a020160070160019054906101000a900460ff16151514611602576040517f08c379a00000000000000000000000000000000000000000000000000000000081526004016115f990615af4565b60405180910390fd5b8160068481548110611617576116166154a8565b5b90600052602060002090600a020160010190816116349190615775565b50806006848154811061164a576116496154a8565b5b90600052602060002090600a020160020190816116679190615775565b50426006848154811061167d5761167c6154a8565b5b90600052602060002090600a020160080181905550505050565b600581565b6116a4614852565b60011515600683815481106116bc576116bb6154a8565b5b90600052602060002090600a020160070160019054906101000a900460ff1615151461171d576040517f08c379a000000000000000000000000000000000000000000000000000000000815260040161171490615af4565b60405180910390fd5b60068281548110611731576117306154a8565b5b90600052602060002090600a0201604051806101600160405290816000820154815260200160018201805461176590615598565b80601f016020809104026020016040519081016040528092919081815260200182805461179190615598565b80156117de5780601f106117b3576101008083540402835291602001916117de565b820191906000526020600020905b8154815290600101906020018083116117c157829003601f168201915b505050505081526020016002820180546117f790615598565b80601f016020809104026020016040519081016040528092919081815260200182805461182390615598565b80156118705780601f1061184557610100808354040283529160200191611870565b820191906000526020600020905b81548152906001019060200180831161185357829003601f168201915b505050505081526020016003820160009054906101000a900473ffffffffffffffffffffffffffffffffffffffff1673ffffffffffffffffffffffffffffffffffffffff1673ffffffffffffffffffffffffffffffffffffffff1681526020016004820180548060200260200160405190810160405280929190818152602001828054801561195457602002820191906000526020600020905b8160009054906101000a900473ffffffffffffffffffffffffffffffffffffffff1673ffffffffffffffffffffffffffffffffffffffff168152602001906001019080831161190a575b50505050508152602001600582018054806020026020016040519081016040528092919081815260200182805480156119e257602002820191906000526020600020905b8160009054906101000a900473ffffffffffffffffffffffffffffffffffffffff1673ffffffffffffffffffffffffffffffffffffffff1681526020019060010190808311611998575b5050505050815260200160068201805480602002602001604051908101604052809291908181526020018280548015611a7057602002820191906000526020600020905b8160009054906101000a900473ffffffffffffffffffffffffffffffffffffffff1673ffffffffffffffffffffffffffffffffffffffff1681526020019060010190808311611a26575b505050505081526020016007820160009054906101000a900460ff161515151581526020016007820160019054906101000a900460ff16151515158152602001600882015481526020016009820160009054906101000a900460ff1615151515815250509050919050565b600115156003600460003373ffffffffffffffffffffffffffffffffffffffff1673ffffffffffffffffffffffffffffffffffffffff1681526020019081526020016000205481548110611b3257611b316154a8565b5b906000526020600020906008020160020160149054906101000a900460ff16151514611b93576040517f08c379a0000000000000000000000000000000000000000000000000000000008152600401611b8a906159f6565b60405180910390fd5b6001151560068281548110611bab57611baa6154a8565b5b90600052602060002090600a020160070160019054906101000a900460ff16151514611c0c576040517f08c379a0000000000000000000000000000000000000000000000000000000008152600401611c0390615af4565b60405180910390fd5b60005b60068281548110611c2357611c226154a8565b5b90600052602060002090600a020160040180549050811015611d21573373ffffffffffffffffffffffffffffffffffffffff1660068381548110611c6a57611c696154a8565b5b90600052602060002090600a02016004018281548110611c8d57611c8c6154a8565b5b9060005260206000200160009054906101000a900473ffffffffffffffffffffffffffffffffffffffff1673ffffffffffffffffffffffffffffffffffffffff1603611d0e576040517f08c379a0000000000000000000000000000000000000000000000000000000008152600401611d0590615b86565b60405180910390fd5b8080611d199061593c565b915050611c0f565b5060005b60068281548110611d3957611d386154a8565b5b90600052602060002090600a020160050180549050811015611e66573373ffffffffffffffffffffffffffffffffffffffff1660068381548110611d8057611d7f6154a8565b5b90600052602060002090600a02016005018281548110611da357611da26154a8565b5b9060005260206000200160009054906101000a900473ffffffffffffffffffffffffffffffffffffffff1673ffffffffffffffffffffffffffffffffffffffff1603611e535760068281548110611dfd57611dfc6154a8565b5b90600052602060002090600a02016005018181548110611e2057611e1f6154a8565b5b9060005260206000200160006101000a81549073ffffffffffffffffffffffffffffffffffffffff021916905550611fa9565b8080611e5e9061593c565b915050611d25565b5060068181548110611e7b57611e7a6154a8565b5b90600052602060002090600a0201600401339080600181540180825580915050600190039060005260206000200160009091909190916101000a81548173ffffffffffffffffffffffffffffffffffffffff021916908373ffffffffffffffffffffffffffffffffffffffff1602179055506000151560068281548110611f0557611f046154a8565b5b90600052602060002090600a020160090160009054906101000a900460ff161515148015611f5b5750600560068281548110611f4457611f436154a8565b5b90600052602060002090600a020160040180549050145b15611fa857611f69816140b9565b600160068281548110611f7f57611f7e6154a8565b5b90600052602060002090600a020160090160006101000a81548160ff0219169083151502179055505b5b50565b611fb4614952565b6001151560038381548110611fcc57611fcb6154a8565b5b906000526020600020906008020160020160149054906101000a900460ff1615151461202d576040517f08c379a000000000000000000000000000000000000000000000000000000000815260040161202490615bf2565b60405180910390fd5b60038281548110612041576120406154a8565b5b90600052602060002090600802016040518061012001604052908160008201805461206b90615598565b80601f016020809104026020016040519081016040528092919081815260200182805461209790615598565b80156120e45780601f106120b9576101008083540402835291602001916120e4565b820191906000526020600020905b8154815290600101906020018083116120c757829003601f168201915b505050505081526020016001820180546120fd90615598565b80601f016020809104026020016040519081016040528092919081815260200182805461212990615598565b80156121765780601f1061214b57610100808354040283529160200191612176565b820191906000526020600020905b81548152906001019060200180831161215957829003601f168201915b505050505081526020016002820160009054906101000a900473ffffffffffffffffffffffffffffffffffffffff1673ffffffffffffffffffffffffffffffffffffffff1673ffffffffffffffffffffffffffffffffffffffff1681526020016002820160149054906101000a900460ff16151515158152602001600382015481526020016004820160009054906101000a900460ff1615151515815260200160058201548152602001600682015481526020016007820154815250509050919050565b60606006805480602002602001604051908101604052809291908181526020016000905b8282101561261a57838290600052602060002090600a0201604051806101600160405290816000820154815260200160018201805461229c90615598565b80601f01602080910402602001604051908101604052809291908181526020018280546122c890615598565b80156123155780601f106122ea57610100808354040283529160200191612315565b820191906000526020600020905b8154815290600101906020018083116122f857829003601f168201915b5050505050815260200160028201805461232e90615598565b80601f016020809104026020016040519081016040528092919081815260200182805461235a90615598565b80156123a75780601f1061237c576101008083540402835291602001916123a7565b820191906000526020600020905b81548152906001019060200180831161238a57829003601f168201915b505050505081526020016003820160009054906101000a900473ffffffffffffffffffffffffffffffffffffffff1673ffffffffffffffffffffffffffffffffffffffff1673ffffffffffffffffffffffffffffffffffffffff1681526020016004820180548060200260200160405190810160405280929190818152602001828054801561248b57602002820191906000526020600020905b8160009054906101000a900473ffffffffffffffffffffffffffffffffffffffff1673ffffffffffffffffffffffffffffffffffffffff1681526020019060010190808311612441575b505050505081526020016005820180548060200260200160405190810160405280929190818152602001828054801561251957602002820191906000526020600020905b8160009054906101000a900473ffffffffffffffffffffffffffffffffffffffff1673ffffffffffffffffffffffffffffffffffffffff16815260200190600101908083116124cf575b50505050508152602001600682018054806020026020016040519081016040528092919081815260200182805480156125a757602002820191906000526020600020905b8160009054906101000a900473ffffffffffffffffffffffffffffffffffffffff1673ffffffffffffffffffffffffffffffffffffffff168152602001906001019080831161255d575b505050505081526020016007820160009054906101000a900460ff161515151581526020016007820160019054906101000a900460ff16151515158152602001600882015481526020016009820160009054906101000a900460ff1615151515815250508152602001906001019061225e565b50505050905090565b6000600380549050905090565b6060600115156003600460003373ffffffffffffffffffffffffffffffffffffffff1673ffffffffffffffffffffffffffffffffffffffff1681526020019081526020016000205481548110612689576126886154a8565b5b906000526020600020906008020160020160149054906101000a900460ff161515146126ea576040517f08c379a00000000000000000000000000000000000000000000000000000000081526004016126e1906159f6565b60405180910390fd5b600060068054905067ffffffffffffffff81111561270b5761270a614c07565b5b60405190808252806020026020018201604052801561274457816020015b612731614852565b8152602001906001900390816127295790505b509050600080600190505b600680549050811015612bcb573373ffffffffffffffffffffffffffffffffffffffff1660068281548110612787576127866154a8565b5b90600052602060002090600a020160030160009054906101000a900473ffffffffffffffffffffffffffffffffffffffff1673ffffffffffffffffffffffffffffffffffffffff1603612bb857600681815481106127e8576127e76154a8565b5b90600052602060002090600a0201604051806101600160405290816000820154815260200160018201805461281c90615598565b80601f016020809104026020016040519081016040528092919081815260200182805461284890615598565b80156128955780601f1061286a57610100808354040283529160200191612895565b820191906000526020600020905b81548152906001019060200180831161287857829003601f168201915b505050505081526020016002820180546128ae90615598565b80601f01602080910402602001604051908101604052809291908181526020018280546128da90615598565b80156129275780601f106128fc57610100808354040283529160200191612927565b820191906000526020600020905b81548152906001019060200180831161290a57829003601f168201915b505050505081526020016003820160009054906101000a900473ffffffffffffffffffffffffffffffffffffffff1673ffffffffffffffffffffffffffffffffffffffff1673ffffffffffffffffffffffffffffffffffffffff16815260200160048201805480602002602001604051908101604052809291908181526020018280548015612a0b57602002820191906000526020600020905b8160009054906101000a900473ffffffffffffffffffffffffffffffffffffffff1673ffffffffffffffffffffffffffffffffffffffff16815260200190600101908083116129c1575b5050505050815260200160058201805480602002602001604051908101604052809291908181526020018280548015612a9957602002820191906000526020600020905b8160009054906101000a900473ffffffffffffffffffffffffffffffffffffffff1673ffffffffffffffffffffffffffffffffffffffff1681526020019060010190808311612a4f575b5050505050815260200160068201805480602002602001604051908101604052809291908181526020018280548015612b2757602002820191906000526020600020905b8160009054906101000a900473ffffffffffffffffffffffffffffffffffffffff1673ffffffffffffffffffffffffffffffffffffffff1681526020019060010190808311612add575b505050505081526020016007820160009054906101000a900460ff161515151581526020016007820160019054906101000a900460ff16151515158152602001600882015481526020016009820160009054906101000a900460ff161515151581525050838381518110612b9e57612b9d6154a8565b5b60200260200101819052508180612bb49061593c565b9250505b8080612bc39061593c565b91505061274f565b50819250505090565b565b6060600060068054905067ffffffffffffffff811115612bf957612bf8614c07565b5b604051908082528060200260200182016040528015612c3257816020015b612c1f614852565b815260200190600190039081612c175790505b509050600080600190505b60068054905081101561307f576001151560068281548110612c6257612c616154a8565b5b90600052602060002090600a020160070160009054906101000a900460ff1615150361306c5760068181548110612c9c57612c9b6154a8565b5b90600052602060002090600a02016040518061016001604052908160008201548152602001600182018054612cd090615598565b80601f0160208091040260200160405190810160405280929190818152602001828054612cfc90615598565b8015612d495780601f10612d1e57610100808354040283529160200191612d49565b820191906000526020600020905b815481529060010190602001808311612d2c57829003601f168201915b50505050508152602001600282018054612d6290615598565b80601f0160208091040260200160405190810160405280929190818152602001828054612d8e90615598565b8015612ddb5780601f10612db057610100808354040283529160200191612ddb565b820191906000526020600020905b815481529060010190602001808311612dbe57829003601f168201915b505050505081526020016003820160009054906101000a900473ffffffffffffffffffffffffffffffffffffffff1673ffffffffffffffffffffffffffffffffffffffff1673ffffffffffffffffffffffffffffffffffffffff16815260200160048201805480602002602001604051908101604052809291908181526020018280548015612ebf57602002820191906000526020600020905b8160009054906101000a900473ffffffffffffffffffffffffffffffffffffffff1673ffffffffffffffffffffffffffffffffffffffff1681526020019060010190808311612e75575b5050505050815260200160058201805480602002602001604051908101604052809291908181526020018280548015612f4d57602002820191906000526020600020905b8160009054906101000a900473ffffffffffffffffffffffffffffffffffffffff1673ffffffffffffffffffffffffffffffffffffffff1681526020019060010190808311612f03575b5050505050815260200160068201805480602002602001604051908101604052809291908181526020018280548015612fdb57602002820191906000526020600020905b8160009054906101000a900473ffffffffffffffffffffffffffffffffffffffff1673ffffffffffffffffffffffffffffffffffffffff1681526020019060010190808311612f91575b505050505081526020016007820160009054906101000a900460ff161515151581526020016007820160019054906101000a900460ff16151515158152602001600882015481526020016009820160009054906101000a900460ff161515151581525050838381518110613052576130516154a8565b5b602002602001018190525081806130689061593c565b9250505b80806130779061593c565b915050612c3d565b50819250505090565b60005481565b600115156003600460003373ffffffffffffffffffffffffffffffffffffffff1673ffffffffffffffffffffffffffffffffffffffff16815260200190815260200160002054815481106130e5576130e46154a8565b5b906000526020600020906008020160020160149054906101000a900460ff16151514613146576040517f08c379a000000000000000000000000000000000000000000000000000000000815260040161313d906159f6565b60405180910390fd5b600115156006828154811061315e5761315d6154a8565b5b90600052602060002090600a020160070160019054906101000a900460ff161515146131bf576040517f08c379a00000000000000000000000000000000000000000000000000000000081526004016131b690615af4565b60405180910390fd5b60005b600682815481106131d6576131d56154a8565b5b90600052602060002090600a0201600501805490508110156132d4573373ffffffffffffffffffffffffffffffffffffffff166006838154811061321d5761321c6154a8565b5b90600052602060002090600a020160050182815481106132405761323f6154a8565b5b9060005260206000200160009054906101000a900473ffffffffffffffffffffffffffffffffffffffff1673ffffffffffffffffffffffffffffffffffffffff16036132c1576040517f08c379a00000000000000000000000000000000000000000000000000000000081526004016132b890615c84565b60405180910390fd5b80806132cc9061593c565b9150506131c2565b5060005b600682815481106132ec576132eb6154a8565b5b90600052602060002090600a020160040180549050811015613419573373ffffffffffffffffffffffffffffffffffffffff1660068381548110613333576133326154a8565b5b90600052602060002090600a02016004018281548110613356576133556154a8565b5b9060005260206000200160009054906101000a900473ffffffffffffffffffffffffffffffffffffffff1673ffffffffffffffffffffffffffffffffffffffff160361340657600682815481106133b0576133af6154a8565b5b90600052602060002090600a020160040181815481106133d3576133d26154a8565b5b9060005260206000200160006101000a81549073ffffffffffffffffffffffffffffffffffffffff0219169055506134a1565b80806134119061593c565b9150506132d8565b506006818154811061342e5761342d6154a8565b5b90600052602060002090600a0201600501339080600181540180825580915050600190039060005260206000200160009091909190916101000a81548173ffffffffffffffffffffffffffffffffffffffff021916908373ffffffffffffffffffffffffffffffffffffffff1602179055505b50565b600381565b600115156003600460003373ffffffffffffffffffffffffffffffffffffffff1673ffffffffffffffffffffffffffffffffffffffff1681526020019081526020016000205481548110613500576134ff6154a8565b5b906000526020600020906008020160020160149054906101000a900460ff16151514613561576040517f08c379a0000000000000000000000000000000000000000000000000000000008152600401613558906159f6565b60405180910390fd5b60011515600860003373ffffffffffffffffffffffffffffffffffffffff1673ffffffffffffffffffffffffffffffffffffffff16815260200190815260200160002060009054906101000a900460ff161515146135f4576040517f08c379a00000000000000000000000000000000000000000000000000000000081526004016135eb9061591c565b60405180910390fd5b600115156006828154811061360c5761360b6154a8565b5b90600052602060002090600a020160070160019054906101000a900460ff1615151461366d576040517f08c379a000000000000000000000000000000000000000000000000000000000815260040161366490615af4565b60405180910390fd5b6000151560068281548110613685576136846154a8565b5b90600052602060002090600a020160070160009054906101000a900460ff161515146136e6576040517f08c379a00000000000000000000000000000000000000000000000000000000081526004016136dd90615d16565b60405180910390fd5b3373ffffffffffffffffffffffffffffffffffffffff1660068281548110613711576137106154a8565b5b90600052602060002090600a020160030160009054906101000a900473ffffffffffffffffffffffffffffffffffffffff1673ffffffffffffffffffffffffffffffffffffffff1603613799576040517f08c379a000000000000000000000000000000000000000000000000000000000815260040161379090615da8565b60405180910390fd5b60005b600682815481106137b0576137af6154a8565b5b90600052602060002090600a0201600601805490508110156138ae573373ffffffffffffffffffffffffffffffffffffffff16600683815481106137f7576137f66154a8565b5b90600052602060002090600a0201600601828154811061381a576138196154a8565b5b9060005260206000200160009054906101000a900473ffffffffffffffffffffffffffffffffffffffff1673ffffffffffffffffffffffffffffffffffffffff160361389b576040517f08c379a000000000000000000000000000000000000000000000000000000000815260040161389290615e3a565b60405180910390fd5b80806138a69061593c565b91505061379c565b50600681815481106138c3576138c26154a8565b5b90600052602060002090600a0201600601339080600181540180825580915050600190039060005260206000200160009091909190916101000a81548173ffffffffffffffffffffffffffffffffffffffff021916908373ffffffffffffffffffffffffffffffffffffffff1602179055506000600460003373ffffffffffffffffffffffffffffffffffffffff1673ffffffffffffffffffffffffffffffffffffffff16815260200190815260200160002054905060016003828154811061398f5761398e6154a8565b5b906000526020600020906008020160050160008282546139af9190615e5a565b9250508190555060001515600683815481106139ce576139cd6154a8565b5b90600052602060002090600a020160070160009054906101000a900460ff161515148015613a31575060026003613a059190615ebd565b60068381548110613a1957613a186154a8565b5b90600052602060002090600a02016006018054905010155b15613c9a57600160068381548110613a4c57613a4b6154a8565b5b90600052602060002090600a020160070160006101000a81548160ff0219169083151502179055507ff21a901d81e7e3a2e486646e684b097c9c7ca9d27ef0b1b3fb01e4ccad81df7d82604051613aa39190614a5b565b60405180910390a1613ab482614302565b600060068381548110613aca57613ac96154a8565b5b90600052602060002090600a020160030160009054906101000a900473ffffffffffffffffffffffffffffffffffffffff1690506000600460008373ffffffffffffffffffffffffffffffffffffffff1673ffffffffffffffffffffffffffffffffffffffff16815260200190815260200160002054905060038181548110613b5657613b556154a8565b5b90600052602060002090600802016007016000815480929190613b789061593c565b91905055506000151560038281548110613b9557613b946154a8565b5b906000526020600020906008020160040160009054906101000a900460ff161515148015613be95750600460038281548110613bd457613bd36154a8565b5b90600052602060002090600802016007015410155b15613c9757600160038281548110613c0457613c036154a8565b5b906000526020600020906008020160040160006101000a81548160ff0219169083151502179055507f30ae330d31ec45ea0986fd063ab7352619fa20f5175678a7c577dfa1f4d5a9de6005600083815260200190815260200160002060009054906101000a900473ffffffffffffffffffffffffffffffffffffffff16604051613c8e9190615eee565b60405180910390a15b50505b613ca26144e8565b60015411613cb357613cb26144ed565b5b5050565b600115156003600460003373ffffffffffffffffffffffffffffffffffffffff1673ffffffffffffffffffffffffffffffffffffffff1681526020019081526020016000205481548110613d0e57613d0d6154a8565b5b906000526020600020906008020160020160149054906101000a900460ff16151514613d6f576040517f08c379a0000000000000000000000000000000000000000000000000000000008152600401613d66906159f6565b60405180910390fd5b816003600460003373ffffffffffffffffffffffffffffffffffffffff1673ffffffffffffffffffffffffffffffffffffffff1681526020019081526020016000205481548110613dc357613dc26154a8565b5b90600052602060002090600802016000019081613de09190615775565b50806003600460003373ffffffffffffffffffffffffffffffffffffffff1673ffffffffffffffffffffffffffffffffffffffff1681526020019081526020016000205481548110613e3557613e346154a8565b5b90600052602060002090600802016001019081613e529190615775565b50426003600460003373ffffffffffffffffffffffffffffffffffffffff1673ffffffffffffffffffffffffffffffffffffffff1681526020019081526020016000205481548110613ea757613ea66154a8565b5b9060005260206000209060080201600301819055505050565b6000600680549050905090565b60015481565b600060068281548110613ee957613ee86154a8565b5b90600052602060002090600a0201600501805490509050919050565b60068181548110613f1557600080fd5b90600052602060002090600a0201600091509050806000015490806001018054613f3e90615598565b80601f0160208091040260200160405190810160405280929190818152602001828054613f6a90615598565b8015613fb75780601f10613f8c57610100808354040283529160200191613fb7565b820191906000526020600020905b815481529060010190602001808311613f9a57829003601f168201915b505050505090806002018054613fcc90615598565b80601f0160208091040260200160405190810160405280929190818152602001828054613ff890615598565b80156140455780601f1061401a57610100808354040283529160200191614045565b820191906000526020600020905b81548152906001019060200180831161402857829003601f168201915b5050505050908060030160009054906101000a900473ffffffffffffffffffffffffffffffffffffffff16908060070160009054906101000a900460ff16908060070160019054906101000a900460ff16908060080154908060090160009054906101000a900460ff16905088565b600181565b60005b600682815481106140d0576140cf6154a8565b5b90600052602060002090600a0201600601805490508110156142fe57600060068381548110614102576141016154a8565b5b90600052602060002090600a02016006018281548110614125576141246154a8565b5b9060005260206000200160009054906101000a900473ffffffffffffffffffffffffffffffffffffffff1690506000600460008373ffffffffffffffffffffffffffffffffffffffff1673ffffffffffffffffffffffffffffffffffffffff1681526020019081526020016000205490506001600382815481106141ac576141ab6154a8565b5b9060005260206000209060080201600601546141c89190615e5a565b600382815481106141dc576141db6154a8565b5b90600052602060002090600802016006018190555060016000546142009190615e5a565b60008190555060026000546142159190615ebd565b60038281548110614229576142286154a8565b5b906000526020600020906008020160060154106142e957600160038281548110614256576142556154a8565b5b906000526020600020906008020160040160006101000a81548160ff0219169083151502179055507f30ae330d31ec45ea0986fd063ab7352619fa20f5175678a7c577dfa1f4d5a9de6005600083815260200190815260200160002060009054906101000a900473ffffffffffffffffffffffffffffffffffffffff166040516142e09190615eee565b60405180910390a15b505080806142f69061593c565b9150506140bc565b5050565b600060068281548110614318576143176154a8565b5b90600052602060002090600a020160030160009054906101000a900473ffffffffffffffffffffffffffffffffffffffff1690506000600460008373ffffffffffffffffffffffffffffffffffffffff1673ffffffffffffffffffffffffffffffffffffffff1681526020019081526020016000205490506001600382815481106143a6576143a56154a8565b5b9060005260206000209060080201600601546143c29190615e5a565b600382815481106143d6576143d56154a8565b5b90600052602060002090600802016006018190555060016000546143fa9190615e5a565b600081905550600260005461440f9190615ebd565b60038281548110614423576144226154a8565b5b906000526020600020906008020160060154106144e3576001600382815481106144505761444f6154a8565b5b906000526020600020906008020160040160006101000a81548160ff0219169083151502179055507f30ae330d31ec45ea0986fd063ab7352619fa20f5175678a7c577dfa1f4d5a9de6005600083815260200190815260200160002060009054906101000a900473ffffffffffffffffffffffffffffffffffffffff166040516144da9190615eee565b60405180910390a15b505050565b600090565b6000600460003373ffffffffffffffffffffffffffffffffffffffff1673ffffffffffffffffffffffffffffffffffffffff168152602001908152602001600020549050600a60038281548110614547576145466154a8565b5b906000526020600020906008020160050154101580156145b55750600260009054906101000a900473ffffffffffffffffffffffffffffffffffffffff1673ffffffffffffffffffffffffffffffffffffffff163373ffffffffffffffffffffffffffffffffffffffff1614155b156145c3576145c26145c6565b5b50565b6000600460003373ffffffffffffffffffffffffffffffffffffffff1673ffffffffffffffffffffffffffffffffffffffff1681526020019081526020016000205490506000600190505b60038054905081101561484e5760006005600083815260200190815260200160002060009054906101000a900473ffffffffffffffffffffffffffffffffffffffff16905082821415801561469c57506001151560038381548110614679576146786154a8565b5b906000526020600020906008020160040160009054906101000a900460ff161515145b80156146f8575060001515600860008373ffffffffffffffffffffffffffffffffffffffff1673ffffffffffffffffffffffffffffffffffffffff16815260200190815260200160002060009054906101000a900460ff161515145b1561483a5760011515600860008373ffffffffffffffffffffffffffffffffffffffff1673ffffffffffffffffffffffffffffffffffffffff16815260200190815260200160002060009054906101000a90505050600060038381548110614763576147626154a8565b5b9060005260206000209060080201600501819055506000600860003373ffffffffffffffffffffffffffffffffffffffff1673ffffffffffffffffffffffffffffffffffffffff16815260200190815260200160002060006101000a81548160ff0219169083151502179055506000600384815481106147e6576147e56154a8565b5b9060005260206000209060080201600501819055507f9d68d9cb21bb6b6ad17bf5d888557d8e6608701a7ae8e598ab75f8e12824bc79338260405161482c929190615f09565b60405180910390a15061484e565b5080806148469061593c565b915050614611565b5050565b604051806101600160405280600081526020016060815260200160608152602001600073ffffffffffffffffffffffffffffffffffffffff168152602001606081526020016060815260200160608152602001600015158152602001600015158152602001600081526020016000151581525090565b828054828255906000526020600020908101928215614941579160200282015b828111156149405782518260006101000a81548173ffffffffffffffffffffffffffffffffffffffff021916908373ffffffffffffffffffffffffffffffffffffffff160217905550916020019190600101906148e8565b5b50905061494e91906149b8565b5090565b6040518061012001604052806060815260200160608152602001600073ffffffffffffffffffffffffffffffffffffffff168152602001600015158152602001600081526020016000151581526020016000815260200160008152602001600081525090565b5b808211156149d15760008160009055506001016149b9565b5090565b6000604051905090565b600080fd5b600080fd5b6000819050919050565b6149fc816149e9565b8114614a0757600080fd5b50565b600081359050614a19816149f3565b92915050565b600060208284031215614a3557614a346149df565b5b6000614a4384828501614a0a565b91505092915050565b614a55816149e9565b82525050565b6000602082019050614a706000830184614a4c565b92915050565b600081519050919050565b600082825260208201905092915050565b60005b83811015614ab0578082015181840152602081019050614a95565b60008484015250505050565b6000601f19601f8301169050919050565b6000614ad882614a76565b614ae28185614a81565b9350614af2818560208601614a92565b614afb81614abc565b840191505092915050565b600073ffffffffffffffffffffffffffffffffffffffff82169050919050565b6000614b3182614b06565b9050919050565b614b4181614b26565b82525050565b60008115159050919050565b614b5c81614b47565b82525050565b6000610120820190508181036000830152614b7d818c614acd565b90508181036020830152614b91818b614acd565b9050614ba0604083018a614b38565b614bad6060830189614b53565b614bba6080830188614a4c565b614bc760a0830187614b53565b614bd460c0830186614a4c565b614be160e0830185614a4c565b614bef610100830184614a4c565b9a9950505050505050505050565b600080fd5b600080fd5b7f4e487b7100000000000000000000000000000000000000000000000000000000600052604160045260246000fd5b614c3f82614abc565b810181811067ffffffffffffffff82111715614c5e57614c5d614c07565b5b80604052505050565b6000614c716149d5565b9050614c7d8282614c36565b919050565b600067ffffffffffffffff821115614c9d57614c9c614c07565b5b614ca682614abc565b9050602081019050919050565b82818337600083830152505050565b6000614cd5614cd084614c82565b614c67565b905082815260208101848484011115614cf157614cf0614c02565b5b614cfc848285614cb3565b509392505050565b600082601f830112614d1957614d18614bfd565b5b8135614d29848260208601614cc2565b91505092915050565b614d3b81614b26565b8114614d4657600080fd5b50565b600081359050614d5881614d32565b92915050565b600080600060608486031215614d7757614d766149df565b5b600084013567ffffffffffffffff811115614d9557614d946149e4565b5b614da186828701614d04565b935050602084013567ffffffffffffffff811115614dc257614dc16149e4565b5b614dce86828701614d04565b9250506040614ddf86828701614d49565b9150509250925092565b600081519050919050565b600082825260208201905092915050565b6000819050602082019050919050565b614e1e816149e9565b82525050565b600082825260208201905092915050565b6000614e4082614a76565b614e4a8185614e24565b9350614e5a818560208601614a92565b614e6381614abc565b840191505092915050565b614e7781614b26565b82525050565b600081519050919050565b600082825260208201905092915050565b6000819050602082019050919050565b6000614eb58383614e6e565b60208301905092915050565b6000602082019050919050565b6000614ed982614e7d565b614ee38185614e88565b9350614eee83614e99565b8060005b83811015614f1f578151614f068882614ea9565b9750614f1183614ec1565b925050600181019050614ef2565b5085935050505092915050565b614f3581614b47565b82525050565b600061016083016000830151614f546000860182614e15565b5060208301518482036020860152614f6c8282614e35565b91505060408301518482036040860152614f868282614e35565b9150506060830151614f9b6060860182614e6e565b5060808301518482036080860152614fb38282614ece565b91505060a083015184820360a0860152614fcd8282614ece565b91505060c083015184820360c0860152614fe78282614ece565b91505060e0830151614ffc60e0860182614f2c565b50610100830151615011610100860182614f2c565b50610120830151615026610120860182614e15565b5061014083015161503b610140860182614f2c565b508091505092915050565b60006150528383614f3b565b905092915050565b6000602082019050919050565b600061507282614de9565b61507c8185614df4565b93508360208202850161508e85614e05565b8060005b858110156150ca57848403895281516150ab8582615046565b94506150b68361505a565b925060208a01995050600181019050615092565b50829750879550505050505092915050565b600060208201905081810360008301526150f68184615067565b905092915050565b60008060408385031215615115576151146149df565b5b600083013567ffffffffffffffff811115615133576151326149e4565b5b61513f85828601614d04565b925050602083013567ffffffffffffffff8111156151605761515f6149e4565b5b61516c85828601614d04565b9150509250929050565b60008060006060848603121561518f5761518e6149df565b5b600061519d86828701614a0a565b935050602084013567ffffffffffffffff8111156151be576151bd6149e4565b5b6151ca86828701614d04565b925050604084013567ffffffffffffffff8111156151eb576151ea6149e4565b5b6151f786828701614d04565b9150509250925092565b60006101608301600083015161521a6000860182614e15565b50602083015184820360208601526152328282614e35565b9150506040830151848203604086015261524c8282614e35565b91505060608301516152616060860182614e6e565b50608083015184820360808601526152798282614ece565b91505060a083015184820360a08601526152938282614ece565b91505060c083015184820360c08601526152ad8282614ece565b91505060e08301516152c260e0860182614f2c565b506101008301516152d7610100860182614f2c565b506101208301516152ec610120860182614e15565b50610140830151615301610140860182614f2c565b508091505092915050565b600060208201905081810360008301526153268184615201565b905092915050565b600061012083016000830151848203600086015261534c8282614e35565b915050602083015184820360208601526153668282614e35565b915050604083015161537b6040860182614e6e565b50606083015161538e6060860182614f2c565b5060808301516153a16080860182614e15565b5060a08301516153b460a0860182614f2c565b5060c08301516153c760c0860182614e15565b5060e08301516153da60e0860182614e15565b506101008301516153ef610100860182614e15565b508091505092915050565b60006020820190508181036000830152615414818461532e565b905092915050565b600061010082019050615432600083018b614a4c565b8181036020830152615444818a614acd565b905081810360408301526154588189614acd565b90506154676060830188614b38565b6154746080830187614b53565b61548160a0830186614b53565b61548e60c0830185614a4c565b61549b60e0830184614b53565b9998505050505050505050565b7f4e487b7100000000000000000000000000000000000000000000000000000000600052603260045260246000fd5b7f4f6e6c79206f776e65722063616e2063616c6c20746869732066756e6374696f60008201527f6e00000000000000000000000000000000000000000000000000000000000000602082015250565b6000615533602183614a81565b915061553e826154d7565b604082019050919050565b6000602082019050818103600083015261556281615526565b9050919050565b7f4e487b7100000000000000000000000000000000000000000000000000000000600052602260045260246000fd5b600060028204905060018216806155b057607f821691505b6020821081036155c3576155c2615569565b5b50919050565b60008190508160005260206000209050919050565b60006020601f8301049050919050565b600082821b905092915050565b60006008830261562b7fffffffffffffffffffffffffffffffffffffffffffffffffffffffffffffffff826155ee565b61563586836155ee565b95508019841693508086168417925050509392505050565b6000819050919050565b600061567261566d615668846149e9565b61564d565b6149e9565b9050919050565b6000819050919050565b61568c83615657565b6156a061569882615679565b8484546155fb565b825550505050565b600090565b6156b56156a8565b6156c0818484615683565b505050565b5b818110156156e4576156d96000826156ad565b6001810190506156c6565b5050565b601f821115615729576156fa816155c9565b615703846155de565b81016020851015615712578190505b61572661571e856155de565b8301826156c5565b50505b505050565b600082821c905092915050565b600061574c6000198460080261572e565b1980831691505092915050565b6000615765838361573b565b9150826002028217905092915050565b61577e82614a76565b67ffffffffffffffff81111561579757615796614c07565b5b6157a18254615598565b6157ac8282856156e8565b600060209050601f8311600181146157df57600084156157cd578287015190505b6157d78582615759565b86555061583f565b601f1984166157ed866155c9565b60005b82811015615815578489015182556001820191506020850194506020810190506157f0565b86831015615832578489015161582e601f89168261573b565b8355505b6001600288020188555050505b505050505050565b7f4e487b7100000000000000000000000000000000000000000000000000000000600052601160045260246000fd5b6000615881826149e9565b915061588c836149e9565b92508282039050818111156158a4576158a3615847565b5b92915050565b7f596f75206d75737420626520612076616c696461746f7220746f20706572666f60008201527f726d2074686520616374696f6e00000000000000000000000000000000000000602082015250565b6000615906602d83614a81565b9150615911826158aa565b604082019050919050565b60006020820190508181036000830152615935816158f9565b9050919050565b6000615947826149e9565b91507fffffffffffffffffffffffffffffffffffffffffffffffffffffffffffffffff820361597957615978615847565b5b600182019050919050565b7f596f75206d757374206265207265676973746572656420746f20706572666f7260008201527f6d2074686520616374696f6e0000000000000000000000000000000000000000602082015250565b60006159e0602c83614a81565b91506159eb82615984565b604082019050919050565b60006020820190508181036000830152615a0f816159d3565b9050919050565b7f596f75206d7573742062652074686520617574686f72206f662074686520617260008201527f7469636c6520746f207570646174652069740000000000000000000000000000602082015250565b6000615a72603283614a81565b9150615a7d82615a16565b604082019050919050565b60006020820190508181036000830152615aa181615a65565b9050919050565b7f41727469636c6520646f6573206e6f7420657869737400000000000000000000600082015250565b6000615ade601683614a81565b9150615ae982615aa8565b602082019050919050565b60006020820190508181036000830152615b0d81615ad1565b9050919050565b7f596f75206861766520616c7265616479207570766f746564207468697320617260008201527f7469636c65000000000000000000000000000000000000000000000000000000602082015250565b6000615b70602583614a81565b9150615b7b82615b14565b604082019050919050565b60006020820190508181036000830152615b9f81615b63565b9050919050565b7f5573657220646f6573206e6f7420657869737400000000000000000000000000600082015250565b6000615bdc601383614a81565b9150615be782615ba6565b602082019050919050565b60006020820190508181036000830152615c0b81615bcf565b9050919050565b7f596f75206861766520616c726561647920646f776e766f74656420746869732060008201527f61727469636c6500000000000000000000000000000000000000000000000000602082015250565b6000615c6e602783614a81565b9150615c7982615c12565b604082019050919050565b60006020820190508181036000830152615c9d81615c61565b9050919050565b7f41727469636c652068617320616c7265616479206265656e2076616c6964617460008201527f6564000000000000000000000000000000000000000000000000000000000000602082015250565b6000615d00602283614a81565b9150615d0b82615ca4565b604082019050919050565b60006020820190508181036000830152615d2f81615cf3565b9050919050565b7f596f752063616e6e6f742076616c696461746520796f7572206f776e2061727460008201527f69636c6500000000000000000000000000000000000000000000000000000000602082015250565b6000615d92602483614a81565b9150615d9d82615d36565b604082019050919050565b60006020820190508181036000830152615dc181615d85565b9050919050565b7f596f75206861766520616c72656164792076616c69646174656420746869732060008201527f61727469636c6500000000000000000000000000000000000000000000000000602082015250565b6000615e24602783614a81565b9150615e2f82615dc8565b604082019050919050565b60006020820190508181036000830152615e5381615e17565b9050919050565b6000615e65826149e9565b9150615e70836149e9565b9250828201905080821115615e8857615e87615847565b5b92915050565b7f4e487b7100000000000000000000000000000000000000000000000000000000600052601260045260246000fd5b6000615ec8826149e9565b9150615ed3836149e9565b925082615ee357615ee2615e8e565b5b828204905092915050565b6000602082019050615f036000830184614b38565b92915050565b6000604082019050615f1e6000830185614b38565b615f2b6020830184614b38565b939250505056fea2646970667358221220324055bfbc82b0ab54bd46f283a28f596cead5633ac6ac48bd71137c3779661c64736f6c63430008110033",
    "linkReferences": {},
    "deployedLinkReferences": {}
}