{
  "_format": "hh-sol-artifact-1",
  "contractName": "NewsForumContract",
  "sourceName": "contracts/NewsForum.sol",
  "abi": [
    {
      "inputs": [],
      "stateMutability": "nonpayable",
      "type": "constructor"
    },
    {
      "anonymous": false,
      "inputs": [
        {
          "indexed": false,
          "internalType": "uint256",
          "name": "articleId",
          "type": "uint256"
        },
        {
          "indexed": false,
          "internalType": "address",
          "name": "upvoter",
          "type": "address"
        }
      ],
      "name": "ArticleUpvoted",
      "type": "event"
    },
    {
      "anonymous": false,
      "inputs": [
        {
          "indexed": false,
          "internalType": "uint256",
          "name": "articleId",
          "type": "uint256"
        }
      ],
      "name": "ArticleValidated",
      "type": "event"
    },
    {
      "anonymous": false,
      "inputs": [
        {
          "indexed": false,
          "internalType": "uint256",
          "name": "articleId",
          "type": "uint256"
        },
        {
          "indexed": false,
          "internalType": "address",
          "name": "validator",
          "type": "address"
        }
      ],
      "name": "ArticleValidatedByUser",
      "type": "event"
    },
    {
      "anonymous": false,
      "inputs": [
        {
          "indexed": false,
          "internalType": "address",
          "name": "receiver",
          "type": "address"
        },
        {
          "indexed": false,
          "internalType": "uint256",
          "name": "receiverRewards",
          "type": "uint256"
        },
        {
          "indexed": false,
          "internalType": "uint256",
          "name": "totalReward",
          "type": "uint256"
        }
      ],
      "name": "RewardSummary",
      "type": "event"
    },
    {
      "anonymous": false,
      "inputs": [
        {
          "indexed": false,
          "internalType": "uint256",
          "name": "articleId",
          "type": "uint256"
        },
        {
          "indexed": false,
          "internalType": "address",
          "name": "author",
          "type": "address"
        }
      ],
      "name": "TryGivingPower",
      "type": "event"
    },
    {
      "anonymous": false,
      "inputs": [
        {
          "indexed": false,
          "internalType": "address",
          "name": "fromUser",
          "type": "address"
        },
        {
          "indexed": false,
          "internalType": "address",
          "name": "toUser",
          "type": "address"
        }
      ],
      "name": "ValidationPowerTransferred",
      "type": "event"
    },
    {
      "anonymous": false,
      "inputs": [
        {
          "indexed": false,
          "internalType": "address",
          "name": "User",
          "type": "address"
        }
      ],
      "name": "eligibleValidator",
      "type": "event"
    },
    {
      "inputs": [],
      "name": "NUMBER_OF_VALIDATORS",
      "outputs": [
        {
          "internalType": "uint256",
          "name": "",
          "type": "uint256"
        }
      ],
      "stateMutability": "view",
      "type": "function"
    },
    {
      "inputs": [],
      "name": "VALIDATIONS_REQUIRED",
      "outputs": [
        {
          "internalType": "uint256",
          "name": "",
          "type": "uint256"
        }
      ],
      "stateMutability": "view",
      "type": "function"
    },
    {
      "inputs": [
        {
          "internalType": "string",
          "name": "_title",
          "type": "string"
        },
        {
          "internalType": "string",
          "name": "_content",
          "type": "string"
        }
      ],
      "name": "addArticle",
      "outputs": [],
      "stateMutability": "nonpayable",
      "type": "function"
    },
    {
      "inputs": [
        {
          "internalType": "string",
          "name": "_name",
          "type": "string"
        },
        {
          "internalType": "string",
          "name": "_email",
          "type": "string"
        },
        {
          "internalType": "address",
          "name": "_wallet",
          "type": "address"
        },
        {
          "internalType": "string",
          "name": "_password",
          "type": "string"
        }
      ],
      "name": "addNewUser",
      "outputs": [],
      "stateMutability": "nonpayable",
      "type": "function"
    },
    {
      "inputs": [
        {
          "internalType": "uint256",
          "name": "",
          "type": "uint256"
        }
      ],
      "name": "articles",
      "outputs": [
        {
          "internalType": "uint256",
          "name": "id",
          "type": "uint256"
        },
        {
          "internalType": "string",
          "name": "title",
          "type": "string"
        },
        {
          "internalType": "string",
          "name": "content",
          "type": "string"
        },
        {
          "internalType": "address",
          "name": "author",
          "type": "address"
        },
        {
          "internalType": "bool",
          "name": "isValidated",
          "type": "bool"
        },
        {
          "internalType": "bool",
          "name": "valid",
          "type": "bool"
        },
        {
          "internalType": "uint256",
          "name": "timestamp",
          "type": "uint256"
        },
        {
          "internalType": "bool",
          "name": "validatorsRewardedUponUpvotes",
          "type": "bool"
        }
      ],
      "stateMutability": "view",
      "type": "function"
    },
    {
      "inputs": [
        {
          "internalType": "uint256",
          "name": "articleId",
          "type": "uint256"
        }
      ],
      "name": "downvoteArticle",
      "outputs": [],
      "stateMutability": "nonpayable",
      "type": "function"
    },
    {
      "inputs": [],
      "name": "getAllArticles",
      "outputs": [
        {
          "components": [
            {
              "internalType": "uint256",
              "name": "id",
              "type": "uint256"
            },
            {
              "internalType": "string",
              "name": "title",
              "type": "string"
            },
            {
              "internalType": "string",
              "name": "content",
              "type": "string"
            },
            {
              "internalType": "address",
              "name": "author",
              "type": "address"
            },
            {
              "internalType": "address[]",
              "name": "upvotes",
              "type": "address[]"
            },
            {
              "internalType": "address[]",
              "name": "downvotes",
              "type": "address[]"
            },
            {
              "internalType": "address[]",
              "name": "validators",
              "type": "address[]"
            },
            {
              "internalType": "bool",
              "name": "isValidated",
              "type": "bool"
            },
            {
              "internalType": "bool",
              "name": "valid",
              "type": "bool"
            },
            {
              "internalType": "uint256",
              "name": "timestamp",
              "type": "uint256"
            },
            {
              "internalType": "bool",
              "name": "validatorsRewardedUponUpvotes",
              "type": "bool"
            }
          ],
          "internalType": "struct NewsForumContract.Article[]",
          "name": "",
          "type": "tuple[]"
        }
      ],
      "stateMutability": "view",
      "type": "function"
    },
    {
      "inputs": [],
      "name": "getAllArticlesForValidation",
      "outputs": [
        {
          "components": [
            {
              "internalType": "uint256",
              "name": "id",
              "type": "uint256"
            },
            {
              "internalType": "string",
              "name": "title",
              "type": "string"
            },
            {
              "internalType": "string",
              "name": "content",
              "type": "string"
            },
            {
              "internalType": "address",
              "name": "author",
              "type": "address"
            },
            {
              "internalType": "address[]",
              "name": "upvotes",
              "type": "address[]"
            },
            {
              "internalType": "address[]",
              "name": "downvotes",
              "type": "address[]"
            },
            {
              "internalType": "address[]",
              "name": "validators",
              "type": "address[]"
            },
            {
              "internalType": "bool",
              "name": "isValidated",
              "type": "bool"
            },
            {
              "internalType": "bool",
              "name": "valid",
              "type": "bool"
            },
            {
              "internalType": "uint256",
              "name": "timestamp",
              "type": "uint256"
            },
            {
              "internalType": "bool",
              "name": "validatorsRewardedUponUpvotes",
              "type": "bool"
            }
          ],
          "internalType": "struct NewsForumContract.Article[]",
          "name": "",
          "type": "tuple[]"
        }
      ],
      "stateMutability": "view",
      "type": "function"
    },
    {
      "inputs": [],
      "name": "getAllUsers",
      "outputs": [
        {
          "components": [
            {
              "internalType": "string",
              "name": "name",
              "type": "string"
            },
            {
              "internalType": "string",
              "name": "email",
              "type": "string"
            },
            {
              "internalType": "bool",
              "name": "valid",
              "type": "bool"
            },
            {
              "internalType": "uint256",
              "name": "timestamp",
              "type": "uint256"
            },
            {
              "internalType": "bool",
              "name": "canBeValidator",
              "type": "bool"
            },
            {
              "internalType": "uint256",
              "name": "articlesValidatedSinceLastAppoint",
              "type": "uint256"
            },
            {
              "internalType": "uint256",
              "name": "rewardCount",
              "type": "uint256"
            },
            {
              "internalType": "uint256",
              "name": "articleValidatedCount",
              "type": "uint256"
            },
            {
              "internalType": "bool",
              "name": "isValidator",
              "type": "bool"
            },
            {
              "internalType": "string",
              "name": "password",
              "type": "string"
            }
          ],
          "internalType": "struct NewsForumContract.User[]",
          "name": "",
          "type": "tuple[]"
        }
      ],
      "stateMutability": "view",
      "type": "function"
    },
    {
      "inputs": [],
      "name": "getAllValidatedArticles",
      "outputs": [
        {
          "components": [
            {
              "internalType": "uint256",
              "name": "id",
              "type": "uint256"
            },
            {
              "internalType": "string",
              "name": "title",
              "type": "string"
            },
            {
              "internalType": "string",
              "name": "content",
              "type": "string"
            },
            {
              "internalType": "address",
              "name": "author",
              "type": "address"
            },
            {
              "internalType": "address[]",
              "name": "upvotes",
              "type": "address[]"
            },
            {
              "internalType": "address[]",
              "name": "downvotes",
              "type": "address[]"
            },
            {
              "internalType": "address[]",
              "name": "validators",
              "type": "address[]"
            },
            {
              "internalType": "bool",
              "name": "isValidated",
              "type": "bool"
            },
            {
              "internalType": "bool",
              "name": "valid",
              "type": "bool"
            },
            {
              "internalType": "uint256",
              "name": "timestamp",
              "type": "uint256"
            },
            {
              "internalType": "bool",
              "name": "validatorsRewardedUponUpvotes",
              "type": "bool"
            }
          ],
          "internalType": "struct NewsForumContract.Article[]",
          "name": "",
          "type": "tuple[]"
        }
      ],
      "stateMutability": "view",
      "type": "function"
    },
    {
      "inputs": [
        {
          "internalType": "uint256",
          "name": "articleId",
          "type": "uint256"
        }
      ],
      "name": "getArticleById",
      "outputs": [
        {
          "components": [
            {
              "internalType": "uint256",
              "name": "id",
              "type": "uint256"
            },
            {
              "internalType": "string",
              "name": "title",
              "type": "string"
            },
            {
              "internalType": "string",
              "name": "content",
              "type": "string"
            },
            {
              "internalType": "address",
              "name": "author",
              "type": "address"
            },
            {
              "internalType": "address[]",
              "name": "upvotes",
              "type": "address[]"
            },
            {
              "internalType": "address[]",
              "name": "downvotes",
              "type": "address[]"
            },
            {
              "internalType": "address[]",
              "name": "validators",
              "type": "address[]"
            },
            {
              "internalType": "bool",
              "name": "isValidated",
              "type": "bool"
            },
            {
              "internalType": "bool",
              "name": "valid",
              "type": "bool"
            },
            {
              "internalType": "uint256",
              "name": "timestamp",
              "type": "uint256"
            },
            {
              "internalType": "bool",
              "name": "validatorsRewardedUponUpvotes",
              "type": "bool"
            }
          ],
          "internalType": "struct NewsForumContract.Article",
          "name": "",
          "type": "tuple"
        }
      ],
      "stateMutability": "view",
      "type": "function"
    },
    {
      "inputs": [],
      "name": "getArticleCount",
      "outputs": [
        {
          "internalType": "uint256",
          "name": "",
          "type": "uint256"
        }
      ],
      "stateMutability": "view",
      "type": "function"
    },
    {
      "inputs": [],
      "name": "getMyArticles",
      "outputs": [
        {
          "components": [
            {
              "internalType": "uint256",
              "name": "id",
              "type": "uint256"
            },
            {
              "internalType": "string",
              "name": "title",
              "type": "string"
            },
            {
              "internalType": "string",
              "name": "content",
              "type": "string"
            },
            {
              "internalType": "address",
              "name": "author",
              "type": "address"
            },
            {
              "internalType": "address[]",
              "name": "upvotes",
              "type": "address[]"
            },
            {
              "internalType": "address[]",
              "name": "downvotes",
              "type": "address[]"
            },
            {
              "internalType": "address[]",
              "name": "validators",
              "type": "address[]"
            },
            {
              "internalType": "bool",
              "name": "isValidated",
              "type": "bool"
            },
            {
              "internalType": "bool",
              "name": "valid",
              "type": "bool"
            },
            {
              "internalType": "uint256",
              "name": "timestamp",
              "type": "uint256"
            },
            {
              "internalType": "bool",
              "name": "validatorsRewardedUponUpvotes",
              "type": "bool"
            }
          ],
          "internalType": "struct NewsForumContract.Article[]",
          "name": "",
          "type": "tuple[]"
        }
      ],
      "stateMutability": "view",
      "type": "function"
    },
    {
      "inputs": [
        {
          "internalType": "uint256",
          "name": "articleId",
          "type": "uint256"
        }
      ],
      "name": "getNumberOfDownvotes",
      "outputs": [
        {
          "internalType": "uint256",
          "name": "",
          "type": "uint256"
        }
      ],
      "stateMutability": "view",
      "type": "function"
    },
    {
      "inputs": [
        {
          "internalType": "uint256",
          "name": "articleId",
          "type": "uint256"
        }
      ],
      "name": "getNumberOfUpvotes",
      "outputs": [
        {
          "internalType": "uint256",
          "name": "",
          "type": "uint256"
        }
      ],
      "stateMutability": "view",
      "type": "function"
    },
    {
      "inputs": [
        {
          "internalType": "uint256",
          "name": "userId",
          "type": "uint256"
        }
      ],
      "name": "getUser",
      "outputs": [
        {
          "components": [
            {
              "internalType": "string",
              "name": "name",
              "type": "string"
            },
            {
              "internalType": "string",
              "name": "email",
              "type": "string"
            },
            {
              "internalType": "bool",
              "name": "valid",
              "type": "bool"
            },
            {
              "internalType": "uint256",
              "name": "timestamp",
              "type": "uint256"
            },
            {
              "internalType": "bool",
              "name": "canBeValidator",
              "type": "bool"
            },
            {
              "internalType": "uint256",
              "name": "articlesValidatedSinceLastAppoint",
              "type": "uint256"
            },
            {
              "internalType": "uint256",
              "name": "rewardCount",
              "type": "uint256"
            },
            {
              "internalType": "uint256",
              "name": "articleValidatedCount",
              "type": "uint256"
            },
            {
              "internalType": "bool",
              "name": "isValidator",
              "type": "bool"
            },
            {
              "internalType": "string",
              "name": "password",
              "type": "string"
            }
          ],
          "internalType": "struct NewsForumContract.User",
          "name": "",
          "type": "tuple"
        }
      ],
      "stateMutability": "view",
      "type": "function"
    },
    {
      "inputs": [],
      "name": "getUserCount",
      "outputs": [
        {
          "internalType": "uint256",
          "name": "",
          "type": "uint256"
        }
      ],
      "stateMutability": "view",
      "type": "function"
    },
    {
      "inputs": [
        {
          "internalType": "uint256",
          "name": "articleId",
          "type": "uint256"
        }
      ],
      "name": "giveAwardToValidators",
      "outputs": [],
      "stateMutability": "nonpayable",
      "type": "function"
    },
    {
      "inputs": [],
      "name": "maxNumberOfActiveValidators",
      "outputs": [
        {
          "internalType": "uint256",
          "name": "",
          "type": "uint256"
        }
      ],
      "stateMutability": "view",
      "type": "function"
    },
    {
      "inputs": [],
      "name": "minArticleValidationsToGetValidatorPower",
      "outputs": [
        {
          "internalType": "uint256",
          "name": "",
          "type": "uint256"
        }
      ],
      "stateMutability": "view",
      "type": "function"
    },
    {
      "inputs": [
        {
          "internalType": "uint256",
          "name": "articleId",
          "type": "uint256"
        }
      ],
      "name": "rewardArticleEditor",
      "outputs": [],
      "stateMutability": "nonpayable",
      "type": "function"
    },
    {
      "inputs": [],
      "name": "rewardToEditorUponArticleValidation",
      "outputs": [
        {
          "internalType": "uint256",
          "name": "",
          "type": "uint256"
        }
      ],
      "stateMutability": "view",
      "type": "function"
    },
    {
      "inputs": [],
      "name": "rewardToValidatorsUponReachingUpvotes",
      "outputs": [
        {
          "internalType": "uint256",
          "name": "",
          "type": "uint256"
        }
      ],
      "stateMutability": "view",
      "type": "function"
    },
    {
      "inputs": [],
      "name": "totalRewardCount",
      "outputs": [
        {
          "internalType": "uint256",
          "name": "",
          "type": "uint256"
        }
      ],
      "stateMutability": "view",
      "type": "function"
    },
    {
      "inputs": [
        {
          "internalType": "uint256",
          "name": "articleId",
          "type": "uint256"
        },
        {
          "internalType": "string",
          "name": "_title",
          "type": "string"
        },
        {
          "internalType": "string",
          "name": "_content",
          "type": "string"
        }
      ],
      "name": "updateArticle",
      "outputs": [],
      "stateMutability": "nonpayable",
      "type": "function"
    },
    {
      "inputs": [
        {
          "internalType": "string",
          "name": "_name",
          "type": "string"
        },
        {
          "internalType": "string",
          "name": "_email",
          "type": "string"
        }
      ],
      "name": "updateUser",
      "outputs": [],
      "stateMutability": "nonpayable",
      "type": "function"
    },
    {
      "inputs": [
        {
          "internalType": "uint256",
          "name": "articleId",
          "type": "uint256"
        }
      ],
      "name": "upvoteArticle",
      "outputs": [],
      "stateMutability": "nonpayable",
      "type": "function"
    },
    {
      "inputs": [],
      "name": "upvotesCountForAwardToValidator",
      "outputs": [
        {
          "internalType": "uint256",
          "name": "",
          "type": "uint256"
        }
      ],
      "stateMutability": "view",
      "type": "function"
    },
    {
      "inputs": [
        {
          "internalType": "uint256",
          "name": "",
          "type": "uint256"
        }
      ],
      "name": "users",
      "outputs": [
        {
          "internalType": "string",
          "name": "name",
          "type": "string"
        },
        {
          "internalType": "string",
          "name": "email",
          "type": "string"
        },
        {
          "internalType": "bool",
          "name": "valid",
          "type": "bool"
        },
        {
          "internalType": "uint256",
          "name": "timestamp",
          "type": "uint256"
        },
        {
          "internalType": "bool",
          "name": "canBeValidator",
          "type": "bool"
        },
        {
          "internalType": "uint256",
          "name": "articlesValidatedSinceLastAppoint",
          "type": "uint256"
        },
        {
          "internalType": "uint256",
          "name": "rewardCount",
          "type": "uint256"
        },
        {
          "internalType": "uint256",
          "name": "articleValidatedCount",
          "type": "uint256"
        },
        {
          "internalType": "bool",
          "name": "isValidator",
          "type": "bool"
        },
        {
          "internalType": "string",
          "name": "password",
          "type": "string"
        }
      ],
      "stateMutability": "view",
      "type": "function"
    },
    {
      "inputs": [
        {
          "internalType": "uint256",
          "name": "articleId",
          "type": "uint256"
        }
      ],
      "name": "validateArticle",
      "outputs": [],
      "stateMutability": "nonpayable",
      "type": "function"
    },
    {
      "inputs": [
        {
          "internalType": "string",
          "name": "_email",
          "type": "string"
        },
        {
          "internalType": "string",
          "name": "_password",
          "type": "string"
        }
      ],
      "name": "verifyUser",
      "outputs": [
        {
          "internalType": "bool",
          "name": "",
          "type": "bool"
        }
      ],
      "stateMutability": "view",
      "type": "function"
    }
  ],
  "bytecode": "0x608060405260008055600a6001553480156200001a57600080fd5b50600280546001600160a01b031916331790556040805161018081018252600c61014082019081526b24b73b30b634b2102ab9b2b960a11b6101608301528152815160208181018452600080835281840192909252828401829052606083018290526080830182905260a0830182905260c0830182905260e083018290526101008301829052835180850190945260048452630c4c8ccd60e21b9084015261012082019290925260038054600181018255925280519091600a027fc2575a0e9e593c00f959f8c92f12db2869c3395a3b0502d05e2516446f71f85b01908190620001059082620007f0565b50602082015160018201906200011c9082620007f0565b50604082015160028201805491151560ff1992831617905560608301516003830155608083015160048301805491151591831691909117905560a0830151600583015560c0830151600683015560e08301516007830155610100830151600883018054911515919092161790556101208201516009820190620001a09082620007f0565b505050620002176040518060400160405280600581526020016427bbb732b960d91b8152506040518060400160405280600f81526020016e6f776e657240676d61696c2e636f6d60881b81525033604051806040016040528060048152602001630c4c8ccd60e21b815250620004b460201b60201c565b60016003600181548110620002305762000230620008bc565b90600052602060002090600a020160080160006101000a81548160ff0219169083151502179055506006604051806101600160405280600081526020016040518060400160405280600f81526020016e496e76616c69642041727469636c6560881b815250815260200160405180602001604052806000815250815260200160006001600160a01b0316815260200160006001600160401b03811115620002db57620002db6200074b565b60405190808252806020026020018201604052801562000305578160200160208202803683370190505b508152602001600060405190808252806020026020018201604052801562000337578160200160208202803683370190505b508152602001600060405190808252806020026020018201604052801562000369578160200160208202803683370190505b5081526000602080830182905260408301829052606083018290526080909201819052835460018181018655948252908290208351600a90920201908155908201519192909190820190620003bf9082620007f0565b5060408201516002820190620003d69082620007f0565b5060608201516003820180546001600160a01b0319166001600160a01b03909216919091179055608082015180516200041a916004840191602090910190620006ca565b5060a0820151805162000438916005840191602090910190620006ca565b5060c0820151805162000456916006840191602090910190620006ca565b5060e08201516007820180546101008086015115150261ff00199315159390931661ffff19909116179190911790556101208201516008820155610140909101516009909101805491151560ff1992909216919091179055620008fa565b6002546001600160a01b031633146200051d5760405162461bcd60e51b815260206004820152602160248201527f4f6e6c79206f776e65722063616e2063616c6c20746869732066756e6374696f6044820152603760f91b606482015260840160405180910390fd5b604080516101408101825285815260208101859052600191810182905242606082015260006080820181905260a0820181905260c0820181905260e0820181905261010082018190526101208201849052600380549384018155905280519091600a027fc2575a0e9e593c00f959f8c92f12db2869c3395a3b0502d05e2516446f71f85b01908190620005b19082620007f0565b5060208201516001820190620005c89082620007f0565b50604082015160028201805491151560ff1992831617905560608301516003830155608083015160048301805491151591831691909117905560a0830151600583015560c0830151600683015560e083015160078301556101008301516008830180549115159190921617905561012082015160098201906200064c9082620007f0565b5050600354620006609150600190620008d2565b6001600160a01b03831660009081526004602052604081209190915560035483916005916200069290600190620008d2565b815260200190815260200160002060006101000a8154816001600160a01b0302191690836001600160a01b0316021790555050505050565b82805482825590600052602060002090810192821562000722579160200282015b828111156200072257825182546001600160a01b0319166001600160a01b03909116178255602090920191600190910190620006eb565b506200073092915062000734565b5090565b5b8082111562000730576000815560010162000735565b634e487b7160e01b600052604160045260246000fd5b600181811c908216806200077657607f821691505b6020821081036200079757634e487b7160e01b600052602260045260246000fd5b50919050565b601f821115620007eb57600081815260208120601f850160051c81016020861015620007c65750805b601f850160051c820191505b81811015620007e757828155600101620007d2565b5050505b505050565b81516001600160401b038111156200080c576200080c6200074b565b62000824816200081d845462000761565b846200079d565b602080601f8311600181146200085c5760008415620008435750858301515b600019600386901b1c1916600185901b178555620007e7565b600085815260208120601f198616915b828110156200088d578886015182559484019460019091019084016200086c565b5085821015620008ac5787850151600019600388901b60f8161c191681555b5050505050600190811b01905550565b634e487b7160e01b600052603260045260246000fd5b81810381811115620008f457634e487b7160e01b600052601160045260246000fd5b92915050565b61456f806200090a6000396000f3fe608060405234801561001057600080fd5b50600436106101a55760003560e01c8063b0467deb116100ef578063dc19628e11610092578063dc19628e14610349578063dd4a24251461035c578063e2842d791461036f578063e899d5ff14610384578063eb9f825a1461038c578063ec09e6ad14610395578063edcfafe6146103a8578063fc8b5108146101e557600080fd5b8063b0467deb146102e5578063b44d310b14610305578063b5cb15f71461030d578063b5df05fc14610315578063c8cb48de1461031d578063cdbdb31a14610325578063ce45032e1461032e578063db7317771461034157600080fd5b80636e346113116101575780636e346113146102615780636ec67ec9146102695780638342fb431461027c5780638867041214610284578063892cd3991461029757806395de67361461029f578063a217de60146102bf578063abd7cdde146102d257600080fd5b80631ce0639f146101aa5780632d169b79146101bf5780632ecb8cb4146101e5578063365b98b2146101ed5780633c9ed03c146102165780633f360b4114610229578063641cabec1461024c575b600080fd5b6101bd6101b8366004613b9a565b6103cf565b005b6101d26101cd366004613b9a565b61059c565b6040519081526020015b60405180910390f35b6101d2600181565b6102006101fb366004613b9a565b6105cb565b6040516101dc9a99989796959493929190613bf9565b6101bd610224366004613b9a565b6107d7565b61023c610237366004613d1a565b610a08565b60405190151581526020016101dc565b610254610aca565b6040516101dc9190613ea8565b6101d2600a81565b6101bd610277366004613d1a565b610edd565b6101d2600481565b6101bd610292366004613f0a565b611128565b6101d2600581565b6102b26102ad366004613b9a565b6112e9565b6040516101dc9190613f76565b6101bd6102cd366004613b9a565b611613565b6101bd6102e0366004613f90565b6119cf565b6102f86102f3366004613b9a565b611bd6565b6040516101dc91906140f3565b610254611ee6565b6003546101d2565b6102546121e9565b6102546125f9565b6101d260005481565b6101bd61033c366004613b9a565b6129a2565b6101d2600381565b6101bd610357366004613b9a565b612c63565b6101bd61036a366004613d1a565b6132e2565b610377613400565b6040516101dc9190614106565b6006546101d2565b6101d260015481565b6101d26103a3366004613b9a565b613666565b6103bb6103b6366004613b9a565b613695565b6040516101dc98979695949392919061415b565b6000600682815481106103e4576103e46141c0565b600091825260208083206003600a909302018201546001600160a01b03168084526004909152604090922054815492935091600191908390811061042a5761042a6141c0565b90600052602060002090600a02016006015461044691906141ec565b60038281548110610459576104596141c0565b90600052602060002090600a020160060181905550600160005461047d91906141ec565b6000819055507f45020be2a916de2ae94afde230be2f7c594eebdd86b7a99dd92852b3a9db136e82600383815481106104b8576104b86141c0565b90600052602060002090600a0201600601546000546040516104dc939291906141ff565b60405180910390a160026000546104f39190614220565b60038281548110610506576105066141c0565b90600052602060002090600a0201600601541061059757600160038281548110610532576105326141c0565b60009182526020808320600a92909202909101600401805460ff191693151593909317909255828152600590915260409081902054905160008051602061451a8339815191529161058e916001600160a01b0390911690614242565b60405180910390a15b505050565b6000600682815481106105b1576105b16141c0565b600091825260209091206004600a90920201015492915050565b600381815481106105db57600080fd5b90600052602060002090600a02016000915090508060000180546105fe90614256565b80601f016020809104026020016040519081016040528092919081815260200182805461062a90614256565b80156106775780601f1061064c57610100808354040283529160200191610677565b820191906000526020600020905b81548152906001019060200180831161065a57829003601f168201915b50505050509080600101805461068c90614256565b80601f01602080910402602001604051908101604052809291908181526020018280546106b890614256565b80156107055780601f106106da57610100808354040283529160200191610705565b820191906000526020600020905b8154815290600101906020018083116106e857829003601f168201915b50505060028401546003850154600486015460058701546006880154600789015460088a015460098b0180549a9b60ff9889169b979a5095881698509396929591949216929061075490614256565b80601f016020809104026020016040519081016040528092919081815260200182805461078090614256565b80156107cd5780601f106107a2576101008083540402835291602001916107cd565b820191906000526020600020905b8154815290600101906020018083116107b057829003601f168201915b505050505090508a565b60005b600682815481106107ed576107ed6141c0565b90600052602060002090600a020160060180549050811015610a045760006006838154811061081e5761081e6141c0565b90600052602060002090600a02016006018281548110610840576108406141c0565b60009182526020808320909101546001600160a01b031680835260049091526040909120546003805492935090916001919083908110610882576108826141c0565b90600052602060002090600a02016006015461089e91906141ec565b600382815481106108b1576108b16141c0565b90600052602060002090600a02016006018190555060016000546108d591906141ec565b6000819055507f45020be2a916de2ae94afde230be2f7c594eebdd86b7a99dd92852b3a9db136e8260038381548110610910576109106141c0565b90600052602060002090600a020160060154600054604051610934939291906141ff565b60405180910390a1600260005461094b9190614220565b6003828154811061095e5761095e6141c0565b90600052602060002090600a020160060154106109ef5760016003828154811061098a5761098a6141c0565b60009182526020808320600a92909202909101600401805460ff191693151593909317909255828152600590915260409081902054905160008051602061451a833981519152916109e6916001600160a01b0390911690614242565b60405180910390a15b505080806109fc9061428a565b9150506107da565b5050565b6000805b600354811015610abe57838051906020012060038281548110610a3157610a316141c0565b90600052602060002090600a0201600101604051610a4f91906142a3565b604051809103902003610aac57828051906020012060038281548110610a7757610a776141c0565b90600052602060002090600a0201600901604051610a9591906142a3565b604051809103902003610aac576001915050610ac4565b80610ab68161428a565b915050610a0c565b50600090505b92915050565b3360009081526004602052604090205460038054606092908110610af057610af06141c0565b600091825260209091206008600a90920201015460ff161515600114610b315760405162461bcd60e51b8152600401610b2890614319565b60405180910390fd5b6006546000906001600160401b03811115610b4e57610b4e613c78565b604051908082528060200260200182016040528015610b8757816020015b610b74613ab7565b815260200190600190039081610b6c5790505b509050600060015b600654811015610ed55760068181548110610bac57610bac6141c0565b6000918252602082206007600a90920201015460ff1615159003610ec35760068181548110610bdd57610bdd6141c0565b90600052602060002090600a02016040518061016001604052908160008201548152602001600182018054610c1190614256565b80601f0160208091040260200160405190810160405280929190818152602001828054610c3d90614256565b8015610c8a5780601f10610c5f57610100808354040283529160200191610c8a565b820191906000526020600020905b815481529060010190602001808311610c6d57829003601f168201915b50505050508152602001600282018054610ca390614256565b80601f0160208091040260200160405190810160405280929190818152602001828054610ccf90614256565b8015610d1c5780601f10610cf157610100808354040283529160200191610d1c565b820191906000526020600020905b815481529060010190602001808311610cff57829003601f168201915b505050918352505060038201546001600160a01b03166020808301919091526004830180546040805182850281018501825282815294019392830182828015610d8e57602002820191906000526020600020905b81546001600160a01b03168152600190910190602001808311610d70575b5050505050815260200160058201805480602002602001604051908101604052809291908181526020018280548015610df057602002820191906000526020600020905b81546001600160a01b03168152600190910190602001808311610dd2575b5050505050815260200160068201805480602002602001604051908101604052809291908181526020018280548015610e5257602002820191906000526020600020905b81546001600160a01b03168152600190910190602001808311610e34575b5050509183525050600782015460ff808216151560208401526101009091048116151560408301526008830154606083015260099092015490911615156080909101528351849084908110610ea957610ea96141c0565b60200260200101819052508180610ebf9061428a565b9250505b80610ecd8161428a565b915050610b8f565b509091505090565b33600090815260046020526040902054600380549091908110610f0257610f026141c0565b600091825260209091206002600a90920201015460ff161515600114610f3a5760405162461bcd60e51b8152600401610b2890614366565b600680546040805161016081018252828152602080820187815282840187905233606084015283516000808252818401865260808501919091528451818152808401865260a0850152845181815292830190945260c083019190915260e082018390526001610100830181905242610120840152610140830184905284018555939091528051600a83027ff652222313e28459528d920b65115c16c04f3efc82aaedc97be59f3f377c0d3f810191825593519293919290917ff652222313e28459528d920b65115c16c04f3efc82aaedc97be59f3f377c0d40019061101f9082614400565b50604082015160028201906110349082614400565b5060608201516003820180546001600160a01b0319166001600160a01b0390921691909117905560808201518051611076916004840191602090910190613b20565b5060a08201518051611092916005840191602090910190613b20565b5060c082015180516110ae916006840191602090910190613b20565b5060e0820151600780830180546101008087015115150261ff00199415159490941661ffff1990911617929092179091556101208301516008830155610140909201516009909101805491151560ff199290921691909117905560009182526020526040902080546001600160a01b031916331790555050565b3360009081526004602052604090205460038054909190811061114d5761114d6141c0565b600091825260209091206002600a90920201015460ff1615156001146111855760405162461bcd60e51b8152600401610b2890614366565b6000838152600760205260409020546001600160a01b031633146112065760405162461bcd60e51b815260206004820152603260248201527f596f75206d7573742062652074686520617574686f72206f66207468652061726044820152711d1a58db19481d1bc81d5c19185d19481a5d60721b6064820152608401610b28565b60068381548110611219576112196141c0565b600091825260209091206007600a90920201015460ff6101009091041615156001146112575760405162461bcd60e51b8152600401610b28906144bf565b816006848154811061126b5761126b6141c0565b90600052602060002090600a020160010190816112889190614400565b50806006848154811061129d5761129d6141c0565b90600052602060002090600a020160020190816112ba9190614400565b5042600684815481106112cf576112cf6141c0565b90600052602060002090600a020160080181905550505050565b6112f1613ab7565b60068281548110611304576113046141c0565b600091825260209091206007600a90920201015460ff6101009091041615156001146113425760405162461bcd60e51b8152600401610b28906144bf565b60068281548110611355576113556141c0565b90600052602060002090600a0201604051806101600160405290816000820154815260200160018201805461138990614256565b80601f01602080910402602001604051908101604052809291908181526020018280546113b590614256565b80156114025780601f106113d757610100808354040283529160200191611402565b820191906000526020600020905b8154815290600101906020018083116113e557829003601f168201915b5050505050815260200160028201805461141b90614256565b80601f016020809104026020016040519081016040528092919081815260200182805461144790614256565b80156114945780601f1061146957610100808354040283529160200191611494565b820191906000526020600020905b81548152906001019060200180831161147757829003601f168201915b505050918352505060038201546001600160a01b0316602080830191909152600483018054604080518285028101850182528281529401939283018282801561150657602002820191906000526020600020905b81546001600160a01b031681526001909101906020018083116114e8575b505050505081526020016005820180548060200260200160405190810160405280929190818152602001828054801561156857602002820191906000526020600020905b81546001600160a01b0316815260019091019060200180831161154a575b50505050508152602001600682018054806020026020016040519081016040528092919081815260200182805480156115ca57602002820191906000526020600020905b81546001600160a01b031681526001909101906020018083116115ac575b5050509183525050600782015460ff8082161515602084015261010090910481161515604083015260088301546060830152600990920154909116151560809091015292915050565b33600090815260046020526040902054600380549091908110611638576116386141c0565b600091825260209091206002600a90920201015460ff1615156001146116705760405162461bcd60e51b8152600401610b2890614366565b60068181548110611683576116836141c0565b600091825260209091206007600a90920201015460ff6101009091041615156001146116c15760405162461bcd60e51b8152600401610b28906144bf565b60005b600682815481106116d7576116d76141c0565b90600052602060002090600a0201600401805490508110156117b457336001600160a01b031660068381548110611710576117106141c0565b90600052602060002090600a02016004018281548110611732576117326141c0565b6000918252602090912001546001600160a01b0316036117a25760405162461bcd60e51b815260206004820152602560248201527f596f75206861766520616c7265616479207570766f74656420746869732061726044820152647469636c6560d81b6064820152608401610b28565b806117ac8161428a565b9150506116c4565b5060005b600682815481106117cb576117cb6141c0565b90600052602060002090600a0201600501805490508110156118a457336001600160a01b031660068381548110611804576118046141c0565b90600052602060002090600a02016005018281548110611826576118266141c0565b6000918252602090912001546001600160a01b0316036118925760068281548110611853576118536141c0565b90600052602060002090600a02016005018181548110611875576118756141c0565b600091825260209091200180546001600160a01b03191690555050565b8061189c8161428a565b9150506117b8565b50600681815481106118b8576118b86141c0565b600091825260208083206004600a9093020191909101805460018101825590835291200180546001600160a01b031916339081179091556040517f624412f87fce01f1efc8757dd0f01b8db1ef1b8821db35b8800947d87ee65ba191611920918491906144ef565b60405180910390a16006818154811061193b5761193b6141c0565b600091825260209091206009600a90920201015460ff16158015611986575060056006828154811061196f5761196f6141c0565b90600052602060002090600a020160040180549050145b156119cc57611994816107d7565b6001600682815481106119a9576119a96141c0565b60009182526020909120600a90910201600901805460ff19169115159190911790555b50565b6002546001600160a01b03163314611a335760405162461bcd60e51b815260206004820152602160248201527f4f6e6c79206f776e65722063616e2063616c6c20746869732066756e6374696f6044820152603760f91b6064820152608401610b28565b604080516101408101825285815260208101859052600191810182905242606082015260006080820181905260a0820181905260c0820181905260e0820181905261010082018190526101208201849052600380549384018155905280519091600a027fc2575a0e9e593c00f959f8c92f12db2869c3395a3b0502d05e2516446f71f85b01908190611ac59082614400565b5060208201516001820190611ada9082614400565b50604082015160028201805491151560ff1992831617905560608301516003830155608083015160048301805491151591831691909117905560a0830151600583015560c0830151600683015560e08301516007830155610100830151600883018054911515919092161790556101208201516009820190611b5c9082614400565b5050600354611b6e9150600190614506565b6001600160a01b0383166000908152600460205260408120919091556003548391600591611b9e90600190614506565b815260200190815260200160002060006101000a8154816001600160a01b0302191690836001600160a01b0316021790555050505050565b611c32604051806101400160405280606081526020016060815260200160001515815260200160008152602001600015158152602001600081526020016000815260200160008152602001600015158152602001606081525090565b60038281548110611c4557611c456141c0565b600091825260209091206002600a90920201015460ff161515600114611ca35760405162461bcd60e51b8152602060048201526013602482015272155cd95c88191bd95cc81b9bdd08195e1a5cdd606a1b6044820152606401610b28565b60038281548110611cb657611cb66141c0565b90600052602060002090600a020160405180610140016040529081600082018054611ce090614256565b80601f0160208091040260200160405190810160405280929190818152602001828054611d0c90614256565b8015611d595780601f10611d2e57610100808354040283529160200191611d59565b820191906000526020600020905b815481529060010190602001808311611d3c57829003601f168201915b50505050508152602001600182018054611d7290614256565b80601f0160208091040260200160405190810160405280929190818152602001828054611d9e90614256565b8015611deb5780601f10611dc057610100808354040283529160200191611deb565b820191906000526020600020905b815481529060010190602001808311611dce57829003601f168201915b5050509183525050600282015460ff9081161515602083015260038301546040830152600483015481161515606083015260058301546080830152600683015460a0830152600783015460c0830152600883015416151560e082015260098201805461010090920191611e5d90614256565b80601f0160208091040260200160405190810160405280929190818152602001828054611e8990614256565b8015611ed65780601f10611eab57610100808354040283529160200191611ed6565b820191906000526020600020905b815481529060010190602001808311611eb957829003601f168201915b5050505050815250509050919050565b60606006805480602002602001604051908101604052809291908181526020016000905b828210156121e057838290600052602060002090600a02016040518061016001604052908160008201548152602001600182018054611f4890614256565b80601f0160208091040260200160405190810160405280929190818152602001828054611f7490614256565b8015611fc15780601f10611f9657610100808354040283529160200191611fc1565b820191906000526020600020905b815481529060010190602001808311611fa457829003601f168201915b50505050508152602001600282018054611fda90614256565b80601f016020809104026020016040519081016040528092919081815260200182805461200690614256565b80156120535780601f1061202857610100808354040283529160200191612053565b820191906000526020600020905b81548152906001019060200180831161203657829003601f168201915b505050918352505060038201546001600160a01b031660208083019190915260048301805460408051828502810185018252828152940193928301828280156120c557602002820191906000526020600020905b81546001600160a01b031681526001909101906020018083116120a7575b505050505081526020016005820180548060200260200160405190810160405280929190818152602001828054801561212757602002820191906000526020600020905b81546001600160a01b03168152600190910190602001808311612109575b505050505081526020016006820180548060200260200160405190810160405280929190818152602001828054801561218957602002820191906000526020600020905b81546001600160a01b0316815260019091019060200180831161216b575b5050509183525050600782015460ff80821615156020808501919091526101009092048116151560408401526008840154606084015260099093015490921615156080909101529082526001929092019101611f0a565b50505050905090565b336000908152600460205260409020546003805460609290811061220f5761220f6141c0565b600091825260209091206002600a90920201015460ff1615156001146122475760405162461bcd60e51b8152600401610b2890614366565b6006546000906001600160401b0381111561226457612264613c78565b60405190808252806020026020018201604052801561229d57816020015b61228a613ab7565b8152602001906001900390816122825790505b509050600060015b600654811015610ed557336001600160a01b0316600682815481106122cc576122cc6141c0565b600091825260209091206003600a9092020101546001600160a01b0316036125e75760068181548110612301576123016141c0565b90600052602060002090600a0201604051806101600160405290816000820154815260200160018201805461233590614256565b80601f016020809104026020016040519081016040528092919081815260200182805461236190614256565b80156123ae5780601f10612383576101008083540402835291602001916123ae565b820191906000526020600020905b81548152906001019060200180831161239157829003601f168201915b505050505081526020016002820180546123c790614256565b80601f01602080910402602001604051908101604052809291908181526020018280546123f390614256565b80156124405780601f1061241557610100808354040283529160200191612440565b820191906000526020600020905b81548152906001019060200180831161242357829003601f168201915b505050918352505060038201546001600160a01b031660208083019190915260048301805460408051828502810185018252828152940193928301828280156124b257602002820191906000526020600020905b81546001600160a01b03168152600190910190602001808311612494575b505050505081526020016005820180548060200260200160405190810160405280929190818152602001828054801561251457602002820191906000526020600020905b81546001600160a01b031681526001909101906020018083116124f6575b505050505081526020016006820180548060200260200160405190810160405280929190818152602001828054801561257657602002820191906000526020600020905b81546001600160a01b03168152600190910190602001808311612558575b5050509183525050600782015460ff8082161515602084015261010090910481161515604083015260088301546060830152600990920154909116151560809091015283518490849081106125cd576125cd6141c0565b602002602001018190525081806125e39061428a565b9250505b806125f18161428a565b9150506122a5565b6006546060906000906001600160401b0381111561261957612619613c78565b60405190808252806020026020018201604052801561265257816020015b61263f613ab7565b8152602001906001900390816126375790505b509050600060015b600654811015610ed55760068181548110612677576126776141c0565b600091825260209091206007600a90920201015460ff16151560010361299057600681815481106126aa576126aa6141c0565b90600052602060002090600a020160405180610160016040529081600082015481526020016001820180546126de90614256565b80601f016020809104026020016040519081016040528092919081815260200182805461270a90614256565b80156127575780601f1061272c57610100808354040283529160200191612757565b820191906000526020600020905b81548152906001019060200180831161273a57829003601f168201915b5050505050815260200160028201805461277090614256565b80601f016020809104026020016040519081016040528092919081815260200182805461279c90614256565b80156127e95780601f106127be576101008083540402835291602001916127e9565b820191906000526020600020905b8154815290600101906020018083116127cc57829003601f168201915b505050918352505060038201546001600160a01b0316602080830191909152600483018054604080518285028101850182528281529401939283018282801561285b57602002820191906000526020600020905b81546001600160a01b0316815260019091019060200180831161283d575b50505050508152602001600582018054806020026020016040519081016040528092919081815260200182805480156128bd57602002820191906000526020600020905b81546001600160a01b0316815260019091019060200180831161289f575b505050505081526020016006820180548060200260200160405190810160405280929190818152602001828054801561291f57602002820191906000526020600020905b81546001600160a01b03168152600190910190602001808311612901575b5050509183525050600782015460ff808216151560208401526101009091048116151560408301526008830154606083015260099092015490911615156080909101528351849084908110612976576129766141c0565b6020026020010181905250818061298c9061428a565b9250505b8061299a8161428a565b91505061265a565b336000908152600460205260409020546003805490919081106129c7576129c76141c0565b600091825260209091206002600a90920201015460ff1615156001146129ff5760405162461bcd60e51b8152600401610b2890614366565b60068181548110612a1257612a126141c0565b600091825260209091206007600a90920201015460ff610100909104161515600114612a505760405162461bcd60e51b8152600401610b28906144bf565b60005b60068281548110612a6657612a666141c0565b90600052602060002090600a020160050180549050811015612b4557336001600160a01b031660068381548110612a9f57612a9f6141c0565b90600052602060002090600a02016005018281548110612ac157612ac16141c0565b6000918252602090912001546001600160a01b031603612b335760405162461bcd60e51b815260206004820152602760248201527f596f75206861766520616c726561647920646f776e766f74656420746869732060448201526661727469636c6560c81b6064820152608401610b28565b80612b3d8161428a565b915050612a53565b5060005b60068281548110612b5c57612b5c6141c0565b90600052602060002090600a020160040180549050811015612c1857336001600160a01b031660068381548110612b9557612b956141c0565b90600052602060002090600a02016004018281548110612bb757612bb76141c0565b6000918252602090912001546001600160a01b031603612c065760068281548110612be457612be46141c0565b90600052602060002090600a02016004018181548110611875576118756141c0565b80612c108161428a565b915050612b49565b5060068181548110612c2c57612c2c6141c0565b600091825260208083206005600a9093020191909101805460018101825590835291200180546001600160a01b0319163317905550565b33600090815260046020526040902054600380549091908110612c8857612c886141c0565b600091825260209091206002600a90920201015460ff161515600114612cc05760405162461bcd60e51b8152600401610b2890614366565b33600090815260046020526040902054600380549091908110612ce557612ce56141c0565b600091825260209091206008600a90920201015460ff161515600114612d1d5760405162461bcd60e51b8152600401610b2890614319565b60068181548110612d3057612d306141c0565b600091825260209091206007600a90920201015460ff610100909104161515600114612d6e5760405162461bcd60e51b8152600401610b28906144bf565b60068181548110612d8157612d816141c0565b600091825260209091206007600a90920201015460ff1615612df05760405162461bcd60e51b815260206004820152602260248201527f41727469636c652068617320616c7265616479206265656e2076616c69646174604482015261195960f21b6064820152608401610b28565b336001600160a01b031660068281548110612e0d57612e0d6141c0565b600091825260209091206003600a9092020101546001600160a01b031603612e835760405162461bcd60e51b8152602060048201526024808201527f596f752063616e6e6f742076616c696461746520796f7572206f776e2061727460448201526369636c6560e01b6064820152608401610b28565b60005b60068281548110612e9957612e996141c0565b90600052602060002090600a020160060180549050811015612f7857336001600160a01b031660068381548110612ed257612ed26141c0565b90600052602060002090600a02016006018281548110612ef457612ef46141c0565b6000918252602090912001546001600160a01b031603612f665760405162461bcd60e51b815260206004820152602760248201527f596f75206861766520616c72656164792076616c69646174656420746869732060448201526661727469636c6560c81b6064820152608401610b28565b80612f708161428a565b915050612e86565b5060068181548110612f8c57612f8c6141c0565b600091825260208083206006600a9093020191909101805460018101825590835291200180546001600160a01b031916339081179091556040517f7e434af9cd16facd6cbcb874af7dab924daf4f8ca785da1aba2da615ecdd54e191612ff4918491906144ef565b60405180910390a133600090815260046020526040902054600380546001919083908110613024576130246141c0565b90600052602060002090600a0201600501600082825461304491906141ec565b9091555050600680548390811061305d5761305d6141c0565b600091825260209091206007600a90920201015460ff161580156130b3575061308860026003614220565b6006838154811061309b5761309b6141c0565b90600052602060002090600a02016006018054905010155b156132ca576001600683815481106130cd576130cd6141c0565b6000918252602091829020600a9190910201600701805460ff1916921515929092179091556040518381527ff21a901d81e7e3a2e486646e684b097c9c7ca9d27ef0b1b3fb01e4ccad81df7d910160405180910390a161312c826103cf565b600060068381548110613141576131416141c0565b600091825260209091206003600a9092020101546040516001600160a01b0390911691507f64ab81d133265e22374ee8753d918c4b015493b402b4ad81982df1e4a045cfea9061319490859084906144ef565b60405180910390a16001600160a01b03811660009081526004602052604090205460038054829081106131c9576131c96141c0565b6000918252602082206007600a90920201018054916131e78361428a565b9190505550600381815481106131ff576131ff6141c0565b600091825260209091206004600a90920201015460ff161580156132485750600460038281548110613233576132336141c0565b90600052602060002090600a02016007015410155b156132c757600160038281548110613262576132626141c0565b60009182526020808320600a92909202909101600401805460ff191693151593909317909255828152600590915260409081902054905160008051602061451a833981519152916132be916001600160a01b0390911690614242565b60405180910390a15b50505b6132d261380c565b60015411610a0457610a04613874565b33600090815260046020526040902054600380549091908110613307576133076141c0565b600091825260209091206002600a90920201015460ff16151560011461333f5760405162461bcd60e51b8152600401610b2890614366565b60005b60035481101561059757818051906020012060038281548110613367576133676141c0565b90600052602060002090600a020160010160405161338591906142a3565b6040518091039020036133ee5782600382815481106133a6576133a66141c0565b90600052602060002090600a020160000190816133c39190614400565b5042600382815481106133d8576133d86141c0565b90600052602060002090600a0201600301819055505b806133f88161428a565b915050613342565b60606003805480602002602001604051908101604052809291908181526020016000905b828210156121e057838290600052602060002090600a02016040518061014001604052908160008201805461345890614256565b80601f016020809104026020016040519081016040528092919081815260200182805461348490614256565b80156134d15780601f106134a6576101008083540402835291602001916134d1565b820191906000526020600020905b8154815290600101906020018083116134b457829003601f168201915b505050505081526020016001820180546134ea90614256565b80601f016020809104026020016040519081016040528092919081815260200182805461351690614256565b80156135635780601f1061353857610100808354040283529160200191613563565b820191906000526020600020905b81548152906001019060200180831161354657829003601f168201915b5050509183525050600282015460ff9081161515602083015260038301546040830152600483015481161515606083015260058301546080830152600683015460a0830152600783015460c0830152600883015416151560e0820152600982018054610100909201916135d590614256565b80601f016020809104026020016040519081016040528092919081815260200182805461360190614256565b801561364e5780601f106136235761010080835404028352916020019161364e565b820191906000526020600020905b81548152906001019060200180831161363157829003601f168201915b50505050508152505081526020019060010190613424565b60006006828154811061367b5761367b6141c0565b600091825260209091206005600a90920201015492915050565b600681815481106136a557600080fd5b60009182526020909120600a909102018054600182018054919350906136ca90614256565b80601f01602080910402602001604051908101604052809291908181526020018280546136f690614256565b80156137435780601f1061371857610100808354040283529160200191613743565b820191906000526020600020905b81548152906001019060200180831161372657829003601f168201915b50505050509080600201805461375890614256565b80601f016020809104026020016040519081016040528092919081815260200182805461378490614256565b80156137d15780601f106137a6576101008083540402835291602001916137d1565b820191906000526020600020905b8154815290600101906020018083116137b457829003601f168201915b50505060038401546007850154600886015460099096015494956001600160a01b039092169460ff8083169550610100909204821693501688565b600080805b60035481101561386e576003818154811061382e5761382e6141c0565b600091825260209091206008600a90920201015460ff16151560010361385c576138596001836141ec565b91505b806138668161428a565b915050613811565b50919050565b3360009081526004602052604090205460038054600a91908390811061389c5761389c6141c0565b90600052602060002090600a020160050154101580156138c757506002546001600160a01b03163314155b156119cc576119cc3360009081526004602052604090205460015b600354811015610a04576000818152600560205260409020546001600160a01b031682821480159061393f575060038281548110613922576139226141c0565b600091825260209091206004600a90920201015460ff1615156001145b8015613972575060038281548110613959576139596141c0565b600091825260209091206008600a90920201015460ff16155b15613aa45760016003838154811061398c5761398c6141c0565b600091825260208220600a9190910201600801805460ff19169215159290921790915560038054849081106139c3576139c36141c0565b90600052602060002090600a0201600501819055506000600360046000336001600160a01b03166001600160a01b031681526020019081526020016000205481548110613a1257613a126141c0565b600091825260208220600a9190910201600801805460ff1916921515929092179091556003805485908110613a4957613a496141c0565b90600052602060002090600a0201600501819055507f9d68d9cb21bb6b6ad17bf5d888557d8e6608701a7ae8e598ab75f8e12824bc79338260405161058e9291906001600160a01b0392831681529116602082015260400190565b5080613aaf8161428a565b9150506138e2565b60405180610160016040528060008152602001606081526020016060815260200160006001600160a01b03168152602001606081526020016060815260200160608152602001600015158152602001600015158152602001600081526020016000151581525090565b828054828255906000526020600020908101928215613b75579160200282015b82811115613b7557825182546001600160a01b0319166001600160a01b03909116178255602090920191600190910190613b40565b50613b81929150613b85565b5090565b5b80821115613b815760008155600101613b86565b600060208284031215613bac57600080fd5b5035919050565b6000815180845260005b81811015613bd957602081850181015186830182015201613bbd565b506000602082860101526020601f19601f83011685010191505092915050565b6000610140808352613c0d8184018e613bb3565b90508281036020840152613c21818d613bb3565b90508a1515604084015289606084015288151560808401528760a08401528660c08401528560e0840152841515610100840152828103610120840152613c678185613bb3565b9d9c50505050505050505050505050565b634e487b7160e01b600052604160045260246000fd5b600082601f830112613c9f57600080fd5b81356001600160401b0380821115613cb957613cb9613c78565b604051601f8301601f19908116603f01168101908282118183101715613ce157613ce1613c78565b81604052838152866020858801011115613cfa57600080fd5b836020870160208301376000602085830101528094505050505092915050565b60008060408385031215613d2d57600080fd5b82356001600160401b0380821115613d4457600080fd5b613d5086838701613c8e565b93506020850135915080821115613d6657600080fd5b50613d7385828601613c8e565b9150509250929050565b600081518084526020808501945080840160005b83811015613db65781516001600160a01b031687529582019590820190600101613d91565b509495945050505050565b6000610160825184526020830151816020860152613de182860182613bb3565b91505060408301518482036040860152613dfb8282613bb3565b9150506060830151613e1860608601826001600160a01b03169052565b5060808301518482036080860152613e308282613d7d565b91505060a083015184820360a0860152613e4a8282613d7d565b91505060c083015184820360c0860152613e648282613d7d565b91505060e0830151613e7a60e086018215159052565b5061010083810151151590850152610120808401519085015261014092830151151592909301919091525090565b6000602080830181845280855180835260408601915060408160051b870101925083870160005b82811015613efd57603f19888603018452613eeb858351613dc1565b94509285019290850190600101613ecf565b5092979650505050505050565b600080600060608486031215613f1f57600080fd5b8335925060208401356001600160401b0380821115613f3d57600080fd5b613f4987838801613c8e565b93506040860135915080821115613f5f57600080fd5b50613f6c86828701613c8e565b9150509250925092565b602081526000613f896020830184613dc1565b9392505050565b60008060008060808587031215613fa657600080fd5b84356001600160401b0380821115613fbd57600080fd5b613fc988838901613c8e565b95506020870135915080821115613fdf57600080fd5b613feb88838901613c8e565b9450604087013591506001600160a01b038216821461400957600080fd5b9092506060860135908082111561401f57600080fd5b5061402c87828801613c8e565b91505092959194509250565b6000610140825181855261404e82860182613bb3565b915050602083015184820360208601526140688282613bb3565b915050604083015161407e604086018215159052565b5060608301516060850152608083015161409c608086018215159052565b5060a083015160a085015260c083015160c085015260e083015160e0850152610100808401516140cf8287018215159052565b505061012080840151858303828701526140e98382613bb3565b9695505050505050565b602081526000613f896020830184614038565b6000602080830181845280855180835260408601915060408160051b870101925083870160005b82811015613efd57603f19888603018452614149858351614038565b9450928501929085019060010161412d565b60006101008a83528060208401526141758184018b613bb3565b90508281036040840152614189818a613bb3565b6001600160a01b039890981660608401525050931515608085015291151560a084015260c0830152151560e0909101529392505050565b634e487b7160e01b600052603260045260246000fd5b634e487b7160e01b600052601160045260246000fd5b80820180821115610ac457610ac46141d6565b6001600160a01b039390931683526020830191909152604082015260600190565b60008261423d57634e487b7160e01b600052601260045260246000fd5b500490565b6001600160a01b0391909116815260200190565b600181811c9082168061426a57607f821691505b60208210810361386e57634e487b7160e01b600052602260045260246000fd5b60006001820161429c5761429c6141d6565b5060010190565b60008083546142b181614256565b600182811680156142c957600181146142de5761430d565b60ff198416875282151583028701945061430d565b8760005260208060002060005b858110156143045781548a8201529084019082016142eb565b50505082870194505b50929695505050505050565b6020808252602d908201527f596f75206d75737420626520612076616c696461746f7220746f20706572666f60408201526c3936903a34329030b1ba34b7b760991b606082015260800190565b6020808252602c908201527f596f75206d757374206265207265676973746572656420746f20706572666f7260408201526b36903a34329030b1ba34b7b760a11b606082015260800190565b601f82111561059757600081815260208120601f850160051c810160208610156143d95750805b601f850160051c820191505b818110156143f8578281556001016143e5565b505050505050565b81516001600160401b0381111561441957614419613c78565b61442d816144278454614256565b846143b2565b602080601f831160018114614462576000841561444a5750858301515b600019600386901b1c1916600185901b1785556143f8565b600085815260208120601f198616915b8281101561449157888601518255948401946001909101908401614472565b50858210156144af5787850151600019600388901b60f8161c191681555b5050505050600190811b01905550565b602080825260169082015275105c9d1a58db1948191bd95cc81b9bdd08195e1a5cdd60521b604082015260600190565b9182526001600160a01b0316602082015260400190565b81810381811115610ac457610ac46141d656fe30ae330d31ec45ea0986fd063ab7352619fa20f5175678a7c577dfa1f4d5a9dea264697066735822122036663dd71c6fcbc292764c890e8df62e416e9e06135ea6bf3df7f597ed7a2c2164736f6c63430008110033",
  "linkReferences": {},
  "deployedLinkReferences": {}
}