{
  "_format": "hh-sol-artifact-1",
  "contractName": "NewsForumContract",
  "sourceName": "contracts/NewsForum.sol",
  "abi": [
    {
      "inputs": [],
      "stateMutability": "nonpayable",
      "type": "constructor"
    },
    {
      "anonymous": false,
      "inputs": [
        {
          "indexed": false,
          "internalType": "uint256",
          "name": "articleId",
          "type": "uint256"
        }
      ],
      "name": "ArticleAdded",
      "type": "event"
    },
    {
      "anonymous": false,
      "inputs": [
        {
          "indexed": false,
          "internalType": "uint256",
          "name": "articleId",
          "type": "uint256"
        },
        {
          "indexed": false,
          "internalType": "address",
          "name": "upvoter",
          "type": "address"
        }
      ],
      "name": "ArticleDownvoted",
      "type": "event"
    },
    {
      "anonymous": false,
      "inputs": [
        {
          "indexed": false,
          "internalType": "uint256",
          "name": "articleId",
          "type": "uint256"
        }
      ],
      "name": "ArticleUpdated",
      "type": "event"
    },
    {
      "anonymous": false,
      "inputs": [
        {
          "indexed": false,
          "internalType": "uint256",
          "name": "articleId",
          "type": "uint256"
        },
        {
          "indexed": false,
          "internalType": "address",
          "name": "upvoter",
          "type": "address"
        }
      ],
      "name": "ArticleUpvoted",
      "type": "event"
    },
    {
      "anonymous": false,
      "inputs": [
        {
          "indexed": false,
          "internalType": "uint256",
          "name": "articleId",
          "type": "uint256"
        }
      ],
      "name": "ArticleValidated",
      "type": "event"
    },
    {
      "anonymous": false,
      "inputs": [
        {
          "indexed": false,
          "internalType": "uint256",
          "name": "articleId",
          "type": "uint256"
        },
        {
          "indexed": false,
          "internalType": "address",
          "name": "validator",
          "type": "address"
        }
      ],
      "name": "ArticleValidatedByUser",
      "type": "event"
    },
    {
      "anonymous": false,
      "inputs": [
        {
          "indexed": false,
          "internalType": "address",
          "name": "validator",
          "type": "address"
        }
      ],
      "name": "NewActiveValidatorAdded",
      "type": "event"
    },
    {
      "anonymous": false,
      "inputs": [
        {
          "indexed": false,
          "internalType": "address",
          "name": "receiver",
          "type": "address"
        },
        {
          "indexed": false,
          "internalType": "uint256",
          "name": "receiverRewards",
          "type": "uint256"
        },
        {
          "indexed": false,
          "internalType": "uint256",
          "name": "totalReward",
          "type": "uint256"
        }
      ],
      "name": "RewardSummary",
      "type": "event"
    },
    {
      "anonymous": false,
      "inputs": [
        {
          "indexed": false,
          "internalType": "uint256",
          "name": "articleId",
          "type": "uint256"
        },
        {
          "indexed": false,
          "internalType": "address",
          "name": "author",
          "type": "address"
        }
      ],
      "name": "TryGivingPower",
      "type": "event"
    },
    {
      "anonymous": false,
      "inputs": [
        {
          "indexed": false,
          "internalType": "uint256",
          "name": "userId",
          "type": "uint256"
        }
      ],
      "name": "UserAdded",
      "type": "event"
    },
    {
      "anonymous": false,
      "inputs": [
        {
          "indexed": false,
          "internalType": "uint256",
          "name": "userId",
          "type": "uint256"
        }
      ],
      "name": "UserUpdated",
      "type": "event"
    },
    {
      "anonymous": false,
      "inputs": [
        {
          "indexed": false,
          "internalType": "address",
          "name": "fromUser",
          "type": "address"
        },
        {
          "indexed": false,
          "internalType": "address",
          "name": "toUser",
          "type": "address"
        }
      ],
      "name": "ValidationPowerTransferred",
      "type": "event"
    },
    {
      "anonymous": false,
      "inputs": [
        {
          "indexed": false,
          "internalType": "address",
          "name": "User",
          "type": "address"
        }
      ],
      "name": "eligibleValidator",
      "type": "event"
    },
    {
      "inputs": [
        {
          "internalType": "string",
          "name": "_title",
          "type": "string"
        },
        {
          "internalType": "string",
          "name": "_content",
          "type": "string"
        }
      ],
      "name": "addArticle",
      "outputs": [],
      "stateMutability": "nonpayable",
      "type": "function"
    },
    {
      "inputs": [
        {
          "internalType": "string",
          "name": "_name",
          "type": "string"
        },
        {
          "internalType": "string",
          "name": "_email",
          "type": "string"
        },
        {
          "internalType": "address",
          "name": "_wallet",
          "type": "address"
        }
      ],
      "name": "addNewUser",
      "outputs": [
        {
          "internalType": "uint256",
          "name": "",
          "type": "uint256"
        }
      ],
      "stateMutability": "nonpayable",
      "type": "function"
    },
    {
      "inputs": [
        {
          "internalType": "uint256",
          "name": "",
          "type": "uint256"
        }
      ],
      "name": "articles",
      "outputs": [
        {
          "internalType": "uint256",
          "name": "id",
          "type": "uint256"
        },
        {
          "internalType": "string",
          "name": "title",
          "type": "string"
        },
        {
          "internalType": "string",
          "name": "content",
          "type": "string"
        },
        {
          "internalType": "address",
          "name": "author",
          "type": "address"
        },
        {
          "internalType": "bool",
          "name": "isValidated",
          "type": "bool"
        },
        {
          "internalType": "bool",
          "name": "valid",
          "type": "bool"
        },
        {
          "internalType": "uint256",
          "name": "timestamp",
          "type": "uint256"
        },
        {
          "internalType": "bool",
          "name": "validatorsRewardedUponUpvotes",
          "type": "bool"
        }
      ],
      "stateMutability": "view",
      "type": "function"
    },
    {
      "inputs": [],
      "name": "currentNumberOfValidators",
      "outputs": [
        {
          "internalType": "uint256",
          "name": "",
          "type": "uint256"
        }
      ],
      "stateMutability": "view",
      "type": "function"
    },
    {
      "inputs": [
        {
          "internalType": "uint256",
          "name": "articleId",
          "type": "uint256"
        }
      ],
      "name": "downvoteArticle",
      "outputs": [],
      "stateMutability": "nonpayable",
      "type": "function"
    },
    {
      "inputs": [],
      "name": "getAllArticles",
      "outputs": [
        {
          "components": [
            {
              "internalType": "uint256",
              "name": "id",
              "type": "uint256"
            },
            {
              "internalType": "string",
              "name": "title",
              "type": "string"
            },
            {
              "internalType": "string",
              "name": "content",
              "type": "string"
            },
            {
              "internalType": "address",
              "name": "author",
              "type": "address"
            },
            {
              "internalType": "address[]",
              "name": "upvotes",
              "type": "address[]"
            },
            {
              "internalType": "address[]",
              "name": "downvotes",
              "type": "address[]"
            },
            {
              "internalType": "address[]",
              "name": "validators",
              "type": "address[]"
            },
            {
              "internalType": "bool",
              "name": "isValidated",
              "type": "bool"
            },
            {
              "internalType": "bool",
              "name": "valid",
              "type": "bool"
            },
            {
              "internalType": "uint256",
              "name": "timestamp",
              "type": "uint256"
            },
            {
              "internalType": "bool",
              "name": "validatorsRewardedUponUpvotes",
              "type": "bool"
            }
          ],
          "internalType": "struct NewsForumContract.Article[]",
          "name": "",
          "type": "tuple[]"
        }
      ],
      "stateMutability": "view",
      "type": "function"
    },
    {
      "inputs": [],
      "name": "getAllArticlesForValidation",
      "outputs": [
        {
          "components": [
            {
              "internalType": "uint256",
              "name": "id",
              "type": "uint256"
            },
            {
              "internalType": "string",
              "name": "title",
              "type": "string"
            },
            {
              "internalType": "string",
              "name": "content",
              "type": "string"
            },
            {
              "internalType": "address",
              "name": "author",
              "type": "address"
            },
            {
              "internalType": "address[]",
              "name": "upvotes",
              "type": "address[]"
            },
            {
              "internalType": "address[]",
              "name": "downvotes",
              "type": "address[]"
            },
            {
              "internalType": "address[]",
              "name": "validators",
              "type": "address[]"
            },
            {
              "internalType": "bool",
              "name": "isValidated",
              "type": "bool"
            },
            {
              "internalType": "bool",
              "name": "valid",
              "type": "bool"
            },
            {
              "internalType": "uint256",
              "name": "timestamp",
              "type": "uint256"
            },
            {
              "internalType": "bool",
              "name": "validatorsRewardedUponUpvotes",
              "type": "bool"
            }
          ],
          "internalType": "struct NewsForumContract.Article[]",
          "name": "",
          "type": "tuple[]"
        }
      ],
      "stateMutability": "view",
      "type": "function"
    },
    {
      "inputs": [],
      "name": "getAllUsers",
      "outputs": [
        {
          "components": [
            {
              "internalType": "string",
              "name": "name",
              "type": "string"
            },
            {
              "internalType": "string",
              "name": "email",
              "type": "string"
            },
            {
              "internalType": "address",
              "name": "userAddress",
              "type": "address"
            },
            {
              "internalType": "bool",
              "name": "valid",
              "type": "bool"
            },
            {
              "internalType": "uint256",
              "name": "timestamp",
              "type": "uint256"
            },
            {
              "internalType": "bool",
              "name": "canBeValidator",
              "type": "bool"
            },
            {
              "internalType": "uint256",
              "name": "articlesValidatedSinceLastAppoint",
              "type": "uint256"
            },
            {
              "internalType": "uint256",
              "name": "rewardCount",
              "type": "uint256"
            },
            {
              "internalType": "uint256",
              "name": "articleValidatedCount",
              "type": "uint256"
            },
            {
              "internalType": "uint256",
              "name": "unvalidatedArticlesCount",
              "type": "uint256"
            },
            {
              "internalType": "bool",
              "name": "isActiveValidator",
              "type": "bool"
            }
          ],
          "internalType": "struct NewsForumContract.User[]",
          "name": "",
          "type": "tuple[]"
        }
      ],
      "stateMutability": "view",
      "type": "function"
    },
    {
      "inputs": [],
      "name": "getAllValidatedArticles",
      "outputs": [
        {
          "components": [
            {
              "internalType": "uint256",
              "name": "id",
              "type": "uint256"
            },
            {
              "internalType": "string",
              "name": "title",
              "type": "string"
            },
            {
              "internalType": "string",
              "name": "content",
              "type": "string"
            },
            {
              "internalType": "address",
              "name": "author",
              "type": "address"
            },
            {
              "internalType": "address[]",
              "name": "upvotes",
              "type": "address[]"
            },
            {
              "internalType": "address[]",
              "name": "downvotes",
              "type": "address[]"
            },
            {
              "internalType": "address[]",
              "name": "validators",
              "type": "address[]"
            },
            {
              "internalType": "bool",
              "name": "isValidated",
              "type": "bool"
            },
            {
              "internalType": "bool",
              "name": "valid",
              "type": "bool"
            },
            {
              "internalType": "uint256",
              "name": "timestamp",
              "type": "uint256"
            },
            {
              "internalType": "bool",
              "name": "validatorsRewardedUponUpvotes",
              "type": "bool"
            }
          ],
          "internalType": "struct NewsForumContract.Article[]",
          "name": "",
          "type": "tuple[]"
        }
      ],
      "stateMutability": "view",
      "type": "function"
    },
    {
      "inputs": [
        {
          "internalType": "uint256",
          "name": "articleId",
          "type": "uint256"
        }
      ],
      "name": "getArticleById",
      "outputs": [
        {
          "components": [
            {
              "internalType": "uint256",
              "name": "id",
              "type": "uint256"
            },
            {
              "internalType": "string",
              "name": "title",
              "type": "string"
            },
            {
              "internalType": "string",
              "name": "content",
              "type": "string"
            },
            {
              "internalType": "address",
              "name": "author",
              "type": "address"
            },
            {
              "internalType": "address[]",
              "name": "upvotes",
              "type": "address[]"
            },
            {
              "internalType": "address[]",
              "name": "downvotes",
              "type": "address[]"
            },
            {
              "internalType": "address[]",
              "name": "validators",
              "type": "address[]"
            },
            {
              "internalType": "bool",
              "name": "isValidated",
              "type": "bool"
            },
            {
              "internalType": "bool",
              "name": "valid",
              "type": "bool"
            },
            {
              "internalType": "uint256",
              "name": "timestamp",
              "type": "uint256"
            },
            {
              "internalType": "bool",
              "name": "validatorsRewardedUponUpvotes",
              "type": "bool"
            }
          ],
          "internalType": "struct NewsForumContract.Article",
          "name": "",
          "type": "tuple"
        }
      ],
      "stateMutability": "view",
      "type": "function"
    },
    {
      "inputs": [],
      "name": "getArticleCount",
      "outputs": [
        {
          "internalType": "uint256",
          "name": "",
          "type": "uint256"
        }
      ],
      "stateMutability": "view",
      "type": "function"
    },
    {
      "inputs": [],
      "name": "getMyArticles",
      "outputs": [
        {
          "components": [
            {
              "internalType": "uint256",
              "name": "id",
              "type": "uint256"
            },
            {
              "internalType": "string",
              "name": "title",
              "type": "string"
            },
            {
              "internalType": "string",
              "name": "content",
              "type": "string"
            },
            {
              "internalType": "address",
              "name": "author",
              "type": "address"
            },
            {
              "internalType": "address[]",
              "name": "upvotes",
              "type": "address[]"
            },
            {
              "internalType": "address[]",
              "name": "downvotes",
              "type": "address[]"
            },
            {
              "internalType": "address[]",
              "name": "validators",
              "type": "address[]"
            },
            {
              "internalType": "bool",
              "name": "isValidated",
              "type": "bool"
            },
            {
              "internalType": "bool",
              "name": "valid",
              "type": "bool"
            },
            {
              "internalType": "uint256",
              "name": "timestamp",
              "type": "uint256"
            },
            {
              "internalType": "bool",
              "name": "validatorsRewardedUponUpvotes",
              "type": "bool"
            }
          ],
          "internalType": "struct NewsForumContract.Article[]",
          "name": "",
          "type": "tuple[]"
        }
      ],
      "stateMutability": "view",
      "type": "function"
    },
    {
      "inputs": [
        {
          "internalType": "uint256",
          "name": "articleId",
          "type": "uint256"
        }
      ],
      "name": "getNumberOfDownvotes",
      "outputs": [
        {
          "internalType": "uint256",
          "name": "",
          "type": "uint256"
        }
      ],
      "stateMutability": "view",
      "type": "function"
    },
    {
      "inputs": [
        {
          "internalType": "uint256",
          "name": "articleId",
          "type": "uint256"
        }
      ],
      "name": "getNumberOfUpvotes",
      "outputs": [
        {
          "internalType": "uint256",
          "name": "",
          "type": "uint256"
        }
      ],
      "stateMutability": "view",
      "type": "function"
    },
    {
      "inputs": [
        {
          "internalType": "uint256",
          "name": "userId",
          "type": "uint256"
        }
      ],
      "name": "getUser",
      "outputs": [
        {
          "components": [
            {
              "internalType": "string",
              "name": "name",
              "type": "string"
            },
            {
              "internalType": "string",
              "name": "email",
              "type": "string"
            },
            {
              "internalType": "address",
              "name": "userAddress",
              "type": "address"
            },
            {
              "internalType": "bool",
              "name": "valid",
              "type": "bool"
            },
            {
              "internalType": "uint256",
              "name": "timestamp",
              "type": "uint256"
            },
            {
              "internalType": "bool",
              "name": "canBeValidator",
              "type": "bool"
            },
            {
              "internalType": "uint256",
              "name": "articlesValidatedSinceLastAppoint",
              "type": "uint256"
            },
            {
              "internalType": "uint256",
              "name": "rewardCount",
              "type": "uint256"
            },
            {
              "internalType": "uint256",
              "name": "articleValidatedCount",
              "type": "uint256"
            },
            {
              "internalType": "uint256",
              "name": "unvalidatedArticlesCount",
              "type": "uint256"
            },
            {
              "internalType": "bool",
              "name": "isActiveValidator",
              "type": "bool"
            }
          ],
          "internalType": "struct NewsForumContract.User",
          "name": "",
          "type": "tuple"
        }
      ],
      "stateMutability": "view",
      "type": "function"
    },
    {
      "inputs": [],
      "name": "getUserCount",
      "outputs": [
        {
          "internalType": "uint256",
          "name": "",
          "type": "uint256"
        }
      ],
      "stateMutability": "view",
      "type": "function"
    },
    {
      "inputs": [],
      "name": "maxNumberOfActiveValidators",
      "outputs": [
        {
          "internalType": "uint256",
          "name": "",
          "type": "uint256"
        }
      ],
      "stateMutability": "view",
      "type": "function"
    },
    {
      "inputs": [],
      "name": "maxUnvalidatedArticles",
      "outputs": [
        {
          "internalType": "uint256",
          "name": "",
          "type": "uint256"
        }
      ],
      "stateMutability": "view",
      "type": "function"
    },
    {
      "inputs": [],
      "name": "minArticleValidationsToGetValidatorPower",
      "outputs": [
        {
          "internalType": "uint256",
          "name": "",
          "type": "uint256"
        }
      ],
      "stateMutability": "view",
      "type": "function"
    },
    {
      "inputs": [],
      "name": "rewardToEditorUponArticleValidation",
      "outputs": [
        {
          "internalType": "uint256",
          "name": "",
          "type": "uint256"
        }
      ],
      "stateMutability": "view",
      "type": "function"
    },
    {
      "inputs": [],
      "name": "rewardToValidatorsUponReachingUpvotes",
      "outputs": [
        {
          "internalType": "uint256",
          "name": "",
          "type": "uint256"
        }
      ],
      "stateMutability": "view",
      "type": "function"
    },
    {
      "inputs": [],
      "name": "totalRewardCount",
      "outputs": [
        {
          "internalType": "uint256",
          "name": "",
          "type": "uint256"
        }
      ],
      "stateMutability": "view",
      "type": "function"
    },
    {
      "inputs": [
        {
          "internalType": "uint256",
          "name": "articleId",
          "type": "uint256"
        },
        {
          "internalType": "string",
          "name": "_title",
          "type": "string"
        },
        {
          "internalType": "string",
          "name": "_content",
          "type": "string"
        }
      ],
      "name": "updateArticle",
      "outputs": [],
      "stateMutability": "nonpayable",
      "type": "function"
    },
    {
      "inputs": [
        {
          "internalType": "string",
          "name": "_name",
          "type": "string"
        },
        {
          "internalType": "string",
          "name": "_email",
          "type": "string"
        }
      ],
      "name": "updateUser",
      "outputs": [],
      "stateMutability": "nonpayable",
      "type": "function"
    },
    {
      "inputs": [
        {
          "internalType": "uint256",
          "name": "articleId",
          "type": "uint256"
        }
      ],
      "name": "upvoteArticle",
      "outputs": [],
      "stateMutability": "nonpayable",
      "type": "function"
    },
    {
      "inputs": [],
      "name": "upvotesCountForAwardToValidator",
      "outputs": [
        {
          "internalType": "uint256",
          "name": "",
          "type": "uint256"
        }
      ],
      "stateMutability": "view",
      "type": "function"
    },
    {
      "inputs": [
        {
          "internalType": "uint256",
          "name": "",
          "type": "uint256"
        }
      ],
      "name": "users",
      "outputs": [
        {
          "internalType": "string",
          "name": "name",
          "type": "string"
        },
        {
          "internalType": "string",
          "name": "email",
          "type": "string"
        },
        {
          "internalType": "address",
          "name": "userAddress",
          "type": "address"
        },
        {
          "internalType": "bool",
          "name": "valid",
          "type": "bool"
        },
        {
          "internalType": "uint256",
          "name": "timestamp",
          "type": "uint256"
        },
        {
          "internalType": "bool",
          "name": "canBeValidator",
          "type": "bool"
        },
        {
          "internalType": "uint256",
          "name": "articlesValidatedSinceLastAppoint",
          "type": "uint256"
        },
        {
          "internalType": "uint256",
          "name": "rewardCount",
          "type": "uint256"
        },
        {
          "internalType": "uint256",
          "name": "articleValidatedCount",
          "type": "uint256"
        },
        {
          "internalType": "uint256",
          "name": "unvalidatedArticlesCount",
          "type": "uint256"
        },
        {
          "internalType": "bool",
          "name": "isActiveValidator",
          "type": "bool"
        }
      ],
      "stateMutability": "view",
      "type": "function"
    },
    {
      "inputs": [
        {
          "internalType": "uint256",
          "name": "articleId",
          "type": "uint256"
        }
      ],
      "name": "validateArticle",
      "outputs": [],
      "stateMutability": "nonpayable",
      "type": "function"
    },
    {
      "inputs": [],
      "name": "validationsForChange",
      "outputs": [
        {
          "internalType": "uint256",
          "name": "",
          "type": "uint256"
        }
      ],
      "stateMutability": "view",
      "type": "function"
    }
  ],
  "bytecode": "0x6080604052600a600055600560015560006002553480156200002057600080fd5b50604080516101a081018252600c61016082019081526b24b73b30b634b2102ab9b2b960a11b6101808301528152815160208181018452600080835290830191909152918101829052606081018290526080810182905260a0810182905260c0810182905260e0810182905261010081018290526101208101829052610140810182905260038054600181018255925280519091600a027fc2575a0e9e593c00f959f8c92f12db2869c3395a3b0502d05e2516446f71f85b01908190620000e89082620004fa565b5060208201516001820190620000ff9082620004fa565b506040828101516002830180546060808701511515600160a01b026001600160a81b03199092166001600160a01b0390941693909317179055608080850151600385015560a085015160048501805491151560ff1992831617905560c0860151600586015560e08601516006808701919091556101008701516007870155610120870151600887015561014090960151600990950180549515159590911694909417909355815161016081018352600080825283518085018552600f81526e496e76616c69642041727469636c6560881b6020828101919091528084019190915284519081018552818152938201939093529081018290529182019060405190808252806020026020018201604052801562000225578160200160208202803683370190505b508152602001600060405190808252806020026020018201604052801562000257578160200160208202803683370190505b508152602001600060405190808252806020026020018201604052801562000289578160200160208202803683370190505b5081526000602080830182905260408301829052606083018290526080909201819052835460018181018655948252908290208351600a90920201908155908201519192909190820190620002df9082620004fa565b5060408201516002820190620002f69082620004fa565b5060608201516003820180546001600160a01b0319166001600160a01b03909216919091179055608082015180516200033a916004840191602090910190620003d4565b5060a0820151805162000358916005840191602090910190620003d4565b5060c0820151805162000376916006840191602090910190620003d4565b5060e08201516007820180546101008086015115150261ff00199315159390931661ffff19909116179190911790556101208201516008820155610140909101516009909101805491151560ff1992909216919091179055620005c6565b8280548282559060005260206000209081019282156200042c579160200282015b828111156200042c57825182546001600160a01b0319166001600160a01b03909116178255602090920191600190910190620003f5565b506200043a9291506200043e565b5090565b5b808211156200043a57600081556001016200043f565b634e487b7160e01b600052604160045260246000fd5b600181811c908216806200048057607f821691505b602082108103620004a157634e487b7160e01b600052602260045260246000fd5b50919050565b601f821115620004f557600081815260208120601f850160051c81016020861015620004d05750805b601f850160051c820191505b81811015620004f157828155600101620004dc565b5050505b505050565b81516001600160401b0381111562000516576200051662000455565b6200052e816200052784546200046b565b84620004a7565b602080601f8311600181146200056657600084156200054d5750858301515b600019600386901b1c1916600185901b178555620004f1565b600085815260208120601f198616915b82811015620005975788860151825594840194600190910190840162000576565b5085821015620005b65787850151600019600388901b60f8161c191681555b5050505050600190811b01905550565b6147bf80620005d66000396000f3fe608060405234801561001057600080fd5b506004361061018f5760003560e01c8063b0467deb116100e4578063dc19628e11610092578063dc19628e146102ec578063dd4a2425146102ff578063e2842d7914610312578063e899d5ff14610327578063eb9f825a1461032f578063ec09e6ad14610338578063edcfafe61461034b578063fc8b5108146101c357600080fd5b8063b0467deb14610290578063b44d310b146102b0578063b5cb15f7146102b8578063b5df05fc146102c0578063c8cb48de146102c8578063cdbdb31a146102d0578063ce45032e146102d957600080fd5b80636ec67ec9116101415780636ec67ec9146102255780637a828b221461023a5780638342fb43146101cb5780638867041214610242578063892cd3991461025557806395de67361461025d578063a217de601461027d57600080fd5b806310b080a0146101945780632d169b79146101b05780632ecb8cb4146101c3578063323058e6146101cb578063365b98b2146101d3578063390f1eef146101fd578063641cabec14610210575b600080fd5b61019d60025481565b6040519081526020015b60405180910390f35b61019d6101be366004613e33565b610372565b61019d600181565b61019d600481565b6101e66101e1366004613e33565b6103a1565b6040516101a79b9a99989796959493929190613e92565b61019d61020b366004613faf565b610535565b610218610797565b6040516101a79190614161565b6102386102333660046141c3565b610baa565b005b61019d600a81565b610238610250366004614226565b610f2b565b61019d600581565b61027061026b366004613e33565b611122565b6040516101a79190614292565b61023861028b366004613e33565b61144c565b6102a361029e366004613e33565b611860565b6040516101a79190614369565b610218611b17565b60035461019d565b610218611e1a565b610218612234565b61019d60005481565b6102386102e7366004613e33565b6125dd565b6102386102fa366004613e33565b612931565b61023861030d3660046141c3565b6130dd565b61031a613244565b6040516101a7919061437c565b60065461019d565b61019d60015481565b61019d610346366004613e33565b61343b565b61035e610359366004613e33565b61346a565b6040516101a79897969594939291906143d1565b60006006828154811061038757610387614436565b600091825260209091206004600a90920201015492915050565b600381815481106103b157600080fd5b90600052602060002090600a02016000915090508060000180546103d49061444c565b80601f01602080910402602001604051908101604052809291908181526020018280546104009061444c565b801561044d5780601f106104225761010080835404028352916020019161044d565b820191906000526020600020905b81548152906001019060200180831161043057829003601f168201915b5050505050908060010180546104629061444c565b80601f016020809104026020016040519081016040528092919081815260200182805461048e9061444c565b80156104db5780601f106104b0576101008083540402835291602001916104db565b820191906000526020600020905b8154815290600101906020018083116104be57829003601f168201915b50505060028401546003850154600486015460058701546006880154600789015460088a01546009909a015498996001600160a01b0387169960ff600160a01b90980488169950959750938616959294919390929091168b565b600154600090819061054990600290614496565b600254101561056f576001905060016002600082825461056991906144b8565b90915550505b6040805161016081018252868152602081018690526001600160a01b0385169181019190915260016060820181905242608083015282151560a08301819052600060c0840181905260e084018190526101008401819052610120840181905261014084019190915260038054928301815590528151600a9091027fc2575a0e9e593c00f959f8c92f12db2869c3395a3b0502d05e2516446f71f85b01908190610618908261451f565b506020820151600182019061062d908261451f565b50604082015160028201805460608501511515600160a01b026001600160a81b03199091166001600160a01b0390931692909217919091179055608082015160038083019190915560a083015160048301805491151560ff1992831617905560c0840151600584015560e084015160068401556101008401516007840155610120840151600884015561014090930151600990920180549215159290931691909117909155546106df906001906145de565b6001600160a01b038416600090815260046020526040812091909155600354849160059161070f906001906145de565b8152602081019190915260400160002080546001600160a01b0319166001600160a01b03929092169190911790556003547f27412bb19840b11057dee7c7019767312555c4497d8d4c2383fa6b7791bf014b9061076e906001906145de565b60405190815260200160405180910390a160035461078e906001906145de565b95945050505050565b33600090815260046020526040902054600380546060929081106107bd576107bd614436565b600091825260209091206009600a90920201015460ff1615156001146107fe5760405162461bcd60e51b81526004016107f5906145f1565b60405180910390fd5b6006546000906001600160401b0381111561081b5761081b613f0d565b60405190808252806020026020018201604052801561085457816020015b610841613d50565b8152602001906001900390816108395790505b509050600060015b600654811015610ba2576006818154811061087957610879614436565b6000918252602082206007600a90920201015460ff1615159003610b9057600681815481106108aa576108aa614436565b90600052602060002090600a020160405180610160016040529081600082015481526020016001820180546108de9061444c565b80601f016020809104026020016040519081016040528092919081815260200182805461090a9061444c565b80156109575780601f1061092c57610100808354040283529160200191610957565b820191906000526020600020905b81548152906001019060200180831161093a57829003601f168201915b505050505081526020016002820180546109709061444c565b80601f016020809104026020016040519081016040528092919081815260200182805461099c9061444c565b80156109e95780601f106109be576101008083540402835291602001916109e9565b820191906000526020600020905b8154815290600101906020018083116109cc57829003601f168201915b505050918352505060038201546001600160a01b03166020808301919091526004830180546040805182850281018501825282815294019392830182828015610a5b57602002820191906000526020600020905b81546001600160a01b03168152600190910190602001808311610a3d575b5050505050815260200160058201805480602002602001604051908101604052809291908181526020018280548015610abd57602002820191906000526020600020905b81546001600160a01b03168152600190910190602001808311610a9f575b5050505050815260200160068201805480602002602001604051908101604052809291908181526020018280548015610b1f57602002820191906000526020600020905b81546001600160a01b03168152600190910190602001808311610b01575b5050509183525050600782015460ff808216151560208401526101009091048116151560408301526008830154606083015260099092015490911615156080909101528351849084908110610b7657610b76614436565b60200260200101819052508180610b8c9061463e565b9250505b80610b9a8161463e565b91505061085c565b509091505090565b33600090815260046020526040902054600380549091908110610bcf57610bcf614436565b90600052602060002090600a020160020160149054906101000a900460ff1615156001151514610c115760405162461bcd60e51b81526004016107f590614657565b33600090815260046020819052604090912054600380549091908110610c3957610c39614436565b90600052602060002090600a02016008015410610cbe5760405162461bcd60e51b815260206004820152603b60248201527f596f752068617665207265616368656420746865206d6178696d756d206e756d60448201527f626572206f6620756e76616c6964617465642061727469636c6573000000000060648201526084016107f5565b600680546040805161016081018252828152602080820187815282840187905233606084015283516000808252818401865260808501919091528451818152808401865260a0850152845181815292830190945260c083019190915260e082018390526001610100830181905242610120840152610140830184905284018555939091528051600a83027ff652222313e28459528d920b65115c16c04f3efc82aaedc97be59f3f377c0d3f810191825593519293919290917ff652222313e28459528d920b65115c16c04f3efc82aaedc97be59f3f377c0d400190610da3908261451f565b5060408201516002820190610db8908261451f565b5060608201516003820180546001600160a01b0319166001600160a01b0390921691909117905560808201518051610dfa916004840191602090910190613db9565b5060a08201518051610e16916005840191602090910190613db9565b5060c08201518051610e32916006840191602090910190613db9565b5060e0820151600780830180546101008087015115150261ff00199415159490941661ffff1990911617929092179091556101208301516008830155610140909201516009909101805491151560ff199290921691909117905560008281526020918252604080822080546001600160a01b0319163390811790915582526004909252205460038054600192908110610ecd57610ecd614436565b90600052602060002090600a02016008016000828254610eed91906144b8565b90915550506040518181527f9ed508f9dd7c730fd307b1ca38355cf4d9c00f58a2acfa5167b497c51a859e4c906020015b60405180910390a1505050565b33600090815260046020526040902054600380549091908110610f5057610f50614436565b90600052602060002090600a020160020160149054906101000a900460ff1615156001151514610f925760405162461bcd60e51b81526004016107f590614657565b6000838152600760205260409020546001600160a01b031633146110135760405162461bcd60e51b815260206004820152603260248201527f596f75206d7573742062652074686520617574686f72206f66207468652061726044820152711d1a58db19481d1bc81d5c19185d19481a5d60721b60648201526084016107f5565b6006838154811061102657611026614436565b600091825260209091206007600a90920201015460ff6101009091041615156001146110645760405162461bcd60e51b81526004016107f5906146a3565b816006848154811061107857611078614436565b90600052602060002090600a02016001019081611095919061451f565b5080600684815481106110aa576110aa614436565b90600052602060002090600a020160020190816110c7919061451f565b5042600684815481106110dc576110dc614436565b90600052602060002090600a0201600801819055507ffe914cbc4c239b4f97b05437e79aabedbfbd6eb5a9083f07348dc0df081e6c2a83604051610f1e91815260200190565b61112a613d50565b6006828154811061113d5761113d614436565b600091825260209091206007600a90920201015460ff61010090910416151560011461117b5760405162461bcd60e51b81526004016107f5906146a3565b6006828154811061118e5761118e614436565b90600052602060002090600a020160405180610160016040529081600082015481526020016001820180546111c29061444c565b80601f01602080910402602001604051908101604052809291908181526020018280546111ee9061444c565b801561123b5780601f106112105761010080835404028352916020019161123b565b820191906000526020600020905b81548152906001019060200180831161121e57829003601f168201915b505050505081526020016002820180546112549061444c565b80601f01602080910402602001604051908101604052809291908181526020018280546112809061444c565b80156112cd5780601f106112a2576101008083540402835291602001916112cd565b820191906000526020600020905b8154815290600101906020018083116112b057829003601f168201915b505050918352505060038201546001600160a01b0316602080830191909152600483018054604080518285028101850182528281529401939283018282801561133f57602002820191906000526020600020905b81546001600160a01b03168152600190910190602001808311611321575b50505050508152602001600582018054806020026020016040519081016040528092919081815260200182805480156113a157602002820191906000526020600020905b81546001600160a01b03168152600190910190602001808311611383575b505050505081526020016006820180548060200260200160405190810160405280929190818152602001828054801561140357602002820191906000526020600020905b81546001600160a01b031681526001909101906020018083116113e5575b5050509183525050600782015460ff8082161515602084015261010090910481161515604083015260088301546060830152600990920154909116151560809091015292915050565b3360009081526004602052604090205460038054909190811061147157611471614436565b90600052602060002090600a020160020160149054906101000a900460ff16151560011515146114b35760405162461bcd60e51b81526004016107f590614657565b80600681815481106114c7576114c7614436565b600091825260209091206007600a90920201015460ff1615156001146114ff5760405162461bcd60e51b81526004016107f5906146d3565b6006828154811061151257611512614436565b600091825260209091206007600a90920201015460ff6101009091041615156001146115505760405162461bcd60e51b81526004016107f5906146a3565b60005b6006838154811061156657611566614436565b90600052602060002090600a02016004018054905081101561164357336001600160a01b03166006848154811061159f5761159f614436565b90600052602060002090600a020160040182815481106115c1576115c1614436565b6000918252602090912001546001600160a01b0316036116315760405162461bcd60e51b815260206004820152602560248201527f596f75206861766520616c7265616479207570766f74656420746869732061726044820152647469636c6560d81b60648201526084016107f5565b8061163b8161463e565b915050611553565b5060005b6006838154811061165a5761165a614436565b90600052602060002090600a02016005018054905081101561173457336001600160a01b03166006848154811061169357611693614436565b90600052602060002090600a020160050182815481106116b5576116b5614436565b6000918252602090912001546001600160a01b03160361172257600683815481106116e2576116e2614436565b90600052602060002090600a0201600501818154811061170457611704614436565b600091825260209091200180546001600160a01b0319169055505050565b8061172c8161463e565b915050611647565b506006828154811061174857611748614436565b600091825260208083206004600a9093020191909101805460018101825590835291200180546001600160a01b031916339081179091556040517f624412f87fce01f1efc8757dd0f01b8db1ef1b8821db35b8800947d87ee65ba1916117b09185919061471d565b60405180910390a1600682815481106117cb576117cb614436565b600091825260209091206009600a90920201015460ff1615801561181657506005600683815481106117ff576117ff614436565b90600052602060002090600a020160040180549050145b1561185c57611824826135e1565b60016006838154811061183957611839614436565b60009182526020909120600a90910201600901805460ff19169115159190911790555b5050565b6118cc604051806101600160405280606081526020016060815260200160006001600160a01b0316815260200160001515815260200160008152602001600015158152602001600081526020016000815260200160008152602001600081526020016000151581525090565b600382815481106118df576118df614436565b90600052602060002090600a020160020160149054906101000a900460ff16151560011515146119475760405162461bcd60e51b8152602060048201526013602482015272155cd95c88191bd95cc81b9bdd08195e1a5cdd606a1b60448201526064016107f5565b6003828154811061195a5761195a614436565b90600052602060002090600a0201604051806101600160405290816000820180546119849061444c565b80601f01602080910402602001604051908101604052809291908181526020018280546119b09061444c565b80156119fd5780601f106119d2576101008083540402835291602001916119fd565b820191906000526020600020905b8154815290600101906020018083116119e057829003601f168201915b50505050508152602001600182018054611a169061444c565b80601f0160208091040260200160405190810160405280929190818152602001828054611a429061444c565b8015611a8f5780601f10611a6457610100808354040283529160200191611a8f565b820191906000526020600020905b815481529060010190602001808311611a7257829003601f168201915b505050918352505060028201546001600160a01b038116602083015260ff600160a01b909104811615156040830152600383015460608301526004830154811615156080830152600583015460a0830152600683015460c0830152600783015460e0830152600883015461010083015260099092015490911615156101209091015292915050565b60606006805480602002602001604051908101604052809291908181526020016000905b82821015611e1157838290600052602060002090600a02016040518061016001604052908160008201548152602001600182018054611b799061444c565b80601f0160208091040260200160405190810160405280929190818152602001828054611ba59061444c565b8015611bf25780601f10611bc757610100808354040283529160200191611bf2565b820191906000526020600020905b815481529060010190602001808311611bd557829003601f168201915b50505050508152602001600282018054611c0b9061444c565b80601f0160208091040260200160405190810160405280929190818152602001828054611c379061444c565b8015611c845780601f10611c5957610100808354040283529160200191611c84565b820191906000526020600020905b815481529060010190602001808311611c6757829003601f168201915b505050918352505060038201546001600160a01b03166020808301919091526004830180546040805182850281018501825282815294019392830182828015611cf657602002820191906000526020600020905b81546001600160a01b03168152600190910190602001808311611cd8575b5050505050815260200160058201805480602002602001604051908101604052809291908181526020018280548015611d5857602002820191906000526020600020905b81546001600160a01b03168152600190910190602001808311611d3a575b5050505050815260200160068201805480602002602001604051908101604052809291908181526020018280548015611dba57602002820191906000526020600020905b81546001600160a01b03168152600190910190602001808311611d9c575b5050509183525050600782015460ff80821615156020808501919091526101009092048116151560408401526008840154606084015260099093015490921615156080909101529082526001929092019101611b3b565b50505050905090565b3360009081526004602052604090205460038054606092908110611e4057611e40614436565b90600052602060002090600a020160020160149054906101000a900460ff1615156001151514611e825760405162461bcd60e51b81526004016107f590614657565b6006546000906001600160401b03811115611e9f57611e9f613f0d565b604051908082528060200260200182016040528015611ed857816020015b611ec5613d50565b815260200190600190039081611ebd5790505b509050600060015b600654811015610ba257336001600160a01b031660068281548110611f0757611f07614436565b600091825260209091206003600a9092020101546001600160a01b0316036122225760068181548110611f3c57611f3c614436565b90600052602060002090600a02016040518061016001604052908160008201548152602001600182018054611f709061444c565b80601f0160208091040260200160405190810160405280929190818152602001828054611f9c9061444c565b8015611fe95780601f10611fbe57610100808354040283529160200191611fe9565b820191906000526020600020905b815481529060010190602001808311611fcc57829003601f168201915b505050505081526020016002820180546120029061444c565b80601f016020809104026020016040519081016040528092919081815260200182805461202e9061444c565b801561207b5780601f106120505761010080835404028352916020019161207b565b820191906000526020600020905b81548152906001019060200180831161205e57829003601f168201915b505050918352505060038201546001600160a01b031660208083019190915260048301805460408051828502810185018252828152940193928301828280156120ed57602002820191906000526020600020905b81546001600160a01b031681526001909101906020018083116120cf575b505050505081526020016005820180548060200260200160405190810160405280929190818152602001828054801561214f57602002820191906000526020600020905b81546001600160a01b03168152600190910190602001808311612131575b50505050508152602001600682018054806020026020016040519081016040528092919081815260200182805480156121b157602002820191906000526020600020905b81546001600160a01b03168152600190910190602001808311612193575b5050509183525050600782015460ff80821615156020840152610100909104811615156040830152600883015460608301526009909201549091161515608090910152835184908490811061220857612208614436565b6020026020010181905250818061221e9061463e565b9250505b8061222c8161463e565b915050611ee0565b6006546060906000906001600160401b0381111561225457612254613f0d565b60405190808252806020026020018201604052801561228d57816020015b61227a613d50565b8152602001906001900390816122725790505b509050600060015b600654811015610ba257600681815481106122b2576122b2614436565b600091825260209091206007600a90920201015460ff1615156001036125cb57600681815481106122e5576122e5614436565b90600052602060002090600a020160405180610160016040529081600082015481526020016001820180546123199061444c565b80601f01602080910402602001604051908101604052809291908181526020018280546123459061444c565b80156123925780601f1061236757610100808354040283529160200191612392565b820191906000526020600020905b81548152906001019060200180831161237557829003601f168201915b505050505081526020016002820180546123ab9061444c565b80601f01602080910402602001604051908101604052809291908181526020018280546123d79061444c565b80156124245780601f106123f957610100808354040283529160200191612424565b820191906000526020600020905b81548152906001019060200180831161240757829003601f168201915b505050918352505060038201546001600160a01b0316602080830191909152600483018054604080518285028101850182528281529401939283018282801561249657602002820191906000526020600020905b81546001600160a01b03168152600190910190602001808311612478575b50505050508152602001600582018054806020026020016040519081016040528092919081815260200182805480156124f857602002820191906000526020600020905b81546001600160a01b031681526001909101906020018083116124da575b505050505081526020016006820180548060200260200160405190810160405280929190818152602001828054801561255a57602002820191906000526020600020905b81546001600160a01b0316815260019091019060200180831161253c575b5050509183525050600782015460ff8082161515602084015261010090910481161515604083015260088301546060830152600990920154909116151560809091015283518490849081106125b1576125b1614436565b602002602001018190525081806125c79061463e565b9250505b806125d58161463e565b915050612295565b3360009081526004602052604090205460038054909190811061260257612602614436565b90600052602060002090600a020160020160149054906101000a900460ff16151560011515146126445760405162461bcd60e51b81526004016107f590614657565b806006818154811061265857612658614436565b600091825260209091206007600a90920201015460ff1615156001146126905760405162461bcd60e51b81526004016107f5906146d3565b600682815481106126a3576126a3614436565b600091825260209091206007600a90920201015460ff6101009091041615156001146126e15760405162461bcd60e51b81526004016107f5906146a3565b60005b600683815481106126f7576126f7614436565b90600052602060002090600a0201600501805490508110156127d657336001600160a01b03166006848154811061273057612730614436565b90600052602060002090600a0201600501828154811061275257612752614436565b6000918252602090912001546001600160a01b0316036127c45760405162461bcd60e51b815260206004820152602760248201527f596f75206861766520616c726561647920646f776e766f74656420746869732060448201526661727469636c6560c81b60648201526084016107f5565b806127ce8161463e565b9150506126e4565b5060005b600683815481106127ed576127ed614436565b90600052602060002090600a0201600401805490508110156128a957336001600160a01b03166006848154811061282657612826614436565b90600052602060002090600a0201600401828154811061284857612848614436565b6000918252602090912001546001600160a01b031603612897576006838154811061287557612875614436565b90600052602060002090600a0201600401818154811061170457611704614436565b806128a18161463e565b9150506127da565b50600682815481106128bd576128bd614436565b600091825260208083206005600a9093020191909101805460018101825590835291200180546001600160a01b031916339081179091556040517feb4192d8708898001a1c24db02ab3f0053db9a1ccbe8eb00da8c40f29f42d08f916129259185919061471d565b60405180910390a15050565b3360009081526004602052604090205460038054909190811061295657612956614436565b90600052602060002090600a020160020160149054906101000a900460ff16151560011515146129985760405162461bcd60e51b81526004016107f590614657565b336000908152600460205260409020546003805490919081106129bd576129bd614436565b600091825260209091206009600a90920201015460ff1615156001146129f55760405162461bcd60e51b81526004016107f5906145f1565b60068181548110612a0857612a08614436565b600091825260209091206007600a90920201015460ff610100909104161515600114612a465760405162461bcd60e51b81526004016107f5906146a3565b60068181548110612a5957612a59614436565b600091825260209091206007600a90920201015460ff1615612ac85760405162461bcd60e51b815260206004820152602260248201527f41727469636c652068617320616c7265616479206265656e2076616c69646174604482015261195960f21b60648201526084016107f5565b336001600160a01b031660068281548110612ae557612ae5614436565b600091825260209091206003600a9092020101546001600160a01b031603612b5b5760405162461bcd60e51b8152602060048201526024808201527f596f752063616e6e6f742076616c696461746520796f7572206f776e2061727460448201526369636c6560e01b60648201526084016107f5565b60005b60068281548110612b7157612b71614436565b90600052602060002090600a020160060180549050811015612c5057336001600160a01b031660068381548110612baa57612baa614436565b90600052602060002090600a02016006018281548110612bcc57612bcc614436565b6000918252602090912001546001600160a01b031603612c3e5760405162461bcd60e51b815260206004820152602760248201527f596f75206861766520616c72656164792076616c69646174656420746869732060448201526661727469636c6560c81b60648201526084016107f5565b80612c488161463e565b915050612b5e565b5060068181548110612c6457612c64614436565b600091825260208083206006600a9093020191909101805460018101825590835291200180546001600160a01b031916339081179091556040517f7e434af9cd16facd6cbcb874af7dab924daf4f8ca785da1aba2da615ecdd54e191612ccc9184919061471d565b60405180910390a133600090815260046020526040902054600380546001919083908110612cfc57612cfc614436565b90600052602060002090600a02016005016000828254612d1c91906144b8565b90915550506006805483908110612d3557612d35614436565b600091825260209091206007600a90920201015460ff16158015612d8e57506002600154612d639190614496565b60068381548110612d7657612d76614436565b90600052602060002090600a02016006018054905010155b156130c557600160068381548110612da857612da8614436565b90600052602060002090600a020160070160006101000a81548160ff021916908315150217905550600160036004600060068681548110612deb57612deb614436565b600091825260208083206003600a9093020191909101546001600160a01b0316835282019290925260400190205481548110612e2957612e29614436565b90600052602060002090600a02016008016000828254612e4991906145de565b90915550506040518281527ff21a901d81e7e3a2e486646e684b097c9c7ca9d27ef0b1b3fb01e4ccad81df7d9060200160405180910390a1612e8a8261380e565b600060068381548110612e9f57612e9f614436565b600091825260209091206003600a9092020101546040516001600160a01b0390911691507f64ab81d133265e22374ee8753d918c4b015493b402b4ad81982df1e4a045cfea90612ef2908590849061471d565b60405180910390a16001600160a01b0381166000908152600460205260409020546003805482908110612f2757612f27614436565b6000918252602082206007600a9092020101805491612f458361463e565b919050555060038181548110612f5d57612f5d614436565b600091825260209091206004600a90920201015460ff16158015612fa65750600460038281548110612f9157612f91614436565b90600052602060002090600a02016007015410155b156130c257600160038281548110612fc057612fc0614436565b60009182526020909120600a90910201600401805460ff1916911515919091179055600154612fed613ab6565b10156130815760016003828154811061300857613008614436565b90600052602060002090600a020160090160006101000a81548160ff02191690831515021790555060016002600082825461304391906144b8565b90915550506040517f44e9a7e8954aaa2834d971520eb9e11068edf3e4bb331cdb1f8467c1bdca2bf490613078908490614734565b60405180910390a15b6000818152600560205260409081902054905160008051602061476a833981519152916130b9916001600160a01b0390911690614734565b60405180910390a15b50505b6001546130d0613ab6565b1061185c5761185c613b1e565b3360009081526004602052604090205460038054909190811061310257613102614436565b90600052602060002090600a020160020160149054906101000a900460ff16151560011515146131445760405162461bcd60e51b81526004016107f590614657565b3360009081526004602052604090205460038054849290811061316957613169614436565b90600052602060002090600a02016000019081613186919061451f565b50336000908152600460205260409020546003805483929081106131ac576131ac614436565b90600052602060002090600a020160010190816131c9919061451f565b50336000908152600460205260409020546003805442929081106131ef576131ef614436565b600091825260208083206003600a909302019190910192909255338152600482526040908190205490519081527f1772b4a44b21fefee39a85737dbc285d69379de8a58ca4c1b3c4af1ccc8c58599101612925565b60606003805480602002602001604051908101604052809291908181526020016000905b82821015611e1157838290600052602060002090600a02016040518061016001604052908160008201805461329c9061444c565b80601f01602080910402602001604051908101604052809291908181526020018280546132c89061444c565b80156133155780601f106132ea57610100808354040283529160200191613315565b820191906000526020600020905b8154815290600101906020018083116132f857829003601f168201915b5050505050815260200160018201805461332e9061444c565b80601f016020809104026020016040519081016040528092919081815260200182805461335a9061444c565b80156133a75780601f1061337c576101008083540402835291602001916133a7565b820191906000526020600020905b81548152906001019060200180831161338a57829003601f168201915b505050918352505060028201546001600160a01b03811660208084019190915260ff600160a01b909204821615156040840152600384015460608401526004840154821615156080840152600584015460a0840152600684015460c0840152600784015460e08401526008840154610100840152600990930154161515610120909101529082526001929092019101613268565b60006006828154811061345057613450614436565b600091825260209091206005600a90920201015492915050565b6006818154811061347a57600080fd5b60009182526020909120600a9091020180546001820180549193509061349f9061444c565b80601f01602080910402602001604051908101604052809291908181526020018280546134cb9061444c565b80156135185780601f106134ed57610100808354040283529160200191613518565b820191906000526020600020905b8154815290600101906020018083116134fb57829003601f168201915b50505050509080600201805461352d9061444c565b80601f01602080910402602001604051908101604052809291908181526020018280546135599061444c565b80156135a65780601f1061357b576101008083540402835291602001916135a6565b820191906000526020600020905b81548152906001019060200180831161358957829003601f168201915b50505060038401546007850154600886015460099096015494956001600160a01b039092169460ff8083169550610100909204821693501688565b60005b600682815481106135f7576135f7614436565b90600052602060002090600a02016006018054905081101561185c5760006006838154811061362857613628614436565b90600052602060002090600a0201600601828154811061364a5761364a614436565b60009182526020808320909101546001600160a01b03168083526004909152604090912054600380549293509091600191908390811061368c5761368c614436565b90600052602060002090600a0201600601546136a891906144b8565b600382815481106136bb576136bb614436565b90600052602060002090600a02016006018190555060016000546136df91906144b8565b6000819055507f45020be2a916de2ae94afde230be2f7c594eebdd86b7a99dd92852b3a9db136e826003838154811061371a5761371a614436565b90600052602060002090600a02016006015460005460405161373e93929190614748565b60405180910390a160026000546137559190614496565b6003828154811061376857613768614436565b90600052602060002090600a020160060154106137f95760016003828154811061379457613794614436565b60009182526020808320600a92909202909101600401805460ff191693151593909317909255828152600590915260409081902054905160008051602061476a833981519152916137f0916001600160a01b0390911690614734565b60405180910390a15b505080806138069061463e565b9150506135e4565b60006006828154811061382357613823614436565b600091825260208083206003600a909302018201546001600160a01b03168084526004909152604090922054815492935091600191908390811061386957613869614436565b90600052602060002090600a02016006015461388591906144b8565b6003828154811061389857613898614436565b90600052602060002090600a02016006018190555060016000546138bc91906144b8565b6000819055507f45020be2a916de2ae94afde230be2f7c594eebdd86b7a99dd92852b3a9db136e82600383815481106138f7576138f7614436565b90600052602060002090600a02016006015460005460405161391b93929190614748565b60405180910390a160026000546139329190614496565b6003828154811061394557613945614436565b90600052602060002090600a02016006015410613ab1576003818154811061396f5761396f614436565b600091825260209091206004600a90920201015460ff166139c25760016003828154811061399f5761399f614436565b60009182526020909120600a90910201600401805460ff19169115159190911790555b600381815481106139d5576139d5614436565b600091825260209091206009600a90920201015460ff16158015613a0157506001546139ff613ab6565b105b15613a9457600160038281548110613a1b57613a1b614436565b90600052602060002090600a020160090160006101000a81548160ff021916908315150217905550600160026000828254613a5691906144b8565b90915550506040517f44e9a7e8954aaa2834d971520eb9e11068edf3e4bb331cdb1f8467c1bdca2bf490613a8b908490614734565b60405180910390a15b60008051602061476a83398151915282604051610f1e9190614734565b505050565b600080805b600354811015613b185760038181548110613ad857613ad8614436565b600091825260209091206009600a90920201015460ff161515600103613b0657613b036001836144b8565b91505b80613b108161463e565b915050613abb565b50919050565b3360009081526004602052604090205460038054600a919083908110613b4657613b46614436565b90600052602060002090600a02016005015410613b6557613b65613b68565b50565b3360009081526004602052604090205460015b60035481101561185c576000818152600560205260409020546001600160a01b0316828214801590613bd8575060038281548110613bbb57613bbb614436565b600091825260209091206004600a90920201015460ff1615156001145b8015613c0b575060038281548110613bf257613bf2614436565b600091825260209091206009600a90920201015460ff16155b15613d3d57600160038381548110613c2557613c25614436565b600091825260208220600a9190910201600901805460ff1916921515929092179091556003805484908110613c5c57613c5c614436565b90600052602060002090600a0201600501819055506000600360046000336001600160a01b03166001600160a01b031681526020019081526020016000205481548110613cab57613cab614436565b600091825260208220600a9190910201600901805460ff1916921515929092179091556003805485908110613ce257613ce2614436565b90600052602060002090600a0201600501819055507f9d68d9cb21bb6b6ad17bf5d888557d8e6608701a7ae8e598ab75f8e12824bc793382604051610f1e9291906001600160a01b0392831681529116602082015260400190565b5080613d488161463e565b915050613b7b565b60405180610160016040528060008152602001606081526020016060815260200160006001600160a01b03168152602001606081526020016060815260200160608152602001600015158152602001600015158152602001600081526020016000151581525090565b828054828255906000526020600020908101928215613e0e579160200282015b82811115613e0e57825182546001600160a01b0319166001600160a01b03909116178255602090920191600190910190613dd9565b50613e1a929150613e1e565b5090565b5b80821115613e1a5760008155600101613e1f565b600060208284031215613e4557600080fd5b5035919050565b6000815180845260005b81811015613e7257602081850181015186830182015201613e56565b506000602082860101526020601f19601f83011685010191505092915050565b6000610160808352613ea68184018f613e4c565b90508281036020840152613eba818e613e4c565b6001600160a01b039c909c16604084015250509715156060890152608088019690965293151560a087015260c086019290925260e085015261010084015261012083015215156101409091015292915050565b634e487b7160e01b600052604160045260246000fd5b600082601f830112613f3457600080fd5b81356001600160401b0380821115613f4e57613f4e613f0d565b604051601f8301601f19908116603f01168101908282118183101715613f7657613f76613f0d565b81604052838152866020858801011115613f8f57600080fd5b836020870160208301376000602085830101528094505050505092915050565b600080600060608486031215613fc457600080fd5b83356001600160401b0380821115613fdb57600080fd5b613fe787838801613f23565b94506020860135915080821115613ffd57600080fd5b5061400a86828701613f23565b92505060408401356001600160a01b038116811461402757600080fd5b809150509250925092565b600081518084526020808501945080840160005b8381101561406b5781516001600160a01b031687529582019590820190600101614046565b509495945050505050565b600061016082518452602083015181602086015261409682860182613e4c565b915050604083015184820360408601526140b08282613e4c565b91505060608301516140cd60608601826001600160a01b03169052565b50608083015184820360808601526140e58282614032565b91505060a083015184820360a08601526140ff8282614032565b91505060c083015184820360c08601526141198282614032565b91505060e083015161412f60e086018215159052565b5061010083810151151590850152610120808401519085015261014080840151801515828701525b5090949350505050565b6000602080830181845280855180835260408601915060408160051b870101925083870160005b828110156141b657603f198886030184526141a4858351614076565b94509285019290850190600101614188565b5092979650505050505050565b600080604083850312156141d657600080fd5b82356001600160401b03808211156141ed57600080fd5b6141f986838701613f23565b9350602085013591508082111561420f57600080fd5b5061421c85828601613f23565b9150509250929050565b60008060006060848603121561423b57600080fd5b8335925060208401356001600160401b038082111561425957600080fd5b61426587838801613f23565b9350604086013591508082111561427b57600080fd5b5061428886828701613f23565b9150509250925092565b6020815260006142a56020830184614076565b9392505050565b600061016082518185526142c282860182613e4c565b915050602083015184820360208601526142dc8282613e4c565b91505060408301516142f960408601826001600160a01b03169052565b50606083015161430d606086018215159052565b506080830151608085015260a083015161432b60a086018215159052565b5060c0838101519085015260e08084015190850152610100808401519085015261012080840151908501526101408084015180151582870152614157565b6020815260006142a560208301846142ac565b6000602080830181845280855180835260408601915060408160051b870101925083870160005b828110156141b657603f198886030184526143bf8583516142ac565b945092850192908501906001016143a3565b60006101008a83528060208401526143eb8184018b613e4c565b905082810360408401526143ff818a613e4c565b6001600160a01b039890981660608401525050931515608085015291151560a084015260c0830152151560e0909101529392505050565b634e487b7160e01b600052603260045260246000fd5b600181811c9082168061446057607f821691505b602082108103613b1857634e487b7160e01b600052602260045260246000fd5b634e487b7160e01b600052601160045260246000fd5b6000826144b357634e487b7160e01b600052601260045260246000fd5b500490565b808201808211156144cb576144cb614480565b92915050565b601f821115613ab157600081815260208120601f850160051c810160208610156144f85750805b601f850160051c820191505b8181101561451757828155600101614504565b505050505050565b81516001600160401b0381111561453857614538613f0d565b61454c81614546845461444c565b846144d1565b602080601f83116001811461458157600084156145695750858301515b600019600386901b1c1916600185901b178555614517565b600085815260208120601f198616915b828110156145b057888601518255948401946001909101908401614591565b50858210156145ce5787850151600019600388901b60f8161c191681555b5050505050600190811b01905550565b818103818111156144cb576144cb614480565b6020808252602d908201527f596f75206d75737420626520612076616c696461746f7220746f20706572666f60408201526c3936903a34329030b1ba34b7b760991b606082015260800190565b60006001820161465057614650614480565b5060010190565b6020808252602c908201527f596f75206d757374206265207265676973746572656420746f20706572666f7260408201526b36903a34329030b1ba34b7b760a11b606082015260800190565b602080825260169082015275105c9d1a58db1948191bd95cc81b9bdd08195e1a5cdd60521b604082015260600190565b6020808252602a908201527f416374696f6e20616c6c6f776564206f6e6c7920666f722076616c6964617465604082015269642061727469636c657360b01b606082015260800190565b9182526001600160a01b0316602082015260400190565b6001600160a01b0391909116815260200190565b6001600160a01b03939093168352602083019190915260408201526060019056fe30ae330d31ec45ea0986fd063ab7352619fa20f5175678a7c577dfa1f4d5a9dea26469706673582212209966726018159c105c80bca96fa80022a88e976da8cf2ee2d9353c19fc98bf6164736f6c63430008110033",
  "linkReferences": {},
  "deployedLinkReferences": {}
}