{
  "_format": "hh-sol-artifact-1",
  "contractName": "NewsForumContract",
  "sourceName": "contracts/NewsForum.sol",
  "abi": [
    {
      "inputs": [],
      "stateMutability": "nonpayable",
      "type": "constructor"
    },
    {
      "anonymous": false,
      "inputs": [
        {
          "indexed": false,
          "internalType": "uint256",
          "name": "articleId",
          "type": "uint256"
        }
      ],
      "name": "ArticleAdded",
      "type": "event"
    },
    {
      "anonymous": false,
      "inputs": [
        {
          "indexed": false,
          "internalType": "uint256",
          "name": "articleId",
          "type": "uint256"
        },
        {
          "indexed": false,
          "internalType": "address",
          "name": "upvoter",
          "type": "address"
        }
      ],
      "name": "ArticleDownvoted",
      "type": "event"
    },
    {
      "anonymous": false,
      "inputs": [
        {
          "indexed": false,
          "internalType": "uint256",
          "name": "articleId",
          "type": "uint256"
        }
      ],
      "name": "ArticleUpdated",
      "type": "event"
    },
    {
      "anonymous": false,
      "inputs": [
        {
          "indexed": false,
          "internalType": "uint256",
          "name": "articleId",
          "type": "uint256"
        },
        {
          "indexed": false,
          "internalType": "address",
          "name": "upvoter",
          "type": "address"
        }
      ],
      "name": "ArticleUpvoted",
      "type": "event"
    },
    {
      "anonymous": false,
      "inputs": [
        {
          "indexed": false,
          "internalType": "uint256",
          "name": "articleId",
          "type": "uint256"
        }
      ],
      "name": "ArticleValidated",
      "type": "event"
    },
    {
      "anonymous": false,
      "inputs": [
        {
          "indexed": false,
          "internalType": "uint256",
          "name": "articleId",
          "type": "uint256"
        },
        {
          "indexed": false,
          "internalType": "address",
          "name": "validator",
          "type": "address"
        }
      ],
      "name": "ArticleValidatedByUser",
      "type": "event"
    },
    {
      "anonymous": false,
      "inputs": [
        {
          "indexed": false,
          "internalType": "address",
          "name": "validator",
          "type": "address"
        }
      ],
      "name": "NewActiveValidatorAdded",
      "type": "event"
    },
    {
      "anonymous": false,
      "inputs": [
        {
          "indexed": false,
          "internalType": "address",
          "name": "receiver",
          "type": "address"
        },
        {
          "indexed": false,
          "internalType": "uint256",
          "name": "receiverRewards",
          "type": "uint256"
        },
        {
          "indexed": false,
          "internalType": "uint256",
          "name": "totalReward",
          "type": "uint256"
        }
      ],
      "name": "RewardSummary",
      "type": "event"
    },
    {
      "anonymous": false,
      "inputs": [
        {
          "indexed": false,
          "internalType": "uint256",
          "name": "articleId",
          "type": "uint256"
        },
        {
          "indexed": false,
          "internalType": "address",
          "name": "author",
          "type": "address"
        }
      ],
      "name": "TryGivingPower",
      "type": "event"
    },
    {
      "anonymous": false,
      "inputs": [
        {
          "indexed": false,
          "internalType": "uint256",
          "name": "userId",
          "type": "uint256"
        }
      ],
      "name": "UserAdded",
      "type": "event"
    },
    {
      "anonymous": false,
      "inputs": [
        {
          "indexed": false,
          "internalType": "uint256",
          "name": "userId",
          "type": "uint256"
        }
      ],
      "name": "UserUpdated",
      "type": "event"
    },
    {
      "anonymous": false,
      "inputs": [
        {
          "indexed": false,
          "internalType": "address",
          "name": "fromUser",
          "type": "address"
        },
        {
          "indexed": false,
          "internalType": "address",
          "name": "toUser",
          "type": "address"
        }
      ],
      "name": "ValidationPowerTransferred",
      "type": "event"
    },
    {
      "anonymous": false,
      "inputs": [
        {
          "indexed": false,
          "internalType": "address",
          "name": "User",
          "type": "address"
        }
      ],
      "name": "eligibleValidator",
      "type": "event"
    },
    {
      "inputs": [
        {
          "internalType": "string",
          "name": "_title",
          "type": "string"
        },
        {
          "internalType": "string",
          "name": "_content",
          "type": "string"
        }
      ],
      "name": "addArticle",
      "outputs": [],
      "stateMutability": "nonpayable",
      "type": "function"
    },
    {
      "inputs": [
        {
          "internalType": "string",
          "name": "_name",
          "type": "string"
        },
        {
          "internalType": "string",
          "name": "_email",
          "type": "string"
        },
        {
          "internalType": "address",
          "name": "_wallet",
          "type": "address"
        }
      ],
      "name": "addNewUser",
      "outputs": [],
      "stateMutability": "nonpayable",
      "type": "function"
    },
    {
      "inputs": [
        {
          "internalType": "uint256",
          "name": "",
          "type": "uint256"
        }
      ],
      "name": "articles",
      "outputs": [
        {
          "internalType": "uint256",
          "name": "id",
          "type": "uint256"
        },
        {
          "internalType": "string",
          "name": "title",
          "type": "string"
        },
        {
          "internalType": "string",
          "name": "content",
          "type": "string"
        },
        {
          "internalType": "address",
          "name": "author",
          "type": "address"
        },
        {
          "internalType": "bool",
          "name": "isValidated",
          "type": "bool"
        },
        {
          "internalType": "bool",
          "name": "valid",
          "type": "bool"
        },
        {
          "internalType": "uint256",
          "name": "timestamp",
          "type": "uint256"
        },
        {
          "internalType": "bool",
          "name": "validatorsRewardedUponUpvotes",
          "type": "bool"
        }
      ],
      "stateMutability": "view",
      "type": "function"
    },
    {
      "inputs": [],
      "name": "currentNumberOfValidators",
      "outputs": [
        {
          "internalType": "uint256",
          "name": "",
          "type": "uint256"
        }
      ],
      "stateMutability": "view",
      "type": "function"
    },
    {
      "inputs": [
        {
          "internalType": "uint256",
          "name": "articleId",
          "type": "uint256"
        }
      ],
      "name": "downvoteArticle",
      "outputs": [],
      "stateMutability": "nonpayable",
      "type": "function"
    },
    {
      "inputs": [],
      "name": "getAllArticles",
      "outputs": [
        {
          "components": [
            {
              "internalType": "uint256",
              "name": "id",
              "type": "uint256"
            },
            {
              "internalType": "string",
              "name": "title",
              "type": "string"
            },
            {
              "internalType": "string",
              "name": "content",
              "type": "string"
            },
            {
              "internalType": "address",
              "name": "author",
              "type": "address"
            },
            {
              "internalType": "address[]",
              "name": "upvotes",
              "type": "address[]"
            },
            {
              "internalType": "address[]",
              "name": "downvotes",
              "type": "address[]"
            },
            {
              "internalType": "address[]",
              "name": "validators",
              "type": "address[]"
            },
            {
              "internalType": "bool",
              "name": "isValidated",
              "type": "bool"
            },
            {
              "internalType": "bool",
              "name": "valid",
              "type": "bool"
            },
            {
              "internalType": "uint256",
              "name": "timestamp",
              "type": "uint256"
            },
            {
              "internalType": "bool",
              "name": "validatorsRewardedUponUpvotes",
              "type": "bool"
            }
          ],
          "internalType": "struct NewsForumContract.Article[]",
          "name": "",
          "type": "tuple[]"
        }
      ],
      "stateMutability": "view",
      "type": "function"
    },
    {
      "inputs": [],
      "name": "getAllArticlesForValidation",
      "outputs": [
        {
          "components": [
            {
              "internalType": "uint256",
              "name": "id",
              "type": "uint256"
            },
            {
              "internalType": "string",
              "name": "title",
              "type": "string"
            },
            {
              "internalType": "string",
              "name": "content",
              "type": "string"
            },
            {
              "internalType": "address",
              "name": "author",
              "type": "address"
            },
            {
              "internalType": "address[]",
              "name": "upvotes",
              "type": "address[]"
            },
            {
              "internalType": "address[]",
              "name": "downvotes",
              "type": "address[]"
            },
            {
              "internalType": "address[]",
              "name": "validators",
              "type": "address[]"
            },
            {
              "internalType": "bool",
              "name": "isValidated",
              "type": "bool"
            },
            {
              "internalType": "bool",
              "name": "valid",
              "type": "bool"
            },
            {
              "internalType": "uint256",
              "name": "timestamp",
              "type": "uint256"
            },
            {
              "internalType": "bool",
              "name": "validatorsRewardedUponUpvotes",
              "type": "bool"
            }
          ],
          "internalType": "struct NewsForumContract.Article[]",
          "name": "",
          "type": "tuple[]"
        }
      ],
      "stateMutability": "view",
      "type": "function"
    },
    {
      "inputs": [],
      "name": "getAllUsers",
      "outputs": [
        {
          "components": [
            {
              "internalType": "string",
              "name": "name",
              "type": "string"
            },
            {
              "internalType": "string",
              "name": "email",
              "type": "string"
            },
            {
              "internalType": "address",
              "name": "userAddress",
              "type": "address"
            },
            {
              "internalType": "bool",
              "name": "valid",
              "type": "bool"
            },
            {
              "internalType": "uint256",
              "name": "timestamp",
              "type": "uint256"
            },
            {
              "internalType": "bool",
              "name": "canBeValidator",
              "type": "bool"
            },
            {
              "internalType": "uint256",
              "name": "articlesValidatedSinceLastAppoint",
              "type": "uint256"
            },
            {
              "internalType": "uint256",
              "name": "rewardCount",
              "type": "uint256"
            },
            {
              "internalType": "uint256",
              "name": "articleValidatedCount",
              "type": "uint256"
            },
            {
              "internalType": "uint256",
              "name": "unvalidatedArticlesCount",
              "type": "uint256"
            },
            {
              "internalType": "bool",
              "name": "isActiveValidator",
              "type": "bool"
            }
          ],
          "internalType": "struct NewsForumContract.User[]",
          "name": "",
          "type": "tuple[]"
        }
      ],
      "stateMutability": "view",
      "type": "function"
    },
    {
      "inputs": [],
      "name": "getAllValidatedArticles",
      "outputs": [
        {
          "components": [
            {
              "internalType": "uint256",
              "name": "id",
              "type": "uint256"
            },
            {
              "internalType": "string",
              "name": "title",
              "type": "string"
            },
            {
              "internalType": "string",
              "name": "content",
              "type": "string"
            },
            {
              "internalType": "address",
              "name": "author",
              "type": "address"
            },
            {
              "internalType": "address[]",
              "name": "upvotes",
              "type": "address[]"
            },
            {
              "internalType": "address[]",
              "name": "downvotes",
              "type": "address[]"
            },
            {
              "internalType": "address[]",
              "name": "validators",
              "type": "address[]"
            },
            {
              "internalType": "bool",
              "name": "isValidated",
              "type": "bool"
            },
            {
              "internalType": "bool",
              "name": "valid",
              "type": "bool"
            },
            {
              "internalType": "uint256",
              "name": "timestamp",
              "type": "uint256"
            },
            {
              "internalType": "bool",
              "name": "validatorsRewardedUponUpvotes",
              "type": "bool"
            }
          ],
          "internalType": "struct NewsForumContract.Article[]",
          "name": "",
          "type": "tuple[]"
        }
      ],
      "stateMutability": "view",
      "type": "function"
    },
    {
      "inputs": [
        {
          "internalType": "uint256",
          "name": "articleId",
          "type": "uint256"
        }
      ],
      "name": "getArticleById",
      "outputs": [
        {
          "components": [
            {
              "internalType": "uint256",
              "name": "id",
              "type": "uint256"
            },
            {
              "internalType": "string",
              "name": "title",
              "type": "string"
            },
            {
              "internalType": "string",
              "name": "content",
              "type": "string"
            },
            {
              "internalType": "address",
              "name": "author",
              "type": "address"
            },
            {
              "internalType": "address[]",
              "name": "upvotes",
              "type": "address[]"
            },
            {
              "internalType": "address[]",
              "name": "downvotes",
              "type": "address[]"
            },
            {
              "internalType": "address[]",
              "name": "validators",
              "type": "address[]"
            },
            {
              "internalType": "bool",
              "name": "isValidated",
              "type": "bool"
            },
            {
              "internalType": "bool",
              "name": "valid",
              "type": "bool"
            },
            {
              "internalType": "uint256",
              "name": "timestamp",
              "type": "uint256"
            },
            {
              "internalType": "bool",
              "name": "validatorsRewardedUponUpvotes",
              "type": "bool"
            }
          ],
          "internalType": "struct NewsForumContract.Article",
          "name": "",
          "type": "tuple"
        }
      ],
      "stateMutability": "view",
      "type": "function"
    },
    {
      "inputs": [],
      "name": "getArticleCount",
      "outputs": [
        {
          "internalType": "uint256",
          "name": "",
          "type": "uint256"
        }
      ],
      "stateMutability": "view",
      "type": "function"
    },
    {
      "inputs": [],
      "name": "getMyArticles",
      "outputs": [
        {
          "components": [
            {
              "internalType": "uint256",
              "name": "id",
              "type": "uint256"
            },
            {
              "internalType": "string",
              "name": "title",
              "type": "string"
            },
            {
              "internalType": "string",
              "name": "content",
              "type": "string"
            },
            {
              "internalType": "address",
              "name": "author",
              "type": "address"
            },
            {
              "internalType": "address[]",
              "name": "upvotes",
              "type": "address[]"
            },
            {
              "internalType": "address[]",
              "name": "downvotes",
              "type": "address[]"
            },
            {
              "internalType": "address[]",
              "name": "validators",
              "type": "address[]"
            },
            {
              "internalType": "bool",
              "name": "isValidated",
              "type": "bool"
            },
            {
              "internalType": "bool",
              "name": "valid",
              "type": "bool"
            },
            {
              "internalType": "uint256",
              "name": "timestamp",
              "type": "uint256"
            },
            {
              "internalType": "bool",
              "name": "validatorsRewardedUponUpvotes",
              "type": "bool"
            }
          ],
          "internalType": "struct NewsForumContract.Article[]",
          "name": "",
          "type": "tuple[]"
        }
      ],
      "stateMutability": "view",
      "type": "function"
    },
    {
      "inputs": [
        {
          "internalType": "uint256",
          "name": "articleId",
          "type": "uint256"
        }
      ],
      "name": "getNumberOfDownvotes",
      "outputs": [
        {
          "internalType": "uint256",
          "name": "",
          "type": "uint256"
        }
      ],
      "stateMutability": "view",
      "type": "function"
    },
    {
      "inputs": [
        {
          "internalType": "uint256",
          "name": "articleId",
          "type": "uint256"
        }
      ],
      "name": "getNumberOfUpvotes",
      "outputs": [
        {
          "internalType": "uint256",
          "name": "",
          "type": "uint256"
        }
      ],
      "stateMutability": "view",
      "type": "function"
    },
    {
      "inputs": [
        {
          "internalType": "uint256",
          "name": "userId",
          "type": "uint256"
        }
      ],
      "name": "getUser",
      "outputs": [
        {
          "components": [
            {
              "internalType": "string",
              "name": "name",
              "type": "string"
            },
            {
              "internalType": "string",
              "name": "email",
              "type": "string"
            },
            {
              "internalType": "address",
              "name": "userAddress",
              "type": "address"
            },
            {
              "internalType": "bool",
              "name": "valid",
              "type": "bool"
            },
            {
              "internalType": "uint256",
              "name": "timestamp",
              "type": "uint256"
            },
            {
              "internalType": "bool",
              "name": "canBeValidator",
              "type": "bool"
            },
            {
              "internalType": "uint256",
              "name": "articlesValidatedSinceLastAppoint",
              "type": "uint256"
            },
            {
              "internalType": "uint256",
              "name": "rewardCount",
              "type": "uint256"
            },
            {
              "internalType": "uint256",
              "name": "articleValidatedCount",
              "type": "uint256"
            },
            {
              "internalType": "uint256",
              "name": "unvalidatedArticlesCount",
              "type": "uint256"
            },
            {
              "internalType": "bool",
              "name": "isActiveValidator",
              "type": "bool"
            }
          ],
          "internalType": "struct NewsForumContract.User",
          "name": "",
          "type": "tuple"
        }
      ],
      "stateMutability": "view",
      "type": "function"
    },
    {
      "inputs": [],
      "name": "getUserCount",
      "outputs": [
        {
          "internalType": "uint256",
          "name": "",
          "type": "uint256"
        }
      ],
      "stateMutability": "view",
      "type": "function"
    },
    {
      "inputs": [],
      "name": "maxNumberOfActiveValidators",
      "outputs": [
        {
          "internalType": "uint256",
          "name": "",
          "type": "uint256"
        }
      ],
      "stateMutability": "view",
      "type": "function"
    },
    {
      "inputs": [],
      "name": "maxNumberOfWordsInArticle",
      "outputs": [
        {
          "internalType": "uint256",
          "name": "",
          "type": "uint256"
        }
      ],
      "stateMutability": "view",
      "type": "function"
    },
    {
      "inputs": [],
      "name": "maxNumberOfWordsInTitle",
      "outputs": [
        {
          "internalType": "uint256",
          "name": "",
          "type": "uint256"
        }
      ],
      "stateMutability": "view",
      "type": "function"
    },
    {
      "inputs": [],
      "name": "maxUnvalidatedArticles",
      "outputs": [
        {
          "internalType": "uint256",
          "name": "",
          "type": "uint256"
        }
      ],
      "stateMutability": "view",
      "type": "function"
    },
    {
      "inputs": [],
      "name": "minArticleValidationsToGetValidatorPower",
      "outputs": [
        {
          "internalType": "uint256",
          "name": "",
          "type": "uint256"
        }
      ],
      "stateMutability": "view",
      "type": "function"
    },
    {
      "inputs": [],
      "name": "rewardToEditorUponArticleValidation",
      "outputs": [
        {
          "internalType": "uint256",
          "name": "",
          "type": "uint256"
        }
      ],
      "stateMutability": "view",
      "type": "function"
    },
    {
      "inputs": [],
      "name": "rewardToValidatorsUponReachingUpvotes",
      "outputs": [
        {
          "internalType": "uint256",
          "name": "",
          "type": "uint256"
        }
      ],
      "stateMutability": "view",
      "type": "function"
    },
    {
      "inputs": [],
      "name": "totalRewardCount",
      "outputs": [
        {
          "internalType": "uint256",
          "name": "",
          "type": "uint256"
        }
      ],
      "stateMutability": "view",
      "type": "function"
    },
    {
      "inputs": [
        {
          "internalType": "uint256",
          "name": "articleId",
          "type": "uint256"
        },
        {
          "internalType": "string",
          "name": "_title",
          "type": "string"
        },
        {
          "internalType": "string",
          "name": "_content",
          "type": "string"
        }
      ],
      "name": "updateArticle",
      "outputs": [],
      "stateMutability": "nonpayable",
      "type": "function"
    },
    {
      "inputs": [
        {
          "internalType": "string",
          "name": "_name",
          "type": "string"
        },
        {
          "internalType": "string",
          "name": "_email",
          "type": "string"
        }
      ],
      "name": "updateUser",
      "outputs": [],
      "stateMutability": "nonpayable",
      "type": "function"
    },
    {
      "inputs": [
        {
          "internalType": "uint256",
          "name": "articleId",
          "type": "uint256"
        }
      ],
      "name": "upvoteArticle",
      "outputs": [],
      "stateMutability": "nonpayable",
      "type": "function"
    },
    {
      "inputs": [],
      "name": "upvotesCountForAwardToValidator",
      "outputs": [
        {
          "internalType": "uint256",
          "name": "",
          "type": "uint256"
        }
      ],
      "stateMutability": "view",
      "type": "function"
    },
    {
      "inputs": [
        {
          "internalType": "uint256",
          "name": "",
          "type": "uint256"
        }
      ],
      "name": "users",
      "outputs": [
        {
          "internalType": "string",
          "name": "name",
          "type": "string"
        },
        {
          "internalType": "string",
          "name": "email",
          "type": "string"
        },
        {
          "internalType": "address",
          "name": "userAddress",
          "type": "address"
        },
        {
          "internalType": "bool",
          "name": "valid",
          "type": "bool"
        },
        {
          "internalType": "uint256",
          "name": "timestamp",
          "type": "uint256"
        },
        {
          "internalType": "bool",
          "name": "canBeValidator",
          "type": "bool"
        },
        {
          "internalType": "uint256",
          "name": "articlesValidatedSinceLastAppoint",
          "type": "uint256"
        },
        {
          "internalType": "uint256",
          "name": "rewardCount",
          "type": "uint256"
        },
        {
          "internalType": "uint256",
          "name": "articleValidatedCount",
          "type": "uint256"
        },
        {
          "internalType": "uint256",
          "name": "unvalidatedArticlesCount",
          "type": "uint256"
        },
        {
          "internalType": "bool",
          "name": "isActiveValidator",
          "type": "bool"
        }
      ],
      "stateMutability": "view",
      "type": "function"
    },
    {
      "inputs": [
        {
          "internalType": "uint256",
          "name": "articleId",
          "type": "uint256"
        }
      ],
      "name": "validateArticle",
      "outputs": [],
      "stateMutability": "nonpayable",
      "type": "function"
    },
    {
      "inputs": [],
      "name": "validationsForChange",
      "outputs": [
        {
          "internalType": "uint256",
          "name": "",
          "type": "uint256"
        }
      ],
      "stateMutability": "view",
      "type": "function"
    }
  ],
  "bytecode": "0x6080604052600a600055600a60015560006002553480156200002057600080fd5b50604080516101a081018252600c61016082019081526b24b73b30b634b2102ab9b2b960a11b6101808301528152815160208181018452600080835290830191909152918101829052606081018290526080810182905260a0810182905260c0810182905260e0810182905261010081018290526101208101829052610140810182905260038054600181018255925280519091600a027fc2575a0e9e593c00f959f8c92f12db2869c3395a3b0502d05e2516446f71f85b01908190620000e89082620004fa565b5060208201516001820190620000ff9082620004fa565b506040828101516002830180546060808701511515600160a01b026001600160a81b03199092166001600160a01b0390941693909317179055608080850151600385015560a085015160048501805491151560ff1992831617905560c0860151600586015560e08601516006808701919091556101008701516007870155610120870151600887015561014090960151600990950180549515159590911694909417909355815161016081018352600080825283518085018552600f81526e496e76616c69642041727469636c6560881b6020828101919091528084019190915284519081018552818152938201939093529081018290529182019060405190808252806020026020018201604052801562000225578160200160208202803683370190505b508152602001600060405190808252806020026020018201604052801562000257578160200160208202803683370190505b508152602001600060405190808252806020026020018201604052801562000289578160200160208202803683370190505b5081526000602080830182905260408301829052606083018290526080909201819052835460018181018655948252908290208351600a90920201908155908201519192909190820190620002df9082620004fa565b5060408201516002820190620002f69082620004fa565b5060608201516003820180546001600160a01b0319166001600160a01b03909216919091179055608082015180516200033a916004840191602090910190620003d4565b5060a0820151805162000358916005840191602090910190620003d4565b5060c0820151805162000376916006840191602090910190620003d4565b5060e08201516007820180546101008086015115150261ff00199315159390931661ffff19909116179190911790556101208201516008820155610140909101516009909101805491151560ff1992909216919091179055620005c6565b8280548282559060005260206000209081019282156200042c579160200282015b828111156200042c57825182546001600160a01b0319166001600160a01b03909116178255602090920191600190910190620003f5565b506200043a9291506200043e565b5090565b5b808211156200043a57600081556001016200043f565b634e487b7160e01b600052604160045260246000fd5b600181811c908216806200048057607f821691505b602082108103620004a157634e487b7160e01b600052602260045260246000fd5b50919050565b601f821115620004f557600081815260208120601f850160051c81016020861015620004d05750805b601f850160051c820191505b81811015620004f157828155600101620004dc565b5050505b505050565b81516001600160401b0381111562000516576200051662000455565b6200052e816200052784546200046b565b84620004a7565b602080601f8311600181146200056657600084156200054d5750858301515b600019600386901b1c1916600185901b178555620004f1565b600085815260208120601f198616915b82811015620005975788860151825594840194600190910190840162000576565b5085821015620005b65787850151600019600388901b60f8161c191681555b5050505050600190811b01905550565b61496b80620005d66000396000f3fe608060405234801561001057600080fd5b50600436106101a55760003560e01c8063a217de60116100ef578063dc19628e11610092578063dc19628e14610312578063dd4a242514610325578063e2842d7914610338578063e899d5ff1461034d578063eb9f825a14610355578063ec09e6ad1461035e578063edcfafe614610371578063fc8b5108146101d957600080fd5b8063a217de60146102a3578063b0467deb146102b6578063b44d310b146102d6578063b5cb15f7146102de578063b5df05fc146102e6578063c8cb48de146102ee578063cdbdb31a146102f6578063ce45032e146102ff57600080fd5b80635ec0b633116101575780635ec0b63314610230578063641cabec146102385780636ec67ec91461024d5780637a828b22146102605780638342fb43146101e95780638867041214610268578063892cd3991461027b57806395de67361461028357600080fd5b806310b080a0146101aa5780632d169b79146101c65780632ecb8cb4146101d95780632ee66ce7146101e1578063323058e6146101e9578063365b98b2146101f1578063390f1eef1461021b575b600080fd5b6101b360025481565b6040519081526020015b60405180910390f35b6101b36101d4366004613f5e565b610398565b6101b3600181565b6101b3601e81565b6101b3600481565b6102046101ff366004613f5e565b6103c7565b6040516101bd9b9a99989796959493929190613fbd565b61022e6102293660046140da565b61055b565b005b6101b360c881565b6102406107a8565b6040516101bd919061428c565b61022e61025b3660046142ee565b610bbb565b6101b3600a81565b61022e610276366004614351565b610f8a565b6101b3600581565b610296610291366004613f5e565b6111cf565b6040516101bd91906143bd565b61022e6102b1366004613f5e565b6114f9565b6102c96102c4366004613f5e565b61190d565b6040516101bd9190614494565b610240611bc4565b6003546101b3565b610240611ec7565b6102406122e1565b6101b360005481565b61022e61030d366004613f5e565b61268a565b61022e610320366004613f5e565b6129de565b61022e6103333660046142ee565b61318a565b6103406132f1565b6040516101bd91906144a7565b6006546101b3565b6101b360015481565b6101b361036c366004613f5e565b6134e8565b61038461037f366004613f5e565b613517565b6040516101bd9897969594939291906144fc565b6000600682815481106103ad576103ad614561565b600091825260209091206004600a90920201015492915050565b600381815481106103d757600080fd5b90600052602060002090600a02016000915090508060000180546103fa90614577565b80601f016020809104026020016040519081016040528092919081815260200182805461042690614577565b80156104735780601f1061044857610100808354040283529160200191610473565b820191906000526020600020905b81548152906001019060200180831161045657829003601f168201915b50505050509080600101805461048890614577565b80601f01602080910402602001604051908101604052809291908181526020018280546104b490614577565b80156105015780601f106104d657610100808354040283529160200191610501565b820191906000526020600020905b8154815290600101906020018083116104e457829003601f168201915b50505060028401546003850154600486015460058701546006880154600789015460088a01546009909a015498996001600160a01b0387169960ff600160a01b90980488169950959750938616959294919390929091168b565b6000600260015461056c91906145c1565b6002541015610592576001905060016002600082825461058c91906145e3565b90915550505b6040805161016081018252858152602081018590526001600160a01b0384169181019190915260016060820181905242608083015282151560a08301819052600060c0840181905260e084018190526101008401819052610120840181905261014084019190915260038054928301815590528151600a9091027fc2575a0e9e593c00f959f8c92f12db2869c3395a3b0502d05e2516446f71f85b0190819061063b9082614644565b50602082015160018201906106509082614644565b50604082015160028201805460608501511515600160a01b026001600160a81b03199091166001600160a01b0390931692909217919091179055608082015160038083019190915560a083015160048301805491151560ff1992831617905560c0840151600584015560e0840151600684015561010084015160078401556101208401516008840155610140909301516009909201805492151592909316919091179091555461070290600190614703565b6001600160a01b038316600090815260046020526040812091909155600354839160059161073290600190614703565b8152602081019190915260400160002080546001600160a01b0319166001600160a01b03929092169190911790556003547f27412bb19840b11057dee7c7019767312555c4497d8d4c2383fa6b7791bf014b9061079190600190614703565b60405190815260200160405180910390a150505050565b33600090815260046020526040902054600380546060929081106107ce576107ce614561565b600091825260209091206009600a90920201015460ff16151560011461080f5760405162461bcd60e51b815260040161080690614716565b60405180910390fd5b6006546000906001600160401b0381111561082c5761082c614038565b60405190808252806020026020018201604052801561086557816020015b610852613e7b565b81526020019060019003908161084a5790505b509050600060015b600654811015610bb3576006818154811061088a5761088a614561565b6000918252602082206007600a90920201015460ff1615159003610ba157600681815481106108bb576108bb614561565b90600052602060002090600a020160405180610160016040529081600082015481526020016001820180546108ef90614577565b80601f016020809104026020016040519081016040528092919081815260200182805461091b90614577565b80156109685780601f1061093d57610100808354040283529160200191610968565b820191906000526020600020905b81548152906001019060200180831161094b57829003601f168201915b5050505050815260200160028201805461098190614577565b80601f01602080910402602001604051908101604052809291908181526020018280546109ad90614577565b80156109fa5780601f106109cf576101008083540402835291602001916109fa565b820191906000526020600020905b8154815290600101906020018083116109dd57829003601f168201915b505050918352505060038201546001600160a01b03166020808301919091526004830180546040805182850281018501825282815294019392830182828015610a6c57602002820191906000526020600020905b81546001600160a01b03168152600190910190602001808311610a4e575b5050505050815260200160058201805480602002602001604051908101604052809291908181526020018280548015610ace57602002820191906000526020600020905b81546001600160a01b03168152600190910190602001808311610ab0575b5050505050815260200160068201805480602002602001604051908101604052809291908181526020018280548015610b3057602002820191906000526020600020905b81546001600160a01b03168152600190910190602001808311610b12575b5050509183525050600782015460ff808216151560208401526101009091048116151560408301526008830154606083015260099092015490911615156080909101528351849084908110610b8757610b87614561565b60200260200101819052508180610b9d90614763565b9250505b80610bab81614763565b91505061086d565b509091505090565b33600090815260046020526040902054600380549091908110610be057610be0614561565b90600052602060002090600a020160020160149054906101000a900460ff1615156001151514610c225760405162461bcd60e51b81526004016108069061477c565b33600090815260046020819052604090912054600380549091908110610c4a57610c4a614561565b90600052602060002090600a02016008015410610ccf5760405162461bcd60e51b815260206004820152603b60248201527f596f752068617665207265616368656420746865206d6178696d756d206e756d60448201527f626572206f6620756e76616c6964617465642061727469636c657300000000006064820152608401610806565b610cda82601e61368e565b610cf65760405162461bcd60e51b8152600401610806906147c8565b610d018160c861368e565b610d1d5760405162461bcd60e51b81526004016108069061480a565b600680546040805161016081018252828152602080820187815282840187905233606084015283516000808252818401865260808501919091528451818152808401865260a0850152845181815292830190945260c083019190915260e082018390526001610100830181905242610120840152610140830184905284018555939091528051600a83027ff652222313e28459528d920b65115c16c04f3efc82aaedc97be59f3f377c0d3f810191825593519293919290917ff652222313e28459528d920b65115c16c04f3efc82aaedc97be59f3f377c0d400190610e029082614644565b5060408201516002820190610e179082614644565b5060608201516003820180546001600160a01b0319166001600160a01b0390921691909117905560808201518051610e59916004840191602090910190613ee4565b5060a08201518051610e75916005840191602090910190613ee4565b5060c08201518051610e91916006840191602090910190613ee4565b5060e0820151600780830180546101008087015115150261ff00199415159490941661ffff1990911617929092179091556101208301516008830155610140909201516009909101805491151560ff199290921691909117905560008281526020918252604080822080546001600160a01b0319163390811790915582526004909252205460038054600192908110610f2c57610f2c614561565b90600052602060002090600a02016008016000828254610f4c91906145e3565b90915550506040518181527f9ed508f9dd7c730fd307b1ca38355cf4d9c00f58a2acfa5167b497c51a859e4c906020015b60405180910390a1505050565b33600090815260046020526040902054600380549091908110610faf57610faf614561565b90600052602060002090600a020160020160149054906101000a900460ff1615156001151514610ff15760405162461bcd60e51b81526004016108069061477c565b6000838152600760205260409020546001600160a01b031633146110725760405162461bcd60e51b815260206004820152603260248201527f596f75206d7573742062652074686520617574686f72206f66207468652061726044820152711d1a58db19481d1bc81d5c19185d19481a5d60721b6064820152608401610806565b6006838154811061108557611085614561565b600091825260209091206007600a90920201015460ff6101009091041615156001146110c35760405162461bcd60e51b81526004016108069061484f565b6110ce82601e61368e565b6110ea5760405162461bcd60e51b8152600401610806906147c8565b6110f58160c861368e565b6111115760405162461bcd60e51b81526004016108069061480a565b816006848154811061112557611125614561565b90600052602060002090600a020160010190816111429190614644565b50806006848154811061115757611157614561565b90600052602060002090600a020160020190816111749190614644565b50426006848154811061118957611189614561565b90600052602060002090600a0201600801819055507ffe914cbc4c239b4f97b05437e79aabedbfbd6eb5a9083f07348dc0df081e6c2a83604051610f7d91815260200190565b6111d7613e7b565b600682815481106111ea576111ea614561565b600091825260209091206007600a90920201015460ff6101009091041615156001146112285760405162461bcd60e51b81526004016108069061484f565b6006828154811061123b5761123b614561565b90600052602060002090600a0201604051806101600160405290816000820154815260200160018201805461126f90614577565b80601f016020809104026020016040519081016040528092919081815260200182805461129b90614577565b80156112e85780601f106112bd576101008083540402835291602001916112e8565b820191906000526020600020905b8154815290600101906020018083116112cb57829003601f168201915b5050505050815260200160028201805461130190614577565b80601f016020809104026020016040519081016040528092919081815260200182805461132d90614577565b801561137a5780601f1061134f5761010080835404028352916020019161137a565b820191906000526020600020905b81548152906001019060200180831161135d57829003601f168201915b505050918352505060038201546001600160a01b031660208083019190915260048301805460408051828502810185018252828152940193928301828280156113ec57602002820191906000526020600020905b81546001600160a01b031681526001909101906020018083116113ce575b505050505081526020016005820180548060200260200160405190810160405280929190818152602001828054801561144e57602002820191906000526020600020905b81546001600160a01b03168152600190910190602001808311611430575b50505050508152602001600682018054806020026020016040519081016040528092919081815260200182805480156114b057602002820191906000526020600020905b81546001600160a01b03168152600190910190602001808311611492575b5050509183525050600782015460ff8082161515602084015261010090910481161515604083015260088301546060830152600990920154909116151560809091015292915050565b3360009081526004602052604090205460038054909190811061151e5761151e614561565b90600052602060002090600a020160020160149054906101000a900460ff16151560011515146115605760405162461bcd60e51b81526004016108069061477c565b806006818154811061157457611574614561565b600091825260209091206007600a90920201015460ff1615156001146115ac5760405162461bcd60e51b81526004016108069061487f565b600682815481106115bf576115bf614561565b600091825260209091206007600a90920201015460ff6101009091041615156001146115fd5760405162461bcd60e51b81526004016108069061484f565b60005b6006838154811061161357611613614561565b90600052602060002090600a0201600401805490508110156116f057336001600160a01b03166006848154811061164c5761164c614561565b90600052602060002090600a0201600401828154811061166e5761166e614561565b6000918252602090912001546001600160a01b0316036116de5760405162461bcd60e51b815260206004820152602560248201527f596f75206861766520616c7265616479207570766f74656420746869732061726044820152647469636c6560d81b6064820152608401610806565b806116e881614763565b915050611600565b5060005b6006838154811061170757611707614561565b90600052602060002090600a0201600501805490508110156117e157336001600160a01b03166006848154811061174057611740614561565b90600052602060002090600a0201600501828154811061176257611762614561565b6000918252602090912001546001600160a01b0316036117cf576006838154811061178f5761178f614561565b90600052602060002090600a020160050181815481106117b1576117b1614561565b600091825260209091200180546001600160a01b0319169055505050565b806117d981614763565b9150506116f4565b50600682815481106117f5576117f5614561565b600091825260208083206004600a9093020191909101805460018101825590835291200180546001600160a01b031916339081179091556040517f624412f87fce01f1efc8757dd0f01b8db1ef1b8821db35b8800947d87ee65ba19161185d918591906148c9565b60405180910390a16006828154811061187857611878614561565b600091825260209091206009600a90920201015460ff161580156118c357506005600683815481106118ac576118ac614561565b90600052602060002090600a020160040180549050145b15611909576118d18261370c565b6001600683815481106118e6576118e6614561565b60009182526020909120600a90910201600901805460ff19169115159190911790555b5050565b611979604051806101600160405280606081526020016060815260200160006001600160a01b0316815260200160001515815260200160008152602001600015158152602001600081526020016000815260200160008152602001600081526020016000151581525090565b6003828154811061198c5761198c614561565b90600052602060002090600a020160020160149054906101000a900460ff16151560011515146119f45760405162461bcd60e51b8152602060048201526013602482015272155cd95c88191bd95cc81b9bdd08195e1a5cdd606a1b6044820152606401610806565b60038281548110611a0757611a07614561565b90600052602060002090600a020160405180610160016040529081600082018054611a3190614577565b80601f0160208091040260200160405190810160405280929190818152602001828054611a5d90614577565b8015611aaa5780601f10611a7f57610100808354040283529160200191611aaa565b820191906000526020600020905b815481529060010190602001808311611a8d57829003601f168201915b50505050508152602001600182018054611ac390614577565b80601f0160208091040260200160405190810160405280929190818152602001828054611aef90614577565b8015611b3c5780601f10611b1157610100808354040283529160200191611b3c565b820191906000526020600020905b815481529060010190602001808311611b1f57829003601f168201915b505050918352505060028201546001600160a01b038116602083015260ff600160a01b909104811615156040830152600383015460608301526004830154811615156080830152600583015460a0830152600683015460c0830152600783015460e0830152600883015461010083015260099092015490911615156101209091015292915050565b60606006805480602002602001604051908101604052809291908181526020016000905b82821015611ebe57838290600052602060002090600a02016040518061016001604052908160008201548152602001600182018054611c2690614577565b80601f0160208091040260200160405190810160405280929190818152602001828054611c5290614577565b8015611c9f5780601f10611c7457610100808354040283529160200191611c9f565b820191906000526020600020905b815481529060010190602001808311611c8257829003601f168201915b50505050508152602001600282018054611cb890614577565b80601f0160208091040260200160405190810160405280929190818152602001828054611ce490614577565b8015611d315780601f10611d0657610100808354040283529160200191611d31565b820191906000526020600020905b815481529060010190602001808311611d1457829003601f168201915b505050918352505060038201546001600160a01b03166020808301919091526004830180546040805182850281018501825282815294019392830182828015611da357602002820191906000526020600020905b81546001600160a01b03168152600190910190602001808311611d85575b5050505050815260200160058201805480602002602001604051908101604052809291908181526020018280548015611e0557602002820191906000526020600020905b81546001600160a01b03168152600190910190602001808311611de7575b5050505050815260200160068201805480602002602001604051908101604052809291908181526020018280548015611e6757602002820191906000526020600020905b81546001600160a01b03168152600190910190602001808311611e49575b5050509183525050600782015460ff80821615156020808501919091526101009092048116151560408401526008840154606084015260099093015490921615156080909101529082526001929092019101611be8565b50505050905090565b3360009081526004602052604090205460038054606092908110611eed57611eed614561565b90600052602060002090600a020160020160149054906101000a900460ff1615156001151514611f2f5760405162461bcd60e51b81526004016108069061477c565b6006546000906001600160401b03811115611f4c57611f4c614038565b604051908082528060200260200182016040528015611f8557816020015b611f72613e7b565b815260200190600190039081611f6a5790505b509050600060015b600654811015610bb357336001600160a01b031660068281548110611fb457611fb4614561565b600091825260209091206003600a9092020101546001600160a01b0316036122cf5760068181548110611fe957611fe9614561565b90600052602060002090600a0201604051806101600160405290816000820154815260200160018201805461201d90614577565b80601f016020809104026020016040519081016040528092919081815260200182805461204990614577565b80156120965780601f1061206b57610100808354040283529160200191612096565b820191906000526020600020905b81548152906001019060200180831161207957829003601f168201915b505050505081526020016002820180546120af90614577565b80601f01602080910402602001604051908101604052809291908181526020018280546120db90614577565b80156121285780601f106120fd57610100808354040283529160200191612128565b820191906000526020600020905b81548152906001019060200180831161210b57829003601f168201915b505050918352505060038201546001600160a01b0316602080830191909152600483018054604080518285028101850182528281529401939283018282801561219a57602002820191906000526020600020905b81546001600160a01b0316815260019091019060200180831161217c575b50505050508152602001600582018054806020026020016040519081016040528092919081815260200182805480156121fc57602002820191906000526020600020905b81546001600160a01b031681526001909101906020018083116121de575b505050505081526020016006820180548060200260200160405190810160405280929190818152602001828054801561225e57602002820191906000526020600020905b81546001600160a01b03168152600190910190602001808311612240575b5050509183525050600782015460ff8082161515602084015261010090910481161515604083015260088301546060830152600990920154909116151560809091015283518490849081106122b5576122b5614561565b602002602001018190525081806122cb90614763565b9250505b806122d981614763565b915050611f8d565b6006546060906000906001600160401b0381111561230157612301614038565b60405190808252806020026020018201604052801561233a57816020015b612327613e7b565b81526020019060019003908161231f5790505b509050600060015b600654811015610bb3576006818154811061235f5761235f614561565b600091825260209091206007600a90920201015460ff161515600103612678576006818154811061239257612392614561565b90600052602060002090600a020160405180610160016040529081600082015481526020016001820180546123c690614577565b80601f01602080910402602001604051908101604052809291908181526020018280546123f290614577565b801561243f5780601f106124145761010080835404028352916020019161243f565b820191906000526020600020905b81548152906001019060200180831161242257829003601f168201915b5050505050815260200160028201805461245890614577565b80601f016020809104026020016040519081016040528092919081815260200182805461248490614577565b80156124d15780601f106124a6576101008083540402835291602001916124d1565b820191906000526020600020905b8154815290600101906020018083116124b457829003601f168201915b505050918352505060038201546001600160a01b0316602080830191909152600483018054604080518285028101850182528281529401939283018282801561254357602002820191906000526020600020905b81546001600160a01b03168152600190910190602001808311612525575b50505050508152602001600582018054806020026020016040519081016040528092919081815260200182805480156125a557602002820191906000526020600020905b81546001600160a01b03168152600190910190602001808311612587575b505050505081526020016006820180548060200260200160405190810160405280929190818152602001828054801561260757602002820191906000526020600020905b81546001600160a01b031681526001909101906020018083116125e9575b5050509183525050600782015460ff80821615156020840152610100909104811615156040830152600883015460608301526009909201549091161515608090910152835184908490811061265e5761265e614561565b6020026020010181905250818061267490614763565b9250505b8061268281614763565b915050612342565b336000908152600460205260409020546003805490919081106126af576126af614561565b90600052602060002090600a020160020160149054906101000a900460ff16151560011515146126f15760405162461bcd60e51b81526004016108069061477c565b806006818154811061270557612705614561565b600091825260209091206007600a90920201015460ff16151560011461273d5760405162461bcd60e51b81526004016108069061487f565b6006828154811061275057612750614561565b600091825260209091206007600a90920201015460ff61010090910416151560011461278e5760405162461bcd60e51b81526004016108069061484f565b60005b600683815481106127a4576127a4614561565b90600052602060002090600a02016005018054905081101561288357336001600160a01b0316600684815481106127dd576127dd614561565b90600052602060002090600a020160050182815481106127ff576127ff614561565b6000918252602090912001546001600160a01b0316036128715760405162461bcd60e51b815260206004820152602760248201527f596f75206861766520616c726561647920646f776e766f74656420746869732060448201526661727469636c6560c81b6064820152608401610806565b8061287b81614763565b915050612791565b5060005b6006838154811061289a5761289a614561565b90600052602060002090600a02016004018054905081101561295657336001600160a01b0316600684815481106128d3576128d3614561565b90600052602060002090600a020160040182815481106128f5576128f5614561565b6000918252602090912001546001600160a01b031603612944576006838154811061292257612922614561565b90600052602060002090600a020160040181815481106117b1576117b1614561565b8061294e81614763565b915050612887565b506006828154811061296a5761296a614561565b600091825260208083206005600a9093020191909101805460018101825590835291200180546001600160a01b031916339081179091556040517feb4192d8708898001a1c24db02ab3f0053db9a1ccbe8eb00da8c40f29f42d08f916129d2918591906148c9565b60405180910390a15050565b33600090815260046020526040902054600380549091908110612a0357612a03614561565b90600052602060002090600a020160020160149054906101000a900460ff1615156001151514612a455760405162461bcd60e51b81526004016108069061477c565b33600090815260046020526040902054600380549091908110612a6a57612a6a614561565b600091825260209091206009600a90920201015460ff161515600114612aa25760405162461bcd60e51b815260040161080690614716565b60068181548110612ab557612ab5614561565b600091825260209091206007600a90920201015460ff610100909104161515600114612af35760405162461bcd60e51b81526004016108069061484f565b60068181548110612b0657612b06614561565b600091825260209091206007600a90920201015460ff1615612b755760405162461bcd60e51b815260206004820152602260248201527f41727469636c652068617320616c7265616479206265656e2076616c69646174604482015261195960f21b6064820152608401610806565b336001600160a01b031660068281548110612b9257612b92614561565b600091825260209091206003600a9092020101546001600160a01b031603612c085760405162461bcd60e51b8152602060048201526024808201527f596f752063616e6e6f742076616c696461746520796f7572206f776e2061727460448201526369636c6560e01b6064820152608401610806565b60005b60068281548110612c1e57612c1e614561565b90600052602060002090600a020160060180549050811015612cfd57336001600160a01b031660068381548110612c5757612c57614561565b90600052602060002090600a02016006018281548110612c7957612c79614561565b6000918252602090912001546001600160a01b031603612ceb5760405162461bcd60e51b815260206004820152602760248201527f596f75206861766520616c72656164792076616c69646174656420746869732060448201526661727469636c6560c81b6064820152608401610806565b80612cf581614763565b915050612c0b565b5060068181548110612d1157612d11614561565b600091825260208083206006600a9093020191909101805460018101825590835291200180546001600160a01b031916339081179091556040517f7e434af9cd16facd6cbcb874af7dab924daf4f8ca785da1aba2da615ecdd54e191612d79918491906148c9565b60405180910390a133600090815260046020526040902054600380546001919083908110612da957612da9614561565b90600052602060002090600a02016005016000828254612dc991906145e3565b90915550506006805483908110612de257612de2614561565b600091825260209091206007600a90920201015460ff16158015612e3b57506002600154612e1091906145c1565b60068381548110612e2357612e23614561565b90600052602060002090600a02016006018054905010155b1561317257600160068381548110612e5557612e55614561565b90600052602060002090600a020160070160006101000a81548160ff021916908315150217905550600160036004600060068681548110612e9857612e98614561565b600091825260208083206003600a9093020191909101546001600160a01b0316835282019290925260400190205481548110612ed657612ed6614561565b90600052602060002090600a02016008016000828254612ef69190614703565b90915550506040518281527ff21a901d81e7e3a2e486646e684b097c9c7ca9d27ef0b1b3fb01e4ccad81df7d9060200160405180910390a1612f3782613939565b600060068381548110612f4c57612f4c614561565b600091825260209091206003600a9092020101546040516001600160a01b0390911691507f64ab81d133265e22374ee8753d918c4b015493b402b4ad81982df1e4a045cfea90612f9f90859084906148c9565b60405180910390a16001600160a01b0381166000908152600460205260409020546003805482908110612fd457612fd4614561565b6000918252602082206007600a9092020101805491612ff283614763565b91905055506003818154811061300a5761300a614561565b600091825260209091206004600a90920201015460ff16158015613053575060046003828154811061303e5761303e614561565b90600052602060002090600a02016007015410155b1561316f5760016003828154811061306d5761306d614561565b60009182526020909120600a90910201600401805460ff191691151591909117905560015461309a613be1565b101561312e576001600382815481106130b5576130b5614561565b90600052602060002090600a020160090160006101000a81548160ff0219169083151502179055506001600260008282546130f091906145e3565b90915550506040517f44e9a7e8954aaa2834d971520eb9e11068edf3e4bb331cdb1f8467c1bdca2bf4906131259084906148e0565b60405180910390a15b6000818152600560205260409081902054905160008051602061491683398151915291613166916001600160a01b03909116906148e0565b60405180910390a15b50505b60015461317d613be1565b1061190957611909613c49565b336000908152600460205260409020546003805490919081106131af576131af614561565b90600052602060002090600a020160020160149054906101000a900460ff16151560011515146131f15760405162461bcd60e51b81526004016108069061477c565b3360009081526004602052604090205460038054849290811061321657613216614561565b90600052602060002090600a020160000190816132339190614644565b503360009081526004602052604090205460038054839290811061325957613259614561565b90600052602060002090600a020160010190816132769190614644565b503360009081526004602052604090205460038054429290811061329c5761329c614561565b600091825260208083206003600a909302019190910192909255338152600482526040908190205490519081527f1772b4a44b21fefee39a85737dbc285d69379de8a58ca4c1b3c4af1ccc8c585991016129d2565b60606003805480602002602001604051908101604052809291908181526020016000905b82821015611ebe57838290600052602060002090600a02016040518061016001604052908160008201805461334990614577565b80601f016020809104026020016040519081016040528092919081815260200182805461337590614577565b80156133c25780601f10613397576101008083540402835291602001916133c2565b820191906000526020600020905b8154815290600101906020018083116133a557829003601f168201915b505050505081526020016001820180546133db90614577565b80601f016020809104026020016040519081016040528092919081815260200182805461340790614577565b80156134545780601f1061342957610100808354040283529160200191613454565b820191906000526020600020905b81548152906001019060200180831161343757829003601f168201915b505050918352505060028201546001600160a01b03811660208084019190915260ff600160a01b909204821615156040840152600384015460608401526004840154821615156080840152600584015460a0840152600684015460c0840152600784015460e08401526008840154610100840152600990930154161515610120909101529082526001929092019101613315565b6000600682815481106134fd576134fd614561565b600091825260209091206005600a90920201015492915050565b6006818154811061352757600080fd5b60009182526020909120600a9091020180546001820180549193509061354c90614577565b80601f016020809104026020016040519081016040528092919081815260200182805461357890614577565b80156135c55780601f1061359a576101008083540402835291602001916135c5565b820191906000526020600020905b8154815290600101906020018083116135a857829003601f168201915b5050505050908060020180546135da90614577565b80601f016020809104026020016040519081016040528092919081815260200182805461360690614577565b80156136535780601f1061362857610100808354040283529160200191613653565b820191906000526020600020905b81548152906001019060200180831161363657829003601f168201915b50505060038401546007850154600886015460099096015494956001600160a01b039092169460ff8083169550610100909204821693501688565b600082816001815b83518110156136fd578381815181106136b1576136b1614561565b01602001516001600160f81b031916600160fd1b036136d357600191506136eb565b81156136eb57826136e381614763565b935050600091505b806136f581614763565b915050613696565b50508310159150505b92915050565b60005b6006828154811061372257613722614561565b90600052602060002090600a0201600601805490508110156119095760006006838154811061375357613753614561565b90600052602060002090600a0201600601828154811061377557613775614561565b60009182526020808320909101546001600160a01b0316808352600490915260409091205460038054929350909160019190839081106137b7576137b7614561565b90600052602060002090600a0201600601546137d391906145e3565b600382815481106137e6576137e6614561565b90600052602060002090600a020160060181905550600160005461380a91906145e3565b6000819055507f45020be2a916de2ae94afde230be2f7c594eebdd86b7a99dd92852b3a9db136e826003838154811061384557613845614561565b90600052602060002090600a020160060154600054604051613869939291906148f4565b60405180910390a1600260005461388091906145c1565b6003828154811061389357613893614561565b90600052602060002090600a02016006015410613924576001600382815481106138bf576138bf614561565b60009182526020808320600a92909202909101600401805460ff19169315159390931790925582815260059091526040908190205490516000805160206149168339815191529161391b916001600160a01b03909116906148e0565b60405180910390a15b5050808061393190614763565b91505061370f565b60006006828154811061394e5761394e614561565b600091825260208083206003600a909302018201546001600160a01b03168084526004909152604090922054815492935091600191908390811061399457613994614561565b90600052602060002090600a0201600601546139b091906145e3565b600382815481106139c3576139c3614561565b90600052602060002090600a02016006018190555060016000546139e791906145e3565b6000819055507f45020be2a916de2ae94afde230be2f7c594eebdd86b7a99dd92852b3a9db136e8260038381548110613a2257613a22614561565b90600052602060002090600a020160060154600054604051613a46939291906148f4565b60405180910390a16002600054613a5d91906145c1565b60038281548110613a7057613a70614561565b90600052602060002090600a02016006015410613bdc5760038181548110613a9a57613a9a614561565b600091825260209091206004600a90920201015460ff16613aed57600160038281548110613aca57613aca614561565b60009182526020909120600a90910201600401805460ff19169115159190911790555b60038181548110613b0057613b00614561565b600091825260209091206009600a90920201015460ff16158015613b2c5750600154613b2a613be1565b105b15613bbf57600160038281548110613b4657613b46614561565b90600052602060002090600a020160090160006101000a81548160ff021916908315150217905550600160026000828254613b8191906145e3565b90915550506040517f44e9a7e8954aaa2834d971520eb9e11068edf3e4bb331cdb1f8467c1bdca2bf490613bb69084906148e0565b60405180910390a15b60008051602061491683398151915282604051610f7d91906148e0565b505050565b600080805b600354811015613c435760038181548110613c0357613c03614561565b600091825260209091206009600a90920201015460ff161515600103613c3157613c2e6001836145e3565b91505b80613c3b81614763565b915050613be6565b50919050565b3360009081526004602052604090205460038054600a919083908110613c7157613c71614561565b90600052602060002090600a02016005015410613c9057613c90613c93565b50565b3360009081526004602052604090205460015b600354811015611909576000818152600560205260409020546001600160a01b0316828214801590613d03575060038281548110613ce657613ce6614561565b600091825260209091206004600a90920201015460ff1615156001145b8015613d36575060038281548110613d1d57613d1d614561565b600091825260209091206009600a90920201015460ff16155b15613e6857600160038381548110613d5057613d50614561565b600091825260208220600a9190910201600901805460ff1916921515929092179091556003805484908110613d8757613d87614561565b90600052602060002090600a0201600501819055506000600360046000336001600160a01b03166001600160a01b031681526020019081526020016000205481548110613dd657613dd6614561565b600091825260208220600a9190910201600901805460ff1916921515929092179091556003805485908110613e0d57613e0d614561565b90600052602060002090600a0201600501819055507f9d68d9cb21bb6b6ad17bf5d888557d8e6608701a7ae8e598ab75f8e12824bc793382604051610f7d9291906001600160a01b0392831681529116602082015260400190565b5080613e7381614763565b915050613ca6565b60405180610160016040528060008152602001606081526020016060815260200160006001600160a01b03168152602001606081526020016060815260200160608152602001600015158152602001600015158152602001600081526020016000151581525090565b828054828255906000526020600020908101928215613f39579160200282015b82811115613f3957825182546001600160a01b0319166001600160a01b03909116178255602090920191600190910190613f04565b50613f45929150613f49565b5090565b5b80821115613f455760008155600101613f4a565b600060208284031215613f7057600080fd5b5035919050565b6000815180845260005b81811015613f9d57602081850181015186830182015201613f81565b506000602082860101526020601f19601f83011685010191505092915050565b6000610160808352613fd18184018f613f77565b90508281036020840152613fe5818e613f77565b6001600160a01b039c909c16604084015250509715156060890152608088019690965293151560a087015260c086019290925260e085015261010084015261012083015215156101409091015292915050565b634e487b7160e01b600052604160045260246000fd5b600082601f83011261405f57600080fd5b81356001600160401b038082111561407957614079614038565b604051601f8301601f19908116603f011681019082821181831017156140a1576140a1614038565b816040528381528660208588010111156140ba57600080fd5b836020870160208301376000602085830101528094505050505092915050565b6000806000606084860312156140ef57600080fd5b83356001600160401b038082111561410657600080fd5b6141128783880161404e565b9450602086013591508082111561412857600080fd5b506141358682870161404e565b92505060408401356001600160a01b038116811461415257600080fd5b809150509250925092565b600081518084526020808501945080840160005b838110156141965781516001600160a01b031687529582019590820190600101614171565b509495945050505050565b60006101608251845260208301518160208601526141c182860182613f77565b915050604083015184820360408601526141db8282613f77565b91505060608301516141f860608601826001600160a01b03169052565b5060808301518482036080860152614210828261415d565b91505060a083015184820360a086015261422a828261415d565b91505060c083015184820360c0860152614244828261415d565b91505060e083015161425a60e086018215159052565b5061010083810151151590850152610120808401519085015261014080840151801515828701525b5090949350505050565b6000602080830181845280855180835260408601915060408160051b870101925083870160005b828110156142e157603f198886030184526142cf8583516141a1565b945092850192908501906001016142b3565b5092979650505050505050565b6000806040838503121561430157600080fd5b82356001600160401b038082111561431857600080fd5b6143248683870161404e565b9350602085013591508082111561433a57600080fd5b506143478582860161404e565b9150509250929050565b60008060006060848603121561436657600080fd5b8335925060208401356001600160401b038082111561438457600080fd5b6143908783880161404e565b935060408601359150808211156143a657600080fd5b506143b38682870161404e565b9150509250925092565b6020815260006143d060208301846141a1565b9392505050565b600061016082518185526143ed82860182613f77565b915050602083015184820360208601526144078282613f77565b915050604083015161442460408601826001600160a01b03169052565b506060830151614438606086018215159052565b506080830151608085015260a083015161445660a086018215159052565b5060c0838101519085015260e08084015190850152610100808401519085015261012080840151908501526101408084015180151582870152614282565b6020815260006143d060208301846143d7565b6000602080830181845280855180835260408601915060408160051b870101925083870160005b828110156142e157603f198886030184526144ea8583516143d7565b945092850192908501906001016144ce565b60006101008a83528060208401526145168184018b613f77565b9050828103604084015261452a818a613f77565b6001600160a01b039890981660608401525050931515608085015291151560a084015260c0830152151560e0909101529392505050565b634e487b7160e01b600052603260045260246000fd5b600181811c9082168061458b57607f821691505b602082108103613c4357634e487b7160e01b600052602260045260246000fd5b634e487b7160e01b600052601160045260246000fd5b6000826145de57634e487b7160e01b600052601260045260246000fd5b500490565b80820180821115613706576137066145ab565b601f821115613bdc57600081815260208120601f850160051c8101602086101561461d5750805b601f850160051c820191505b8181101561463c57828155600101614629565b505050505050565b81516001600160401b0381111561465d5761465d614038565b6146718161466b8454614577565b846145f6565b602080601f8311600181146146a6576000841561468e5750858301515b600019600386901b1c1916600185901b17855561463c565b600085815260208120601f198616915b828110156146d5578886015182559484019460019091019084016146b6565b50858210156146f35787850151600019600388901b60f8161c191681555b5050505050600190811b01905550565b81810381811115613706576137066145ab565b6020808252602d908201527f596f75206d75737420626520612076616c696461746f7220746f20706572666f60408201526c3936903a34329030b1ba34b7b760991b606082015260800190565b600060018201614775576147756145ab565b5060010190565b6020808252602c908201527f596f75206d757374206265207265676973746572656420746f20706572666f7260408201526b36903a34329030b1ba34b7b760a11b606082015260800190565b60208082526022908201527f5469746c65206d7573742068617665206c657373207468616e20333020776f72604082015261647360f01b606082015260800190565b60208082526025908201527f41727469636c65206d7573742068617665206c657373207468616e2032303020604082015264776f72647360d81b606082015260800190565b602080825260169082015275105c9d1a58db1948191bd95cc81b9bdd08195e1a5cdd60521b604082015260600190565b6020808252602a908201527f416374696f6e20616c6c6f776564206f6e6c7920666f722076616c6964617465604082015269642061727469636c657360b01b606082015260800190565b9182526001600160a01b0316602082015260400190565b6001600160a01b0391909116815260200190565b6001600160a01b03939093168352602083019190915260408201526060019056fe30ae330d31ec45ea0986fd063ab7352619fa20f5175678a7c577dfa1f4d5a9dea264697066735822122018a42c88c16af582f082d458d0c234b70dbbe19326e1c61bebc5141269f323d664736f6c63430008110033",
  "linkReferences": {},
  "deployedLinkReferences": {}
}