{
  "_format": "hh-sol-artifact-1",
  "contractName": "NewsForumContract",
  "sourceName": "contracts/NewsForum.sol",
  "abi": [
    {
      "inputs": [],
      "stateMutability": "nonpayable",
      "type": "constructor"
    },
    {
      "anonymous": false,
      "inputs": [
        {
          "indexed": false,
          "internalType": "uint256",
          "name": "articleId",
          "type": "uint256"
        }
      ],
      "name": "ArticleAdded",
      "type": "event"
    },
    {
      "anonymous": false,
      "inputs": [
        {
          "indexed": false,
          "internalType": "uint256",
          "name": "articleId",
          "type": "uint256"
        },
        {
          "indexed": false,
          "internalType": "address",
          "name": "upvoter",
          "type": "address"
        }
      ],
      "name": "ArticleDownvoted",
      "type": "event"
    },
    {
      "anonymous": false,
      "inputs": [
        {
          "indexed": false,
          "internalType": "uint256",
          "name": "articleId",
          "type": "uint256"
        }
      ],
      "name": "ArticleUpdated",
      "type": "event"
    },
    {
      "anonymous": false,
      "inputs": [
        {
          "indexed": false,
          "internalType": "uint256",
          "name": "articleId",
          "type": "uint256"
        },
        {
          "indexed": false,
          "internalType": "address",
          "name": "upvoter",
          "type": "address"
        }
      ],
      "name": "ArticleUpvoted",
      "type": "event"
    },
    {
      "anonymous": false,
      "inputs": [
        {
          "indexed": false,
          "internalType": "uint256",
          "name": "articleId",
          "type": "uint256"
        }
      ],
      "name": "ArticleValidated",
      "type": "event"
    },
    {
      "anonymous": false,
      "inputs": [
        {
          "indexed": false,
          "internalType": "uint256",
          "name": "articleId",
          "type": "uint256"
        },
        {
          "indexed": false,
          "internalType": "address",
          "name": "validator",
          "type": "address"
        }
      ],
      "name": "ArticleValidatedByUser",
      "type": "event"
    },
    {
      "anonymous": false,
      "inputs": [
        {
          "indexed": false,
          "internalType": "address",
          "name": "validator",
          "type": "address"
        }
      ],
      "name": "NewActiveValidatorAdded",
      "type": "event"
    },
    {
      "anonymous": false,
      "inputs": [
        {
          "indexed": false,
          "internalType": "address",
          "name": "receiver",
          "type": "address"
        },
        {
          "indexed": false,
          "internalType": "uint256",
          "name": "receiverRewards",
          "type": "uint256"
        },
        {
          "indexed": false,
          "internalType": "uint256",
          "name": "totalReward",
          "type": "uint256"
        }
      ],
      "name": "RewardSummary",
      "type": "event"
    },
    {
      "anonymous": false,
      "inputs": [
        {
          "indexed": false,
          "internalType": "uint256",
          "name": "articleId",
          "type": "uint256"
        },
        {
          "indexed": false,
          "internalType": "address",
          "name": "author",
          "type": "address"
        }
      ],
      "name": "TryGivingPower",
      "type": "event"
    },
    {
      "anonymous": false,
      "inputs": [
        {
          "indexed": false,
          "internalType": "uint256",
          "name": "userId",
          "type": "uint256"
        }
      ],
      "name": "UserAdded",
      "type": "event"
    },
    {
      "anonymous": false,
      "inputs": [
        {
          "indexed": false,
          "internalType": "uint256",
          "name": "userId",
          "type": "uint256"
        }
      ],
      "name": "UserUpdated",
      "type": "event"
    },
    {
      "anonymous": false,
      "inputs": [
        {
          "indexed": false,
          "internalType": "address",
          "name": "fromUser",
          "type": "address"
        },
        {
          "indexed": false,
          "internalType": "address",
          "name": "toUser",
          "type": "address"
        }
      ],
      "name": "ValidationPowerTransferred",
      "type": "event"
    },
    {
      "anonymous": false,
      "inputs": [
        {
          "indexed": false,
          "internalType": "address",
          "name": "User",
          "type": "address"
        }
      ],
      "name": "eligibleValidator",
      "type": "event"
    },
    {
      "inputs": [
        {
          "internalType": "string",
          "name": "_title",
          "type": "string"
        },
        {
          "internalType": "string",
          "name": "_content",
          "type": "string"
        }
      ],
      "name": "addAnonymously",
      "outputs": [],
      "stateMutability": "nonpayable",
      "type": "function"
    },
    {
      "inputs": [
        {
          "internalType": "string",
          "name": "_title",
          "type": "string"
        },
        {
          "internalType": "string",
          "name": "_content",
          "type": "string"
        },
        {
          "internalType": "string",
          "name": "_username",
          "type": "string"
        }
      ],
      "name": "addArticle",
      "outputs": [],
      "stateMutability": "nonpayable",
      "type": "function"
    },
    {
      "inputs": [
        {
          "internalType": "string",
          "name": "_name",
          "type": "string"
        },
        {
          "internalType": "string",
          "name": "_email",
          "type": "string"
        },
        {
          "internalType": "address",
          "name": "_wallet",
          "type": "address"
        }
      ],
      "name": "addNewUser",
      "outputs": [],
      "stateMutability": "nonpayable",
      "type": "function"
    },
    {
      "inputs": [
        {
          "internalType": "uint256",
          "name": "",
          "type": "uint256"
        }
      ],
      "name": "articles",
      "outputs": [
        {
          "internalType": "uint256",
          "name": "id",
          "type": "uint256"
        },
        {
          "internalType": "string",
          "name": "title",
          "type": "string"
        },
        {
          "internalType": "string",
          "name": "content",
          "type": "string"
        },
        {
          "internalType": "address",
          "name": "author",
          "type": "address"
        },
        {
          "internalType": "bool",
          "name": "isValidated",
          "type": "bool"
        },
        {
          "internalType": "bool",
          "name": "valid",
          "type": "bool"
        },
        {
          "internalType": "uint256",
          "name": "timestamp",
          "type": "uint256"
        },
        {
          "internalType": "bool",
          "name": "validatorsRewardedUponUpvotes",
          "type": "bool"
        },
        {
          "internalType": "string",
          "name": "authorName",
          "type": "string"
        }
      ],
      "stateMutability": "view",
      "type": "function"
    },
    {
      "inputs": [],
      "name": "currentNumberOfValidators",
      "outputs": [
        {
          "internalType": "uint256",
          "name": "",
          "type": "uint256"
        }
      ],
      "stateMutability": "view",
      "type": "function"
    },
    {
      "inputs": [
        {
          "internalType": "uint256",
          "name": "articleId",
          "type": "uint256"
        }
      ],
      "name": "downvoteArticle",
      "outputs": [],
      "stateMutability": "nonpayable",
      "type": "function"
    },
    {
      "inputs": [],
      "name": "getAllArticles",
      "outputs": [
        {
          "components": [
            {
              "internalType": "uint256",
              "name": "id",
              "type": "uint256"
            },
            {
              "internalType": "string",
              "name": "title",
              "type": "string"
            },
            {
              "internalType": "string",
              "name": "content",
              "type": "string"
            },
            {
              "internalType": "address",
              "name": "author",
              "type": "address"
            },
            {
              "internalType": "address[]",
              "name": "upvotes",
              "type": "address[]"
            },
            {
              "internalType": "address[]",
              "name": "downvotes",
              "type": "address[]"
            },
            {
              "internalType": "address[]",
              "name": "validators",
              "type": "address[]"
            },
            {
              "internalType": "bool",
              "name": "isValidated",
              "type": "bool"
            },
            {
              "internalType": "bool",
              "name": "valid",
              "type": "bool"
            },
            {
              "internalType": "uint256",
              "name": "timestamp",
              "type": "uint256"
            },
            {
              "internalType": "bool",
              "name": "validatorsRewardedUponUpvotes",
              "type": "bool"
            },
            {
              "internalType": "string",
              "name": "authorName",
              "type": "string"
            }
          ],
          "internalType": "struct NewsForumContract.Article[]",
          "name": "",
          "type": "tuple[]"
        }
      ],
      "stateMutability": "view",
      "type": "function"
    },
    {
      "inputs": [],
      "name": "getAllArticlesForValidation",
      "outputs": [
        {
          "components": [
            {
              "internalType": "uint256",
              "name": "id",
              "type": "uint256"
            },
            {
              "internalType": "string",
              "name": "title",
              "type": "string"
            },
            {
              "internalType": "string",
              "name": "content",
              "type": "string"
            },
            {
              "internalType": "address",
              "name": "author",
              "type": "address"
            },
            {
              "internalType": "address[]",
              "name": "upvotes",
              "type": "address[]"
            },
            {
              "internalType": "address[]",
              "name": "downvotes",
              "type": "address[]"
            },
            {
              "internalType": "address[]",
              "name": "validators",
              "type": "address[]"
            },
            {
              "internalType": "bool",
              "name": "isValidated",
              "type": "bool"
            },
            {
              "internalType": "bool",
              "name": "valid",
              "type": "bool"
            },
            {
              "internalType": "uint256",
              "name": "timestamp",
              "type": "uint256"
            },
            {
              "internalType": "bool",
              "name": "validatorsRewardedUponUpvotes",
              "type": "bool"
            },
            {
              "internalType": "string",
              "name": "authorName",
              "type": "string"
            }
          ],
          "internalType": "struct NewsForumContract.Article[]",
          "name": "",
          "type": "tuple[]"
        }
      ],
      "stateMutability": "view",
      "type": "function"
    },
    {
      "inputs": [],
      "name": "getAllUsers",
      "outputs": [
        {
          "components": [
            {
              "internalType": "string",
              "name": "name",
              "type": "string"
            },
            {
              "internalType": "string",
              "name": "email",
              "type": "string"
            },
            {
              "internalType": "address",
              "name": "userAddress",
              "type": "address"
            },
            {
              "internalType": "bool",
              "name": "valid",
              "type": "bool"
            },
            {
              "internalType": "uint256",
              "name": "timestamp",
              "type": "uint256"
            },
            {
              "internalType": "bool",
              "name": "canBeValidator",
              "type": "bool"
            },
            {
              "internalType": "uint256",
              "name": "articlesValidatedSinceLastAppoint",
              "type": "uint256"
            },
            {
              "internalType": "uint256",
              "name": "rewardCount",
              "type": "uint256"
            },
            {
              "internalType": "uint256",
              "name": "articleValidatedCount",
              "type": "uint256"
            },
            {
              "internalType": "uint256",
              "name": "unvalidatedArticlesCount",
              "type": "uint256"
            },
            {
              "internalType": "bool",
              "name": "isActiveValidator",
              "type": "bool"
            }
          ],
          "internalType": "struct NewsForumContract.User[]",
          "name": "",
          "type": "tuple[]"
        }
      ],
      "stateMutability": "view",
      "type": "function"
    },
    {
      "inputs": [],
      "name": "getAllValidatedArticles",
      "outputs": [
        {
          "components": [
            {
              "internalType": "uint256",
              "name": "id",
              "type": "uint256"
            },
            {
              "internalType": "string",
              "name": "title",
              "type": "string"
            },
            {
              "internalType": "string",
              "name": "content",
              "type": "string"
            },
            {
              "internalType": "address",
              "name": "author",
              "type": "address"
            },
            {
              "internalType": "address[]",
              "name": "upvotes",
              "type": "address[]"
            },
            {
              "internalType": "address[]",
              "name": "downvotes",
              "type": "address[]"
            },
            {
              "internalType": "address[]",
              "name": "validators",
              "type": "address[]"
            },
            {
              "internalType": "bool",
              "name": "isValidated",
              "type": "bool"
            },
            {
              "internalType": "bool",
              "name": "valid",
              "type": "bool"
            },
            {
              "internalType": "uint256",
              "name": "timestamp",
              "type": "uint256"
            },
            {
              "internalType": "bool",
              "name": "validatorsRewardedUponUpvotes",
              "type": "bool"
            },
            {
              "internalType": "string",
              "name": "authorName",
              "type": "string"
            }
          ],
          "internalType": "struct NewsForumContract.Article[]",
          "name": "",
          "type": "tuple[]"
        }
      ],
      "stateMutability": "view",
      "type": "function"
    },
    {
      "inputs": [
        {
          "internalType": "uint256",
          "name": "articleId",
          "type": "uint256"
        }
      ],
      "name": "getArticleById",
      "outputs": [
        {
          "components": [
            {
              "internalType": "uint256",
              "name": "id",
              "type": "uint256"
            },
            {
              "internalType": "string",
              "name": "title",
              "type": "string"
            },
            {
              "internalType": "string",
              "name": "content",
              "type": "string"
            },
            {
              "internalType": "address",
              "name": "author",
              "type": "address"
            },
            {
              "internalType": "address[]",
              "name": "upvotes",
              "type": "address[]"
            },
            {
              "internalType": "address[]",
              "name": "downvotes",
              "type": "address[]"
            },
            {
              "internalType": "address[]",
              "name": "validators",
              "type": "address[]"
            },
            {
              "internalType": "bool",
              "name": "isValidated",
              "type": "bool"
            },
            {
              "internalType": "bool",
              "name": "valid",
              "type": "bool"
            },
            {
              "internalType": "uint256",
              "name": "timestamp",
              "type": "uint256"
            },
            {
              "internalType": "bool",
              "name": "validatorsRewardedUponUpvotes",
              "type": "bool"
            },
            {
              "internalType": "string",
              "name": "authorName",
              "type": "string"
            }
          ],
          "internalType": "struct NewsForumContract.Article",
          "name": "",
          "type": "tuple"
        }
      ],
      "stateMutability": "view",
      "type": "function"
    },
    {
      "inputs": [],
      "name": "getArticleCount",
      "outputs": [
        {
          "internalType": "uint256",
          "name": "",
          "type": "uint256"
        }
      ],
      "stateMutability": "view",
      "type": "function"
    },
    {
      "inputs": [],
      "name": "getMyArticles",
      "outputs": [
        {
          "components": [
            {
              "internalType": "uint256",
              "name": "id",
              "type": "uint256"
            },
            {
              "internalType": "string",
              "name": "title",
              "type": "string"
            },
            {
              "internalType": "string",
              "name": "content",
              "type": "string"
            },
            {
              "internalType": "address",
              "name": "author",
              "type": "address"
            },
            {
              "internalType": "address[]",
              "name": "upvotes",
              "type": "address[]"
            },
            {
              "internalType": "address[]",
              "name": "downvotes",
              "type": "address[]"
            },
            {
              "internalType": "address[]",
              "name": "validators",
              "type": "address[]"
            },
            {
              "internalType": "bool",
              "name": "isValidated",
              "type": "bool"
            },
            {
              "internalType": "bool",
              "name": "valid",
              "type": "bool"
            },
            {
              "internalType": "uint256",
              "name": "timestamp",
              "type": "uint256"
            },
            {
              "internalType": "bool",
              "name": "validatorsRewardedUponUpvotes",
              "type": "bool"
            },
            {
              "internalType": "string",
              "name": "authorName",
              "type": "string"
            }
          ],
          "internalType": "struct NewsForumContract.Article[]",
          "name": "",
          "type": "tuple[]"
        }
      ],
      "stateMutability": "view",
      "type": "function"
    },
    {
      "inputs": [
        {
          "internalType": "uint256",
          "name": "articleId",
          "type": "uint256"
        }
      ],
      "name": "getNumberOfDownvotes",
      "outputs": [
        {
          "internalType": "uint256",
          "name": "",
          "type": "uint256"
        }
      ],
      "stateMutability": "view",
      "type": "function"
    },
    {
      "inputs": [
        {
          "internalType": "uint256",
          "name": "articleId",
          "type": "uint256"
        }
      ],
      "name": "getNumberOfUpvotes",
      "outputs": [
        {
          "internalType": "uint256",
          "name": "",
          "type": "uint256"
        }
      ],
      "stateMutability": "view",
      "type": "function"
    },
    {
      "inputs": [
        {
          "internalType": "uint256",
          "name": "userId",
          "type": "uint256"
        }
      ],
      "name": "getUser",
      "outputs": [
        {
          "components": [
            {
              "internalType": "string",
              "name": "name",
              "type": "string"
            },
            {
              "internalType": "string",
              "name": "email",
              "type": "string"
            },
            {
              "internalType": "address",
              "name": "userAddress",
              "type": "address"
            },
            {
              "internalType": "bool",
              "name": "valid",
              "type": "bool"
            },
            {
              "internalType": "uint256",
              "name": "timestamp",
              "type": "uint256"
            },
            {
              "internalType": "bool",
              "name": "canBeValidator",
              "type": "bool"
            },
            {
              "internalType": "uint256",
              "name": "articlesValidatedSinceLastAppoint",
              "type": "uint256"
            },
            {
              "internalType": "uint256",
              "name": "rewardCount",
              "type": "uint256"
            },
            {
              "internalType": "uint256",
              "name": "articleValidatedCount",
              "type": "uint256"
            },
            {
              "internalType": "uint256",
              "name": "unvalidatedArticlesCount",
              "type": "uint256"
            },
            {
              "internalType": "bool",
              "name": "isActiveValidator",
              "type": "bool"
            }
          ],
          "internalType": "struct NewsForumContract.User",
          "name": "",
          "type": "tuple"
        }
      ],
      "stateMutability": "view",
      "type": "function"
    },
    {
      "inputs": [],
      "name": "getUserCount",
      "outputs": [
        {
          "internalType": "uint256",
          "name": "",
          "type": "uint256"
        }
      ],
      "stateMutability": "view",
      "type": "function"
    },
    {
      "inputs": [],
      "name": "maxNumberOfActiveValidators",
      "outputs": [
        {
          "internalType": "uint256",
          "name": "",
          "type": "uint256"
        }
      ],
      "stateMutability": "view",
      "type": "function"
    },
    {
      "inputs": [],
      "name": "maxNumberOfWordsInArticle",
      "outputs": [
        {
          "internalType": "uint256",
          "name": "",
          "type": "uint256"
        }
      ],
      "stateMutability": "view",
      "type": "function"
    },
    {
      "inputs": [],
      "name": "maxNumberOfWordsInTitle",
      "outputs": [
        {
          "internalType": "uint256",
          "name": "",
          "type": "uint256"
        }
      ],
      "stateMutability": "view",
      "type": "function"
    },
    {
      "inputs": [],
      "name": "maxUnvalidatedArticles",
      "outputs": [
        {
          "internalType": "uint256",
          "name": "",
          "type": "uint256"
        }
      ],
      "stateMutability": "view",
      "type": "function"
    },
    {
      "inputs": [],
      "name": "minArticleValidationsToGetValidatorPower",
      "outputs": [
        {
          "internalType": "uint256",
          "name": "",
          "type": "uint256"
        }
      ],
      "stateMutability": "view",
      "type": "function"
    },
    {
      "inputs": [],
      "name": "rewardToEditorUponArticleValidation",
      "outputs": [
        {
          "internalType": "uint256",
          "name": "",
          "type": "uint256"
        }
      ],
      "stateMutability": "view",
      "type": "function"
    },
    {
      "inputs": [],
      "name": "rewardToValidatorsUponReachingUpvotes",
      "outputs": [
        {
          "internalType": "uint256",
          "name": "",
          "type": "uint256"
        }
      ],
      "stateMutability": "view",
      "type": "function"
    },
    {
      "inputs": [],
      "name": "totalRewardCount",
      "outputs": [
        {
          "internalType": "uint256",
          "name": "",
          "type": "uint256"
        }
      ],
      "stateMutability": "view",
      "type": "function"
    },
    {
      "inputs": [
        {
          "internalType": "uint256",
          "name": "articleId",
          "type": "uint256"
        },
        {
          "internalType": "string",
          "name": "_title",
          "type": "string"
        },
        {
          "internalType": "string",
          "name": "_content",
          "type": "string"
        }
      ],
      "name": "updateArticle",
      "outputs": [],
      "stateMutability": "nonpayable",
      "type": "function"
    },
    {
      "inputs": [
        {
          "internalType": "string",
          "name": "_name",
          "type": "string"
        },
        {
          "internalType": "string",
          "name": "_email",
          "type": "string"
        }
      ],
      "name": "updateUser",
      "outputs": [],
      "stateMutability": "nonpayable",
      "type": "function"
    },
    {
      "inputs": [
        {
          "internalType": "uint256",
          "name": "articleId",
          "type": "uint256"
        }
      ],
      "name": "upvoteArticle",
      "outputs": [],
      "stateMutability": "nonpayable",
      "type": "function"
    },
    {
      "inputs": [],
      "name": "upvotesCountForAwardToValidator",
      "outputs": [
        {
          "internalType": "uint256",
          "name": "",
          "type": "uint256"
        }
      ],
      "stateMutability": "view",
      "type": "function"
    },
    {
      "inputs": [
        {
          "internalType": "uint256",
          "name": "",
          "type": "uint256"
        }
      ],
      "name": "users",
      "outputs": [
        {
          "internalType": "string",
          "name": "name",
          "type": "string"
        },
        {
          "internalType": "string",
          "name": "email",
          "type": "string"
        },
        {
          "internalType": "address",
          "name": "userAddress",
          "type": "address"
        },
        {
          "internalType": "bool",
          "name": "valid",
          "type": "bool"
        },
        {
          "internalType": "uint256",
          "name": "timestamp",
          "type": "uint256"
        },
        {
          "internalType": "bool",
          "name": "canBeValidator",
          "type": "bool"
        },
        {
          "internalType": "uint256",
          "name": "articlesValidatedSinceLastAppoint",
          "type": "uint256"
        },
        {
          "internalType": "uint256",
          "name": "rewardCount",
          "type": "uint256"
        },
        {
          "internalType": "uint256",
          "name": "articleValidatedCount",
          "type": "uint256"
        },
        {
          "internalType": "uint256",
          "name": "unvalidatedArticlesCount",
          "type": "uint256"
        },
        {
          "internalType": "bool",
          "name": "isActiveValidator",
          "type": "bool"
        }
      ],
      "stateMutability": "view",
      "type": "function"
    },
    {
      "inputs": [
        {
          "internalType": "uint256",
          "name": "articleId",
          "type": "uint256"
        }
      ],
      "name": "validateArticle",
      "outputs": [],
      "stateMutability": "nonpayable",
      "type": "function"
    },
    {
      "inputs": [],
      "name": "validationsForChange",
      "outputs": [
        {
          "internalType": "uint256",
          "name": "",
          "type": "uint256"
        }
      ],
      "stateMutability": "view",
      "type": "function"
    }
  ],
  "bytecode": "0x6080604052600a600055600560015560006002553480156200002057600080fd5b50604080516101a081018252600c61016082019081526b24b73b30b634b2102ab9b2b960a11b6101808301528152815160208181018452600080835290830191909152918101829052606081018290526080810182905260a0810182905260c0810182905260e0810182905261010081018290526101208101829052610140810182905260038054600181018255925280519091600a027fc2575a0e9e593c00f959f8c92f12db2869c3395a3b0502d05e2516446f71f85b01908190620000e8908262000526565b5060208201516001820190620000ff908262000526565b506040828101516002830180546060808701511515600160a01b026001600160a81b03199092166001600160a01b0390941693909317179055608080850151600385015560a085015160048501805491151560ff1992831617905560c0860151600586015560e08601516006808701919091556101008701516007870155610120870151600887015561014090960151600990950180549515159590911694909417909355815161018081018352600080825283518085018552600f81526e496e76616c69642041727469636c6560881b6020828101919091528084019190915284519081018552818152938201939093529081018290529182019060405190808252806020026020018201604052801562000225578160200160208202803683370190505b508152602001600060405190808252806020026020018201604052801562000257578160200160208202803683370190505b508152602001600060405190808252806020026020018201604052801562000289578160200160208202803683370190505b5081526000602080830182905260408084018390526060840183905260808401839052805180830190915282815260a090930192909252835460018181018655948252908290208351600b90920201908155908201519192909190820190620002f3908262000526565b50604082015160028201906200030a908262000526565b5060608201516003820180546001600160a01b0319166001600160a01b03909216919091179055608082015180516200034e91600484019160209091019062000400565b5060a082015180516200036c91600584019160209091019062000400565b5060c082015180516200038a91600684019160209091019062000400565b5060e08201516007820180546101008086015115150261ff00199315159390931661ffff1990911617919091179055610120820151600882015561014082015160098201805491151560ff1992909216919091179055610160820151600a820190620003f7908262000526565b505050620005f2565b82805482825590600052602060002090810192821562000458579160200282015b828111156200045857825182546001600160a01b0319166001600160a01b0390911617825560209092019160019091019062000421565b50620004669291506200046a565b5090565b5b808211156200046657600081556001016200046b565b634e487b7160e01b600052604160045260246000fd5b600181811c90821680620004ac57607f821691505b602082108103620004cd57634e487b7160e01b600052602260045260246000fd5b50919050565b601f8211156200052157600081815260208120601f850160051c81016020861015620004fc5750805b601f850160051c820191505b818110156200051d5782815560010162000508565b5050505b505050565b81516001600160401b0381111562000542576200054262000481565b6200055a8162000553845462000497565b84620004d3565b602080601f831160018114620005925760008415620005795750858301515b600019600386901b1c1916600185901b1785556200051d565b600085815260208120601f198616915b82811015620005c357888601518255948401946001909101908401620005a2565b5085821015620005e25787850151600019600388901b60f8161c191681555b5050505050600190811b01905550565b61513e80620006026000396000f3fe608060405234801561001057600080fd5b50600436106101b05760003560e01c8063b0467deb116100ef578063dd4a242511610092578063dd4a242514610330578063e19c615f14610343578063e2842d7914610356578063e899d5ff1461036b578063eb9f825a14610373578063ec09e6ad1461037c578063edcfafe61461038f578063fc8b5108146101e457600080fd5b8063b0467deb146102c1578063b44d310b146102e1578063b5cb15f7146102e9578063b5df05fc146102f1578063c8cb48de146102f9578063cdbdb31a14610301578063ce45032e1461030a578063dc19628e1461031d57600080fd5b8063641cabec11610157578063641cabec146102435780637a828b22146102585780638342fb43146101f45780638867041214610260578063892cd3991461027357806391f0576a1461027b57806395de67361461028e578063a217de60146102ae57600080fd5b806310b080a0146101b55780632d169b79146101d15780632ecb8cb4146101e45780632ee66ce7146101ec578063323058e6146101f4578063365b98b2146101fc578063390f1eef146102265780635ec0b6331461023b575b600080fd5b6101be60025481565b6040519081526020015b60405180910390f35b6101be6101df366004614652565b6103b7565b6101be600181565b6101be601e81565b6101be600481565b61020f61020a366004614652565b6103e6565b6040516101c89b9a999897969594939291906146b1565b6102396102343660046147ce565b61057a565b005b6101be60c881565b61024b6107c8565b6040516101c89190614996565b6101be600a81565b61023961026e3660046149f8565b610c6c565b6101be600581565b610239610289366004614a64565b610ebe565b6102a161029c366004614652565b61124d565b6040516101c89190614ab2565b6102396102bc366004614652565b61160b565b6102d46102cf366004614652565b611a1f565b6040516101c89190614b8b565b61024b611cd6565b6003546101be565b61024b612067565b61024b612512565b6101be60005481565b610239610318366004614652565b61294c565b61023961032b366004614652565b612ca0565b61023961033e366004614b9e565b61344c565b610239610351366004614b9e565b6135b3565b61035e61394a565b6040516101c89190614c01565b6006546101be565b6101be60015481565b6101be61038a366004614652565b613b41565b6103a261039d366004614652565b613b70565b6040516101c899989796959493929190614c56565b6000600682815481106103cc576103cc614cd7565b600091825260209091206004600b90920201015492915050565b600381815481106103f657600080fd5b90600052602060002090600a020160009150905080600001805461041990614ced565b80601f016020809104026020016040519081016040528092919081815260200182805461044590614ced565b80156104925780601f1061046757610100808354040283529160200191610492565b820191906000526020600020905b81548152906001019060200180831161047557829003601f168201915b5050505050908060010180546104a790614ced565b80601f01602080910402602001604051908101604052809291908181526020018280546104d390614ced565b80156105205780601f106104f557610100808354040283529160200191610520565b820191906000526020600020905b81548152906001019060200180831161050357829003601f168201915b50505060028401546003850154600486015460058701546006880154600789015460088a01546009909a015498996001600160a01b0387169960ff600160a01b90980488169950959750938616959294919390929091168b565b6000600260015461058b9190614d37565b60025410156105b157600190506001600260008282546105ab9190614d59565b90915550505b6040805161016081018252858152602081018590526001600160a01b0384169181019190915260016060820181905242608083015282151560a08301819052600060c0840181905260e084018190526101008401819052610120840181905261014084019190915260038054928301815590528151600a9091027fc2575a0e9e593c00f959f8c92f12db2869c3395a3b0502d05e2516446f71f85b0190819061065a9082614dba565b506020820151600182019061066f9082614dba565b50604082015160028201805460608501511515600160a01b026001600160a81b03199091166001600160a01b0390931692909217919091179055608082015160038083019190915560a083015160048301805491151560ff1992831617905560c0840151600584015560e0840151600684015561010084015160078401556101208401516008840155610140909301516009909201805492151592909316919091179091555461072190600190614e79565b6001600160a01b038316600090815260046020526040812091909155600354839160059161075190600190614e79565b8152602081019190915260400160002080546001600160a01b0319166001600160a01b03929092169190911790556003547f27412bb19840b11057dee7c7019767312555c4497d8d4c2383fa6b7791bf014b906107b090600190614e79565b6040519081526020015b60405180910390a150505050565b33600090815260046020526040902054600380546060929081106107ee576107ee614cd7565b600091825260209091206009600a90920201015460ff16151560011461082f5760405162461bcd60e51b815260040161082690614e8c565b60405180910390fd5b6006546000906001600160401b0381111561084c5761084c61472c565b60405190808252806020026020018201604052801561088557816020015b610872614568565b81526020019060019003908161086a5790505b509050600060015b600654811015610c6457600681815481106108aa576108aa614cd7565b6000918252602082206007600b90920201015460ff1615159003610c5257600681815481106108db576108db614cd7565b90600052602060002090600b0201604051806101800160405290816000820154815260200160018201805461090f90614ced565b80601f016020809104026020016040519081016040528092919081815260200182805461093b90614ced565b80156109885780601f1061095d57610100808354040283529160200191610988565b820191906000526020600020905b81548152906001019060200180831161096b57829003601f168201915b505050505081526020016002820180546109a190614ced565b80601f01602080910402602001604051908101604052809291908181526020018280546109cd90614ced565b8015610a1a5780601f106109ef57610100808354040283529160200191610a1a565b820191906000526020600020905b8154815290600101906020018083116109fd57829003601f168201915b505050918352505060038201546001600160a01b03166020808301919091526004830180546040805182850281018501825282815294019392830182828015610a8c57602002820191906000526020600020905b81546001600160a01b03168152600190910190602001808311610a6e575b5050505050815260200160058201805480602002602001604051908101604052809291908181526020018280548015610aee57602002820191906000526020600020905b81546001600160a01b03168152600190910190602001808311610ad0575b5050505050815260200160068201805480602002602001604051908101604052809291908181526020018280548015610b5057602002820191906000526020600020905b81546001600160a01b03168152600190910190602001808311610b32575b5050509183525050600782015460ff808216151560208401526101009091048116151560408301526008830154606083015260098301541615156080820152600a8201805460a090920191610ba490614ced565b80601f0160208091040260200160405190810160405280929190818152602001828054610bd090614ced565b8015610c1d5780601f10610bf257610100808354040283529160200191610c1d565b820191906000526020600020905b815481529060010190602001808311610c0057829003601f168201915b505050505081525050838381518110610c3857610c38614cd7565b60200260200101819052508180610c4e90614ed9565b9250505b80610c5c81614ed9565b91505061088d565b509091505090565b33600090815260046020526040902054600380549091908110610c9157610c91614cd7565b90600052602060002090600a020160020160149054906101000a900460ff1615156001151514610cd35760405162461bcd60e51b815260040161082690614ef2565b6000838152600760205260409020546001600160a01b03163314610d545760405162461bcd60e51b815260206004820152603260248201527f596f75206d7573742062652074686520617574686f72206f66207468652061726044820152711d1a58db19481d1bc81d5c19185d19481a5d60721b6064820152608401610826565b60068381548110610d6757610d67614cd7565b600091825260209091206007600b90920201015460ff610100909104161515600114610da55760405162461bcd60e51b815260040161082690614f3e565b610db082601e613d7b565b610dcc5760405162461bcd60e51b815260040161082690614f6e565b610dd78160c8613d7b565b610df35760405162461bcd60e51b815260040161082690614fb0565b8160068481548110610e0757610e07614cd7565b90600052602060002090600b02016001019081610e249190614dba565b508060068481548110610e3957610e39614cd7565b90600052602060002090600b02016002019081610e569190614dba565b504260068481548110610e6b57610e6b614cd7565b90600052602060002090600b0201600801819055507ffe914cbc4c239b4f97b05437e79aabedbfbd6eb5a9083f07348dc0df081e6c2a83604051610eb191815260200190565b60405180910390a1505050565b33600090815260046020526040902054600380549091908110610ee357610ee3614cd7565b90600052602060002090600a020160020160149054906101000a900460ff1615156001151514610f255760405162461bcd60e51b815260040161082690614ef2565b33600090815260046020819052604090912054600380549091908110610f4d57610f4d614cd7565b90600052602060002090600a02016008015410610f7c5760405162461bcd60e51b815260040161082690614ff5565b610f8783601e613d7b565b610fa35760405162461bcd60e51b815260040161082690614f6e565b610fae8260c8613d7b565b610fca5760405162461bcd60e51b815260040161082690614fb0565b600680546040805161018081018252828152602080820188815282840188905233606084015283516000808252818401865260808501919091528451818152808401865260a0850152845181815292830190945260c083019190915260e0820183905260016101008301819052426101208401526101408301849052610160830187905284018555939091528051600b83027ff652222313e28459528d920b65115c16c04f3efc82aaedc97be59f3f377c0d3f810191825593519293919290917ff652222313e28459528d920b65115c16c04f3efc82aaedc97be59f3f377c0d4001906110b79082614dba565b50604082015160028201906110cc9082614dba565b5060608201516003820180546001600160a01b0319166001600160a01b039092169190911790556080820151805161110e9160048401916020909101906145d8565b5060a0820151805161112a9160058401916020909101906145d8565b5060c082015180516111469160068401916020909101906145d8565b5060e08201516007820180546101008086015115150261ff00199315159390931661ffff1990911617919091179055610120820151600882015561014082015160098201805491151560ff1992909216919091179055610160820151600a8201906111b19082614dba565b505050600081815260076020908152604080832080546001600160a01b0319163390811790915583526004909152902054600380546001929081106111f8576111f8614cd7565b90600052602060002090600a020160080160008282546112189190614d59565b90915550506040518181527f9ed508f9dd7c730fd307b1ca38355cf4d9c00f58a2acfa5167b497c51a859e4c906020016107ba565b611255614568565b6006828154811061126857611268614cd7565b600091825260209091206007600b90920201015460ff6101009091041615156001146112a65760405162461bcd60e51b815260040161082690614f3e565b600682815481106112b9576112b9614cd7565b90600052602060002090600b020160405180610180016040529081600082015481526020016001820180546112ed90614ced565b80601f016020809104026020016040519081016040528092919081815260200182805461131990614ced565b80156113665780601f1061133b57610100808354040283529160200191611366565b820191906000526020600020905b81548152906001019060200180831161134957829003601f168201915b5050505050815260200160028201805461137f90614ced565b80601f01602080910402602001604051908101604052809291908181526020018280546113ab90614ced565b80156113f85780601f106113cd576101008083540402835291602001916113f8565b820191906000526020600020905b8154815290600101906020018083116113db57829003601f168201915b505050918352505060038201546001600160a01b0316602080830191909152600483018054604080518285028101850182528281529401939283018282801561146a57602002820191906000526020600020905b81546001600160a01b0316815260019091019060200180831161144c575b50505050508152602001600582018054806020026020016040519081016040528092919081815260200182805480156114cc57602002820191906000526020600020905b81546001600160a01b031681526001909101906020018083116114ae575b505050505081526020016006820180548060200260200160405190810160405280929190818152602001828054801561152e57602002820191906000526020600020905b81546001600160a01b03168152600190910190602001808311611510575b5050509183525050600782015460ff808216151560208401526101009091048116151560408301526008830154606083015260098301541615156080820152600a8201805460a09092019161158290614ced565b80601f01602080910402602001604051908101604052809291908181526020018280546115ae90614ced565b80156115fb5780601f106115d0576101008083540402835291602001916115fb565b820191906000526020600020905b8154815290600101906020018083116115de57829003601f168201915b5050505050815250509050919050565b3360009081526004602052604090205460038054909190811061163057611630614cd7565b90600052602060002090600a020160020160149054906101000a900460ff16151560011515146116725760405162461bcd60e51b815260040161082690614ef2565b806006818154811061168657611686614cd7565b600091825260209091206007600b90920201015460ff1615156001146116be5760405162461bcd60e51b815260040161082690615052565b600682815481106116d1576116d1614cd7565b600091825260209091206007600b90920201015460ff61010090910416151560011461170f5760405162461bcd60e51b815260040161082690614f3e565b60005b6006838154811061172557611725614cd7565b90600052602060002090600b02016004018054905081101561180257336001600160a01b03166006848154811061175e5761175e614cd7565b90600052602060002090600b0201600401828154811061178057611780614cd7565b6000918252602090912001546001600160a01b0316036117f05760405162461bcd60e51b815260206004820152602560248201527f596f75206861766520616c7265616479207570766f74656420746869732061726044820152647469636c6560d81b6064820152608401610826565b806117fa81614ed9565b915050611712565b5060005b6006838154811061181957611819614cd7565b90600052602060002090600b0201600501805490508110156118f357336001600160a01b03166006848154811061185257611852614cd7565b90600052602060002090600b0201600501828154811061187457611874614cd7565b6000918252602090912001546001600160a01b0316036118e157600683815481106118a1576118a1614cd7565b90600052602060002090600b020160050181815481106118c3576118c3614cd7565b600091825260209091200180546001600160a01b0319169055505050565b806118eb81614ed9565b915050611806565b506006828154811061190757611907614cd7565b600091825260208083206004600b9093020191909101805460018101825590835291200180546001600160a01b031916339081179091556040517f624412f87fce01f1efc8757dd0f01b8db1ef1b8821db35b8800947d87ee65ba19161196f9185919061509c565b60405180910390a16006828154811061198a5761198a614cd7565b600091825260209091206009600b90920201015460ff161580156119d557506005600683815481106119be576119be614cd7565b90600052602060002090600b020160040180549050145b15611a1b576119e382613df9565b6001600683815481106119f8576119f8614cd7565b60009182526020909120600b90910201600901805460ff19169115159190911790555b5050565b611a8b604051806101600160405280606081526020016060815260200160006001600160a01b0316815260200160001515815260200160008152602001600015158152602001600081526020016000815260200160008152602001600081526020016000151581525090565b60038281548110611a9e57611a9e614cd7565b90600052602060002090600a020160020160149054906101000a900460ff1615156001151514611b065760405162461bcd60e51b8152602060048201526013602482015272155cd95c88191bd95cc81b9bdd08195e1a5cdd606a1b6044820152606401610826565b60038281548110611b1957611b19614cd7565b90600052602060002090600a020160405180610160016040529081600082018054611b4390614ced565b80601f0160208091040260200160405190810160405280929190818152602001828054611b6f90614ced565b8015611bbc5780601f10611b9157610100808354040283529160200191611bbc565b820191906000526020600020905b815481529060010190602001808311611b9f57829003601f168201915b50505050508152602001600182018054611bd590614ced565b80601f0160208091040260200160405190810160405280929190818152602001828054611c0190614ced565b8015611c4e5780601f10611c2357610100808354040283529160200191611c4e565b820191906000526020600020905b815481529060010190602001808311611c3157829003601f168201915b505050918352505060028201546001600160a01b038116602083015260ff600160a01b909104811615156040830152600383015460608301526004830154811615156080830152600583015460a0830152600683015460c0830152600783015460e0830152600883015461010083015260099092015490911615156101209091015292915050565b60606006805480602002602001604051908101604052809291908181526020016000905b8282101561205e57838290600052602060002090600b02016040518061018001604052908160008201548152602001600182018054611d3890614ced565b80601f0160208091040260200160405190810160405280929190818152602001828054611d6490614ced565b8015611db15780601f10611d8657610100808354040283529160200191611db1565b820191906000526020600020905b815481529060010190602001808311611d9457829003601f168201915b50505050508152602001600282018054611dca90614ced565b80601f0160208091040260200160405190810160405280929190818152602001828054611df690614ced565b8015611e435780601f10611e1857610100808354040283529160200191611e43565b820191906000526020600020905b815481529060010190602001808311611e2657829003601f168201915b505050918352505060038201546001600160a01b03166020808301919091526004830180546040805182850281018501825282815294019392830182828015611eb557602002820191906000526020600020905b81546001600160a01b03168152600190910190602001808311611e97575b5050505050815260200160058201805480602002602001604051908101604052809291908181526020018280548015611f1757602002820191906000526020600020905b81546001600160a01b03168152600190910190602001808311611ef9575b5050505050815260200160068201805480602002602001604051908101604052809291908181526020018280548015611f7957602002820191906000526020600020905b81546001600160a01b03168152600190910190602001808311611f5b575b5050509183525050600782015460ff808216151560208401526101009091048116151560408301526008830154606083015260098301541615156080820152600a8201805460a090920191611fcd90614ced565b80601f0160208091040260200160405190810160405280929190818152602001828054611ff990614ced565b80156120465780601f1061201b57610100808354040283529160200191612046565b820191906000526020600020905b81548152906001019060200180831161202957829003601f168201915b50505050508152505081526020019060010190611cfa565b50505050905090565b336000908152600460205260409020546003805460609290811061208d5761208d614cd7565b90600052602060002090600a020160020160149054906101000a900460ff16151560011515146120cf5760405162461bcd60e51b815260040161082690614ef2565b6006546000906001600160401b038111156120ec576120ec61472c565b60405190808252806020026020018201604052801561212557816020015b612112614568565b81526020019060019003908161210a5790505b509050600060015b600654811015610c6457336001600160a01b03166006828154811061215457612154614cd7565b600091825260209091206003600b9092020101546001600160a01b031603612500576006818154811061218957612189614cd7565b90600052602060002090600b020160405180610180016040529081600082015481526020016001820180546121bd90614ced565b80601f01602080910402602001604051908101604052809291908181526020018280546121e990614ced565b80156122365780601f1061220b57610100808354040283529160200191612236565b820191906000526020600020905b81548152906001019060200180831161221957829003601f168201915b5050505050815260200160028201805461224f90614ced565b80601f016020809104026020016040519081016040528092919081815260200182805461227b90614ced565b80156122c85780601f1061229d576101008083540402835291602001916122c8565b820191906000526020600020905b8154815290600101906020018083116122ab57829003601f168201915b505050918352505060038201546001600160a01b0316602080830191909152600483018054604080518285028101850182528281529401939283018282801561233a57602002820191906000526020600020905b81546001600160a01b0316815260019091019060200180831161231c575b505050505081526020016005820180548060200260200160405190810160405280929190818152602001828054801561239c57602002820191906000526020600020905b81546001600160a01b0316815260019091019060200180831161237e575b50505050508152602001600682018054806020026020016040519081016040528092919081815260200182805480156123fe57602002820191906000526020600020905b81546001600160a01b031681526001909101906020018083116123e0575b5050509183525050600782015460ff808216151560208401526101009091048116151560408301526008830154606083015260098301541615156080820152600a8201805460a09092019161245290614ced565b80601f016020809104026020016040519081016040528092919081815260200182805461247e90614ced565b80156124cb5780601f106124a0576101008083540402835291602001916124cb565b820191906000526020600020905b8154815290600101906020018083116124ae57829003601f168201915b5050505050815250508383815181106124e6576124e6614cd7565b602002602001018190525081806124fc90614ed9565b9250505b8061250a81614ed9565b91505061212d565b6006546060906000906001600160401b038111156125325761253261472c565b60405190808252806020026020018201604052801561256b57816020015b612558614568565b8152602001906001900390816125505790505b509050600060015b600654811015610c64576006818154811061259057612590614cd7565b600091825260209091206007600b90920201015460ff16151560010361293a57600681815481106125c3576125c3614cd7565b90600052602060002090600b020160405180610180016040529081600082015481526020016001820180546125f790614ced565b80601f016020809104026020016040519081016040528092919081815260200182805461262390614ced565b80156126705780601f1061264557610100808354040283529160200191612670565b820191906000526020600020905b81548152906001019060200180831161265357829003601f168201915b5050505050815260200160028201805461268990614ced565b80601f01602080910402602001604051908101604052809291908181526020018280546126b590614ced565b80156127025780601f106126d757610100808354040283529160200191612702565b820191906000526020600020905b8154815290600101906020018083116126e557829003601f168201915b505050918352505060038201546001600160a01b0316602080830191909152600483018054604080518285028101850182528281529401939283018282801561277457602002820191906000526020600020905b81546001600160a01b03168152600190910190602001808311612756575b50505050508152602001600582018054806020026020016040519081016040528092919081815260200182805480156127d657602002820191906000526020600020905b81546001600160a01b031681526001909101906020018083116127b8575b505050505081526020016006820180548060200260200160405190810160405280929190818152602001828054801561283857602002820191906000526020600020905b81546001600160a01b0316815260019091019060200180831161281a575b5050509183525050600782015460ff808216151560208401526101009091048116151560408301526008830154606083015260098301541615156080820152600a8201805460a09092019161288c90614ced565b80601f01602080910402602001604051908101604052809291908181526020018280546128b890614ced565b80156129055780601f106128da57610100808354040283529160200191612905565b820191906000526020600020905b8154815290600101906020018083116128e857829003601f168201915b50505050508152505083838151811061292057612920614cd7565b6020026020010181905250818061293690614ed9565b9250505b8061294481614ed9565b915050612573565b3360009081526004602052604090205460038054909190811061297157612971614cd7565b90600052602060002090600a020160020160149054906101000a900460ff16151560011515146129b35760405162461bcd60e51b815260040161082690614ef2565b80600681815481106129c7576129c7614cd7565b600091825260209091206007600b90920201015460ff1615156001146129ff5760405162461bcd60e51b815260040161082690615052565b60068281548110612a1257612a12614cd7565b600091825260209091206007600b90920201015460ff610100909104161515600114612a505760405162461bcd60e51b815260040161082690614f3e565b60005b60068381548110612a6657612a66614cd7565b90600052602060002090600b020160050180549050811015612b4557336001600160a01b031660068481548110612a9f57612a9f614cd7565b90600052602060002090600b02016005018281548110612ac157612ac1614cd7565b6000918252602090912001546001600160a01b031603612b335760405162461bcd60e51b815260206004820152602760248201527f596f75206861766520616c726561647920646f776e766f74656420746869732060448201526661727469636c6560c81b6064820152608401610826565b80612b3d81614ed9565b915050612a53565b5060005b60068381548110612b5c57612b5c614cd7565b90600052602060002090600b020160040180549050811015612c1857336001600160a01b031660068481548110612b9557612b95614cd7565b90600052602060002090600b02016004018281548110612bb757612bb7614cd7565b6000918252602090912001546001600160a01b031603612c065760068381548110612be457612be4614cd7565b90600052602060002090600b020160040181815481106118c3576118c3614cd7565b80612c1081614ed9565b915050612b49565b5060068281548110612c2c57612c2c614cd7565b600091825260208083206005600b9093020191909101805460018101825590835291200180546001600160a01b031916339081179091556040517feb4192d8708898001a1c24db02ab3f0053db9a1ccbe8eb00da8c40f29f42d08f91612c949185919061509c565b60405180910390a15050565b33600090815260046020526040902054600380549091908110612cc557612cc5614cd7565b90600052602060002090600a020160020160149054906101000a900460ff1615156001151514612d075760405162461bcd60e51b815260040161082690614ef2565b33600090815260046020526040902054600380549091908110612d2c57612d2c614cd7565b600091825260209091206009600a90920201015460ff161515600114612d645760405162461bcd60e51b815260040161082690614e8c565b60068181548110612d7757612d77614cd7565b600091825260209091206007600b90920201015460ff610100909104161515600114612db55760405162461bcd60e51b815260040161082690614f3e565b60068181548110612dc857612dc8614cd7565b600091825260209091206007600b90920201015460ff1615612e375760405162461bcd60e51b815260206004820152602260248201527f41727469636c652068617320616c7265616479206265656e2076616c69646174604482015261195960f21b6064820152608401610826565b336001600160a01b031660068281548110612e5457612e54614cd7565b600091825260209091206003600b9092020101546001600160a01b031603612eca5760405162461bcd60e51b8152602060048201526024808201527f596f752063616e6e6f742076616c696461746520796f7572206f776e2061727460448201526369636c6560e01b6064820152608401610826565b60005b60068281548110612ee057612ee0614cd7565b90600052602060002090600b020160060180549050811015612fbf57336001600160a01b031660068381548110612f1957612f19614cd7565b90600052602060002090600b02016006018281548110612f3b57612f3b614cd7565b6000918252602090912001546001600160a01b031603612fad5760405162461bcd60e51b815260206004820152602760248201527f596f75206861766520616c72656164792076616c69646174656420746869732060448201526661727469636c6560c81b6064820152608401610826565b80612fb781614ed9565b915050612ecd565b5060068181548110612fd357612fd3614cd7565b600091825260208083206006600b9093020191909101805460018101825590835291200180546001600160a01b031916339081179091556040517f7e434af9cd16facd6cbcb874af7dab924daf4f8ca785da1aba2da615ecdd54e19161303b9184919061509c565b60405180910390a13360009081526004602052604090205460038054600191908390811061306b5761306b614cd7565b90600052602060002090600a0201600501600082825461308b9190614d59565b909155505060068054839081106130a4576130a4614cd7565b600091825260209091206007600b90920201015460ff161580156130fd575060026001546130d29190614d37565b600683815481106130e5576130e5614cd7565b90600052602060002090600b02016006018054905010155b156134345760016006838154811061311757613117614cd7565b90600052602060002090600b020160070160006101000a81548160ff02191690831515021790555060016003600460006006868154811061315a5761315a614cd7565b600091825260208083206003600b9093020191909101546001600160a01b031683528201929092526040019020548154811061319857613198614cd7565b90600052602060002090600a020160080160008282546131b89190614e79565b90915550506040518281527ff21a901d81e7e3a2e486646e684b097c9c7ca9d27ef0b1b3fb01e4ccad81df7d9060200160405180910390a16131f982614026565b60006006838154811061320e5761320e614cd7565b600091825260209091206003600b9092020101546040516001600160a01b0390911691507f64ab81d133265e22374ee8753d918c4b015493b402b4ad81982df1e4a045cfea90613261908590849061509c565b60405180910390a16001600160a01b038116600090815260046020526040902054600380548290811061329657613296614cd7565b6000918252602082206007600a90920201018054916132b483614ed9565b9190505550600381815481106132cc576132cc614cd7565b600091825260209091206004600a90920201015460ff16158015613315575060046003828154811061330057613300614cd7565b90600052602060002090600a02016007015410155b156134315760016003828154811061332f5761332f614cd7565b60009182526020909120600a90910201600401805460ff191691151591909117905560015461335c6142ce565b10156133f05760016003828154811061337757613377614cd7565b90600052602060002090600a020160090160006101000a81548160ff0219169083151502179055506001600260008282546133b29190614d59565b90915550506040517f44e9a7e8954aaa2834d971520eb9e11068edf3e4bb331cdb1f8467c1bdca2bf4906133e79084906150b3565b60405180910390a15b600081815260056020526040908190205490516000805160206150e983398151915291613428916001600160a01b03909116906150b3565b60405180910390a15b50505b60015461343f6142ce565b10611a1b57611a1b614336565b3360009081526004602052604090205460038054909190811061347157613471614cd7565b90600052602060002090600a020160020160149054906101000a900460ff16151560011515146134b35760405162461bcd60e51b815260040161082690614ef2565b336000908152600460205260409020546003805484929081106134d8576134d8614cd7565b90600052602060002090600a020160000190816134f59190614dba565b503360009081526004602052604090205460038054839290811061351b5761351b614cd7565b90600052602060002090600a020160010190816135389190614dba565b503360009081526004602052604090205460038054429290811061355e5761355e614cd7565b600091825260208083206003600a909302019190910192909255338152600482526040908190205490519081527f1772b4a44b21fefee39a85737dbc285d69379de8a58ca4c1b3c4af1ccc8c58599101612c94565b336000908152600460205260409020546003805490919081106135d8576135d8614cd7565b90600052602060002090600a020160020160149054906101000a900460ff161515600115151461361a5760405162461bcd60e51b815260040161082690614ef2565b3360009081526004602081905260409091205460038054909190811061364257613642614cd7565b90600052602060002090600a020160080154106136715760405162461bcd60e51b815260040161082690614ff5565b61367c82601e613d7b565b6136985760405162461bcd60e51b815260040161082690614f6e565b6136a38160c8613d7b565b6136bf5760405162461bcd60e51b815260040161082690614fb0565b600680546040805161018081018252828152602080820187815282840187905233606084015283516000808252818401865260808501919091528451818152808401865260a08501528451818152808401865260c085015260e084018190526001610100850181905242610120860152610140850182905285519384019095528083526101608401929092529284018555939093528251600b83027ff652222313e28459528d920b65115c16c04f3efc82aaedc97be59f3f377c0d3f8101918255915192939290917ff652222313e28459528d920b65115c16c04f3efc82aaedc97be59f3f377c0d4001906137b49082614dba565b50604082015160028201906137c99082614dba565b5060608201516003820180546001600160a01b0319166001600160a01b039092169190911790556080820151805161380b9160048401916020909101906145d8565b5060a082015180516138279160058401916020909101906145d8565b5060c082015180516138439160068401916020909101906145d8565b5060e08201516007820180546101008086015115150261ff00199315159390931661ffff1990911617919091179055610120820151600882015561014082015160098201805491151560ff1992909216919091179055610160820151600a8201906138ae9082614dba565b505050600081815260076020908152604080832080546001600160a01b0319163390811790915583526004909152902054600380546001929081106138f5576138f5614cd7565b90600052602060002090600a020160080160008282546139159190614d59565b90915550506040518181527f9ed508f9dd7c730fd307b1ca38355cf4d9c00f58a2acfa5167b497c51a859e4c90602001610eb1565b60606003805480602002602001604051908101604052809291908181526020016000905b8282101561205e57838290600052602060002090600a0201604051806101600160405290816000820180546139a290614ced565b80601f01602080910402602001604051908101604052809291908181526020018280546139ce90614ced565b8015613a1b5780601f106139f057610100808354040283529160200191613a1b565b820191906000526020600020905b8154815290600101906020018083116139fe57829003601f168201915b50505050508152602001600182018054613a3490614ced565b80601f0160208091040260200160405190810160405280929190818152602001828054613a6090614ced565b8015613aad5780601f10613a8257610100808354040283529160200191613aad565b820191906000526020600020905b815481529060010190602001808311613a9057829003601f168201915b505050918352505060028201546001600160a01b03811660208084019190915260ff600160a01b909204821615156040840152600384015460608401526004840154821615156080840152600584015460a0840152600684015460c0840152600784015460e0840152600884015461010084015260099093015416151561012090910152908252600192909201910161396e565b600060068281548110613b5657613b56614cd7565b600091825260209091206005600b90920201015492915050565b60068181548110613b8057600080fd5b60009182526020909120600b90910201805460018201805491935090613ba590614ced565b80601f0160208091040260200160405190810160405280929190818152602001828054613bd190614ced565b8015613c1e5780601f10613bf357610100808354040283529160200191613c1e565b820191906000526020600020905b815481529060010190602001808311613c0157829003601f168201915b505050505090806002018054613c3390614ced565b80601f0160208091040260200160405190810160405280929190818152602001828054613c5f90614ced565b8015613cac5780601f10613c8157610100808354040283529160200191613cac565b820191906000526020600020905b815481529060010190602001808311613c8f57829003601f168201915b505050506003830154600784015460088501546009860154600a8701805496976001600160a01b039095169660ff808616975061010090950485169593949092169291613cf890614ced565b80601f0160208091040260200160405190810160405280929190818152602001828054613d2490614ced565b8015613d715780601f10613d4657610100808354040283529160200191613d71565b820191906000526020600020905b815481529060010190602001808311613d5457829003601f168201915b5050505050905089565b600082816001815b8351811015613dea57838181518110613d9e57613d9e614cd7565b01602001516001600160f81b031916600160fd1b03613dc05760019150613dd8565b8115613dd85782613dd081614ed9565b935050600091505b80613de281614ed9565b915050613d83565b50508310159150505b92915050565b60005b60068281548110613e0f57613e0f614cd7565b90600052602060002090600b020160060180549050811015611a1b57600060068381548110613e4057613e40614cd7565b90600052602060002090600b02016006018281548110613e6257613e62614cd7565b60009182526020808320909101546001600160a01b031680835260049091526040909120546003805492935090916001919083908110613ea457613ea4614cd7565b90600052602060002090600a020160060154613ec09190614d59565b60038281548110613ed357613ed3614cd7565b90600052602060002090600a0201600601819055506001600054613ef79190614d59565b6000819055507f45020be2a916de2ae94afde230be2f7c594eebdd86b7a99dd92852b3a9db136e8260038381548110613f3257613f32614cd7565b90600052602060002090600a020160060154600054604051613f56939291906150c7565b60405180910390a16002600054613f6d9190614d37565b60038281548110613f8057613f80614cd7565b90600052602060002090600a0201600601541061401157600160038281548110613fac57613fac614cd7565b60009182526020808320600a92909202909101600401805460ff19169315159390931790925582815260059091526040908190205490516000805160206150e983398151915291614008916001600160a01b03909116906150b3565b60405180910390a15b5050808061401e90614ed9565b915050613dfc565b60006006828154811061403b5761403b614cd7565b600091825260208083206003600b909302018201546001600160a01b03168084526004909152604090922054815492935091600191908390811061408157614081614cd7565b90600052602060002090600a02016006015461409d9190614d59565b600382815481106140b0576140b0614cd7565b90600052602060002090600a02016006018190555060016000546140d49190614d59565b6000819055507f45020be2a916de2ae94afde230be2f7c594eebdd86b7a99dd92852b3a9db136e826003838154811061410f5761410f614cd7565b90600052602060002090600a020160060154600054604051614133939291906150c7565b60405180910390a1600260005461414a9190614d37565b6003828154811061415d5761415d614cd7565b90600052602060002090600a020160060154106142c9576003818154811061418757614187614cd7565b600091825260209091206004600a90920201015460ff166141da576001600382815481106141b7576141b7614cd7565b60009182526020909120600a90910201600401805460ff19169115159190911790555b600381815481106141ed576141ed614cd7565b600091825260209091206009600a90920201015460ff1615801561421957506001546142176142ce565b105b156142ac5760016003828154811061423357614233614cd7565b90600052602060002090600a020160090160006101000a81548160ff02191690831515021790555060016002600082825461426e9190614d59565b90915550506040517f44e9a7e8954aaa2834d971520eb9e11068edf3e4bb331cdb1f8467c1bdca2bf4906142a39084906150b3565b60405180910390a15b6000805160206150e983398151915282604051610eb191906150b3565b505050565b600080805b60035481101561433057600381815481106142f0576142f0614cd7565b600091825260209091206009600a90920201015460ff16151560010361431e5761431b600183614d59565b91505b8061432881614ed9565b9150506142d3565b50919050565b3360009081526004602052604090205460038054600a91908390811061435e5761435e614cd7565b90600052602060002090600a0201600501541061437d5761437d614380565b50565b3360009081526004602052604090205460015b600354811015611a1b576000818152600560205260409020546001600160a01b03168282148015906143f05750600382815481106143d3576143d3614cd7565b600091825260209091206004600a90920201015460ff1615156001145b801561442357506003828154811061440a5761440a614cd7565b600091825260209091206009600a90920201015460ff16155b156145555760016003838154811061443d5761443d614cd7565b600091825260208220600a9190910201600901805460ff191692151592909217909155600380548490811061447457614474614cd7565b90600052602060002090600a0201600501819055506000600360046000336001600160a01b03166001600160a01b0316815260200190815260200160002054815481106144c3576144c3614cd7565b600091825260208220600a9190910201600901805460ff19169215159290921790915560038054859081106144fa576144fa614cd7565b90600052602060002090600a0201600501819055507f9d68d9cb21bb6b6ad17bf5d888557d8e6608701a7ae8e598ab75f8e12824bc793382604051610eb19291906001600160a01b0392831681529116602082015260400190565b508061456081614ed9565b915050614393565b60405180610180016040528060008152602001606081526020016060815260200160006001600160a01b0316815260200160608152602001606081526020016060815260200160001515815260200160001515815260200160008152602001600015158152602001606081525090565b82805482825590600052602060002090810192821561462d579160200282015b8281111561462d57825182546001600160a01b0319166001600160a01b039091161782556020909201916001909101906145f8565b5061463992915061463d565b5090565b5b80821115614639576000815560010161463e565b60006020828403121561466457600080fd5b5035919050565b6000815180845260005b8181101561469157602081850181015186830182015201614675565b506000602082860101526020601f19601f83011685010191505092915050565b60006101608083526146c58184018f61466b565b905082810360208401526146d9818e61466b565b6001600160a01b039c909c16604084015250509715156060890152608088019690965293151560a087015260c086019290925260e085015261010084015261012083015215156101409091015292915050565b634e487b7160e01b600052604160045260246000fd5b600082601f83011261475357600080fd5b81356001600160401b038082111561476d5761476d61472c565b604051601f8301601f19908116603f011681019082821181831017156147955761479561472c565b816040528381528660208588010111156147ae57600080fd5b836020870160208301376000602085830101528094505050505092915050565b6000806000606084860312156147e357600080fd5b83356001600160401b03808211156147fa57600080fd5b61480687838801614742565b9450602086013591508082111561481c57600080fd5b5061482986828701614742565b92505060408401356001600160a01b038116811461484657600080fd5b809150509250925092565b600081518084526020808501945080840160005b8381101561488a5781516001600160a01b031687529582019590820190600101614865565b509495945050505050565b60006101808251845260208301518160208601526148b58286018261466b565b915050604083015184820360408601526148cf828261466b565b91505060608301516148ec60608601826001600160a01b03169052565b50608083015184820360808601526149048282614851565b91505060a083015184820360a086015261491e8282614851565b91505060c083015184820360c08601526149388282614851565b91505060e083015161494e60e086018215159052565b5061010083810151151590850152610120808401519085015261014080840151151590850152610160808401518583038287015261498c838261466b565b9695505050505050565b6000602080830181845280855180835260408601915060408160051b870101925083870160005b828110156149eb57603f198886030184526149d9858351614895565b945092850192908501906001016149bd565b5092979650505050505050565b600080600060608486031215614a0d57600080fd5b8335925060208401356001600160401b0380821115614a2b57600080fd5b614a3787838801614742565b93506040860135915080821115614a4d57600080fd5b50614a5a86828701614742565b9150509250925092565b600080600060608486031215614a7957600080fd5b83356001600160401b0380821115614a9057600080fd5b614a9c87838801614742565b94506020860135915080821115614a2b57600080fd5b602081526000614ac56020830184614895565b9392505050565b60006101608251818552614ae28286018261466b565b91505060208301518482036020860152614afc828261466b565b9150506040830151614b1960408601826001600160a01b03169052565b506060830151614b2d606086018215159052565b506080830151608085015260a0830151614b4b60a086018215159052565b5060c0838101519085015260e080840151908501526101008084015190850152610120808401519085015261014092830151151592909301919091525090565b602081526000614ac56020830184614acc565b60008060408385031215614bb157600080fd5b82356001600160401b0380821115614bc857600080fd5b614bd486838701614742565b93506020850135915080821115614bea57600080fd5b50614bf785828601614742565b9150509250929050565b6000602080830181845280855180835260408601915060408160051b870101925083870160005b828110156149eb57603f19888603018452614c44858351614acc565b94509285019290850190600101614c28565b60006101208b8352806020840152614c708184018c61466b565b90508281036040840152614c84818b61466b565b6001600160a01b038a166060850152881515608085015287151560a085015260c0840187905285151560e08501528381036101008501529050614cc7818561466b565b9c9b505050505050505050505050565b634e487b7160e01b600052603260045260246000fd5b600181811c90821680614d0157607f821691505b60208210810361433057634e487b7160e01b600052602260045260246000fd5b634e487b7160e01b600052601160045260246000fd5b600082614d5457634e487b7160e01b600052601260045260246000fd5b500490565b80820180821115613df357613df3614d21565b601f8211156142c957600081815260208120601f850160051c81016020861015614d935750805b601f850160051c820191505b81811015614db257828155600101614d9f565b505050505050565b81516001600160401b03811115614dd357614dd361472c565b614de781614de18454614ced565b84614d6c565b602080601f831160018114614e1c5760008415614e045750858301515b600019600386901b1c1916600185901b178555614db2565b600085815260208120601f198616915b82811015614e4b57888601518255948401946001909101908401614e2c565b5085821015614e695787850151600019600388901b60f8161c191681555b5050505050600190811b01905550565b81810381811115613df357613df3614d21565b6020808252602d908201527f596f75206d75737420626520612076616c696461746f7220746f20706572666f60408201526c3936903a34329030b1ba34b7b760991b606082015260800190565b600060018201614eeb57614eeb614d21565b5060010190565b6020808252602c908201527f596f75206d757374206265207265676973746572656420746f20706572666f7260408201526b36903a34329030b1ba34b7b760a11b606082015260800190565b602080825260169082015275105c9d1a58db1948191bd95cc81b9bdd08195e1a5cdd60521b604082015260600190565b60208082526022908201527f5469746c65206d7573742068617665206c657373207468616e20333020776f72604082015261647360f01b606082015260800190565b60208082526025908201527f41727469636c65206d7573742068617665206c657373207468616e2032303020604082015264776f72647360d81b606082015260800190565b6020808252603b908201527f596f752068617665207265616368656420746865206d6178696d756d206e756d60408201527f626572206f6620756e76616c6964617465642061727469636c65730000000000606082015260800190565b6020808252602a908201527f416374696f6e20616c6c6f776564206f6e6c7920666f722076616c6964617465604082015269642061727469636c657360b01b606082015260800190565b9182526001600160a01b0316602082015260400190565b6001600160a01b0391909116815260200190565b6001600160a01b03939093168352602083019190915260408201526060019056fe30ae330d31ec45ea0986fd063ab7352619fa20f5175678a7c577dfa1f4d5a9dea2646970667358221220a9c604daf919702680b203d012111cd652a67b3c76ea160d9dc7c12b204a032c64736f6c63430008110033",
  "linkReferences": {},
  "deployedLinkReferences": {}
}