{
    "_format": "hh-sol-artifact-1",
    "contractName": "NewsForumContract",
    "sourceName": "contracts/NewsForum.sol",
    "abi": [
        {
            "inputs": [],
            "stateMutability": "nonpayable",
            "type": "constructor"
        },
        {
            "anonymous": false,
            "inputs": [
                {
                    "indexed": false,
                    "internalType": "uint256",
                    "name": "articleId",
                    "type": "uint256"
                }
            ],
            "name": "ArticleValidated",
            "type": "event"
        },
        {
            "anonymous": false,
            "inputs": [
                {
                    "indexed": false,
                    "internalType": "address",
                    "name": "fromUser",
                    "type": "address"
                },
                {
                    "indexed": false,
                    "internalType": "address",
                    "name": "toUser",
                    "type": "address"
                }
            ],
            "name": "ValidationPowerTransferred",
            "type": "event"
        },
        {
            "anonymous": false,
            "inputs": [
                {
                    "indexed": false,
                    "internalType": "address",
                    "name": "User",
                    "type": "address"
                }
            ],
            "name": "eligibleValidator",
            "type": "event"
        },
        {
            "inputs": [],
            "name": "NUMBER_OF_VALIDATORS",
            "outputs": [
                {
                    "internalType": "uint256",
                    "name": "",
                    "type": "uint256"
                }
            ],
            "stateMutability": "view",
            "type": "function"
        },
        {
            "inputs": [],
            "name": "VALIDATIONS_REQUIRED",
            "outputs": [
                {
                    "internalType": "uint256",
                    "name": "",
                    "type": "uint256"
                }
            ],
            "stateMutability": "view",
            "type": "function"
        },
        {
            "inputs": [],
            "name": "VALIDATION_REWARD",
            "outputs": [
                {
                    "internalType": "uint256",
                    "name": "",
                    "type": "uint256"
                }
            ],
            "stateMutability": "view",
            "type": "function"
        },
        {
            "inputs": [
                {
                    "internalType": "string",
                    "name": "_title",
                    "type": "string"
                },
                {
                    "internalType": "string",
                    "name": "_content",
                    "type": "string"
                }
            ],
            "name": "addArticle",
            "outputs": [],
            "stateMutability": "nonpayable",
            "type": "function"
        },
        {
            "inputs": [
                {
                    "internalType": "string",
                    "name": "_name",
                    "type": "string"
                },
                {
                    "internalType": "string",
                    "name": "_email",
                    "type": "string"
                },
                {
                    "internalType": "address",
                    "name": "_wallet",
                    "type": "address"
                }
            ],
            "name": "addNewUser",
            "outputs": [],
            "stateMutability": "nonpayable",
            "type": "function"
        },
        {
            "inputs": [
                {
                    "internalType": "uint256",
                    "name": "",
                    "type": "uint256"
                }
            ],
            "name": "articles",
            "outputs": [
                {
                    "internalType": "uint256",
                    "name": "id",
                    "type": "uint256"
                },
                {
                    "internalType": "string",
                    "name": "title",
                    "type": "string"
                },
                {
                    "internalType": "string",
                    "name": "content",
                    "type": "string"
                },
                {
                    "internalType": "address",
                    "name": "author",
                    "type": "address"
                },
                {
                    "internalType": "bool",
                    "name": "isValidated",
                    "type": "bool"
                },
                {
                    "internalType": "bool",
                    "name": "valid",
                    "type": "bool"
                },
                {
                    "internalType": "uint256",
                    "name": "timestamp",
                    "type": "uint256"
                }
            ],
            "stateMutability": "view",
            "type": "function"
        },
        {
            "inputs": [
                {
                    "internalType": "uint256",
                    "name": "articleId",
                    "type": "uint256"
                }
            ],
            "name": "downvoteArticle",
            "outputs": [],
            "stateMutability": "nonpayable",
            "type": "function"
        },
        {
            "inputs": [],
            "name": "getAllArticles",
            "outputs": [
                {
                    "components": [
                        {
                            "internalType": "uint256",
                            "name": "id",
                            "type": "uint256"
                        },
                        {
                            "internalType": "string",
                            "name": "title",
                            "type": "string"
                        },
                        {
                            "internalType": "string",
                            "name": "content",
                            "type": "string"
                        },
                        {
                            "internalType": "address",
                            "name": "author",
                            "type": "address"
                        },
                        {
                            "internalType": "address[]",
                            "name": "upvotes",
                            "type": "address[]"
                        },
                        {
                            "internalType": "address[]",
                            "name": "downvotes",
                            "type": "address[]"
                        },
                        {
                            "internalType": "address[]",
                            "name": "validators",
                            "type": "address[]"
                        },
                        {
                            "internalType": "bool",
                            "name": "isValidated",
                            "type": "bool"
                        },
                        {
                            "internalType": "bool",
                            "name": "valid",
                            "type": "bool"
                        },
                        {
                            "internalType": "uint256",
                            "name": "timestamp",
                            "type": "uint256"
                        }
                    ],
                    "internalType": "struct NewsForumContract.Article[]",
                    "name": "",
                    "type": "tuple[]"
                }
            ],
            "stateMutability": "view",
            "type": "function"
        },
        {
            "inputs": [],
            "name": "getAllArticlesForValidation",
            "outputs": [
                {
                    "components": [
                        {
                            "internalType": "uint256",
                            "name": "id",
                            "type": "uint256"
                        },
                        {
                            "internalType": "string",
                            "name": "title",
                            "type": "string"
                        },
                        {
                            "internalType": "string",
                            "name": "content",
                            "type": "string"
                        },
                        {
                            "internalType": "address",
                            "name": "author",
                            "type": "address"
                        },
                        {
                            "internalType": "address[]",
                            "name": "upvotes",
                            "type": "address[]"
                        },
                        {
                            "internalType": "address[]",
                            "name": "downvotes",
                            "type": "address[]"
                        },
                        {
                            "internalType": "address[]",
                            "name": "validators",
                            "type": "address[]"
                        },
                        {
                            "internalType": "bool",
                            "name": "isValidated",
                            "type": "bool"
                        },
                        {
                            "internalType": "bool",
                            "name": "valid",
                            "type": "bool"
                        },
                        {
                            "internalType": "uint256",
                            "name": "timestamp",
                            "type": "uint256"
                        }
                    ],
                    "internalType": "struct NewsForumContract.Article[]",
                    "name": "",
                    "type": "tuple[]"
                }
            ],
            "stateMutability": "view",
            "type": "function"
        },
        {
            "inputs": [
                {
                    "internalType": "uint256",
                    "name": "articleId",
                    "type": "uint256"
                }
            ],
            "name": "getArticleById",
            "outputs": [
                {
                    "components": [
                        {
                            "internalType": "uint256",
                            "name": "id",
                            "type": "uint256"
                        },
                        {
                            "internalType": "string",
                            "name": "title",
                            "type": "string"
                        },
                        {
                            "internalType": "string",
                            "name": "content",
                            "type": "string"
                        },
                        {
                            "internalType": "address",
                            "name": "author",
                            "type": "address"
                        },
                        {
                            "internalType": "address[]",
                            "name": "upvotes",
                            "type": "address[]"
                        },
                        {
                            "internalType": "address[]",
                            "name": "downvotes",
                            "type": "address[]"
                        },
                        {
                            "internalType": "address[]",
                            "name": "validators",
                            "type": "address[]"
                        },
                        {
                            "internalType": "bool",
                            "name": "isValidated",
                            "type": "bool"
                        },
                        {
                            "internalType": "bool",
                            "name": "valid",
                            "type": "bool"
                        },
                        {
                            "internalType": "uint256",
                            "name": "timestamp",
                            "type": "uint256"
                        }
                    ],
                    "internalType": "struct NewsForumContract.Article",
                    "name": "",
                    "type": "tuple"
                }
            ],
            "stateMutability": "view",
            "type": "function"
        },
        {
            "inputs": [],
            "name": "getMyArticles",
            "outputs": [
                {
                    "components": [
                        {
                            "internalType": "uint256",
                            "name": "id",
                            "type": "uint256"
                        },
                        {
                            "internalType": "string",
                            "name": "title",
                            "type": "string"
                        },
                        {
                            "internalType": "string",
                            "name": "content",
                            "type": "string"
                        },
                        {
                            "internalType": "address",
                            "name": "author",
                            "type": "address"
                        },
                        {
                            "internalType": "address[]",
                            "name": "upvotes",
                            "type": "address[]"
                        },
                        {
                            "internalType": "address[]",
                            "name": "downvotes",
                            "type": "address[]"
                        },
                        {
                            "internalType": "address[]",
                            "name": "validators",
                            "type": "address[]"
                        },
                        {
                            "internalType": "bool",
                            "name": "isValidated",
                            "type": "bool"
                        },
                        {
                            "internalType": "bool",
                            "name": "valid",
                            "type": "bool"
                        },
                        {
                            "internalType": "uint256",
                            "name": "timestamp",
                            "type": "uint256"
                        }
                    ],
                    "internalType": "struct NewsForumContract.Article[]",
                    "name": "",
                    "type": "tuple[]"
                }
            ],
            "stateMutability": "view",
            "type": "function"
        },
        {
            "inputs": [
                {
                    "internalType": "uint256",
                    "name": "articleId",
                    "type": "uint256"
                }
            ],
            "name": "getNumberOfDownvotes",
            "outputs": [
                {
                    "internalType": "uint256",
                    "name": "",
                    "type": "uint256"
                }
            ],
            "stateMutability": "view",
            "type": "function"
        },
        {
            "inputs": [
                {
                    "internalType": "uint256",
                    "name": "articleId",
                    "type": "uint256"
                }
            ],
            "name": "getNumberOfUpvotes",
            "outputs": [
                {
                    "internalType": "uint256",
                    "name": "",
                    "type": "uint256"
                }
            ],
            "stateMutability": "view",
            "type": "function"
        },
        {
            "inputs": [],
            "name": "maxNumberOfActiveValidators",
            "outputs": [
                {
                    "internalType": "uint256",
                    "name": "",
                    "type": "uint256"
                }
            ],
            "stateMutability": "view",
            "type": "function"
        },
        {
            "inputs": [],
            "name": "totalRewardCount",
            "outputs": [
                {
                    "internalType": "uint256",
                    "name": "",
                    "type": "uint256"
                }
            ],
            "stateMutability": "view",
            "type": "function"
        },
        {
            "inputs": [
                {
                    "internalType": "uint256",
                    "name": "articleId",
                    "type": "uint256"
                },
                {
                    "internalType": "string",
                    "name": "_title",
                    "type": "string"
                },
                {
                    "internalType": "string",
                    "name": "_content",
                    "type": "string"
                }
            ],
            "name": "updateArticle",
            "outputs": [],
            "stateMutability": "nonpayable",
            "type": "function"
        },
        {
            "inputs": [
                {
                    "internalType": "string",
                    "name": "_name",
                    "type": "string"
                },
                {
                    "internalType": "string",
                    "name": "_email",
                    "type": "string"
                }
            ],
            "name": "updateUser",
            "outputs": [],
            "stateMutability": "nonpayable",
            "type": "function"
        },
        {
            "inputs": [],
            "name": "updateValidators",
            "outputs": [],
            "stateMutability": "nonpayable",
            "type": "function"
        },
        {
            "inputs": [
                {
                    "internalType": "uint256",
                    "name": "articleId",
                    "type": "uint256"
                }
            ],
            "name": "upvoteArticle",
            "outputs": [],
            "stateMutability": "nonpayable",
            "type": "function"
        },
        {
            "inputs": [],
            "name": "upvotesCountForAwardToValidator",
            "outputs": [
                {
                    "internalType": "uint256",
                    "name": "",
                    "type": "uint256"
                }
            ],
            "stateMutability": "view",
            "type": "function"
        },
        {
            "inputs": [
                {
                    "internalType": "uint256",
                    "name": "",
                    "type": "uint256"
                }
            ],
            "name": "users",
            "outputs": [
                {
                    "internalType": "string",
                    "name": "name",
                    "type": "string"
                },
                {
                    "internalType": "string",
                    "name": "email",
                    "type": "string"
                },
                {
                    "internalType": "address",
                    "name": "id",
                    "type": "address"
                },
                {
                    "internalType": "bool",
                    "name": "valid",
                    "type": "bool"
                },
                {
                    "internalType": "uint256",
                    "name": "timestamp",
                    "type": "uint256"
                },
                {
                    "internalType": "bool",
                    "name": "canBeValidator",
                    "type": "bool"
                },
                {
                    "internalType": "uint256",
                    "name": "articlesValidatedSinceLastAppoint",
                    "type": "uint256"
                },
                {
                    "internalType": "uint256",
                    "name": "rewardCount",
                    "type": "uint256"
                },
                {
                    "internalType": "uint256",
                    "name": "articleAddedCount",
                    "type": "uint256"
                }
            ],
            "stateMutability": "view",
            "type": "function"
        },
        {
            "inputs": [
                {
                    "internalType": "uint256",
                    "name": "articleId",
                    "type": "uint256"
                }
            ],
            "name": "validateArticle",
            "outputs": [],
            "stateMutability": "nonpayable",
            "type": "function"
        }
    ],
    "bytecode": "0x608060405260008055600a60015534801561001957600080fd5b5033600260006101000a81548173ffffffffffffffffffffffffffffffffffffffff021916908373ffffffffffffffffffffffffffffffffffffffff160217905550614d038061006a6000396000f3fe608060405234801561001057600080fd5b50600436106101425760003560e01c8063a217de60116100b8578063db7317771161007c578063db73177714610347578063dc19628e14610365578063dd4a242514610381578063eb9f825a1461039d578063ec09e6ad146103bb578063edcfafe6146103eb57610142565b8063a217de60146102b5578063b44d310b146102d1578063b5df05fc146102ef578063cdbdb31a1461030d578063ce45032e1461032b57610142565b806364e421681161010a57806364e42168146101f35780636e346113146102115780636ec67ec91461022f578063886704121461024b578063892cd3991461026757806395de67361461028557610142565b80632d169b79146101475780632d497ba214610177578063365b98b214610181578063390f1eef146101b9578063641cabec146101d5575b600080fd5b610161600480360381019061015c91906139df565b610421565b60405161016e9190613a1b565b60405180910390f35b61017f610453565b005b61019b600480360381019061019691906139df565b6104e5565b6040516101b099989796959493929190613b22565b60405180910390f35b6101d360048036038101906101ce9190613d1e565b61068d565b005b6101dd61099a565b6040516101ea9190614087565b60405180910390f35b6101fb610ec0565b6040516102089190613a1b565b60405180910390f35b610219610ec5565b6040516102269190613a1b565b60405180910390f35b610249600480360381019061024491906140a9565b610eca565b005b61026560048036038101906102609190614121565b611392565b005b61026f6115f9565b60405161027c9190613a1b565b60405180910390f35b61029f600480360381019061029a91906139df565b6115fe565b6040516102ac91906142a2565b60405180910390f35b6102cf60048036038101906102ca91906139df565b611a22565b005b6102d9611e38565b6040516102e69190614087565b60405180910390f35b6102f76122cb565b6040516103049190614087565b60405180910390f35b610315612850565b6040516103229190613a1b565b60405180910390f35b610345600480360381019061034091906139df565b612856565b005b61034f612c6c565b60405161035c9190613a1b565b60405180910390f35b61037f600480360381019061037a91906139df565b612c71565b005b61039b600480360381019061039691906140a9565b61319a565b005b6103a56133a3565b6040516103b29190613a1b565b60405180910390f35b6103d560048036038101906103d091906139df565b6133a9565b6040516103e29190613a1b565b60405180910390f35b610405600480360381019061040091906139df565b6133db565b60405161041897969594939291906142c4565b60405180910390f35b60006006828154811061043757610436614341565b5b9060005260206000209060090201600401805490509050919050565b600260009054906101000a900473ffffffffffffffffffffffffffffffffffffffff1673ffffffffffffffffffffffffffffffffffffffff163373ffffffffffffffffffffffffffffffffffffffff16146104e3576040517f08c379a00000000000000000000000000000000000000000000000000000000081526004016104da906143e2565b60405180910390fd5b565b600381815481106104f557600080fd5b906000526020600020906008020160009150905080600001805461051890614431565b80601f016020809104026020016040519081016040528092919081815260200182805461054490614431565b80156105915780601f1061056657610100808354040283529160200191610591565b820191906000526020600020905b81548152906001019060200180831161057457829003601f168201915b5050505050908060010180546105a690614431565b80601f01602080910402602001604051908101604052809291908181526020018280546105d290614431565b801561061f5780601f106105f45761010080835404028352916020019161061f565b820191906000526020600020905b81548152906001019060200180831161060257829003601f168201915b5050505050908060020160009054906101000a900473ffffffffffffffffffffffffffffffffffffffff16908060020160149054906101000a900460ff16908060030154908060040160009054906101000a900460ff16908060050154908060060154908060070154905089565b600260009054906101000a900473ffffffffffffffffffffffffffffffffffffffff1673ffffffffffffffffffffffffffffffffffffffff163373ffffffffffffffffffffffffffffffffffffffff161461071d576040517f08c379a0000000000000000000000000000000000000000000000000000000008152600401610714906143e2565b60405180910390fd5b60036040518061012001604052808581526020018481526020018373ffffffffffffffffffffffffffffffffffffffff16815260200160011515815260200142815260200160001515815260200160008152602001600081526020016000815250908060018154018082558091505060019003906000526020600020906008020160009091909190915060008201518160000190816107bc919061460e565b5060208201518160010190816107d2919061460e565b5060408201518160020160006101000a81548173ffffffffffffffffffffffffffffffffffffffff021916908373ffffffffffffffffffffffffffffffffffffffff16021790555060608201518160020160146101000a81548160ff0219169083151502179055506080820151816003015560a08201518160040160006101000a81548160ff02191690831515021790555060c0820151816005015560e08201518160060155610100820151816007015550506000600860003373ffffffffffffffffffffffffffffffffffffffff1673ffffffffffffffffffffffffffffffffffffffff16815260200190815260200160002060006101000a81548160ff02191690831515021790555060016003805490506108ef919061470f565b600460008373ffffffffffffffffffffffffffffffffffffffff1673ffffffffffffffffffffffffffffffffffffffff1681526020019081526020016000208190555080600560006001600380549050610949919061470f565b815260200190815260200160002060006101000a81548173ffffffffffffffffffffffffffffffffffffffff021916908373ffffffffffffffffffffffffffffffffffffffff160217905550505050565b606060011515600860003373ffffffffffffffffffffffffffffffffffffffff1673ffffffffffffffffffffffffffffffffffffffff16815260200190815260200160002060009054906101000a900460ff16151514610a2f576040517f08c379a0000000000000000000000000000000000000000000000000000000008152600401610a26906147b5565b60405180910390fd5b600060068054905067ffffffffffffffff811115610a5057610a4f613bc7565b5b604051908082528060200260200182016040528015610a8957816020015b610a76613881565b815260200190600190039081610a6e5790505b5090506000805b600680549050811015610eb7576000151560068281548110610ab557610ab4614341565b5b906000526020600020906009020160070160009054906101000a900460ff16151503610ea45760068181548110610aef57610aee614341565b5b90600052602060002090600902016040518061014001604052908160008201548152602001600182018054610b2390614431565b80601f0160208091040260200160405190810160405280929190818152602001828054610b4f90614431565b8015610b9c5780601f10610b7157610100808354040283529160200191610b9c565b820191906000526020600020905b815481529060010190602001808311610b7f57829003601f168201915b50505050508152602001600282018054610bb590614431565b80601f0160208091040260200160405190810160405280929190818152602001828054610be190614431565b8015610c2e5780601f10610c0357610100808354040283529160200191610c2e565b820191906000526020600020905b815481529060010190602001808311610c1157829003601f168201915b505050505081526020016003820160009054906101000a900473ffffffffffffffffffffffffffffffffffffffff1673ffffffffffffffffffffffffffffffffffffffff1673ffffffffffffffffffffffffffffffffffffffff16815260200160048201805480602002602001604051908101604052809291908181526020018280548015610d1257602002820191906000526020600020905b8160009054906101000a900473ffffffffffffffffffffffffffffffffffffffff1673ffffffffffffffffffffffffffffffffffffffff1681526020019060010190808311610cc8575b5050505050815260200160058201805480602002602001604051908101604052809291908181526020018280548015610da057602002820191906000526020600020905b8160009054906101000a900473ffffffffffffffffffffffffffffffffffffffff1673ffffffffffffffffffffffffffffffffffffffff1681526020019060010190808311610d56575b5050505050815260200160068201805480602002602001604051908101604052809291908181526020018280548015610e2e57602002820191906000526020600020905b8160009054906101000a900473ffffffffffffffffffffffffffffffffffffffff1673ffffffffffffffffffffffffffffffffffffffff1681526020019060010190808311610de4575b505050505081526020016007820160009054906101000a900460ff161515151581526020016007820160019054906101000a900460ff16151515158152602001600882015481525050838381518110610e8a57610e89614341565b5b60200260200101819052508180610ea0906147d5565b9250505b8080610eaf906147d5565b915050610a90565b50819250505090565b600a81565b600a81565b600115156003600460003373ffffffffffffffffffffffffffffffffffffffff1673ffffffffffffffffffffffffffffffffffffffff1681526020019081526020016000205481548110610f2157610f20614341565b5b906000526020600020906008020160020160149054906101000a900460ff16151514610f82576040517f08c379a0000000000000000000000000000000000000000000000000000000008152600401610f799061488f565b60405180910390fd5b6000600680549050905060066040518061014001604052808381526020018581526020018481526020013373ffffffffffffffffffffffffffffffffffffffff168152602001600067ffffffffffffffff811115610fe357610fe2613bc7565b5b6040519080825280602002602001820160405280156110115781602001602082028036833780820191505090505b508152602001600067ffffffffffffffff81111561103257611031613bc7565b5b6040519080825280602002602001820160405280156110605781602001602082028036833780820191505090505b508152602001600067ffffffffffffffff81111561108157611080613bc7565b5b6040519080825280602002602001820160405280156110af5781602001602082028036833780820191505090505b508152602001600015158152602001600115158152602001428152509080600181540180825580915050600190039060005260206000209060090201600090919091909150600082015181600001556020820151816001019081611113919061460e565b506040820151816002019081611129919061460e565b5060608201518160030160006101000a81548173ffffffffffffffffffffffffffffffffffffffff021916908373ffffffffffffffffffffffffffffffffffffffff160217905550608082015181600401908051906020019061118d9291906138ee565b5060a08201518160050190805190602001906111aa9291906138ee565b5060c08201518160060190805190602001906111c79291906138ee565b5060e08201518160070160006101000a81548160ff0219169083151502179055506101008201518160070160016101000a81548160ff02191690831515021790555061012082015181600801555050336007600083815260200190815260200160002060006101000a81548173ffffffffffffffffffffffffffffffffffffffff021916908373ffffffffffffffffffffffffffffffffffffffff1602179055506000600460003373ffffffffffffffffffffffffffffffffffffffff1673ffffffffffffffffffffffffffffffffffffffff1681526020019081526020016000205490506001600382815481106112c2576112c1614341565b5b906000526020600020906008020160070160008282546112e291906148af565b925050819055506004600382815481106112ff576112fe614341565b5b9060005260206000209060080201600701541061138c5760016003828154811061132c5761132b614341565b5b906000526020600020906008020160040160006101000a81548160ff0219169083151502179055507f30ae330d31ec45ea0986fd063ab7352619fa20f5175678a7c577dfa1f4d5a9de3360405161138391906148e3565b60405180910390a15b50505050565b600115156003600460003373ffffffffffffffffffffffffffffffffffffffff1673ffffffffffffffffffffffffffffffffffffffff16815260200190815260200160002054815481106113e9576113e8614341565b5b906000526020600020906008020160020160149054906101000a900460ff1615151461144a576040517f08c379a00000000000000000000000000000000000000000000000000000000081526004016114419061488f565b60405180910390fd5b3373ffffffffffffffffffffffffffffffffffffffff166007600085815260200190815260200160002060009054906101000a900473ffffffffffffffffffffffffffffffffffffffff1673ffffffffffffffffffffffffffffffffffffffff16146114eb576040517f08c379a00000000000000000000000000000000000000000000000000000000081526004016114e290614970565b60405180910390fd5b600115156006848154811061150357611502614341565b5b906000526020600020906009020160070160019054906101000a900460ff16151514611564576040517f08c379a000000000000000000000000000000000000000000000000000000000815260040161155b906149dc565b60405180910390fd5b816006848154811061157957611578614341565b5b90600052602060002090600902016001019081611596919061460e565b5080600684815481106115ac576115ab614341565b5b906000526020600020906009020160020190816115c9919061460e565b5042600684815481106115df576115de614341565b5b906000526020600020906009020160080181905550505050565b600581565b611606613881565b600115156006838154811061161e5761161d614341565b5b906000526020600020906009020160070160019054906101000a900460ff1615151461167f576040517f08c379a0000000000000000000000000000000000000000000000000000000008152600401611676906149dc565b60405180910390fd5b6006828154811061169357611692614341565b5b906000526020600020906009020160405180610140016040529081600082015481526020016001820180546116c790614431565b80601f01602080910402602001604051908101604052809291908181526020018280546116f390614431565b80156117405780601f1061171557610100808354040283529160200191611740565b820191906000526020600020905b81548152906001019060200180831161172357829003601f168201915b5050505050815260200160028201805461175990614431565b80601f016020809104026020016040519081016040528092919081815260200182805461178590614431565b80156117d25780601f106117a7576101008083540402835291602001916117d2565b820191906000526020600020905b8154815290600101906020018083116117b557829003601f168201915b505050505081526020016003820160009054906101000a900473ffffffffffffffffffffffffffffffffffffffff1673ffffffffffffffffffffffffffffffffffffffff1673ffffffffffffffffffffffffffffffffffffffff168152602001600482018054806020026020016040519081016040528092919081815260200182805480156118b657602002820191906000526020600020905b8160009054906101000a900473ffffffffffffffffffffffffffffffffffffffff1673ffffffffffffffffffffffffffffffffffffffff168152602001906001019080831161186c575b505050505081526020016005820180548060200260200160405190810160405280929190818152602001828054801561194457602002820191906000526020600020905b8160009054906101000a900473ffffffffffffffffffffffffffffffffffffffff1673ffffffffffffffffffffffffffffffffffffffff16815260200190600101908083116118fa575b50505050508152602001600682018054806020026020016040519081016040528092919081815260200182805480156119d257602002820191906000526020600020905b8160009054906101000a900473ffffffffffffffffffffffffffffffffffffffff1673ffffffffffffffffffffffffffffffffffffffff1681526020019060010190808311611988575b505050505081526020016007820160009054906101000a900460ff161515151581526020016007820160019054906101000a900460ff161515151581526020016008820154815250509050919050565b600115156003600460003373ffffffffffffffffffffffffffffffffffffffff1673ffffffffffffffffffffffffffffffffffffffff1681526020019081526020016000205481548110611a7957611a78614341565b5b906000526020600020906008020160020160149054906101000a900460ff16151514611ada576040517f08c379a0000000000000000000000000000000000000000000000000000000008152600401611ad19061488f565b60405180910390fd5b6001151560068281548110611af257611af1614341565b5b906000526020600020906009020160070160019054906101000a900460ff16151514611b53576040517f08c379a0000000000000000000000000000000000000000000000000000000008152600401611b4a906149dc565b60405180910390fd5b60005b60068281548110611b6a57611b69614341565b5b906000526020600020906009020160040180549050811015611c68573373ffffffffffffffffffffffffffffffffffffffff1660068381548110611bb157611bb0614341565b5b90600052602060002090600902016004018281548110611bd457611bd3614341565b5b9060005260206000200160009054906101000a900473ffffffffffffffffffffffffffffffffffffffff1673ffffffffffffffffffffffffffffffffffffffff1603611c55576040517f08c379a0000000000000000000000000000000000000000000000000000000008152600401611c4c90614a6e565b60405180910390fd5b8080611c60906147d5565b915050611b56565b5060005b60068281548110611c8057611c7f614341565b5b906000526020600020906009020160050180549050811015611dad573373ffffffffffffffffffffffffffffffffffffffff1660068381548110611cc757611cc6614341565b5b90600052602060002090600902016005018281548110611cea57611ce9614341565b5b9060005260206000200160009054906101000a900473ffffffffffffffffffffffffffffffffffffffff1673ffffffffffffffffffffffffffffffffffffffff1603611d9a5760068281548110611d4457611d43614341565b5b90600052602060002090600902016005018181548110611d6757611d66614341565b5b9060005260206000200160006101000a81549073ffffffffffffffffffffffffffffffffffffffff021916905550611e35565b8080611da5906147d5565b915050611c6c565b5060068181548110611dc257611dc1614341565b5b9060005260206000209060090201600401339080600181540180825580915050600190039060005260206000200160009091909190916101000a81548173ffffffffffffffffffffffffffffffffffffffff021916908373ffffffffffffffffffffffffffffffffffffffff1602179055505b50565b6060600060068054905067ffffffffffffffff811115611e5b57611e5a613bc7565b5b604051908082528060200260200182016040528015611e9457816020015b611e81613881565b815260200190600190039081611e795790505b5090506000805b6006805490508110156122c2576001151560068281548110611ec057611ebf614341565b5b906000526020600020906009020160070160009054906101000a900460ff161515036122af5760068181548110611efa57611ef9614341565b5b90600052602060002090600902016040518061014001604052908160008201548152602001600182018054611f2e90614431565b80601f0160208091040260200160405190810160405280929190818152602001828054611f5a90614431565b8015611fa75780601f10611f7c57610100808354040283529160200191611fa7565b820191906000526020600020905b815481529060010190602001808311611f8a57829003601f168201915b50505050508152602001600282018054611fc090614431565b80601f0160208091040260200160405190810160405280929190818152602001828054611fec90614431565b80156120395780601f1061200e57610100808354040283529160200191612039565b820191906000526020600020905b81548152906001019060200180831161201c57829003601f168201915b505050505081526020016003820160009054906101000a900473ffffffffffffffffffffffffffffffffffffffff1673ffffffffffffffffffffffffffffffffffffffff1673ffffffffffffffffffffffffffffffffffffffff1681526020016004820180548060200260200160405190810160405280929190818152602001828054801561211d57602002820191906000526020600020905b8160009054906101000a900473ffffffffffffffffffffffffffffffffffffffff1673ffffffffffffffffffffffffffffffffffffffff16815260200190600101908083116120d3575b50505050508152602001600582018054806020026020016040519081016040528092919081815260200182805480156121ab57602002820191906000526020600020905b8160009054906101000a900473ffffffffffffffffffffffffffffffffffffffff1673ffffffffffffffffffffffffffffffffffffffff1681526020019060010190808311612161575b505050505081526020016006820180548060200260200160405190810160405280929190818152602001828054801561223957602002820191906000526020600020905b8160009054906101000a900473ffffffffffffffffffffffffffffffffffffffff1673ffffffffffffffffffffffffffffffffffffffff16815260200190600101908083116121ef575b505050505081526020016007820160009054906101000a900460ff161515151581526020016007820160019054906101000a900460ff1615151515815260200160088201548152505083838151811061229557612294614341565b5b602002602001018190525081806122ab906147d5565b9250505b80806122ba906147d5565b915050611e9b565b50819250505090565b6060600115156003600460003373ffffffffffffffffffffffffffffffffffffffff1673ffffffffffffffffffffffffffffffffffffffff168152602001908152602001600020548154811061232457612323614341565b5b906000526020600020906008020160020160149054906101000a900460ff16151514612385576040517f08c379a000000000000000000000000000000000000000000000000000000000815260040161237c9061488f565b60405180910390fd5b600060068054905067ffffffffffffffff8111156123a6576123a5613bc7565b5b6040519080825280602002602001820160405280156123df57816020015b6123cc613881565b8152602001906001900390816123c45790505b5090506000805b600680549050811015612847573373ffffffffffffffffffffffffffffffffffffffff166006828154811061241e5761241d614341565b5b906000526020600020906009020160030160009054906101000a900473ffffffffffffffffffffffffffffffffffffffff1673ffffffffffffffffffffffffffffffffffffffff1603612834576006818154811061247f5761247e614341565b5b906000526020600020906009020160405180610140016040529081600082015481526020016001820180546124b390614431565b80601f01602080910402602001604051908101604052809291908181526020018280546124df90614431565b801561252c5780601f106125015761010080835404028352916020019161252c565b820191906000526020600020905b81548152906001019060200180831161250f57829003601f168201915b5050505050815260200160028201805461254590614431565b80601f016020809104026020016040519081016040528092919081815260200182805461257190614431565b80156125be5780601f10612593576101008083540402835291602001916125be565b820191906000526020600020905b8154815290600101906020018083116125a157829003601f168201915b505050505081526020016003820160009054906101000a900473ffffffffffffffffffffffffffffffffffffffff1673ffffffffffffffffffffffffffffffffffffffff1673ffffffffffffffffffffffffffffffffffffffff168152602001600482018054806020026020016040519081016040528092919081815260200182805480156126a257602002820191906000526020600020905b8160009054906101000a900473ffffffffffffffffffffffffffffffffffffffff1673ffffffffffffffffffffffffffffffffffffffff1681526020019060010190808311612658575b505050505081526020016005820180548060200260200160405190810160405280929190818152602001828054801561273057602002820191906000526020600020905b8160009054906101000a900473ffffffffffffffffffffffffffffffffffffffff1673ffffffffffffffffffffffffffffffffffffffff16815260200190600101908083116126e6575b50505050508152602001600682018054806020026020016040519081016040528092919081815260200182805480156127be57602002820191906000526020600020905b8160009054906101000a900473ffffffffffffffffffffffffffffffffffffffff1673ffffffffffffffffffffffffffffffffffffffff1681526020019060010190808311612774575b505050505081526020016007820160009054906101000a900460ff161515151581526020016007820160019054906101000a900460ff1615151515815260200160088201548152505083838151811061281a57612819614341565b5b60200260200101819052508180612830906147d5565b9250505b808061283f906147d5565b9150506123e6565b50819250505090565b60005481565b600115156003600460003373ffffffffffffffffffffffffffffffffffffffff1673ffffffffffffffffffffffffffffffffffffffff16815260200190815260200160002054815481106128ad576128ac614341565b5b906000526020600020906008020160020160149054906101000a900460ff1615151461290e576040517f08c379a00000000000000000000000000000000000000000000000000000000081526004016129059061488f565b60405180910390fd5b600115156006828154811061292657612925614341565b5b906000526020600020906009020160070160019054906101000a900460ff16151514612987576040517f08c379a000000000000000000000000000000000000000000000000000000000815260040161297e906149dc565b60405180910390fd5b60005b6006828154811061299e5761299d614341565b5b906000526020600020906009020160050180549050811015612a9c573373ffffffffffffffffffffffffffffffffffffffff16600683815481106129e5576129e4614341565b5b90600052602060002090600902016005018281548110612a0857612a07614341565b5b9060005260206000200160009054906101000a900473ffffffffffffffffffffffffffffffffffffffff1673ffffffffffffffffffffffffffffffffffffffff1603612a89576040517f08c379a0000000000000000000000000000000000000000000000000000000008152600401612a8090614b00565b60405180910390fd5b8080612a94906147d5565b91505061298a565b5060005b60068281548110612ab457612ab3614341565b5b906000526020600020906009020160040180549050811015612be1573373ffffffffffffffffffffffffffffffffffffffff1660068381548110612afb57612afa614341565b5b90600052602060002090600902016004018281548110612b1e57612b1d614341565b5b9060005260206000200160009054906101000a900473ffffffffffffffffffffffffffffffffffffffff1673ffffffffffffffffffffffffffffffffffffffff1603612bce5760068281548110612b7857612b77614341565b5b90600052602060002090600902016004018181548110612b9b57612b9a614341565b5b9060005260206000200160006101000a81549073ffffffffffffffffffffffffffffffffffffffff021916905550612c69565b8080612bd9906147d5565b915050612aa0565b5060068181548110612bf657612bf5614341565b5b9060005260206000209060090201600501339080600181540180825580915050600190039060005260206000200160009091909190916101000a81548173ffffffffffffffffffffffffffffffffffffffff021916908373ffffffffffffffffffffffffffffffffffffffff1602179055505b50565b600181565b600115156003600460003373ffffffffffffffffffffffffffffffffffffffff1673ffffffffffffffffffffffffffffffffffffffff1681526020019081526020016000205481548110612cc857612cc7614341565b5b906000526020600020906008020160020160149054906101000a900460ff16151514612d29576040517f08c379a0000000000000000000000000000000000000000000000000000000008152600401612d209061488f565b60405180910390fd5b60011515600860003373ffffffffffffffffffffffffffffffffffffffff1673ffffffffffffffffffffffffffffffffffffffff16815260200190815260200160002060009054906101000a900460ff16151514612dbc576040517f08c379a0000000000000000000000000000000000000000000000000000000008152600401612db3906147b5565b60405180910390fd5b6001151560068281548110612dd457612dd3614341565b5b906000526020600020906009020160070160019054906101000a900460ff16151514612e35576040517f08c379a0000000000000000000000000000000000000000000000000000000008152600401612e2c906149dc565b60405180910390fd5b6000151560068281548110612e4d57612e4c614341565b5b906000526020600020906009020160070160009054906101000a900460ff16151514612eae576040517f08c379a0000000000000000000000000000000000000000000000000000000008152600401612ea590614b92565b60405180910390fd5b60005b60068281548110612ec557612ec4614341565b5b906000526020600020906009020160060180549050811015612fc3573373ffffffffffffffffffffffffffffffffffffffff1660068381548110612f0c57612f0b614341565b5b90600052602060002090600902016006018281548110612f2f57612f2e614341565b5b9060005260206000200160009054906101000a900473ffffffffffffffffffffffffffffffffffffffff1673ffffffffffffffffffffffffffffffffffffffff1603612fb0576040517f08c379a0000000000000000000000000000000000000000000000000000000008152600401612fa790614c24565b60405180910390fd5b8080612fbb906147d5565b915050612eb1565b5060068181548110612fd857612fd7614341565b5b9060005260206000209060090201600601339080600181540180825580915050600190039060005260206000200160009091909190916101000a81548173ffffffffffffffffffffffffffffffffffffffff021916908373ffffffffffffffffffffffffffffffffffffffff1602179055506000600460003373ffffffffffffffffffffffffffffffffffffffff1673ffffffffffffffffffffffffffffffffffffffff1681526020019081526020016000205490506001600382815481106130a4576130a3614341565b5b906000526020600020906008020160050160008282546130c491906148af565b92505081905550600260016130d99190614c73565b600683815481106130ed576130ec614341565b5b9060005260206000209060090201600601805490501061317d5760016006838154811061311d5761311c614341565b5b906000526020600020906009020160070160006101000a81548160ff0219169083151502179055507ff21a901d81e7e3a2e486646e684b097c9c7ca9d27ef0b1b3fb01e4ccad81df7d826040516131749190613a1b565b60405180910390a15b613185613577565b600154116131965761319561357c565b5b5050565b600115156003600460003373ffffffffffffffffffffffffffffffffffffffff1673ffffffffffffffffffffffffffffffffffffffff16815260200190815260200160002054815481106131f1576131f0614341565b5b906000526020600020906008020160020160149054906101000a900460ff16151514613252576040517f08c379a00000000000000000000000000000000000000000000000000000000081526004016132499061488f565b60405180910390fd5b816003600460003373ffffffffffffffffffffffffffffffffffffffff1673ffffffffffffffffffffffffffffffffffffffff16815260200190815260200160002054815481106132a6576132a5614341565b5b906000526020600020906008020160000190816132c3919061460e565b50806003600460003373ffffffffffffffffffffffffffffffffffffffff1673ffffffffffffffffffffffffffffffffffffffff168152602001908152602001600020548154811061331857613317614341565b5b90600052602060002090600802016001019081613335919061460e565b50426003600460003373ffffffffffffffffffffffffffffffffffffffff1673ffffffffffffffffffffffffffffffffffffffff168152602001908152602001600020548154811061338a57613389614341565b5b9060005260206000209060080201600301819055505050565b60015481565b6000600682815481106133bf576133be614341565b5b9060005260206000209060090201600501805490509050919050565b600681815481106133eb57600080fd5b906000526020600020906009020160009150905080600001549080600101805461341490614431565b80601f016020809104026020016040519081016040528092919081815260200182805461344090614431565b801561348d5780601f106134625761010080835404028352916020019161348d565b820191906000526020600020905b81548152906001019060200180831161347057829003601f168201915b5050505050908060020180546134a290614431565b80601f01602080910402602001604051908101604052809291908181526020018280546134ce90614431565b801561351b5780601f106134f05761010080835404028352916020019161351b565b820191906000526020600020905b8154815290600101906020018083116134fe57829003601f168201915b5050505050908060030160009054906101000a900473ffffffffffffffffffffffffffffffffffffffff16908060070160009054906101000a900460ff16908060070160019054906101000a900460ff16908060080154905087565b600090565b6000600460003373ffffffffffffffffffffffffffffffffffffffff1673ffffffffffffffffffffffffffffffffffffffff168152602001908152602001600020549050600a600382815481106135d6576135d5614341565b5b906000526020600020906008020160050154036135f6576135f56135f9565b5b50565b6000600460003373ffffffffffffffffffffffffffffffffffffffff1673ffffffffffffffffffffffffffffffffffffffff16815260200190815260200160002054905060005b60038054905081101561387d5760006005600083815260200190815260200160002060009054906101000a900473ffffffffffffffffffffffffffffffffffffffff1690508282141580156136cb575060011515600383815481106136a8576136a7614341565b5b906000526020600020906008020160040160009054906101000a900460ff161515145b8015613727575060001515600860008373ffffffffffffffffffffffffffffffffffffffff1673ffffffffffffffffffffffffffffffffffffffff16815260200190815260200160002060009054906101000a900460ff161515145b156138695760011515600860008373ffffffffffffffffffffffffffffffffffffffff1673ffffffffffffffffffffffffffffffffffffffff16815260200190815260200160002060009054906101000a9050505060006003838154811061379257613791614341565b5b9060005260206000209060080201600501819055506000600860003373ffffffffffffffffffffffffffffffffffffffff1673ffffffffffffffffffffffffffffffffffffffff16815260200190815260200160002060006101000a81548160ff02191690831515021790555060006003848154811061381557613814614341565b5b9060005260206000209060080201600501819055507f9d68d9cb21bb6b6ad17bf5d888557d8e6608701a7ae8e598ab75f8e12824bc79338260405161385b929190614ca4565b60405180910390a15061387d565b508080613875906147d5565b915050613640565b5050565b604051806101400160405280600081526020016060815260200160608152602001600073ffffffffffffffffffffffffffffffffffffffff168152602001606081526020016060815260200160608152602001600015158152602001600015158152602001600081525090565b828054828255906000526020600020908101928215613967579160200282015b828111156139665782518260006101000a81548173ffffffffffffffffffffffffffffffffffffffff021916908373ffffffffffffffffffffffffffffffffffffffff1602179055509160200191906001019061390e565b5b5090506139749190613978565b5090565b5b80821115613991576000816000905550600101613979565b5090565b6000604051905090565b600080fd5b600080fd5b6000819050919050565b6139bc816139a9565b81146139c757600080fd5b50565b6000813590506139d9816139b3565b92915050565b6000602082840312156139f5576139f461399f565b5b6000613a03848285016139ca565b91505092915050565b613a15816139a9565b82525050565b6000602082019050613a306000830184613a0c565b92915050565b600081519050919050565b600082825260208201905092915050565b60005b83811015613a70578082015181840152602081019050613a55565b60008484015250505050565b6000601f19601f8301169050919050565b6000613a9882613a36565b613aa28185613a41565b9350613ab2818560208601613a52565b613abb81613a7c565b840191505092915050565b600073ffffffffffffffffffffffffffffffffffffffff82169050919050565b6000613af182613ac6565b9050919050565b613b0181613ae6565b82525050565b60008115159050919050565b613b1c81613b07565b82525050565b6000610120820190508181036000830152613b3d818c613a8d565b90508181036020830152613b51818b613a8d565b9050613b60604083018a613af8565b613b6d6060830189613b13565b613b7a6080830188613a0c565b613b8760a0830187613b13565b613b9460c0830186613a0c565b613ba160e0830185613a0c565b613baf610100830184613a0c565b9a9950505050505050505050565b600080fd5b600080fd5b7f4e487b7100000000000000000000000000000000000000000000000000000000600052604160045260246000fd5b613bff82613a7c565b810181811067ffffffffffffffff82111715613c1e57613c1d613bc7565b5b80604052505050565b6000613c31613995565b9050613c3d8282613bf6565b919050565b600067ffffffffffffffff821115613c5d57613c5c613bc7565b5b613c6682613a7c565b9050602081019050919050565b82818337600083830152505050565b6000613c95613c9084613c42565b613c27565b905082815260208101848484011115613cb157613cb0613bc2565b5b613cbc848285613c73565b509392505050565b600082601f830112613cd957613cd8613bbd565b5b8135613ce9848260208601613c82565b91505092915050565b613cfb81613ae6565b8114613d0657600080fd5b50565b600081359050613d1881613cf2565b92915050565b600080600060608486031215613d3757613d3661399f565b5b600084013567ffffffffffffffff811115613d5557613d546139a4565b5b613d6186828701613cc4565b935050602084013567ffffffffffffffff811115613d8257613d816139a4565b5b613d8e86828701613cc4565b9250506040613d9f86828701613d09565b9150509250925092565b600081519050919050565b600082825260208201905092915050565b6000819050602082019050919050565b613dde816139a9565b82525050565b600082825260208201905092915050565b6000613e0082613a36565b613e0a8185613de4565b9350613e1a818560208601613a52565b613e2381613a7c565b840191505092915050565b613e3781613ae6565b82525050565b600081519050919050565b600082825260208201905092915050565b6000819050602082019050919050565b6000613e758383613e2e565b60208301905092915050565b6000602082019050919050565b6000613e9982613e3d565b613ea38185613e48565b9350613eae83613e59565b8060005b83811015613edf578151613ec68882613e69565b9750613ed183613e81565b925050600181019050613eb2565b5085935050505092915050565b613ef581613b07565b82525050565b600061014083016000830151613f146000860182613dd5565b5060208301518482036020860152613f2c8282613df5565b91505060408301518482036040860152613f468282613df5565b9150506060830151613f5b6060860182613e2e565b5060808301518482036080860152613f738282613e8e565b91505060a083015184820360a0860152613f8d8282613e8e565b91505060c083015184820360c0860152613fa78282613e8e565b91505060e0830151613fbc60e0860182613eec565b50610100830151613fd1610100860182613eec565b50610120830151613fe6610120860182613dd5565b508091505092915050565b6000613ffd8383613efb565b905092915050565b6000602082019050919050565b600061401d82613da9565b6140278185613db4565b93508360208202850161403985613dc5565b8060005b8581101561407557848403895281516140568582613ff1565b945061406183614005565b925060208a0199505060018101905061403d565b50829750879550505050505092915050565b600060208201905081810360008301526140a18184614012565b905092915050565b600080604083850312156140c0576140bf61399f565b5b600083013567ffffffffffffffff8111156140de576140dd6139a4565b5b6140ea85828601613cc4565b925050602083013567ffffffffffffffff81111561410b5761410a6139a4565b5b61411785828601613cc4565b9150509250929050565b60008060006060848603121561413a5761413961399f565b5b6000614148868287016139ca565b935050602084013567ffffffffffffffff811115614169576141686139a4565b5b61417586828701613cc4565b925050604084013567ffffffffffffffff811115614196576141956139a4565b5b6141a286828701613cc4565b9150509250925092565b6000610140830160008301516141c56000860182613dd5565b50602083015184820360208601526141dd8282613df5565b915050604083015184820360408601526141f78282613df5565b915050606083015161420c6060860182613e2e565b50608083015184820360808601526142248282613e8e565b91505060a083015184820360a086015261423e8282613e8e565b91505060c083015184820360c08601526142588282613e8e565b91505060e083015161426d60e0860182613eec565b50610100830151614282610100860182613eec565b50610120830151614297610120860182613dd5565b508091505092915050565b600060208201905081810360008301526142bc81846141ac565b905092915050565b600060e0820190506142d9600083018a613a0c565b81810360208301526142eb8189613a8d565b905081810360408301526142ff8188613a8d565b905061430e6060830187613af8565b61431b6080830186613b13565b61432860a0830185613b13565b61433560c0830184613a0c565b98975050505050505050565b7f4e487b7100000000000000000000000000000000000000000000000000000000600052603260045260246000fd5b7f4f6e6c79206f776e65722063616e2063616c6c20746869732066756e6374696f60008201527f6e00000000000000000000000000000000000000000000000000000000000000602082015250565b60006143cc602183613a41565b91506143d782614370565b604082019050919050565b600060208201905081810360008301526143fb816143bf565b9050919050565b7f4e487b7100000000000000000000000000000000000000000000000000000000600052602260045260246000fd5b6000600282049050600182168061444957607f821691505b60208210810361445c5761445b614402565b5b50919050565b60008190508160005260206000209050919050565b60006020601f8301049050919050565b600082821b905092915050565b6000600883026144c47fffffffffffffffffffffffffffffffffffffffffffffffffffffffffffffffff82614487565b6144ce8683614487565b95508019841693508086168417925050509392505050565b6000819050919050565b600061450b614506614501846139a9565b6144e6565b6139a9565b9050919050565b6000819050919050565b614525836144f0565b61453961453182614512565b848454614494565b825550505050565b600090565b61454e614541565b61455981848461451c565b505050565b5b8181101561457d57614572600082614546565b60018101905061455f565b5050565b601f8211156145c25761459381614462565b61459c84614477565b810160208510156145ab578190505b6145bf6145b785614477565b83018261455e565b50505b505050565b600082821c905092915050565b60006145e5600019846008026145c7565b1980831691505092915050565b60006145fe83836145d4565b9150826002028217905092915050565b61461782613a36565b67ffffffffffffffff8111156146305761462f613bc7565b5b61463a8254614431565b614645828285614581565b600060209050601f8311600181146146785760008415614666578287015190505b61467085826145f2565b8655506146d8565b601f19841661468686614462565b60005b828110156146ae57848901518255600182019150602085019450602081019050614689565b868310156146cb57848901516146c7601f8916826145d4565b8355505b6001600288020188555050505b505050505050565b7f4e487b7100000000000000000000000000000000000000000000000000000000600052601160045260246000fd5b600061471a826139a9565b9150614725836139a9565b925082820390508181111561473d5761473c6146e0565b5b92915050565b7f596f75206d75737420626520612076616c696461746f7220746f20706572666f60008201527f726d2074686520616374696f6e00000000000000000000000000000000000000602082015250565b600061479f602d83613a41565b91506147aa82614743565b604082019050919050565b600060208201905081810360008301526147ce81614792565b9050919050565b60006147e0826139a9565b91507fffffffffffffffffffffffffffffffffffffffffffffffffffffffffffffffff8203614812576148116146e0565b5b600182019050919050565b7f596f75206d757374206265207265676973746572656420746f20706572666f7260008201527f6d2074686520616374696f6e0000000000000000000000000000000000000000602082015250565b6000614879602c83613a41565b91506148848261481d565b604082019050919050565b600060208201905081810360008301526148a88161486c565b9050919050565b60006148ba826139a9565b91506148c5836139a9565b92508282019050808211156148dd576148dc6146e0565b5b92915050565b60006020820190506148f86000830184613af8565b92915050565b7f596f75206d7573742062652074686520617574686f72206f662074686520617260008201527f7469636c6520746f207570646174652069740000000000000000000000000000602082015250565b600061495a603283613a41565b9150614965826148fe565b604082019050919050565b600060208201905081810360008301526149898161494d565b9050919050565b7f41727469636c6520646f6573206e6f7420657869737400000000000000000000600082015250565b60006149c6601683613a41565b91506149d182614990565b602082019050919050565b600060208201905081810360008301526149f5816149b9565b9050919050565b7f596f75206861766520616c7265616479207570766f746564207468697320617260008201527f7469636c65000000000000000000000000000000000000000000000000000000602082015250565b6000614a58602583613a41565b9150614a63826149fc565b604082019050919050565b60006020820190508181036000830152614a8781614a4b565b9050919050565b7f596f75206861766520616c726561647920646f776e766f74656420746869732060008201527f61727469636c6500000000000000000000000000000000000000000000000000602082015250565b6000614aea602783613a41565b9150614af582614a8e565b604082019050919050565b60006020820190508181036000830152614b1981614add565b9050919050565b7f41727469636c652068617320616c7265616479206265656e2076616c6964617460008201527f6564000000000000000000000000000000000000000000000000000000000000602082015250565b6000614b7c602283613a41565b9150614b8782614b20565b604082019050919050565b60006020820190508181036000830152614bab81614b6f565b9050919050565b7f596f75206861766520616c72656164792076616c69646174656420746869732060008201527f61727469636c6500000000000000000000000000000000000000000000000000602082015250565b6000614c0e602783613a41565b9150614c1982614bb2565b604082019050919050565b60006020820190508181036000830152614c3d81614c01565b9050919050565b7f4e487b7100000000000000000000000000000000000000000000000000000000600052601260045260246000fd5b6000614c7e826139a9565b9150614c89836139a9565b925082614c9957614c98614c44565b5b828204905092915050565b6000604082019050614cb96000830185613af8565b614cc66020830184613af8565b939250505056fea264697066735822122070e6047c5a176eb78ca78f49def90398656981ae6e74510e2b793e99128b4c8d64736f6c63430008110033",
    "linkReferences": {},
    "deployedLinkReferences": {}
}