{
  "_format": "hh-sol-artifact-1",
  "contractName": "NewsForumContract",
  "sourceName": "contracts/NewsForum.sol",
  "abi": [
    {
      "inputs": [],
      "stateMutability": "nonpayable",
      "type": "constructor"
    },
    {
      "anonymous": false,
      "inputs": [
        {
          "indexed": false,
          "internalType": "uint256",
          "name": "articleId",
          "type": "uint256"
        },
        {
          "indexed": false,
          "internalType": "address",
          "name": "upvoter",
          "type": "address"
        }
      ],
      "name": "ArticleUpvoted",
      "type": "event"
    },
    {
      "anonymous": false,
      "inputs": [
        {
          "indexed": false,
          "internalType": "uint256",
          "name": "articleId",
          "type": "uint256"
        }
      ],
      "name": "ArticleValidated",
      "type": "event"
    },
    {
      "anonymous": false,
      "inputs": [
        {
          "indexed": false,
          "internalType": "uint256",
          "name": "articleId",
          "type": "uint256"
        },
        {
          "indexed": false,
          "internalType": "address",
          "name": "validator",
          "type": "address"
        }
      ],
      "name": "ArticleValidatedByUser",
      "type": "event"
    },
    {
      "anonymous": false,
      "inputs": [
        {
          "indexed": false,
          "internalType": "address",
          "name": "receiver",
          "type": "address"
        },
        {
          "indexed": false,
          "internalType": "uint256",
          "name": "receiverRewards",
          "type": "uint256"
        },
        {
          "indexed": false,
          "internalType": "uint256",
          "name": "totalReward",
          "type": "uint256"
        }
      ],
      "name": "RewardSummary",
      "type": "event"
    },
    {
      "anonymous": false,
      "inputs": [
        {
          "indexed": false,
          "internalType": "uint256",
          "name": "articleId",
          "type": "uint256"
        },
        {
          "indexed": false,
          "internalType": "address",
          "name": "author",
          "type": "address"
        }
      ],
      "name": "TryGivingPower",
      "type": "event"
    },
    {
      "anonymous": false,
      "inputs": [
        {
          "indexed": false,
          "internalType": "address",
          "name": "fromUser",
          "type": "address"
        },
        {
          "indexed": false,
          "internalType": "address",
          "name": "toUser",
          "type": "address"
        }
      ],
      "name": "ValidationPowerTransferred",
      "type": "event"
    },
    {
      "anonymous": false,
      "inputs": [
        {
          "indexed": false,
          "internalType": "address",
          "name": "User",
          "type": "address"
        }
      ],
      "name": "eligibleValidator",
      "type": "event"
    },
    {
      "inputs": [],
      "name": "NUMBER_OF_VALIDATORS",
      "outputs": [
        {
          "internalType": "uint256",
          "name": "",
          "type": "uint256"
        }
      ],
      "stateMutability": "view",
      "type": "function"
    },
    {
      "inputs": [],
      "name": "VALIDATIONS_REQUIRED",
      "outputs": [
        {
          "internalType": "uint256",
          "name": "",
          "type": "uint256"
        }
      ],
      "stateMutability": "view",
      "type": "function"
    },
    {
      "inputs": [
        {
          "internalType": "string",
          "name": "_title",
          "type": "string"
        },
        {
          "internalType": "string",
          "name": "_content",
          "type": "string"
        }
      ],
      "name": "addArticle",
      "outputs": [],
      "stateMutability": "nonpayable",
      "type": "function"
    },
    {
      "inputs": [
        {
          "internalType": "string",
          "name": "_name",
          "type": "string"
        },
        {
          "internalType": "string",
          "name": "_email",
          "type": "string"
        },
        {
          "internalType": "address",
          "name": "_wallet",
          "type": "address"
        },
        {
          "internalType": "string",
          "name": "_password",
          "type": "string"
        }
      ],
      "name": "addNewUser",
      "outputs": [],
      "stateMutability": "nonpayable",
      "type": "function"
    },
    {
      "inputs": [
        {
          "internalType": "uint256",
          "name": "",
          "type": "uint256"
        }
      ],
      "name": "articles",
      "outputs": [
        {
          "internalType": "uint256",
          "name": "id",
          "type": "uint256"
        },
        {
          "internalType": "string",
          "name": "title",
          "type": "string"
        },
        {
          "internalType": "string",
          "name": "content",
          "type": "string"
        },
        {
          "internalType": "address",
          "name": "author",
          "type": "address"
        },
        {
          "internalType": "bool",
          "name": "isValidated",
          "type": "bool"
        },
        {
          "internalType": "bool",
          "name": "valid",
          "type": "bool"
        },
        {
          "internalType": "uint256",
          "name": "timestamp",
          "type": "uint256"
        },
        {
          "internalType": "bool",
          "name": "validatorsRewardedUponUpvotes",
          "type": "bool"
        }
      ],
      "stateMutability": "view",
      "type": "function"
    },
    {
      "inputs": [
        {
          "internalType": "uint256",
          "name": "articleId",
          "type": "uint256"
        }
      ],
      "name": "downvoteArticle",
      "outputs": [],
      "stateMutability": "nonpayable",
      "type": "function"
    },
    {
      "inputs": [],
      "name": "getAllArticles",
      "outputs": [
        {
          "components": [
            {
              "internalType": "uint256",
              "name": "id",
              "type": "uint256"
            },
            {
              "internalType": "string",
              "name": "title",
              "type": "string"
            },
            {
              "internalType": "string",
              "name": "content",
              "type": "string"
            },
            {
              "internalType": "address",
              "name": "author",
              "type": "address"
            },
            {
              "internalType": "address[]",
              "name": "upvotes",
              "type": "address[]"
            },
            {
              "internalType": "address[]",
              "name": "downvotes",
              "type": "address[]"
            },
            {
              "internalType": "address[]",
              "name": "validators",
              "type": "address[]"
            },
            {
              "internalType": "bool",
              "name": "isValidated",
              "type": "bool"
            },
            {
              "internalType": "bool",
              "name": "valid",
              "type": "bool"
            },
            {
              "internalType": "uint256",
              "name": "timestamp",
              "type": "uint256"
            },
            {
              "internalType": "bool",
              "name": "validatorsRewardedUponUpvotes",
              "type": "bool"
            }
          ],
          "internalType": "struct NewsForumContract.Article[]",
          "name": "",
          "type": "tuple[]"
        }
      ],
      "stateMutability": "view",
      "type": "function"
    },
    {
      "inputs": [],
      "name": "getAllArticlesForValidation",
      "outputs": [
        {
          "components": [
            {
              "internalType": "uint256",
              "name": "id",
              "type": "uint256"
            },
            {
              "internalType": "string",
              "name": "title",
              "type": "string"
            },
            {
              "internalType": "string",
              "name": "content",
              "type": "string"
            },
            {
              "internalType": "address",
              "name": "author",
              "type": "address"
            },
            {
              "internalType": "address[]",
              "name": "upvotes",
              "type": "address[]"
            },
            {
              "internalType": "address[]",
              "name": "downvotes",
              "type": "address[]"
            },
            {
              "internalType": "address[]",
              "name": "validators",
              "type": "address[]"
            },
            {
              "internalType": "bool",
              "name": "isValidated",
              "type": "bool"
            },
            {
              "internalType": "bool",
              "name": "valid",
              "type": "bool"
            },
            {
              "internalType": "uint256",
              "name": "timestamp",
              "type": "uint256"
            },
            {
              "internalType": "bool",
              "name": "validatorsRewardedUponUpvotes",
              "type": "bool"
            }
          ],
          "internalType": "struct NewsForumContract.Article[]",
          "name": "",
          "type": "tuple[]"
        }
      ],
      "stateMutability": "view",
      "type": "function"
    },
    {
      "inputs": [],
      "name": "getAllUsers",
      "outputs": [
        {
          "components": [
            {
              "internalType": "string",
              "name": "name",
              "type": "string"
            },
            {
              "internalType": "string",
              "name": "email",
              "type": "string"
            },
            {
              "internalType": "bool",
              "name": "valid",
              "type": "bool"
            },
            {
              "internalType": "uint256",
              "name": "timestamp",
              "type": "uint256"
            },
            {
              "internalType": "bool",
              "name": "canBeValidator",
              "type": "bool"
            },
            {
              "internalType": "uint256",
              "name": "articlesValidatedSinceLastAppoint",
              "type": "uint256"
            },
            {
              "internalType": "uint256",
              "name": "rewardCount",
              "type": "uint256"
            },
            {
              "internalType": "uint256",
              "name": "articleValidatedCount",
              "type": "uint256"
            },
            {
              "internalType": "bool",
              "name": "isValidator",
              "type": "bool"
            },
            {
              "internalType": "string",
              "name": "password",
              "type": "string"
            }
          ],
          "internalType": "struct NewsForumContract.User[]",
          "name": "",
          "type": "tuple[]"
        }
      ],
      "stateMutability": "view",
      "type": "function"
    },
    {
      "inputs": [],
      "name": "getAllValidatedArticles",
      "outputs": [
        {
          "components": [
            {
              "internalType": "uint256",
              "name": "id",
              "type": "uint256"
            },
            {
              "internalType": "string",
              "name": "title",
              "type": "string"
            },
            {
              "internalType": "string",
              "name": "content",
              "type": "string"
            },
            {
              "internalType": "address",
              "name": "author",
              "type": "address"
            },
            {
              "internalType": "address[]",
              "name": "upvotes",
              "type": "address[]"
            },
            {
              "internalType": "address[]",
              "name": "downvotes",
              "type": "address[]"
            },
            {
              "internalType": "address[]",
              "name": "validators",
              "type": "address[]"
            },
            {
              "internalType": "bool",
              "name": "isValidated",
              "type": "bool"
            },
            {
              "internalType": "bool",
              "name": "valid",
              "type": "bool"
            },
            {
              "internalType": "uint256",
              "name": "timestamp",
              "type": "uint256"
            },
            {
              "internalType": "bool",
              "name": "validatorsRewardedUponUpvotes",
              "type": "bool"
            }
          ],
          "internalType": "struct NewsForumContract.Article[]",
          "name": "",
          "type": "tuple[]"
        }
      ],
      "stateMutability": "view",
      "type": "function"
    },
    {
      "inputs": [
        {
          "internalType": "uint256",
          "name": "articleId",
          "type": "uint256"
        }
      ],
      "name": "getArticleById",
      "outputs": [
        {
          "components": [
            {
              "internalType": "uint256",
              "name": "id",
              "type": "uint256"
            },
            {
              "internalType": "string",
              "name": "title",
              "type": "string"
            },
            {
              "internalType": "string",
              "name": "content",
              "type": "string"
            },
            {
              "internalType": "address",
              "name": "author",
              "type": "address"
            },
            {
              "internalType": "address[]",
              "name": "upvotes",
              "type": "address[]"
            },
            {
              "internalType": "address[]",
              "name": "downvotes",
              "type": "address[]"
            },
            {
              "internalType": "address[]",
              "name": "validators",
              "type": "address[]"
            },
            {
              "internalType": "bool",
              "name": "isValidated",
              "type": "bool"
            },
            {
              "internalType": "bool",
              "name": "valid",
              "type": "bool"
            },
            {
              "internalType": "uint256",
              "name": "timestamp",
              "type": "uint256"
            },
            {
              "internalType": "bool",
              "name": "validatorsRewardedUponUpvotes",
              "type": "bool"
            }
          ],
          "internalType": "struct NewsForumContract.Article",
          "name": "",
          "type": "tuple"
        }
      ],
      "stateMutability": "view",
      "type": "function"
    },
    {
      "inputs": [],
      "name": "getArticleCount",
      "outputs": [
        {
          "internalType": "uint256",
          "name": "",
          "type": "uint256"
        }
      ],
      "stateMutability": "view",
      "type": "function"
    },
    {
      "inputs": [],
      "name": "getMyArticles",
      "outputs": [
        {
          "components": [
            {
              "internalType": "uint256",
              "name": "id",
              "type": "uint256"
            },
            {
              "internalType": "string",
              "name": "title",
              "type": "string"
            },
            {
              "internalType": "string",
              "name": "content",
              "type": "string"
            },
            {
              "internalType": "address",
              "name": "author",
              "type": "address"
            },
            {
              "internalType": "address[]",
              "name": "upvotes",
              "type": "address[]"
            },
            {
              "internalType": "address[]",
              "name": "downvotes",
              "type": "address[]"
            },
            {
              "internalType": "address[]",
              "name": "validators",
              "type": "address[]"
            },
            {
              "internalType": "bool",
              "name": "isValidated",
              "type": "bool"
            },
            {
              "internalType": "bool",
              "name": "valid",
              "type": "bool"
            },
            {
              "internalType": "uint256",
              "name": "timestamp",
              "type": "uint256"
            },
            {
              "internalType": "bool",
              "name": "validatorsRewardedUponUpvotes",
              "type": "bool"
            }
          ],
          "internalType": "struct NewsForumContract.Article[]",
          "name": "",
          "type": "tuple[]"
        }
      ],
      "stateMutability": "view",
      "type": "function"
    },
    {
      "inputs": [
        {
          "internalType": "uint256",
          "name": "articleId",
          "type": "uint256"
        }
      ],
      "name": "getNumberOfDownvotes",
      "outputs": [
        {
          "internalType": "uint256",
          "name": "",
          "type": "uint256"
        }
      ],
      "stateMutability": "view",
      "type": "function"
    },
    {
      "inputs": [
        {
          "internalType": "uint256",
          "name": "articleId",
          "type": "uint256"
        }
      ],
      "name": "getNumberOfUpvotes",
      "outputs": [
        {
          "internalType": "uint256",
          "name": "",
          "type": "uint256"
        }
      ],
      "stateMutability": "view",
      "type": "function"
    },
    {
      "inputs": [
        {
          "internalType": "uint256",
          "name": "userId",
          "type": "uint256"
        }
      ],
      "name": "getUser",
      "outputs": [
        {
          "components": [
            {
              "internalType": "string",
              "name": "name",
              "type": "string"
            },
            {
              "internalType": "string",
              "name": "email",
              "type": "string"
            },
            {
              "internalType": "bool",
              "name": "valid",
              "type": "bool"
            },
            {
              "internalType": "uint256",
              "name": "timestamp",
              "type": "uint256"
            },
            {
              "internalType": "bool",
              "name": "canBeValidator",
              "type": "bool"
            },
            {
              "internalType": "uint256",
              "name": "articlesValidatedSinceLastAppoint",
              "type": "uint256"
            },
            {
              "internalType": "uint256",
              "name": "rewardCount",
              "type": "uint256"
            },
            {
              "internalType": "uint256",
              "name": "articleValidatedCount",
              "type": "uint256"
            },
            {
              "internalType": "bool",
              "name": "isValidator",
              "type": "bool"
            },
            {
              "internalType": "string",
              "name": "password",
              "type": "string"
            }
          ],
          "internalType": "struct NewsForumContract.User",
          "name": "",
          "type": "tuple"
        }
      ],
      "stateMutability": "view",
      "type": "function"
    },
    {
      "inputs": [],
      "name": "getUserCount",
      "outputs": [
        {
          "internalType": "uint256",
          "name": "",
          "type": "uint256"
        }
      ],
      "stateMutability": "view",
      "type": "function"
    },
    {
      "inputs": [
        {
          "internalType": "uint256",
          "name": "articleId",
          "type": "uint256"
        }
      ],
      "name": "giveAwardToValidators",
      "outputs": [],
      "stateMutability": "nonpayable",
      "type": "function"
    },
    {
      "inputs": [],
      "name": "maxNumberOfActiveValidators",
      "outputs": [
        {
          "internalType": "uint256",
          "name": "",
          "type": "uint256"
        }
      ],
      "stateMutability": "view",
      "type": "function"
    },
    {
      "inputs": [],
      "name": "minArticleValidationsToGetValidatorPower",
      "outputs": [
        {
          "internalType": "uint256",
          "name": "",
          "type": "uint256"
        }
      ],
      "stateMutability": "view",
      "type": "function"
    },
    {
      "inputs": [
        {
          "internalType": "uint256",
          "name": "articleId",
          "type": "uint256"
        }
      ],
      "name": "rewardArticleEditor",
      "outputs": [],
      "stateMutability": "nonpayable",
      "type": "function"
    },
    {
      "inputs": [],
      "name": "rewardToEditorUponArticleValidation",
      "outputs": [
        {
          "internalType": "uint256",
          "name": "",
          "type": "uint256"
        }
      ],
      "stateMutability": "view",
      "type": "function"
    },
    {
      "inputs": [],
      "name": "rewardToValidatorsUponReachingUpvotes",
      "outputs": [
        {
          "internalType": "uint256",
          "name": "",
          "type": "uint256"
        }
      ],
      "stateMutability": "view",
      "type": "function"
    },
    {
      "inputs": [],
      "name": "totalRewardCount",
      "outputs": [
        {
          "internalType": "uint256",
          "name": "",
          "type": "uint256"
        }
      ],
      "stateMutability": "view",
      "type": "function"
    },
    {
      "inputs": [
        {
          "internalType": "uint256",
          "name": "articleId",
          "type": "uint256"
        },
        {
          "internalType": "string",
          "name": "_title",
          "type": "string"
        },
        {
          "internalType": "string",
          "name": "_content",
          "type": "string"
        }
      ],
      "name": "updateArticle",
      "outputs": [],
      "stateMutability": "nonpayable",
      "type": "function"
    },
    {
      "inputs": [
        {
          "internalType": "string",
          "name": "_name",
          "type": "string"
        },
        {
          "internalType": "string",
          "name": "_email",
          "type": "string"
        }
      ],
      "name": "updateUser",
      "outputs": [],
      "stateMutability": "nonpayable",
      "type": "function"
    },
    {
      "inputs": [
        {
          "internalType": "uint256",
          "name": "articleId",
          "type": "uint256"
        }
      ],
      "name": "upvoteArticle",
      "outputs": [],
      "stateMutability": "nonpayable",
      "type": "function"
    },
    {
      "inputs": [],
      "name": "upvotesCountForAwardToValidator",
      "outputs": [
        {
          "internalType": "uint256",
          "name": "",
          "type": "uint256"
        }
      ],
      "stateMutability": "view",
      "type": "function"
    },
    {
      "inputs": [
        {
          "internalType": "uint256",
          "name": "",
          "type": "uint256"
        }
      ],
      "name": "users",
      "outputs": [
        {
          "internalType": "string",
          "name": "name",
          "type": "string"
        },
        {
          "internalType": "string",
          "name": "email",
          "type": "string"
        },
        {
          "internalType": "bool",
          "name": "valid",
          "type": "bool"
        },
        {
          "internalType": "uint256",
          "name": "timestamp",
          "type": "uint256"
        },
        {
          "internalType": "bool",
          "name": "canBeValidator",
          "type": "bool"
        },
        {
          "internalType": "uint256",
          "name": "articlesValidatedSinceLastAppoint",
          "type": "uint256"
        },
        {
          "internalType": "uint256",
          "name": "rewardCount",
          "type": "uint256"
        },
        {
          "internalType": "uint256",
          "name": "articleValidatedCount",
          "type": "uint256"
        },
        {
          "internalType": "bool",
          "name": "isValidator",
          "type": "bool"
        },
        {
          "internalType": "string",
          "name": "password",
          "type": "string"
        }
      ],
      "stateMutability": "view",
      "type": "function"
    },
    {
      "inputs": [
        {
          "internalType": "uint256",
          "name": "articleId",
          "type": "uint256"
        }
      ],
      "name": "validateArticle",
      "outputs": [],
      "stateMutability": "nonpayable",
      "type": "function"
    },
    {
      "inputs": [
        {
          "internalType": "string",
          "name": "_email",
          "type": "string"
        },
        {
          "internalType": "string",
          "name": "_password",
          "type": "string"
        }
      ],
      "name": "verifyUser",
      "outputs": [
        {
          "internalType": "bool",
          "name": "",
          "type": "bool"
        }
      ],
      "stateMutability": "view",
      "type": "function"
    }
  ],
  "bytecode": "0x608060405260008055600a6001553480156200001a57600080fd5b50600280546001600160a01b031916331790556040805161018081018252600c61014082019081526b24b73b30b634b2102ab9b2b960a11b6101608301528152815160208181018452600080835281840192909252828401829052606083018290526080830182905260a0830182905260c0830182905260e083018290526101008301829052835180850190945260048452630c4c8ccd60e21b9084015261012082019290925260038054600181018255925280519091600a027fc2575a0e9e593c00f959f8c92f12db2869c3395a3b0502d05e2516446f71f85b01908190620001059082620004aa565b50602082015160018201906200011c9082620004aa565b50604082015160028201805491151560ff1992831617905560608301516003830155608083015160048301805491151591831691909117905560a0830151600583015560c0830151600683015560e08301516007830155610100830151600883018054911515919092161790556101208201516009820190620001a09082620004aa565b505050620002176040518060400160405280600581526020016427bbb732b960d91b8152506040518060400160405280600f81526020016e6f776e657240676d61696c2e636f6d60881b81525033604051806040016040528060048152602001630c4c8ccd60e21b8152506200025860201b60201c565b6001600360018154811062000230576200023062000576565b60009182526020909120600a90910201600801805460ff1916911515919091179055620005b4565b604080516101408101825285815260208101859052600191810182905242606082015260006080820181905260a0820181905260c0820181905260e0820181905261010082018190526101208201849052600380549384018155905280519091600a027fc2575a0e9e593c00f959f8c92f12db2869c3395a3b0502d05e2516446f71f85b01908190620002ec9082620004aa565b5060208201516001820190620003039082620004aa565b50604082015160028201805491151560ff1992831617905560608301516003830155608083015160048301805491151591831691909117905560a0830151600583015560c0830151600683015560e08301516007830155610100830151600883018054911515919092161790556101208201516009820190620003879082620004aa565b50506003546200039b91506001906200058c565b6001600160a01b0383166000908152600460205260408120919091556003548391600591620003cd906001906200058c565b815260200190815260200160002060006101000a8154816001600160a01b0302191690836001600160a01b0316021790555050505050565b634e487b7160e01b600052604160045260246000fd5b600181811c908216806200043057607f821691505b6020821081036200045157634e487b7160e01b600052602260045260246000fd5b50919050565b601f821115620004a557600081815260208120601f850160051c81016020861015620004805750805b601f850160051c820191505b81811015620004a1578281556001016200048c565b5050505b505050565b81516001600160401b03811115620004c657620004c662000405565b620004de81620004d784546200041b565b8462000457565b602080601f831160018114620005165760008415620004fd5750858301515b600019600386901b1c1916600185901b178555620004a1565b600085815260208120601f198616915b82811015620005475788860151825594840194600190910190840162000526565b5085821015620005665787850151600019600388901b60f8161c191681555b5050505050600190811b01905550565b634e487b7160e01b600052603260045260246000fd5b81810381811115620005ae57634e487b7160e01b600052601160045260246000fd5b92915050565b61450b80620005c46000396000f3fe608060405234801561001057600080fd5b50600436106101a55760003560e01c8063b0467deb116100ef578063dc19628e11610092578063dc19628e14610349578063dd4a24251461035c578063e2842d791461036f578063e899d5ff14610384578063eb9f825a1461038c578063ec09e6ad14610395578063edcfafe6146103a8578063fc8b5108146101e557600080fd5b8063b0467deb146102e5578063b44d310b14610305578063b5cb15f71461030d578063b5df05fc14610315578063c8cb48de1461031d578063cdbdb31a14610325578063ce45032e1461032e578063db7317771461034157600080fd5b80636e346113116101575780636e346113146102615780636ec67ec9146102695780638342fb431461027c5780638867041214610284578063892cd3991461029757806395de67361461029f578063a217de60146102bf578063abd7cdde146102d257600080fd5b80631ce0639f146101aa5780632d169b79146101bf5780632ecb8cb4146101e5578063365b98b2146101ed5780633c9ed03c146102165780633f360b4114610229578063641cabec1461024c575b600080fd5b6101bd6101b8366004613b36565b6103cf565b005b6101d26101cd366004613b36565b61059c565b6040519081526020015b60405180910390f35b6101d2600181565b6102006101fb366004613b36565b6105cb565b6040516101dc9a99989796959493929190613b95565b6101bd610224366004613b36565b6107d7565b61023c610237366004613cb6565b610a08565b60405190151581526020016101dc565b610254610aca565b6040516101dc9190613e44565b6101d2600a81565b6101bd610277366004613cb6565b610edd565b6101d2600481565b6101bd610292366004613ea6565b611128565b6101d2600581565b6102b26102ad366004613b36565b6112e9565b6040516101dc9190613f12565b6101bd6102cd366004613b36565b611613565b6101bd6102e0366004613f2c565b6119cf565b6102f86102f3366004613b36565b611b72565b6040516101dc919061408f565b610254611e82565b6003546101d2565b610254612185565b610254612595565b6101d260005481565b6101bd61033c366004613b36565b61293e565b6101d2600381565b6101bd610357366004613b36565b612bff565b6101bd61036a366004613cb6565b61327e565b61037761339c565b6040516101dc91906140a2565b6006546101d2565b6101d260015481565b6101d26103a3366004613b36565b613602565b6103bb6103b6366004613b36565b613631565b6040516101dc9897969594939291906140f7565b6000600682815481106103e4576103e461415c565b600091825260208083206003600a909302018201546001600160a01b03168084526004909152604090922054815492935091600191908390811061042a5761042a61415c565b90600052602060002090600a0201600601546104469190614188565b600382815481106104595761045961415c565b90600052602060002090600a020160060181905550600160005461047d9190614188565b6000819055507f45020be2a916de2ae94afde230be2f7c594eebdd86b7a99dd92852b3a9db136e82600383815481106104b8576104b861415c565b90600052602060002090600a0201600601546000546040516104dc9392919061419b565b60405180910390a160026000546104f391906141bc565b600382815481106105065761050661415c565b90600052602060002090600a02016006015410610597576001600382815481106105325761053261415c565b60009182526020808320600a92909202909101600401805460ff19169315159390931790925582815260059091526040908190205490516000805160206144b68339815191529161058e916001600160a01b03909116906141de565b60405180910390a15b505050565b6000600682815481106105b1576105b161415c565b600091825260209091206004600a90920201015492915050565b600381815481106105db57600080fd5b90600052602060002090600a02016000915090508060000180546105fe906141f2565b80601f016020809104026020016040519081016040528092919081815260200182805461062a906141f2565b80156106775780601f1061064c57610100808354040283529160200191610677565b820191906000526020600020905b81548152906001019060200180831161065a57829003601f168201915b50505050509080600101805461068c906141f2565b80601f01602080910402602001604051908101604052809291908181526020018280546106b8906141f2565b80156107055780601f106106da57610100808354040283529160200191610705565b820191906000526020600020905b8154815290600101906020018083116106e857829003601f168201915b50505060028401546003850154600486015460058701546006880154600789015460088a015460098b0180549a9b60ff9889169b979a50958816985093969295919492169290610754906141f2565b80601f0160208091040260200160405190810160405280929190818152602001828054610780906141f2565b80156107cd5780601f106107a2576101008083540402835291602001916107cd565b820191906000526020600020905b8154815290600101906020018083116107b057829003601f168201915b505050505090508a565b60005b600682815481106107ed576107ed61415c565b90600052602060002090600a020160060180549050811015610a045760006006838154811061081e5761081e61415c565b90600052602060002090600a020160060182815481106108405761084061415c565b60009182526020808320909101546001600160a01b0316808352600490915260409091205460038054929350909160019190839081106108825761088261415c565b90600052602060002090600a02016006015461089e9190614188565b600382815481106108b1576108b161415c565b90600052602060002090600a02016006018190555060016000546108d59190614188565b6000819055507f45020be2a916de2ae94afde230be2f7c594eebdd86b7a99dd92852b3a9db136e82600383815481106109105761091061415c565b90600052602060002090600a0201600601546000546040516109349392919061419b565b60405180910390a1600260005461094b91906141bc565b6003828154811061095e5761095e61415c565b90600052602060002090600a020160060154106109ef5760016003828154811061098a5761098a61415c565b60009182526020808320600a92909202909101600401805460ff19169315159390931790925582815260059091526040908190205490516000805160206144b6833981519152916109e6916001600160a01b03909116906141de565b60405180910390a15b505080806109fc90614226565b9150506107da565b5050565b6000805b600354811015610abe57838051906020012060038281548110610a3157610a3161415c565b90600052602060002090600a0201600101604051610a4f919061423f565b604051809103902003610aac57828051906020012060038281548110610a7757610a7761415c565b90600052602060002090600a0201600901604051610a95919061423f565b604051809103902003610aac576001915050610ac4565b80610ab681614226565b915050610a0c565b50600090505b92915050565b3360009081526004602052604090205460038054606092908110610af057610af061415c565b600091825260209091206008600a90920201015460ff161515600114610b315760405162461bcd60e51b8152600401610b28906142b5565b60405180910390fd5b6006546000906001600160401b03811115610b4e57610b4e613c14565b604051908082528060200260200182016040528015610b8757816020015b610b74613a53565b815260200190600190039081610b6c5790505b509050600060015b600654811015610ed55760068181548110610bac57610bac61415c565b6000918252602082206007600a90920201015460ff1615159003610ec35760068181548110610bdd57610bdd61415c565b90600052602060002090600a02016040518061016001604052908160008201548152602001600182018054610c11906141f2565b80601f0160208091040260200160405190810160405280929190818152602001828054610c3d906141f2565b8015610c8a5780601f10610c5f57610100808354040283529160200191610c8a565b820191906000526020600020905b815481529060010190602001808311610c6d57829003601f168201915b50505050508152602001600282018054610ca3906141f2565b80601f0160208091040260200160405190810160405280929190818152602001828054610ccf906141f2565b8015610d1c5780601f10610cf157610100808354040283529160200191610d1c565b820191906000526020600020905b815481529060010190602001808311610cff57829003601f168201915b505050918352505060038201546001600160a01b03166020808301919091526004830180546040805182850281018501825282815294019392830182828015610d8e57602002820191906000526020600020905b81546001600160a01b03168152600190910190602001808311610d70575b5050505050815260200160058201805480602002602001604051908101604052809291908181526020018280548015610df057602002820191906000526020600020905b81546001600160a01b03168152600190910190602001808311610dd2575b5050505050815260200160068201805480602002602001604051908101604052809291908181526020018280548015610e5257602002820191906000526020600020905b81546001600160a01b03168152600190910190602001808311610e34575b5050509183525050600782015460ff808216151560208401526101009091048116151560408301526008830154606083015260099092015490911615156080909101528351849084908110610ea957610ea961415c565b60200260200101819052508180610ebf90614226565b9250505b80610ecd81614226565b915050610b8f565b509091505090565b33600090815260046020526040902054600380549091908110610f0257610f0261415c565b600091825260209091206002600a90920201015460ff161515600114610f3a5760405162461bcd60e51b8152600401610b2890614302565b600680546040805161016081018252828152602080820187815282840187905233606084015283516000808252818401865260808501919091528451818152808401865260a0850152845181815292830190945260c083019190915260e082018390526001610100830181905242610120840152610140830184905284018555939091528051600a83027ff652222313e28459528d920b65115c16c04f3efc82aaedc97be59f3f377c0d3f810191825593519293919290917ff652222313e28459528d920b65115c16c04f3efc82aaedc97be59f3f377c0d40019061101f908261439c565b5060408201516002820190611034908261439c565b5060608201516003820180546001600160a01b0319166001600160a01b0390921691909117905560808201518051611076916004840191602090910190613abc565b5060a08201518051611092916005840191602090910190613abc565b5060c082015180516110ae916006840191602090910190613abc565b5060e0820151600780830180546101008087015115150261ff00199415159490941661ffff1990911617929092179091556101208301516008830155610140909201516009909101805491151560ff199290921691909117905560009182526020526040902080546001600160a01b031916331790555050565b3360009081526004602052604090205460038054909190811061114d5761114d61415c565b600091825260209091206002600a90920201015460ff1615156001146111855760405162461bcd60e51b8152600401610b2890614302565b6000838152600760205260409020546001600160a01b031633146112065760405162461bcd60e51b815260206004820152603260248201527f596f75206d7573742062652074686520617574686f72206f66207468652061726044820152711d1a58db19481d1bc81d5c19185d19481a5d60721b6064820152608401610b28565b600683815481106112195761121961415c565b600091825260209091206007600a90920201015460ff6101009091041615156001146112575760405162461bcd60e51b8152600401610b289061445b565b816006848154811061126b5761126b61415c565b90600052602060002090600a02016001019081611288919061439c565b50806006848154811061129d5761129d61415c565b90600052602060002090600a020160020190816112ba919061439c565b5042600684815481106112cf576112cf61415c565b90600052602060002090600a020160080181905550505050565b6112f1613a53565b600682815481106113045761130461415c565b600091825260209091206007600a90920201015460ff6101009091041615156001146113425760405162461bcd60e51b8152600401610b289061445b565b600682815481106113555761135561415c565b90600052602060002090600a02016040518061016001604052908160008201548152602001600182018054611389906141f2565b80601f01602080910402602001604051908101604052809291908181526020018280546113b5906141f2565b80156114025780601f106113d757610100808354040283529160200191611402565b820191906000526020600020905b8154815290600101906020018083116113e557829003601f168201915b5050505050815260200160028201805461141b906141f2565b80601f0160208091040260200160405190810160405280929190818152602001828054611447906141f2565b80156114945780601f1061146957610100808354040283529160200191611494565b820191906000526020600020905b81548152906001019060200180831161147757829003601f168201915b505050918352505060038201546001600160a01b0316602080830191909152600483018054604080518285028101850182528281529401939283018282801561150657602002820191906000526020600020905b81546001600160a01b031681526001909101906020018083116114e8575b505050505081526020016005820180548060200260200160405190810160405280929190818152602001828054801561156857602002820191906000526020600020905b81546001600160a01b0316815260019091019060200180831161154a575b50505050508152602001600682018054806020026020016040519081016040528092919081815260200182805480156115ca57602002820191906000526020600020905b81546001600160a01b031681526001909101906020018083116115ac575b5050509183525050600782015460ff8082161515602084015261010090910481161515604083015260088301546060830152600990920154909116151560809091015292915050565b336000908152600460205260409020546003805490919081106116385761163861415c565b600091825260209091206002600a90920201015460ff1615156001146116705760405162461bcd60e51b8152600401610b2890614302565b600681815481106116835761168361415c565b600091825260209091206007600a90920201015460ff6101009091041615156001146116c15760405162461bcd60e51b8152600401610b289061445b565b60005b600682815481106116d7576116d761415c565b90600052602060002090600a0201600401805490508110156117b457336001600160a01b0316600683815481106117105761171061415c565b90600052602060002090600a020160040182815481106117325761173261415c565b6000918252602090912001546001600160a01b0316036117a25760405162461bcd60e51b815260206004820152602560248201527f596f75206861766520616c7265616479207570766f74656420746869732061726044820152647469636c6560d81b6064820152608401610b28565b806117ac81614226565b9150506116c4565b5060005b600682815481106117cb576117cb61415c565b90600052602060002090600a0201600501805490508110156118a457336001600160a01b0316600683815481106118045761180461415c565b90600052602060002090600a020160050182815481106118265761182661415c565b6000918252602090912001546001600160a01b03160361189257600682815481106118535761185361415c565b90600052602060002090600a020160050181815481106118755761187561415c565b600091825260209091200180546001600160a01b03191690555050565b8061189c81614226565b9150506117b8565b50600681815481106118b8576118b861415c565b600091825260208083206004600a9093020191909101805460018101825590835291200180546001600160a01b031916339081179091556040517f624412f87fce01f1efc8757dd0f01b8db1ef1b8821db35b8800947d87ee65ba1916119209184919061448b565b60405180910390a16006818154811061193b5761193b61415c565b600091825260209091206009600a90920201015460ff16158015611986575060056006828154811061196f5761196f61415c565b90600052602060002090600a020160040180549050145b156119cc57611994816107d7565b6001600682815481106119a9576119a961415c565b60009182526020909120600a90910201600901805460ff19169115159190911790555b50565b604080516101408101825285815260208101859052600191810182905242606082015260006080820181905260a0820181905260c0820181905260e0820181905261010082018190526101208201849052600380549384018155905280519091600a027fc2575a0e9e593c00f959f8c92f12db2869c3395a3b0502d05e2516446f71f85b01908190611a61908261439c565b5060208201516001820190611a76908261439c565b50604082015160028201805491151560ff1992831617905560608301516003830155608083015160048301805491151591831691909117905560a0830151600583015560c0830151600683015560e08301516007830155610100830151600883018054911515919092161790556101208201516009820190611af8908261439c565b5050600354611b0a91506001906144a2565b6001600160a01b0383166000908152600460205260408120919091556003548391600591611b3a906001906144a2565b815260200190815260200160002060006101000a8154816001600160a01b0302191690836001600160a01b0316021790555050505050565b611bce604051806101400160405280606081526020016060815260200160001515815260200160008152602001600015158152602001600081526020016000815260200160008152602001600015158152602001606081525090565b60038281548110611be157611be161415c565b600091825260209091206002600a90920201015460ff161515600114611c3f5760405162461bcd60e51b8152602060048201526013602482015272155cd95c88191bd95cc81b9bdd08195e1a5cdd606a1b6044820152606401610b28565b60038281548110611c5257611c5261415c565b90600052602060002090600a020160405180610140016040529081600082018054611c7c906141f2565b80601f0160208091040260200160405190810160405280929190818152602001828054611ca8906141f2565b8015611cf55780601f10611cca57610100808354040283529160200191611cf5565b820191906000526020600020905b815481529060010190602001808311611cd857829003601f168201915b50505050508152602001600182018054611d0e906141f2565b80601f0160208091040260200160405190810160405280929190818152602001828054611d3a906141f2565b8015611d875780601f10611d5c57610100808354040283529160200191611d87565b820191906000526020600020905b815481529060010190602001808311611d6a57829003601f168201915b5050509183525050600282015460ff9081161515602083015260038301546040830152600483015481161515606083015260058301546080830152600683015460a0830152600783015460c0830152600883015416151560e082015260098201805461010090920191611df9906141f2565b80601f0160208091040260200160405190810160405280929190818152602001828054611e25906141f2565b8015611e725780601f10611e4757610100808354040283529160200191611e72565b820191906000526020600020905b815481529060010190602001808311611e5557829003601f168201915b5050505050815250509050919050565b60606006805480602002602001604051908101604052809291908181526020016000905b8282101561217c57838290600052602060002090600a02016040518061016001604052908160008201548152602001600182018054611ee4906141f2565b80601f0160208091040260200160405190810160405280929190818152602001828054611f10906141f2565b8015611f5d5780601f10611f3257610100808354040283529160200191611f5d565b820191906000526020600020905b815481529060010190602001808311611f4057829003601f168201915b50505050508152602001600282018054611f76906141f2565b80601f0160208091040260200160405190810160405280929190818152602001828054611fa2906141f2565b8015611fef5780601f10611fc457610100808354040283529160200191611fef565b820191906000526020600020905b815481529060010190602001808311611fd257829003601f168201915b505050918352505060038201546001600160a01b0316602080830191909152600483018054604080518285028101850182528281529401939283018282801561206157602002820191906000526020600020905b81546001600160a01b03168152600190910190602001808311612043575b50505050508152602001600582018054806020026020016040519081016040528092919081815260200182805480156120c357602002820191906000526020600020905b81546001600160a01b031681526001909101906020018083116120a5575b505050505081526020016006820180548060200260200160405190810160405280929190818152602001828054801561212557602002820191906000526020600020905b81546001600160a01b03168152600190910190602001808311612107575b5050509183525050600782015460ff80821615156020808501919091526101009092048116151560408401526008840154606084015260099093015490921615156080909101529082526001929092019101611ea6565b50505050905090565b33600090815260046020526040902054600380546060929081106121ab576121ab61415c565b600091825260209091206002600a90920201015460ff1615156001146121e35760405162461bcd60e51b8152600401610b2890614302565b6006546000906001600160401b0381111561220057612200613c14565b60405190808252806020026020018201604052801561223957816020015b612226613a53565b81526020019060019003908161221e5790505b509050600060015b600654811015610ed557336001600160a01b0316600682815481106122685761226861415c565b600091825260209091206003600a9092020101546001600160a01b031603612583576006818154811061229d5761229d61415c565b90600052602060002090600a020160405180610160016040529081600082015481526020016001820180546122d1906141f2565b80601f01602080910402602001604051908101604052809291908181526020018280546122fd906141f2565b801561234a5780601f1061231f5761010080835404028352916020019161234a565b820191906000526020600020905b81548152906001019060200180831161232d57829003601f168201915b50505050508152602001600282018054612363906141f2565b80601f016020809104026020016040519081016040528092919081815260200182805461238f906141f2565b80156123dc5780601f106123b1576101008083540402835291602001916123dc565b820191906000526020600020905b8154815290600101906020018083116123bf57829003601f168201915b505050918352505060038201546001600160a01b0316602080830191909152600483018054604080518285028101850182528281529401939283018282801561244e57602002820191906000526020600020905b81546001600160a01b03168152600190910190602001808311612430575b50505050508152602001600582018054806020026020016040519081016040528092919081815260200182805480156124b057602002820191906000526020600020905b81546001600160a01b03168152600190910190602001808311612492575b505050505081526020016006820180548060200260200160405190810160405280929190818152602001828054801561251257602002820191906000526020600020905b81546001600160a01b031681526001909101906020018083116124f4575b5050509183525050600782015460ff8082161515602084015261010090910481161515604083015260088301546060830152600990920154909116151560809091015283518490849081106125695761256961415c565b6020026020010181905250818061257f90614226565b9250505b8061258d81614226565b915050612241565b6006546060906000906001600160401b038111156125b5576125b5613c14565b6040519080825280602002602001820160405280156125ee57816020015b6125db613a53565b8152602001906001900390816125d35790505b509050600060015b600654811015610ed557600681815481106126135761261361415c565b600091825260209091206007600a90920201015460ff16151560010361292c57600681815481106126465761264661415c565b90600052602060002090600a0201604051806101600160405290816000820154815260200160018201805461267a906141f2565b80601f01602080910402602001604051908101604052809291908181526020018280546126a6906141f2565b80156126f35780601f106126c8576101008083540402835291602001916126f3565b820191906000526020600020905b8154815290600101906020018083116126d657829003601f168201915b5050505050815260200160028201805461270c906141f2565b80601f0160208091040260200160405190810160405280929190818152602001828054612738906141f2565b80156127855780601f1061275a57610100808354040283529160200191612785565b820191906000526020600020905b81548152906001019060200180831161276857829003601f168201915b505050918352505060038201546001600160a01b031660208083019190915260048301805460408051828502810185018252828152940193928301828280156127f757602002820191906000526020600020905b81546001600160a01b031681526001909101906020018083116127d9575b505050505081526020016005820180548060200260200160405190810160405280929190818152602001828054801561285957602002820191906000526020600020905b81546001600160a01b0316815260019091019060200180831161283b575b50505050508152602001600682018054806020026020016040519081016040528092919081815260200182805480156128bb57602002820191906000526020600020905b81546001600160a01b0316815260019091019060200180831161289d575b5050509183525050600782015460ff8082161515602084015261010090910481161515604083015260088301546060830152600990920154909116151560809091015283518490849081106129125761291261415c565b6020026020010181905250818061292890614226565b9250505b8061293681614226565b9150506125f6565b336000908152600460205260409020546003805490919081106129635761296361415c565b600091825260209091206002600a90920201015460ff16151560011461299b5760405162461bcd60e51b8152600401610b2890614302565b600681815481106129ae576129ae61415c565b600091825260209091206007600a90920201015460ff6101009091041615156001146129ec5760405162461bcd60e51b8152600401610b289061445b565b60005b60068281548110612a0257612a0261415c565b90600052602060002090600a020160050180549050811015612ae157336001600160a01b031660068381548110612a3b57612a3b61415c565b90600052602060002090600a02016005018281548110612a5d57612a5d61415c565b6000918252602090912001546001600160a01b031603612acf5760405162461bcd60e51b815260206004820152602760248201527f596f75206861766520616c726561647920646f776e766f74656420746869732060448201526661727469636c6560c81b6064820152608401610b28565b80612ad981614226565b9150506129ef565b5060005b60068281548110612af857612af861415c565b90600052602060002090600a020160040180549050811015612bb457336001600160a01b031660068381548110612b3157612b3161415c565b90600052602060002090600a02016004018281548110612b5357612b5361415c565b6000918252602090912001546001600160a01b031603612ba25760068281548110612b8057612b8061415c565b90600052602060002090600a020160040181815481106118755761187561415c565b80612bac81614226565b915050612ae5565b5060068181548110612bc857612bc861415c565b600091825260208083206005600a9093020191909101805460018101825590835291200180546001600160a01b0319163317905550565b33600090815260046020526040902054600380549091908110612c2457612c2461415c565b600091825260209091206002600a90920201015460ff161515600114612c5c5760405162461bcd60e51b8152600401610b2890614302565b33600090815260046020526040902054600380549091908110612c8157612c8161415c565b600091825260209091206008600a90920201015460ff161515600114612cb95760405162461bcd60e51b8152600401610b28906142b5565b60068181548110612ccc57612ccc61415c565b600091825260209091206007600a90920201015460ff610100909104161515600114612d0a5760405162461bcd60e51b8152600401610b289061445b565b60068181548110612d1d57612d1d61415c565b600091825260209091206007600a90920201015460ff1615612d8c5760405162461bcd60e51b815260206004820152602260248201527f41727469636c652068617320616c7265616479206265656e2076616c69646174604482015261195960f21b6064820152608401610b28565b336001600160a01b031660068281548110612da957612da961415c565b600091825260209091206003600a9092020101546001600160a01b031603612e1f5760405162461bcd60e51b8152602060048201526024808201527f596f752063616e6e6f742076616c696461746520796f7572206f776e2061727460448201526369636c6560e01b6064820152608401610b28565b60005b60068281548110612e3557612e3561415c565b90600052602060002090600a020160060180549050811015612f1457336001600160a01b031660068381548110612e6e57612e6e61415c565b90600052602060002090600a02016006018281548110612e9057612e9061415c565b6000918252602090912001546001600160a01b031603612f025760405162461bcd60e51b815260206004820152602760248201527f596f75206861766520616c72656164792076616c69646174656420746869732060448201526661727469636c6560c81b6064820152608401610b28565b80612f0c81614226565b915050612e22565b5060068181548110612f2857612f2861415c565b600091825260208083206006600a9093020191909101805460018101825590835291200180546001600160a01b031916339081179091556040517f7e434af9cd16facd6cbcb874af7dab924daf4f8ca785da1aba2da615ecdd54e191612f909184919061448b565b60405180910390a133600090815260046020526040902054600380546001919083908110612fc057612fc061415c565b90600052602060002090600a02016005016000828254612fe09190614188565b90915550506006805483908110612ff957612ff961415c565b600091825260209091206007600a90920201015460ff1615801561304f5750613024600260036141bc565b600683815481106130375761303761415c565b90600052602060002090600a02016006018054905010155b15613266576001600683815481106130695761306961415c565b6000918252602091829020600a9190910201600701805460ff1916921515929092179091556040518381527ff21a901d81e7e3a2e486646e684b097c9c7ca9d27ef0b1b3fb01e4ccad81df7d910160405180910390a16130c8826103cf565b6000600683815481106130dd576130dd61415c565b600091825260209091206003600a9092020101546040516001600160a01b0390911691507f64ab81d133265e22374ee8753d918c4b015493b402b4ad81982df1e4a045cfea90613130908590849061448b565b60405180910390a16001600160a01b03811660009081526004602052604090205460038054829081106131655761316561415c565b6000918252602082206007600a909202010180549161318383614226565b91905055506003818154811061319b5761319b61415c565b600091825260209091206004600a90920201015460ff161580156131e457506004600382815481106131cf576131cf61415c565b90600052602060002090600a02016007015410155b15613263576001600382815481106131fe576131fe61415c565b60009182526020808320600a92909202909101600401805460ff19169315159390931790925582815260059091526040908190205490516000805160206144b68339815191529161325a916001600160a01b03909116906141de565b60405180910390a15b50505b61326e6137a8565b60015411610a0457610a04613810565b336000908152600460205260409020546003805490919081106132a3576132a361415c565b600091825260209091206002600a90920201015460ff1615156001146132db5760405162461bcd60e51b8152600401610b2890614302565b60005b600354811015610597578180519060200120600382815481106133035761330361415c565b90600052602060002090600a0201600101604051613321919061423f565b60405180910390200361338a5782600382815481106133425761334261415c565b90600052602060002090600a0201600001908161335f919061439c565b5042600382815481106133745761337461415c565b90600052602060002090600a0201600301819055505b8061339481614226565b9150506132de565b60606003805480602002602001604051908101604052809291908181526020016000905b8282101561217c57838290600052602060002090600a0201604051806101400160405290816000820180546133f4906141f2565b80601f0160208091040260200160405190810160405280929190818152602001828054613420906141f2565b801561346d5780601f106134425761010080835404028352916020019161346d565b820191906000526020600020905b81548152906001019060200180831161345057829003601f168201915b50505050508152602001600182018054613486906141f2565b80601f01602080910402602001604051908101604052809291908181526020018280546134b2906141f2565b80156134ff5780601f106134d4576101008083540402835291602001916134ff565b820191906000526020600020905b8154815290600101906020018083116134e257829003601f168201915b5050509183525050600282015460ff9081161515602083015260038301546040830152600483015481161515606083015260058301546080830152600683015460a0830152600783015460c0830152600883015416151560e082015260098201805461010090920191613571906141f2565b80601f016020809104026020016040519081016040528092919081815260200182805461359d906141f2565b80156135ea5780601f106135bf576101008083540402835291602001916135ea565b820191906000526020600020905b8154815290600101906020018083116135cd57829003601f168201915b505050505081525050815260200190600101906133c0565b6000600682815481106136175761361761415c565b600091825260209091206005600a90920201015492915050565b6006818154811061364157600080fd5b60009182526020909120600a90910201805460018201805491935090613666906141f2565b80601f0160208091040260200160405190810160405280929190818152602001828054613692906141f2565b80156136df5780601f106136b4576101008083540402835291602001916136df565b820191906000526020600020905b8154815290600101906020018083116136c257829003601f168201915b5050505050908060020180546136f4906141f2565b80601f0160208091040260200160405190810160405280929190818152602001828054613720906141f2565b801561376d5780601f106137425761010080835404028352916020019161376d565b820191906000526020600020905b81548152906001019060200180831161375057829003601f168201915b50505060038401546007850154600886015460099096015494956001600160a01b039092169460ff8083169550610100909204821693501688565b600080805b60035481101561380a57600381815481106137ca576137ca61415c565b600091825260209091206008600a90920201015460ff1615156001036137f8576137f5600183614188565b91505b8061380281614226565b9150506137ad565b50919050565b3360009081526004602052604090205460038054600a9190839081106138385761383861415c565b90600052602060002090600a0201600501541015801561386357506002546001600160a01b03163314155b156119cc576119cc3360009081526004602052604090205460015b600354811015610a04576000818152600560205260409020546001600160a01b03168282148015906138db5750600382815481106138be576138be61415c565b600091825260209091206004600a90920201015460ff1615156001145b801561390e5750600382815481106138f5576138f561415c565b600091825260209091206008600a90920201015460ff16155b15613a40576001600383815481106139285761392861415c565b600091825260208220600a9190910201600801805460ff191692151592909217909155600380548490811061395f5761395f61415c565b90600052602060002090600a0201600501819055506000600360046000336001600160a01b03166001600160a01b0316815260200190815260200160002054815481106139ae576139ae61415c565b600091825260208220600a9190910201600801805460ff19169215159290921790915560038054859081106139e5576139e561415c565b90600052602060002090600a0201600501819055507f9d68d9cb21bb6b6ad17bf5d888557d8e6608701a7ae8e598ab75f8e12824bc79338260405161058e9291906001600160a01b0392831681529116602082015260400190565b5080613a4b81614226565b91505061387e565b60405180610160016040528060008152602001606081526020016060815260200160006001600160a01b03168152602001606081526020016060815260200160608152602001600015158152602001600015158152602001600081526020016000151581525090565b828054828255906000526020600020908101928215613b11579160200282015b82811115613b1157825182546001600160a01b0319166001600160a01b03909116178255602090920191600190910190613adc565b50613b1d929150613b21565b5090565b5b80821115613b1d5760008155600101613b22565b600060208284031215613b4857600080fd5b5035919050565b6000815180845260005b81811015613b7557602081850181015186830182015201613b59565b506000602082860101526020601f19601f83011685010191505092915050565b6000610140808352613ba98184018e613b4f565b90508281036020840152613bbd818d613b4f565b90508a1515604084015289606084015288151560808401528760a08401528660c08401528560e0840152841515610100840152828103610120840152613c038185613b4f565b9d9c50505050505050505050505050565b634e487b7160e01b600052604160045260246000fd5b600082601f830112613c3b57600080fd5b81356001600160401b0380821115613c5557613c55613c14565b604051601f8301601f19908116603f01168101908282118183101715613c7d57613c7d613c14565b81604052838152866020858801011115613c9657600080fd5b836020870160208301376000602085830101528094505050505092915050565b60008060408385031215613cc957600080fd5b82356001600160401b0380821115613ce057600080fd5b613cec86838701613c2a565b93506020850135915080821115613d0257600080fd5b50613d0f85828601613c2a565b9150509250929050565b600081518084526020808501945080840160005b83811015613d525781516001600160a01b031687529582019590820190600101613d2d565b509495945050505050565b6000610160825184526020830151816020860152613d7d82860182613b4f565b91505060408301518482036040860152613d978282613b4f565b9150506060830151613db460608601826001600160a01b03169052565b5060808301518482036080860152613dcc8282613d19565b91505060a083015184820360a0860152613de68282613d19565b91505060c083015184820360c0860152613e008282613d19565b91505060e0830151613e1660e086018215159052565b5061010083810151151590850152610120808401519085015261014092830151151592909301919091525090565b6000602080830181845280855180835260408601915060408160051b870101925083870160005b82811015613e9957603f19888603018452613e87858351613d5d565b94509285019290850190600101613e6b565b5092979650505050505050565b600080600060608486031215613ebb57600080fd5b8335925060208401356001600160401b0380821115613ed957600080fd5b613ee587838801613c2a565b93506040860135915080821115613efb57600080fd5b50613f0886828701613c2a565b9150509250925092565b602081526000613f256020830184613d5d565b9392505050565b60008060008060808587031215613f4257600080fd5b84356001600160401b0380821115613f5957600080fd5b613f6588838901613c2a565b95506020870135915080821115613f7b57600080fd5b613f8788838901613c2a565b9450604087013591506001600160a01b0382168214613fa557600080fd5b90925060608601359080821115613fbb57600080fd5b50613fc887828801613c2a565b91505092959194509250565b60006101408251818552613fea82860182613b4f565b915050602083015184820360208601526140048282613b4f565b915050604083015161401a604086018215159052565b50606083015160608501526080830151614038608086018215159052565b5060a083015160a085015260c083015160c085015260e083015160e08501526101008084015161406b8287018215159052565b505061012080840151858303828701526140858382613b4f565b9695505050505050565b602081526000613f256020830184613fd4565b6000602080830181845280855180835260408601915060408160051b870101925083870160005b82811015613e9957603f198886030184526140e5858351613fd4565b945092850192908501906001016140c9565b60006101008a83528060208401526141118184018b613b4f565b90508281036040840152614125818a613b4f565b6001600160a01b039890981660608401525050931515608085015291151560a084015260c0830152151560e0909101529392505050565b634e487b7160e01b600052603260045260246000fd5b634e487b7160e01b600052601160045260246000fd5b80820180821115610ac457610ac4614172565b6001600160a01b039390931683526020830191909152604082015260600190565b6000826141d957634e487b7160e01b600052601260045260246000fd5b500490565b6001600160a01b0391909116815260200190565b600181811c9082168061420657607f821691505b60208210810361380a57634e487b7160e01b600052602260045260246000fd5b60006001820161423857614238614172565b5060010190565b600080835461424d816141f2565b60018281168015614265576001811461427a576142a9565b60ff19841687528215158302870194506142a9565b8760005260208060002060005b858110156142a05781548a820152908401908201614287565b50505082870194505b50929695505050505050565b6020808252602d908201527f596f75206d75737420626520612076616c696461746f7220746f20706572666f60408201526c3936903a34329030b1ba34b7b760991b606082015260800190565b6020808252602c908201527f596f75206d757374206265207265676973746572656420746f20706572666f7260408201526b36903a34329030b1ba34b7b760a11b606082015260800190565b601f82111561059757600081815260208120601f850160051c810160208610156143755750805b601f850160051c820191505b8181101561439457828155600101614381565b505050505050565b81516001600160401b038111156143b5576143b5613c14565b6143c9816143c384546141f2565b8461434e565b602080601f8311600181146143fe57600084156143e65750858301515b600019600386901b1c1916600185901b178555614394565b600085815260208120601f198616915b8281101561442d5788860151825594840194600190910190840161440e565b508582101561444b5787850151600019600388901b60f8161c191681555b5050505050600190811b01905550565b602080825260169082015275105c9d1a58db1948191bd95cc81b9bdd08195e1a5cdd60521b604082015260600190565b9182526001600160a01b0316602082015260400190565b81810381811115610ac457610ac461417256fe30ae330d31ec45ea0986fd063ab7352619fa20f5175678a7c577dfa1f4d5a9dea26469706673582212207ec495f2f8beab2cb41ca0dd46d30a4e74d579df6bdc8df48f1b7f258d3160bb64736f6c63430008110033",
  "linkReferences": {},
  "deployedLinkReferences": {}
}